:020000040800F2
:1000000040040020ED01000843130008B10D000872
:100010004113000885020008D916000800000000FE
:100020000000000000000000000000005B16000857
:100030008702000800000000451300085D16000854
:10004000070200080702000807020008070200086C
:100050000702000807020008A502000807020008BE
:10006000070200080702000807020008070200084C
:10007000070200080702000807020008070200083C
:10008000070200080000000007020008070200083D
:10009000070200080702000807020008070200081C
:1000A000070200080702000807020008070200080C
:1000B00007020008070200080702000807020008FC
:1000C00007020008070200080702000807020008EC
:1000D00007020008070200080702000807020008DC
:1000E00007020008070200080702000807020008CC
:1000F00007020008070200080702000800000000CD
:1001000000000000070200080000000007020008CD
:1001100007020008000000000702000807020008AC
:10012000070200080702000807020008070200088B
:10013000070200080000000000000000070200089D
:10014000070200080702000800000000000000008D
:10015000000000000000000000000000000000009F
:10016000000000000000000000000000070200087E
:10017000070200080000000000000000000000006E
:10018000000000000702000800000000000000005E
:10019000000000000000000000000000000000005F
:1001A000000000000000000007020008070200082D
:1001B000070200080702000807020008000000000C
:1001C000000000000702000800000000000000001E
:1001D0000702000807020008DFF80CD000F040F822
:1001E00000480047911A0008400400200648804754
:1001F00006480047FEE7FEE7FEE7FEE7FEE7FEE70C
:10020000FEE7FEE7FEE7FEE7C9160008D901000891
:10021000D2B201E000F8012B491EFBD27047002248
:10022000F6E710B513460A4604461946FFF7F0FFF5
:10023000204610BD30B50B46014600202022012487
:1002400009E021FA02F59D4205D303FA02F5491BA4
:1002500004FA02F52844151EA2F10102F1DC30BDBA
:10026000064C074D06E0E06840F0010394E8070003
:1002700098471034AC42F6D3FFF7B2FF942C000835
:10028000B42C0008FEE77047002240F6B83306E0C1
:100290000021491C89B29942FBD3521C92B282427E
:1002A000F6D37047012000F04BB8000000B587B0CE
:1002B00014216846FFF7B3FF0E48C16C41F00101FD
:1002C000C164C06C694600F00100059001200090F7
:1002D00009480190002002904FF0904000F03CF857
:1002E00001221146062000F08BF9062000F07AF971
:1002F00007B000BD001002400000311070B5044688
:1003000000F014F90546601C02D00448406804441B
:1003100000F00CF9401BA042FAD370BD140000207D
:1003200010B51420FFF7EAFF0449087880F0440074
:100330000870BDE8104000F08BBF000000000020F6
:10034000044910B50A68024202D00860FFF7E8FFCE
:1003500010BD0000140401402DE9FC4FDFF8A0A1FE
:10036000002301250AF1040B03244FF00F0C0BF1BD
:10037000040EBDE005FA03F632406FD04F68012F3E
:1003800005D0022F03D0112F01D0122F17D1D0F892
:1003900008905F0004FA07F829EA08090097D1F8E5
:1003A0000C8008FA07F848EA0908C0F8088047688E
:1003B000B7430E79C6F300169E403E434660C668BA
:1003C0004FEA430804FA08F7BE4301978F6807FA1B
:1003D00008F73743C7604E68022E01D0122E13D1A2
:1003E000DE0800EB86060096366A5F07FF0E0CFA01
:1003F00007F926EA0906D1F8109009FA07F949EA3F
:100400000609009EC6F820900668019FBE430F793A
:1004100007F0030707FA08F7374307604E68F6004E
:1004200065D5384E376E47F001073766366E23F0D4
:10043000030706F001060096334E3E44B146B66807
:100440009F074FEA17780CFA08F7BE43B0F1904FB8
:1004500005D02E4FB84204D1012717E047E000270E
:1004600014E02B4FB84201D102270FE0294FB842C8
:1004700001D103270AE0284FB84201D1042705E043
:10048000264FB84201D1052700E0062707FA08F7F2
:100490003743C9F80870DAF800605746D1F804808D
:1004A00096435FEAC83800D516433E60DBF800602B
:1004B0005F46D1F8048096435FEA883800D516433A
:1004C0003E60DEF800607746D1F8048096435FEA2C
:1004D000C82800D516433E60094F0C373E68D1F856
:1004E000048096435FEA882800D516433E605B1C73
:1004F0000A6832FA03F67FF43DAFBDE8FC8F0000D6
:1005000000040140001002400000014000040048C7
:1005100000080048000C0048001000480014004883
:100520000AB18161704781627047000001488068AC
:10053000704700001400002002488168426811449E
:10054000816070471400002010B50024052000F0E1
:1005500077F8002000F008F808B1012401E000F06D
:1005600025F8204610BD000070B50E4E054600244B
:10057000706898B14FF47A71B1FBF0F00A490968DC
:10058000B1FBF0F000F000FC40B9102D06D20022C3
:100590002946501E00F034F8356000E00124204662
:1005A00070BD000014000020200000200C4808B599
:1005B000016E41F001010166016E01F0010100913F
:1005C000816D41F080518165806D00F08050009018
:1005D000052000F035F8BDE8084000F0A1B80000A3
:1005E00000100240002809DB00F01F0201219140A9
:1005F0004009800000F1E020C0F8001170470000C1
:10060000F0B40E4B1B680C46C3F30223C3F107057D
:10061000042D00D90425191D072901D2002300E06B
:10062000DB1E012606FA05F1491E214099409E4035
:10063000761E16403143F0BC01F064B80CED00E0CA
:10064000064900F0070208684FF6FF03184040EA29
:100650000220034A10430860704700000CED00E0E0
:100660000000FA052B492C4B0A6832214A432B49DA
:1006700040B1B0F5007F086829D020F4C06040F494
:1006800080602CE00868C0F34120022804D051F8B3
:10069000800F20F4807022E0D1F8800020F4807078
:1006A000C1F88000086820F4C06040F40070086061
:1006B000B2FBF3F0401C00E0401E4A69520501D530
:1006C0000028F9D1486940050AD503207047C0F3D6
:1006D0004120022806D051F8800F40F48070086055
:1006E00000207047D1F8800040F48070C1F880008D
:1006F000086820F4C06040F400700860B2FBF3F0BA
:10070000401C00E0401E4A695205DBD50028F9D1A3
:10071000D8E700002000002040420F000070004099
:100720000248816841F48041816070470070004058
:100730002DE9F0470E4605004FF0000725D0DFF801
:10074000AC81D8F8000000F00F00B0420CD2D8F80D
:10075000001021F00F013143C8F80010D8F8000054
:1007600000F00F00B04210D12968614CC80741F277
:10077000883A5AD06868DFF87C91032808D00228AC
:1007800020682DD0400500282CDB0120BDE8F08733
:1007900020688001F9D5E06800F00302E068C0F34A
:1007A0000310401C032A19D0534A00BFB2FBF0F0DB
:1007B000E268C2F306225043E268C2F34162521C6F
:1007C0005200B0FBF2F0484517D9A06810F0F00FC6
:1007D0000CD0880711D5A86840B10EE0474AE5E77C
:1007E0008003D0E700F092F8484506D9A06820F0D1
:1007F000F00040F08000A0608027A068696820F0C9
:1008000003000843A060FFF791FE814606E000BFA9
:10081000FFF78CFEA0EB090151453AD8A068696842
:1008200000F00C00B0EB810FF2D12868810714D5DD
:10083000400703D5A06840F4E060A0602878000776
:1008400005D5A06820F4605040F4E060A060A06886
:10085000A96820F0F000084304E0802F03D1A068CD
:1008600020F0F000A060D8F80010404601F00F0121
:10087000B14216D9016821F00F0131430160FFF741
:1008800055FE074607E000BFFFF750FEC11B51456C
:1008900001D903207AE7D8F8000000F00F00B04239
:1008A000F2D12878400705D5A068E96820F4E06017
:1008B0000843A0602878000706D5A068296920F4BD
:1008C000605040EAC100A06000F020F8A1680C4A26
:1008D000C1F30311515C01F01F01C84009490860D0
:1008E00009480068BDE8F047FFF73EBE002002401F
:1008F0000010024000B4C4040024F40000366E016D
:10090000822C00082000002014000020184910B597
:100910008868C0F381021748012A0BD08A68164BF9
:10092000C2F38102022A06D08A68C2F38102032A36
:1009300003D0002010BD184610BDCA6802F00304A1
:10094000CA68C2F30312521C032C02D0B0FBF2F0AF
:1009500001E0B3FBF2F0CA68C968C2F30622504353
:10096000C1F34161491C4900B0FBF1F010BD00002A
:10097000001002400024F40000366E012DE9F84317
:1009800004007AD02078FA4DC00747D0A868E968FB
:1009900000F00C0001F003010C2802D0082817D049
:1009A00001E0032914D06068B0F5803F17D0B0F59E
:1009B000A02F286817D020F480302860286820F401
:1009C000802028606068E0B1FFF7B0FD064614E0C3
:1009D0002868800322D560680028D2D01EE02868ED
:1009E00040F48030EDE740F480202860F7E700BF56
:1009F000FFF79CFD801B642870D828688003F7D51A
:100A00000CE0FFF793FD064605E000BFFFF78EFD03
:100A1000801B6428F0D828688003F7D420788007EA
:100A20004CD5A868E96800F00C0001F003010C281F
:100A300002D004280DD001E002290AD0E068002885
:100A400028682BD040F480702860FFF76FFD0646C1
:100A500019E02868400502D5E068002891D0686850
:100A6000217C20F0FE4040EA01606860C1480068D7
:100A7000FFF77AFD002800D120E076E1FFF756FD70
:100A8000801B0228B8D828684005F7D56868217C03
:100A900020F0FE4040EA016068600FE020F48070C2
:100AA0002860FFF743FD064605E000BFFFF73EFD67
:100AB000801B0228A0D828684005F7D420780007BA
:100AC00029D560690028D5F8940013D040F00100C2
:100AD000C5F89400FFF72AFD064606E090E000BF47
:100AE000FFF724FD801B022886D8D5F894008007E4
:100AF000F6D510E020F00100C5F89400FFF716FDD0
:100B0000064604E0FFF712FD801B022878D8D5F8CE
:100B100094008007F6D42078400761D5A86D0026A0
:100B2000C00008D4A86D40F08050A865A86D0126CB
:100B300000F08050009090480168C90511D4016808
:100B4000804641F480710160FFF7F0FC074604E045
:100B5000FFF7ECFCC01B022852D8D8F80000C005F3
:100B6000F6D5A068012815D00528D5F8900016D034
:100B700020F00100C5F89000D5F8900020F00400A6
:100B8000C5F89000A06841F28838B8B1FFF7CEFCF4
:100B900007460EE0D5F8900040F00100F0E740F085
:100BA0000400C5F89000F5E7FFF7C0FCC11B414504
:100BB00026D8D5F890008007F6D50CE0FFF7B6FCF4
:100BC000074604E0FFF7B2FCC11B414518D8D5F831
:100BD00090008007F6D41EB1A86D20F08050A86563
:100BE0002078800629D5A0690028D5F8980013D070
:100BF00040F00100C5F89800FFF798FC064606E0B3
:100C000077E000BFFFF792FC801B022877D8D5F869
:100C100098008007F6D510E020F00100C5F8980094
:100C2000FFF784FC064604E0FFF780FC801B0228E7
:100C300065D8D5F898008007F6D4E069F0B3A968C4
:100C4000C1F38101032961D00228286820F0807057
:100C500028600BD0E86820F00300E860E8684749A6
:100C60000840E860FFF762FC04464BE0FFF75EFCDB
:100C7000064604E0FFF75AFC801B02283FD828688C
:100C80008001F7D4F4E908016FF00F0202EB0111C3
:100C90000843218A5204490802EB4151A26841EA03
:100CA00002210843217D4FF07E42490802EB416159
:100CB0000843217B40EAC160E96800E062E0304A15
:100CC00011400843E860286840F080702860E868B8
:100CD00040F08070E860FFF729FC044605E000BFA3
:100CE000FFF724FC001B022809D828688001F7D5EB
:100CF00048E004E0FFF71AFC001B022802D9032099
:100D0000BDE8F88328688001F4D43BE00128F7D0DF
:100D1000E868226A00F00301914226D1616A00F07E
:100D2000F0020901103991421FD1A26A00F4FE417C
:100D3000B1EB022F19D194F82C2000F07841B1EBDF
:100D4000C26F12D1218E00F4C00249084905A1F5F5
:100D50000011914209D194F8341000F0C0604908A4
:100D60004906A1F1007181420CD00120C8E70000C2
:100D7000001002401400002000700040FFFFEEFE53
:100D80000C809F010020BBE710B5401EB0F1807FB2
:100D900001D3012010BD4FF0E02460610F216017E6
:100DA00000F0B0FC0020A06107202061002010BDF1
:100DB000FEE7000000B585B014216846FFF72FFA62
:100DC0004FF6FF70009000200321CDE90201019051
:100DD00069460248FFF7C0FA05B000BD00080048A8
:100DE00000B585B014216846FFF719FA4FF6FF7079
:100DF000009001200190032003900020029069469A
:100E00000248FFF7A9FA05B000BD0000000800483D
:100E100070B5002406462146204600F075F900F022
:100E2000B3F94FF49635304600F082F9641CAC42B9
:100E3000F9D370BD30B587B014216846FFF7EFF9DC
:100E40001E48C16C41F00401C164C16C01F0040191
:100E50000591C16C41F00101C164C16C01F0010157
:100E60000591C16C41F00201C164C06C012500F024
:100E7000020005904FF44870CDE90005002403946A
:100E8000694602940E48FFF767FA2802039400901F
:100E9000CDE901544FF0904469462046FFF75CFAD3
:100EA000FFF79EFFA06940F48070A06104481830ED
:100EB000016841F40871016007B030BD00100240C4
:100EC00000040048203AD2B2034B02EB420203EB8B
:100ED000021200F019B80000B21A0008F0B50E4670
:100EE0000746002540F23F1407E021463846FFF749
:100EF000E9FF103C6D1CA4B2761C3278002A01D0A8
:100F0000142DF2D3F0BD00002DE9F04791468A463A
:100F10000026044600F0F8F8DFF84080012700BF03
:100F200000F032F95FF0000539F8160007FA05F114
:100F30000842404601D1408800E0008800F0F8F8FF
:100F40006D1C102DF0D3641CE4B25146204600F015
:100F5000DBF8761C182EE3D3BDE8F0870C000020E8
:100F600010B5FFF767FF002000F086F8084CA0805E
:100F7000A088A0F50241303906D000F06DFA0020BB
:100F800000F07AF8A08010BD00F0DDF9F7E700006E
:100F90000C00002010B525490A6825484368D21A7C
:100FA000B2F5967F40D309684160826821A1521C46
:100FB0008260244800F092FB1F2000F09DF84FF65D
:100FC000FF74204600F0ACF81FA10020FFF786FF59
:100FD0001DA11820FFF782FF1A493020FFF77EFF7E
:100FE00019A14820FFF77AFF17A16020FFF776FFCD
:100FF000204600F081F81F2000F092F812A178201E
:10100000FFF76CFF10A19020FFF768FF14A1A82044
:10101000FFF764FF0CA1C020FFF760FFBDE81040A0
:1010200009A1D820FFF75ABF10BD00001C00002006
:101030000000002020205468652069206973202565
:101040002D33640024000020202020202020202098
:101050002020202020202020202020200000000010
:1010600020202057656C636F6D6520546F204169A7
:10107000722020200000000070B51D490A6842F46B
:1010800000720A600A6842F480720A60184C103CD0
:10109000226842F020022260164A1060086840F080
:1010A0002000086000BF00BF00BF206840F02000A3
:1010B0002060206840F480702060FFF77BFE4FF0D6
:1010C0009041886A40F48070886200BF00BF00BF12
:1010D0000848001F006885B2886940F48070886104
:1010E000FFF77EFE206840F400702060284670BD47
:1010F000280400481408004801B5BDF80000014963
:10110000488008BD0C00002010B50C460146202088
:1011100000F068F82146BDE81040212000F062B8D8
:1011200001B5BDF800000149088008BD0C00002091
:10113000134A116841F400711160114910390B68AC
:1011400043F480730B600B6843F020030B600D4B7E
:101150001860106840F02000106000BF00BF00BFA2
:10116000086840F020000860086840F4807008605B
:1011700000BF00BF00BF086840F4007008607047FF
:1011800028040048140800481449086840F4007016
:101190000860086840F480700860104810380268E1
:1011A00042F0200202600E4B22221A600A6842F0CE
:1011B00020020A6000BF00BF00BF016841F02001AB
:1011C0000160016841F48071016000BF00BF00BF91
:1011D000016841F400710160704700002804004874
:1011E00014080048184B10B51A6842F400721A60CF
:1011F0001A6842F480721A60134A103A146844F074
:1012000020041460114C2060186840F02000186021
:1012100000BF00BF00BF106840F0200010601068E1
:1012200040F4807010602160186840F02000186061
:1012300000BF00BF00BF106840F0200010601068C1
:1012400040F48070106010BD280400481408004865
:1012500070B5124D044601224FF6FF712846FFF784
:101260005FF90F4E012204213046FFF759F90022A1
:1012700004213046FFF754F9210200222846FFF7E7
:101280004FF9012204213046FFF74AF93046BDE804
:10129000704000220421FFF743B900000008004815
:1012A000000C0048F0B587B014216846FEF7B7FF80
:1012B0002048C16C41F00401C164C16C01F004011B
:1012C0000591C16C41F02001C164C16C01F02001A5
:1012D0000591C16C41F00801C164C06C164E00F06C
:1012E00008004FF47F440590012221463046FFF765
:1012F00017F9124F012204213846FFF711F9012591
:10130000CDE9004500240294694630460394FFF776
:1013100023F804200090CDE901546946384603942F
:10132000FFF71AF8002204213846FFF7F9F807B052
:10133000F0BD00000010024000080048000C00480A
:10134000FEE7FEE7704730B501210020FFF74AFFB6
:101350004FF47A70FEF798FF00210120FFF742FF5B
:1013600041F290711020FFF73DFF4FF41C516020B7
:10137000FFF738FF01216120FFF734FF02214620EB
:10138000FFF730FF48F210011320FFF72BFF48F260
:10139000FE011220FFF726FF4FF4A0610220FFF7A5
:1013A00021FF41F230010320FFF71CFF40F203341C
:1013B00021463020FFF716FF21463120FFF712FFAC
:1013C00021463220FFF70EFFE51E29463320FFF7A6
:1013D00009FF03213420FFF705FF21463520FFF7E1
:1013E00001FF14213620FFF7FDFE21463720FFF7CD
:1013F000F9FE21463820FFF7F5FE21463920FFF798
:10140000F1FE29463A20FFF7EDFE03213B20FFF7CE
:10141000E9FE21463C20FFF7E5FE4FF4A0513D20B8
:10142000FFF7E0FE4FF400719220FFF7DBFE21464C
:101430009320FFF7D7FE40F60D019020FFF7D2FE74
:1014400041F218010320FFF7CDFEBDE8304040F225
:1014500073110720FFF7C6BE10B543F20801E32061
:10146000FFF7C0FE1221E720FFF7BCFE41F2312159
:10147000EF20FFF7B7FE00210120FFF7B3FE4FF486
:10148000E0610220FFF7AEFE41F230010320FFF7DA
:10149000A9FE00210420FFF7A5FE40F20721082045
:1014A000FFF7A0FE00210920FFF79CFE00210A2083
:1014B000FFF798FE00210C20FFF794FE00210D207D
:1014C000FFF790FE00210F20FFF78CFE0021102077
:1014D000FFF788FE07211120FFF784FE002112206C
:1014E000FFF780FE00211320FFF77CFEC820FEF7E7
:1014F00005FF41F290611020FFF774FE40F22721B2
:101500001120FFF76FFE3220FEF7F8FE1D2112209A
:10151000FFF768FE3220FEF7F1FE4FF40061132062
:10152000FFF760FE14212920FFF75CFE0B212B2022
:10153000FFF758FE3220FEF7E1FE00212020FFF7E2
:1015400051FE00212120FFF74DFE07213020FFF73B
:1015500049FE40F207713120FFF744FE0621322098
:10156000FFF740FE40F204713520FFF73BFE41F6E5
:1015700004713620FFF736FE04213720FFF732FED4
:1015800000213820FFF72EFE40F206713920FFF7C8
:1015900029FE40F201713C20FFF724FE0F213D207F
:1015A000FFF720FE00215020FFF71CFEEF21512005
:1015B000FFF718FE00215220FFF714FE40F23F1102
:1015C0005320FFF70FFE4FF41C516020FFF70AFE77
:1015D00001216120FFF706FE00216A20FFF702FECD
:1015E00000218020FFF7FEFD00218120FFF7FAFD9A
:1015F00000218220FFF7F6FD00218320FFF7F2FD96
:1016000000218420FFF7EEFD00218520FFF7EAFD91
:1016100010219020FFF7E6FD00219220FFF7E2FD68
:1016200003219320FFF7DEFD4FF488719520FFF72B
:10163000D9FD00219720FFF7D5FD00219820FFF765
:10164000D1FD41F218010320FFF7CCFDBDE81040A9
:1016500040F273110720FFF7C5BD7047FEF76CBF5E
:1016600010B594B038216846FEF7D9FD14210EA8B4
:10167000FEF7D5FD4FF40070FEF7F4FF0120009057
:101680000004019002200324CDE907041421CDE9D0
:101690000A100C900D9009946846FFF76FF908B195
:1016A00072B6FEE70F20CDE90E04002010901190D5
:1016B000129002210EA8FFF73BF8002801D072B665
:1016C000FEE714B010BD00000248016841F470014B
:1016D0000160704788ED00E0FEE700000FB4084BA2
:1016E00010B504A902AA039800F02CF8044602A938
:1016F000002000F0C8F9204610BC5DF814FB000083
:10170000871A00080907090E002804DB00F1E02011
:1017100080F80014704700F00F0000F1E02080F81E
:10172000141D704702E008C8121F08C1002AFAD130
:1017300070477047002001E001C1121F002AFBD151
:10174000704700002DE9FF4F8BB088460546002604
:1017500006E025280BD0DDE90D1290476D1C761CA4
:1017600028780028F5D10FB03046BDE8F08F00246E
:10177000A146A2460122AE4900E0044315F8013F0C
:10178000203B02FA03F00842F7D128782A2810D02B
:101790006FF02F022878A0F13001092915D809EB44
:1017A000890102EB410144F0020400EB01096D1CC8
:1017B000F0E758F8041B5FEA010903D544F400542C
:1017C000C9F1000944F002046D1C28782E2817D1B5
:1017D00015F8010F44F004042A280ED06FF02F02F0
:1017E0002878A0F1300109290AD80AEB8A0102EB16
:1017F000410100EB010A6D1CF2E758F804AB6D1CC7
:1018000028786C280FD006DC4C2817D068280DD01B
:101810006A2814D104E0742810D07A280FD10DE082
:1018200044F400140AE044F4801401E044F4401449
:101830006978814202D104F580146D1C6D1C2878F2
:10184000692865D006DC00288DD0632827D064285D
:1018500006D15DE06E2808D073282AD0752877D08D
:10186000DDE90D129047761CE0E0C4F30250022837
:1018700009D003280DD0D8F8001004280DD00E6030
:1018800008F10408D2E0D8F80010F217C1E90062AC
:10189000F6E7D8F800100E80F2E70E70F0E718F8BF
:1018A000041B8DF8001000208DF80100EB4601208C
:1018B00003E058F804BB4FF0FF3061074FF000071A
:1018C00001D40AE07F1C57450DDA8742FADB1BF88A
:1018D00007100029F6D106E07F1C8742FCDB1BF8CD
:1018E00007100029F8D1DDE90D23A9EB0700814697
:1018F000214600F0B1F83044C61904E0DDE90D12CC
:101900001BF8010B90477F1EF8D22146484688E01D
:1019100058F8040BC4F302514FF00A0B032900D10D
:1019200000B2042900D140B2002802DA40422D2141
:1019300002E0210505D52B218DF82410012104E0BA
:1019400006E0E10710D02021F6E708AF089113E088
:1019500058F8040BC4F302514FF00A0B032900D1CD
:1019600080B2042900D1C0B20021EEE75946FEF74B
:1019700061FC303107F8011D0028F7D1ADEB0700FD
:1019800000F1200B600702D524F4803401E04FF011
:10199000010ADA4502DDAAEB0B0000E000208246D6
:1019A00000EB0B0108980144A9EB01000A90E00349
:1019B00006D4DDE90D2321460A9800F04DF80644CF
:1019C0004FF0000908E009A911F80900DDE90D123E
:1019D000904709F10109761C08998945F3DBE0037A
:1019E0000CD5DDE90D2321460A9800F035F80644B0
:1019F00004E0DDE90D1230209047761CBAF10001B9
:101A0000AAF1010AF5DC05E0DDE90D1217F8010B7A
:101A10009047761CBBF10001ABF1010BF4DC0A9896
:101A20002146DDE90D2300F005F806446D1C97E61C
:101A3000092801002DE9F041044600251E461746FD
:101A4000880404D405E039462020B0476D1C641E8C
:101A5000F9D52846BDE8F0812DE9F041044600257E
:101A60001E469046C80301D5302700E02027880491
:101A700004D505E041463846B0476D1C641EF9D5D3
:101A80002846BDE8F0810A68531C0B60107070474F
:101A9000FEF75AFDFFF7E4FDFFF704FCFEF706FC36
:101AA000FFF75EFA1F20FFF7B3F900BFFFF772FAE6
:101AB000FCE7000000000000000000000000000043
:101AC0000000000000000000000000000000000016
:101AD0000000000000000000000000000000000006
:101AE00000000000800180018001800180018001F0
:101AF000800180018001800180018001800100005F
:101B000000008001800100000000000000000000D3
:101B1000000000000000CC00CC00CC00CC00CC00C9
:101B2000CC000000000000000000000000000000E9
:101B300000000000000000000000000000000000A5
:101B40000000000000000000000000000000600C29
:101B5000600C600C30063006FE1FFE1F3006380792
:101B60001803FE1FFE1F180318038C018C018C0143
:101B7000000000008000E003F80F9C0E8C1C8C1805
:101B80008C009800F801E007800E801C8C188C18DF
:101B90009C18B80CF00FE0038000800000000000EB
:101BA00000000000000000000E181B0C110C1106B4
:101BB0001106110311039B018E01C038C06C6044F3
:101BC0006044304430441844186C0C380000000065
:101BD00000000000E001F003380718061806300383
:101BE000F001F000F8009C310E33061E061C061CA6
:101BF000063FFC73F0210000000000000000000020
:101C00000000000000000C000C000C000C000C0098
:101C10000C000000000000000000000000000000B8
:101C200000000000000000000000000000000000B4
:101C300000000000000200038001C000C00060003E
:101C400060003000300030003000300030003000E4
:101C5000300060006000C000C0008001000300028E
:101C60000000000020006000C0008001800100032F
:101C70000003000600060006000600060006000637
:101C800000060003000380018001C0006000200006
:101C90000000000000000000000000000000C00084
:101CA000C000D806F807E001300338070000000044
:101CB0000000000000000000000000000000000024
:101CC0000000000000000000000000000000800193
:101CD0008001800180018001FC3FFC3F8001800188
:101CE0008001800180010000000000000000000071
:101CF00000000000000000000000000000000000E4
:101D000000000000000000000000000000000000D3
:101D1000000000008001800100010001800000003F
:101D200000000000000000000000000000000000B3
:101D300000000000000000000000E007E0070000D5
:101D40000000000000000000000000000000000093
:101D50000000000000000000000000000000000083
:101D60000000000000000000000000000000000073
:101D700000000000C000C0000000000000000000E3
:101D800000000000000C000C000600060006000326
:101D9000000300038003800180018001C000C000B7
:101DA000C0006000600000000000000000000000B3
:101DB00000000000E003F007380E180C0C180C1897
:101DC0000C180C180C180C180C180C180C18180CF3
:101DD000380EF007E00300000000000000000000E3
:101DE0000000000000018001C001F001980188019D
:101DF00080018001800180018001800180018001DB
:101E0000800180018001000000000000000000004F
:101E100000000000E003F80F180C0C180C18001854
:101E20000018000C000600038001C00060003000B4
:101E30001800FC1FFC1F0000000000000000000054
:101E400000000000E001F807180E0C0C0C0C000C50
:101E50000006C003C007000C001800180C180C186E
:101E6000180CF807E003000000000000000000006C
:101E700000000000000C000E000F000F800DC00CD1
:101E8000600C600C300C180C0C0CFC3FFC3F000C80
:101E9000000C000C000C000000000000000000001E
:101EA00000000000F80FF80F180018000C00EC03F9
:101EB000FC071C0E001C0018001800180C181C0C45
:101EC000180EF807E003000000000000000000000A
:101ED00000000000C007F00F381C181818000C0094
:101EE000CC03EC0F3C0E1C1C0C180C180C18181C06
:101EF000380EF007E00300000000000000000000C2
:101F000000000000FC1FFC1F000C00060006000380
:101F100080038001C001C000E0006000600070002C
:101F20003000300030000000000000000000000021
:101F300000000000E003F007380E180C180C180C15
:101F40003806F007F007180C0C180C180C180C18B1
:101F5000380CF80FE0030000000000000000000053
:101F600000000000E003F007380E1C0C0C180C18E1
:101F70000C181C1C381EF81BE0190018000C000C73
:101F80001C0EF807F0010000000000000000000037
:101F900000000000000000000000000000008001C0
:101FA00080010000000000000000000000000000B0
:101FB000000080018001000000000000000000001F
:101FC0000000000000000000000000000000800190
:101FD0008001000000000000000000000000000080
:101FE000000080018001000100018000000000006D
:101FF00000000000000000000000000000000000E1
:1020000000000010001C800FE003F8001800F8002A
:10201000E003800F001C0010000000000000000022
:1020200000000000000000000000000000000000B0
:102030000000F81F000000000000F81F0000000072
:102040000000000000000000000000000000000090
:102050000000000000000000000000000000000080
:10206000000008003800F001C007001F0018001F22
:10207000C007F00138000800000000000000000068
:1020800000000000E003F80F180C0C180C180018E2
:10209000000C000600038001C000C000C00000006A
:1020A0000000C000C00000000000000000000000B0
:1020B000000000000000E00718180420C229224A8E
:1020C000114409440944094409221113E20C024055
:1020D00004201818E00700000000000000000000C5
:1020E0000000000080038003C006C006C006600C2C
:1020F000600C301830183018F83FF83F1C700C6036
:102100000C6006C006C000000000000000000000D7
:1021100000000000FC03FC0F0C0C0C180C180C1831
:102120000C0CFC07FC0F0C180C300C300C300C3075
:102130000C18FC1FFC07000000000000000000005D
:1021400000000000C007F01F38381C300C7006601B
:1021500006000600060006000600060006600C7079
:102160001C30F01FE007000000000000000000002D
:1021700000000000FE03FE0F060E061806180630CB
:1021800006300630063006300630063006180618CF
:10219000060EFE0FFE03000000000000000000001D
:1021A00000000000FC3FFC3F0C000C000C000C0089
:1021B0000C00FC1FFC1F0C000C000C000C000C00A1
:1021C0000C00FC3FFC3F000000000000000000008D
:1021D00000000000F83FF83F180018001800180031
:1021E0001800F81FF81F1800180018001800180031
:1021F0001800180018000000000000000000000097
:1022000000000000E00FF83F3C780E6006E007C0D9
:102210000300030003FE03FE03C007C006C00EC098
:102220003CF0F83FE00F000000000000000000005C
:10223000000000000C300C300C300C300C300C3036
:102240000C30FC3FFC3F0C300C300C300C300C30B0
:102250000C300C300C3000000000000000000000CA
:102260000000000080018001800180018001800168
:102270008001800180018001800180018001800156
:1022800080018001800100000000000000000000CB
:10229000000000000006000600060006000600061A
:1022A00000060006000600060006000618061806CE
:1022B0003807F003E001000000000000000000000B
:1022C0000000000006300618060C0606060386010C
:1022D000C60066007600DE008E0106030606060CC8
:1022E0000618063006600000000000000000000034
:1022F000000000001800180018001800180018004E
:10230000180018001800180018001800180018000D
:102310001800F81FF81F0000000000000000000077
:10232000000000000EE01EF01EF01EF036D836D879
:1023300036D836D866CC66CC66CCC6C6C6C6C6C647
:10234000C6C686C386C3000000000000000000006F
:10235000000000000C301C303C303C306C306C30E5
:10236000CC30CC308C310C330C330C360C360C3C6E
:102370000C3C0C380C300000000000000000000095
:1023800000000000E007F81F1C380E70066003C054
:1023900003C003C003C003C003C003C006600E70C7
:1023A0001C38F81FE00700000000000000000000DB
:1023B00000000000FC0FFC1F0C380C300C300C30FF
:1023C0000C300C18FC1FFC070C000C000C000C005F
:1023D0000C000C000C0000000000000000000000D9
:1023E00000000000E007F81F1C380E70066003E0D4
:1023F00003C003C003C003C003C007E006630E3F71
:102400001C3CF83FE0F700C00000000000000000A6
:1024100000000000FE0FFE1F0638063006300630B2
:102420000638FE1FFE0706030606060C06180618E9
:1024300006300630066000000000000000000000CA
:1024400000000000E003F80F1C0C0C180C180C0026
:102450001C00F803E00F001E0038063006300E3076
:102460001C1CF80FE0070000000000000000000046
:1024700000000000FE7FFE7F80018001800180015E
:102480008001800180018001800180018001800144
:1024900080018001800100000000000000000000B9
:1024A000000000000C300C300C300C300C300C30C4
:1024B0000C300C300C300C300C300C300C300C303C
:1024C0001818F81FE00700000000000000000000DE
:1024D0000000000003600630063006300C180C18AF
:1024E0000C18180C180C380E3006300670076003F4
:1024F0006003C001C00100000000000000000000F7
:10250000000000000360C361C361C36166336633CA
:1025100066336633663366336C1B6C1B6C1B2C1A7C
:102520003C1E380E380E00000000000000000000C5
:10253000000000000FE00C7018303018700C600EB6
:10254000C00780038003C003E006700C301C18181D
:102550000C300E6007E000000000000000000000EA
:102560000000000003C006600C301C383818300C26
:102570006006E007C00380018001800180018001C6
:1025800080018001800100000000000000000000C8
:1025900000000000FC7FFC7F006000300018000C91
:1025A000000600038001C0006000300018000C002D
:1025B0000600FE7FFE7F000000000000000000001B
:1025C00000000000E003E0036000600060006000C5
:1025D00060006000600060006000600060006000FB
:1025E000600060006000600060006000E003E003E5
:1025F0000000000030003000600060006000C0009B
:10260000C000C000C0018001800180010003000300
:1026100000030006000600000000000000000000AB
:1026200000000000E003E0030003000300030003D8
:102630000003000300030003000300030003000382
:10264000000300030003000300030003E003E003B2
:10265000000000000000C001C001600360036003CF
:1026600030063006180C180C0000000000000000B6
:10267000000000000000000000000000000000005A
:10268000000000000000000000000000000000004A
:10269000000000000000000000000000000000003A
:1026A00000000000FFFFFFFF00000000000000002E
:1026B000000000000C000C000C000C000C000C00D2
:1026C000000000000000000000000000000000000A
:1026D00000000000000000000000000000000000FA
:1026E0000000000000000000000000000000F003F7
:1026F000F8071C0C0C0C000FF00FF80C0C0C0C0C59
:102700001C0FF80FF018000000000000000000008F
:102710000000000018001800180018001800D80366
:10272000F80F380C1818181818181818181818183E
:10273000380CF80FD8030000000000000000000073
:102740000000000000000000000000000000C003C6
:10275000F007300E180C1800180018001800180C9C
:10276000300EF007C0030000000000000000000071
:102770000000000000180018001800180018C01B06
:10278000F01F301C181818181818181818181818CE
:10279000301CF01FC01B0000000000000000000003
:1027A0000000000000000000000000000000C00366
:1027B000F00F300C1818F81FF81F18001800381800
:1027C000301CF00FC00700000000000000000000F7
:1027D00000000000800FC00FC000C000C000F00764
:1027E000F007C000C000C000C000C000C000C000B2
:1027F000C000C000C0000000000000000000000099
:102800000000000000000000000000000000E00DDB
:10281000F80F180E0C0C0C0C0C0C0C0C0C0C0C0CFB
:10282000180EF80FE00D000C0C0C1C06F807F00158
:102830000000000018001800180018001800D80741
:10284000F80F381C1818181818181818181818180D
:1028500018181818181800000000000000000000E8
:1028600000000000C000C000000000000000C00028
:10287000C000C000C000C000C000C000C000C00058
:10288000C000C000C0000000000000000000000008
:1028900000000000C000C000000000000000C000F8
:1028A000C000C000C000C000C000C000C000C00028
:1028B000C000C000C000C000C000C000F800780028
:1028C000000000000C000C000C000C000C000C0CB4
:1028D0000C060C038C01CC006C00FC009C018C03EA
:1028E0000C030C060C0C00000000000000000000AF
:1028F00000000000C000C000C000C000C000C00058
:10290000C000C000C000C000C000C000C000C000C7
:10291000C000C000C0000000000000000000000077
:1029200000000000000000000000000000007C3CEF
:10293000FF7EC7E383C183C183C183C183C183C1D8
:1029400083C183C183C100000000000000000000BB
:1029500000000000000000000000000000009807D8
:10296000F80F381C181818181818181818181818EC
:1029700018181818181800000000000000000000C7
:102980000000000000000000000000000000C00384
:10299000F00F300C181818181818181818181818DC
:1029A000300CF00FC0030000000000000000000029
:1029B0000000000000000000000000000000D8033C
:1029C000F80F380C1818181818181818181818189C
:1029D000380CF80FD8031800180018001800180059
:1029E0000000000000000000000000000000C01B0C
:1029F000F01F301C1818181818181818181818185C
:102A0000301CF01FC01B0018001800180018001818
:102A10000000000000000000000000000000B007FF
:102A2000F003700030003000300030003000300023
:102A30003000300030000000000000000000000006
:102A40000000000000000000000000000000E003A3
:102A5000F003380E180C3800F003C007000C180CF7
:102A6000380EF007E0030000000000000000000046
:102A70000000000000008000C000C000C000F0079F
:102A8000F007C000C000C000C000C000C000C0000F
:102A9000C000C00780070000000000000000000028
:102AA00000000000000000000000000000001818F6
:102AB0001818181818181818181818181818181896
:102AC000381CF01FE01900000000000000000000AA
:102AD00000000000000000000000000000000C18D2
:102AE000180C180C180C3006300630066003600312
:102AF0006003C001C00100000000000000000000F1
:102B00000000000000000000000000000000C141C3
:102B1000C141C361636363636363363636363636F9
:102B20001C1C1C1C1C1C00000000000000000000FD
:102B300000000000000000000000000000001C3841
:102B4000381C300C6006600360036003600360069D
:102B5000300C381C1C380000000000000000000091
:102B6000000000000000000000000000000018301D
:102B7000301830187018600C600CE00CC006C006ED
:102B800080038003800380018001C001F000700099
:102B90000000000000000000000000000000FC1F1A
:102BA000FC1F000C000600038001C0006000300024
:102BB0001800FC1FFC1F00000000000000000000C7
:102BC0000000000000038001C000C000C000C00081
:102BD000C000C00060006000300060004000C00025
:102BE000C000C000C000C000C000800100030000A1
:102BF00000000000800180018001800180018001CF
:102C000080018001800180018001800180018001BC
:102C100080018001800180018001800180018001AC
:102C2000000000006000C000C00180018001800140
:102C30008001800100030003000600030001800101
:102C400080018001800180018001C00060000000DF
:102C50000000000000000000000000000000000074
:102C60000000F010F81F080F000000000000000036
:102C70000000000000000000000000000000000054
:102C8000000000000000000000000102030406072D
:102C900008090000B42C00080000002024000000F7
:102CA00024170008D82C0008240000201C04000071
:102CB00034170008000000000000000000000000C1
:102CC0000000FFFF000000001000000001000000F5
:082CD000000000000024F400E4
:04000005080001D915
:00000001FF
