:020000040800F2
:1000000028060020ED0100082F360008DF2900082F
:100010002D360008850900081D4700080000000073
:10002000000000000000000000000000953B0008F8
:10003000870900080000000031360008973B0008DF
:10004000070200080702000807020008070200086C
:10005000070200080702000807020008070200085C
:10006000070200080702000807020008070200084C
:10007000070200080702000807020008070200083C
:10008000070200080000000007020008070200083D
:10009000070200080702000807020008070200081C
:1000A000070200080702000807020008070200080C
:1000B00007020008070200080702000807020008FC
:1000C00007020008070200080702000807020008EC
:1000D000070200081147000807020008070200088D
:1000E0000702000849390008070200080702000853
:1000F00007020008070200080702000800000000CD
:1001000000000000070200080000000007020008CD
:1001100007020008000000000702000807020008AC
:10012000070200080702000807020008070200088B
:10013000070200080000000000000000070200089D
:10014000070200080702000800000000000000008D
:10015000000000000000000000000000000000009F
:10016000000000000000000000000000070200087E
:10017000070200080000000000000000000000006E
:10018000000000000702000800000000000000005E
:10019000000000000000000000000000000000005F
:1001A000000000000000000007020008070200082D
:1001B000070200080702000807020008000000000C
:1001C000000000000702000800000000000000001E
:1001D0000702000807020008DFF80CD000F02AFB35
:1001E0000048004751500008280600200648804774
:1001F00006480047FEE7FEE7FEE7FEE7FEE7FEE70C
:10020000FEE7FEE7FEE7FEE7413C0008D9010008F3
:100210002DE9F05F0546002092469B46884606463B
:10022000814640241BE0284641464746224600F0CE
:1002300085F953465A46C01A914110D311461846C3
:10024000224600F06CF92D1A67EB01084F46224652
:100250000120002100F063F917EB00094E41201E38
:10026000A4F10104DFDC484631462A464346BDE896
:10027000F09FD2B201E000F8012B491EFBD270477B
:100280000022F6E710B513460A4604461946FFF762
:10029000F0FF204610BD2DE9FE4F81EA030404F073
:1002A000004421F0004100944FF0000B23F0004384
:1002B00050EA01045ED052EA03045BD0C3F30A544F
:1002C000C1F30A552C44A4F2F3340194A0FB025468
:1002D000C1F3130141F48011C3F3130343F48013FA
:1002E00001FB024400FB034E840A970A44EA81544E
:1002F00047EA8357A4FB076802958D0A05FB07852B
:100300004FEA932C04FB0C542705029D4FEA065834
:1003100047EA1637B5EB08056EEB070C870E920E11
:1003200047EA811742EA8312A7FB0201B6EB0B01F1
:1003300064EB00042B0D43EA0C335E1844EB1C50B5
:10034000DA465146E7FB0201C5F313044FEA0B33CB
:1003500043EA14534FEA0432019C43EA0603A4F132
:100360000C040294009CCDE900B400F03DF903B008
:10037000BDE8F08F00200146F9E72DE9F04D81EA54
:10038000030404F0004B21F0004514464FF0000A2E
:1003900023F0004150EA050220D054EA01021DD0AA
:1003A000C5F30A570246C5F31303C1F31300C1F3A3
:1003B0000A5640F4801543F48013A7EB0608101B7F
:1003C000D64608F2FD3873EB050002D308F10108A8
:1003D00001E092185B41B8F1000F03DA00200146FA
:1003E000BDE8F08D00204FF48011064684460EE0F3
:1003F000171B73EB050705D3121B63EB05030643BD
:100400004CEA010C49084FEA300092185B4150EA6F
:100410000107EDD152EA030012D082EA040083EA18
:100420000501084305D0101BAB4106D20122002371
:1004300006E000224FF0004302E06FF0010253108B
:100440001AEB06004CEB085110EB0A0041EB0B01D4
:10045000BDE8F04D00F0B9B80EB5C10F80EAE0700C
:100460000844CA07002140F233438DE80E000A46D3
:100470000B4600F0B9F803B000BD0EB540F23341B1
:1004800002910021CDE900110A460B4600F0ACF8BC
:1004900003B000BD00F0004230F000400AD0C10DB2
:1004A00001F56071C0F3160042EA0151C20840072D
:1004B0001143704700200146704701F0004330B4FB
:1004C00021F0004150EA010206D00A0DA2F5607247
:1004D000C1F31301002A02DC30BC00207047440F36
:1004E00044EAC104C100E01830BC00EBC25000F087
:1004F00035B830B50B46014600202022012409E022
:1005000021FA02F59D4205D303FA02F5491B04FACC
:1005100002F52844151EA2F10102F1DC30BD202AAB
:1005200004DB203A00FA02F1002070479140C2F14A
:10053000200320FA03F3194390407047202A04DB7C
:10054000203A21FA02F00021704721FA02F3D0404C
:10055000C2F1200291400843194670470029A8BF04
:100560007047401C490008BF20F00100704710B4DC
:10057000B0FA80FC00FA0CF050EA010404BF10BC91
:10058000704749B1CCF1200421FA04F411FA0CF1BE
:1005900018BF012121430843A3EB0C01CB1D4FEAF7
:1005A00000614FEA102042BF002010BC704700EBF2
:1005B000C35010440029A4BF10BC7047401C490020
:1005C00008BF20F0010010BC704710B5141E73F175
:1005D000000408DA401C41F1000192185B411A4303
:1005E00001D120F0010010BD2DE9F04D92469B464F
:1005F00011B1B1FA81F202E0B0FA80F220329046F5
:10060000FFF78DFF04460F4640EA0A0041EA0B015E
:1006100053465A46084313D0114653EA010019D0F5
:10062000C8F140025046FFF789FF05460E46504686
:1006300059464246FFF773FF084305D0012004E006
:1006400020463946BDE8F08D0020054346EAE076B5
:100650002C4337430A986305E40AA0EB0800002204
:10066000FD0A44EA47540A3002D500200146E9E772
:10067000010510196941DDE9084500196941BDE826
:10068000F04DA2E72DE9FE4F804681EA0300C00F3E
:100690000C46009021F0004123F00045B8EB020029
:1006A000A94105D24046214690461C460B460246CB
:1006B00023F00040104347D0270DC7F30A00C3F3CF
:1006C0000A510290401A019040286BDAC3F31300DC
:1006D00040F4801B0098924620B10023D2EB030A1D
:1006E00063EB0B0B01985946C0F140025046FFF7EF
:1006F00016FF06460D4650465946019A00F0ACF8E2
:1007000010EB08006141002487EA115284EAE77384
:100710001A4340D0009A62B3019A012A4FEA075265
:1007200015DC001B61EB02014FF0004202EA0752A8
:10073000CDE90042001C41F5801132462B46FFF7FF
:1007400053FF03B0BDE8F08F40462146F9E7001B98
:1007500061EB0201001C41F5801300185B41201879
:10076000A2F5001747EB030140EAD570B6196D41B9
:1007700011E06D084FEA360645EAC0754FEA0752A8
:10078000001B61EB0201001C41F5801149084FEA92
:1007900030000019514132462B4603B0BDE8F04FFE
:1007A000FFF713BF0098012240000023D0EB0202A4
:1007B00063EBE073009821464FEAE074B8EB000069
:1007C00061EB0401E9E783F000435BE781F000415E
:1007D00058E7C1F30A52C1F3130140F2FF3341F469
:1007E00080119A4202DA00200146704740F23343FA
:1007F0009A42A2F2334202DC5242FFF79FBEFFF759
:100800008EBE000030B5041E71F1000404DB4FF011
:100810000044404264EB0101141E73F1000405DB47
:100820001C464FF00043524263EB0403994208BF59
:10083000904230BD064C074D06E0E06840F00103F1
:1008400094E8070098471034AC42F6D3FFF7C8FC91
:10085000BC620008DC620008202A06DBCB17203AC5
:1008600041FA02F043EAE07306E041FA02F3D040B5
:10087000C2F12002914008431946704730B589B053
:1008800020216846FFF7FCFC194818490024016044
:100890008902C0E90114C46004250461C0E905456A
:1008A000047744770121016280F82440C462046324
:1008B00080F83840C46380F8404000F08BFA08B1FB
:1008C00000F070F80B4800900620CDE901047F206D
:1008D0000594CDE903056946054800F065F8002850
:1008E00001D000F05FF809B030BD000000010050F9
:1008F000000100200080F03E70B504460068816869
:1009000011F0010F2DD18168174A11421AD1816867
:10091000D5432940491C816000F076FD06461BE066
:10092000816811F0010F03D181682940491C816061
:1009300000F06AFD801B02280ED920680068C043C1
:10094000C00709D0E06D40F01000E065206E40F077
:1009500001002066012070BD20680168C943C907F5
:10096000DED1002070BD00003F00008010B50448BB
:1009700000F05EFB024800F029FA80B210BD0000D2
:1009800000010020FEE77047002240F6B83306E081
:100990000021491C89B29942FBD3521C92B2824277
:1009A000F6D3704772B6FEE72DE9F84F00270446EC
:1009B000009790F85800DFF8E0930D46B8460128FC
:1009C00011D0012684F85860206802F051FC60B113
:1009D000E06D40F02000E0655FF0010784F858808A
:1009E0003846BDE8F88F0220FBE7D5E900210C234B
:1009F000206803EA91131844036B01F01F014FF0C4
:100A00001F0C0CFA01FCC2F3846223EA0C038A4037
:100A100013430363206802F02BFC8246206802F037
:100A200023FC5AEA00003CD1AA6829682068B2F188
:100A3000004F37D002F020FC2068416921F00041CE
:100A4000416120686969C268C2F3C10252009140E5
:100A50002A69042A31D000EB82002B68026EDFF88D
:100A60003CC303F0F84302EA0C020B431A4342F082
:100A70000041016620682A69A96900EB8200026EC4
:100A800022F080720A430266297F226828690129C0
:100A900010D0002102EB8000026E22F000720A43A7
:100AA00002667DE0002202F0E7FB2068416941F028
:100AB0000041C5E74FF00071ECE7002102F0CEFBEA
:100AC000400320684FF0000172D002F0C7FB90FA9B
:100AD000A0F0B0FA80F1286842036ED090FAA0F03E
:100AE000B0FA80F0814204D100221146206802F061
:100AF000D2FB0121206802F0B1FB400320684FF0D7
:100B000001015DD002F0AAFB90FAA0F0B0FA80F1EA
:100B10002868420359D090FAA0F0B0FA80F08142E0
:100B200004D100220121206802F0B5FB02212068D7
:100B300002F094FB400320684FF0020148D002F01D
:100B40008DFB90FAA0F0B0FA80F12868420344D0FF
:100B500090FAA0F0B0FA80F0814204D10022022184
:100B6000206802F098FB0321206802F077FB400325
:100B700020684FF0030133D002F070FB90FAA0F030
:100B8000B0FA80F1286842032FD090FAA0F0B0FAB2
:100B900080F0814204D100220321206802F07BFB17
:100BA0002068816811F0010F22D0ACE000E004E081
:100BB00002F054FBC0F384618DE7C0F3846091E7D9
:100BC00002F04CFBC0F38461A2E7C0F38460A6E7A7
:100BD00002F044FBC0F38461B7E7C0F38460BBE775
:100BE00002F03CFBC0F38461CCE7C0F38460D0E743
:100BF0002A7B296850F8B03FC1F3120C23EA0C039A
:100C000002F0180C664A22FA0CF20A401343036001
:100C1000E968494577D1286841031CD090FAA0F1D2
:100C2000B1FA81F1491C01F01F0109294FEA403155
:100C300032D8002912D000BF90FAA0F1B1FA81F1A8
:100C400001F1010101F01F0106FA01F609D100BF0F
:100C5000C0F3846109E0C0F38461E3E7C0F3846119
:100C6000EEE790FAA0F1B1FA81F101F1010101F092
:100C70001F0146EA816102D1C0F3846003E090FA6B
:100C8000A0F0B0FA80F000F1010000F01F0000EBCE
:100C9000400041EA005132E000290ED090FAA0F164
:100CA000B1FA81F101F1010101F01F0106FA01F62B
:100CB00006D100BFC0F3846106E0C0F38461F1E7B0
:100CC00090FAA0F1B1FA81F101F1010101F01F01E7
:100CD00046EA816102D1C0F3846003E090FAA0F09B
:100CE000B0FA80F000F1010000F01F002D4A00EB87
:100CF000400002EB005041EA000141F00071AA6897
:100D0000206802F0B9FA28482A6802423FF466AE29
:100D100026488168264B01F0E0719A4202D0254BAB
:100D20009A421CD10B021AD42268B2F1A04F7FF470
:100D300055AE826841F4000122F0E0720A438260FD
:100D40001D481E490068B0FBF1F0401C00EB40005C
:100D5000800000E0401E00900028FBD13EE6184DC8
:100D6000184BAA4207D1CD0105D422689A42F5D08A
:100D700041F0807109E0144DAA42EFD14A02EDD44E
:100D800022689A42EAD041F48001826822F0E0723F
:100D90000A43826022E6000000007F4000F0FF036B
:100DA000FFFF0700000020FE000008800003005045
:100DB000000021C31000C09050000020400D03002F
:100DC000000052C700010050000084CB0068006C96
:100DD00070470000F8B54FF0000504002E4600955E
:100DE00002D0E06D10B107E00120F8BD204600F010
:100DF000EFF8266684F8586020688168C1F3407176
:100E000019B181686A4A1140816020688168C1F324
:100E1000007189B98168674A114041F08051816051
:100E2000654866490068B0FBF1F04000801C00E0B6
:100E3000401E00900028FBD120688168C1F300713A
:100E400041B9E16D41F01001E165216E41F0010110
:100E50002166012502F00CFAE16DC90600D430B11B
:100E6000E06D40F01000E06501252846F8BDE06D1A
:100E700020F4807040F00200E0652068806810F087
:100E8000010F11D14FF0A04080684D4900F00100E2
:100E9000896801F00101084306D14A486168826807
:100EA00022F47C120A438260E168E06B627F0843AF
:100EB000A16841EA4231084394F8241040EA014015
:100EC000012904D1218D404A02EB41410843E16AE6
:100ED00029B101F47871226B014342EA01002168D3
:100EE000CA683A4B1A400243CA6020680169626BC3
:100EF00021F0406111430161206802F0B9F9064612
:100F0000206802F0B1F930432ED1207F94F83810D8
:100F1000800340EA41022068C16844F20203994319
:100F20001143C16020690028206801690AD041F49A
:100F300080310161206850F8C01F22696FF30D01F4
:100F4000114307E021F480310161206850F8C01F8F
:100F50006FF30D01016094F8400001280CD0206867
:100F6000016921F001010161606901282068016BBC
:100F700021F00F0111D013E0D4E911010843D4E9A5
:100F800013121143084321680A6940F2FC739A4323
:100F9000104340F001000861E6E7226A521E114347
:100FA0000163E06D20F0020040F00100E0655CE7C5
:100FB000C0FFFF5FC0FFFF7F50000020400D030017
:100FC00000010050000300500000FEFF0740F0FF4A
:100FD00010B586B0044614216846FFF751F911494F
:100FE000206888421BD11048C16C41F40051C16493
:100FF000C16C01F400510591C16C41F00201C16462
:10100000C06C694600F0020005904FF4004000906B
:101010000320019000200290044800F007F906B078
:1010200010BD000000010050001002400004004804
:101030002DE9F04104463848806800F01F0520681B
:1010400002F016F918B102210846BDE8F08194F8C3
:10105000580001280CD0012084F858002046FFF7E2
:101060004BFC01004FF0000304D084F85830EBE74C
:101070000220EAE7E06D40F60162904340F48070A0
:10108000E065264A20684FF0A046904201D13746DD
:1010900000E00746874200D01DB9E76D27F48017AE
:1010A000E765E76DFF0404D5276E27F0060727667E
:1010B00000E023661C27076084F8583020689042BF
:1010C00001D1334600E00346834215D0A5B1052D7A
:1010D00012D0092D10D0E36D43F48013E3659042E4
:1010E00000D13046C0688001AED5E06D20F40050DC
:1010F00040F48050E065A7E7C268920105D5E26D33
:1011000022F4005242F48052E2658268044B1A4095
:10111000121D826098E7000000030050000100509B
:10112000C0FFFF7F10B590F8253000210122022B6F
:1011300003D00421C163012122E003681C6824F06C
:101140000E041C60836C1C6824F480741C600368AB
:101150001C6824F001041C6090F84430046C03F017
:101160001F0302FA03F36360D0E913345C60436D3C
:1011700033B11C6824F480741C60D0E916345C60C0
:1011800080F82520002280F82420084610BD70B584
:1011900090F82520002401212346022A07D00422AA
:1011A000C26380F8251080F82430012429E0026809
:1011B000156825F00E0515600268156825F0010513
:1011C0001560826C156825F48075156090F84420D0
:1011D000056C02F01F0201FA02F26A60D0E91325E1
:1011E0005560426D32B1156825F480751560D0E9FF
:1011F0001625556080F8251080F82430816B01B1E8
:101200008847204670BD000070B5044600F0FCF829
:101210000546601C02D004484068044400F0F4F81D
:10122000401BA042FAD370BD440000202DE9FC4FC2
:10123000DFF8A0A1002301250AF1040B03244FF0DD
:101240000F0C0BF1040EBDE005FA03F632406FD02F
:101250004F68012F05D0022F03D0112F01D0122F7C
:1012600017D1D0F808905F0004FA07F829EA0809B6
:101270000097D1F80C8008FA07F848EA0908C0F886
:1012800008804768B7430E79C6F300169E403E4378
:101290004660C6684FEA430804FA08F7BE43019760
:1012A0008F6807FA08F73743C7604E68022E01D0EF
:1012B000122E13D1DE0800EB86060096366A5F0711
:1012C000FF0E0CFA07F926EA0906D1F8109009FA80
:1012D00007F949EA0609009EC6F820900668019FB2
:1012E000BE430F7907F0030707FA08F73743076093
:1012F0004E68F60065D5384E376E47F00107376601
:10130000366E23F0030706F001060096334E3E4486
:10131000B146B6689F074FEA17780CFA08F7BE4344
:10132000B0F1904F05D02E4FB84204D1012717E0FD
:1013300047E0002714E02B4FB84201D102270FE00D
:10134000294FB84201D103270AE0284FB84201D102
:10135000042705E0264FB84201D1052700E0062703
:1013600007FA08F73743C9F80870DAF800605746FB
:10137000D1F8048096435FEAC83800D516433E6032
:10138000DBF800605F46D1F8048096435FEA883856
:1013900000D516433E60DEF800607746D1F8048041
:1013A00096435FEAC82800D516433E60094F0C37C4
:1013B0003E68D1F8048096435FEA882800D516433A
:1013C0003E605B1C0A6832FA03F67FF43DAFBDE86D
:1013D000FC8F0000000401400010024000000140AA
:1013E0000004004800080048000C004800100048B5
:1013F000001400480069084000D0012070470AB17D
:1014000081617047816270470148806870470000C1
:10141000440000200248816842681144816070479E
:101420004400002010B50024032000F073F80F20C2
:1014300000F008F808B1012401E000F025F820468A
:1014400010BD000070B50E4E05460024706898B1BE
:101450004FF47A71B1FBF0F00A490968B1FBF0F082
:1014600000F0E0FF40B9102D06D200222946501EA0
:1014700000F030F8356000E00124204670BD000027
:1014800044000020500000200A4882B0016E41F064
:1014900001010166016E01F001010091816D41F0D1
:1014A00080518165806D00F08050009002B000F0A6
:1014B000A1B8000000100240002809DB00F01F0264
:1014C000012191404009800000F1E020C0F80011A6
:1014D00070470000F0B40E4B1B680C46C3F30223A8
:1014E000C3F10705042D00D90425191D072901D2D0
:1014F000002300E0DB1E012606FA05F1491E21400B
:1015000099409E40761E16403143F0BC03F01CB952
:101510000CED00E0064900F0070208684FF6FF03F3
:10152000184040EA0220034A104308607047000058
:101530000CED00E00000FA052B492C4B0A68322123
:101540004A432B4940B1B0F5007F086829D020F408
:10155000C06040F480602CE00868C0F3412002289D
:1015600004D051F8800F20F4807022E0D1F8800080
:1015700020F48070C1F88000086820F4C06040F456
:1015800000700860B2FBF3F0401C00E0401E4A69A6
:10159000520501D50028F9D1486940050AD5032034
:1015A0007047C0F34120022806D051F8800F40F464
:1015B0008070086000207047D1F8800040F480708F
:1015C000C1F88000086820F4C06040F40070086032
:1015D000B2FBF3F0401C00E0401E4A695205DBD527
:1015E0000028F9D1D8E700005000002040420F0049
:1015F000007000400248816841F48041816070477A
:10160000007000402DE9F8430446006800269D4D17
:1016100000035ED5A86D0027C00008D4A86D40F077
:101620008050A865A86D012700F080500090DFF879
:101630005892D9F8001041F48071C9F80010FFF7F2
:10164000E3FE804606E000BFFFF7DEFEA0EB0800E9
:1016500002282BD8D9F80000C005F5D5D5F89000A0
:1016600010F4407014D0216C814211D0D5F8900054
:10167000D5F8901020F4407041F48031C5F89010F6
:10168000D5F8901021F48031C5F89010C5F890007D
:10169000C00711D0FFF7B8FE804641F2883907E055
:1016A000FFF7B2FEA0EB0801494501D903260BE084
:1016B000D5F890008007F3D5D5F89000216C20F480
:1016C00040700843C5F890001FB1A86D20F080500D
:1016D000A8652078C00707D0D5F88800616820F099
:1016E00003000843C5F888002078800707D5D5F89F
:1016F0008800A16820F00C000843C5F88800207815
:10170000400707D5D5F88800E16820F0300008438D
:10171000C5F888002078000707D5D5F8880021692A
:1017200020F0C0000843C5F888002078800607D55F
:10173000D5F88800616920F440600843C5F8880046
:101740002078400607D5D5F88800A16920F44050DC
:101750000843C5F888002078000607D5D5F888002A
:10176000E16920F440400843C5F888002088C0059E
:1017700007D5D5F88800216A20F440300843C5F821
:1017800088002088800507D5D5F88800616A20F494
:1017900040200843C5F88800208840050FD5D5F8BB
:1017A0008800A16A20F440100843C5F88800A06AA8
:1017B000B0F5801F03D1E86840F48010E86020880D
:1017C00000050FD5D5F88800E16A20F440000843F1
:1017D000C5F88800E06AB0F5800F03D1E86840F4EE
:1017E0008010E8602088C0040FD5D5F88800216BF0
:1017F00020F040700843C5F88800206BB0F1807F6E
:1018000003D1E86840F48010E86020884FF0006160
:1018100080040ED5D5F88800626B20F0406010433C
:10182000C5F88800606B884203D1E86840F48010F6
:10183000E860208840040ED5D5F88800A26B20F01F
:1018400040601043C5F88800A06B884203D1E86867
:1018500040F48010E860208800040FD5D5F8880097
:10186000E16B20F040500843C5F88800E06BB0F110
:10187000805F03D1E86840F48030E8603046BDE81E
:10188000F883000000100240007000402DE9F0478E
:101890000E4605004FF0000725D0DFF8AC81D8F8E0
:1018A000000000F00F00B0420CD2D8F8001021F078
:1018B0000F013143C8F80010D8F8000000F00F0005
:1018C000B04210D12968614CC80741F2883A5AD019
:1018D0006868DFF87C91032808D0022820682DD0A2
:1018E000400500282CDB0120BDE8F087206880013E
:1018F000F9D5E06800F00302E068C0F30310401C73
:10190000032A19D0534A00BFB2FBF0F0E268C2F3D9
:1019100006225043E268C2F34162521C5200B0FBFF
:10192000F2F0484517D9A06810F0F00F0CD08807E6
:1019300011D5A86840B10EE0474AE5E78003D0E73B
:1019400000F0B6F8484506D9A06820F0F00040F055
:101950008000A0608027A068696820F00300084329
:10196000A060FFF751FD814606E000BFFFF74CFD88
:10197000A0EB090151453AD8A068696800F00C0055
:10198000B0EB810FF2D12868810714D5400703D549
:10199000A06840F4E060A0602878000705D5A06842
:1019A00020F4605040F4E060A060A068A96820F0D6
:1019B000F000084304E0802F03D1A06820F0F0007D
:1019C000A060D8F80010404601F00F01B14216D9CE
:1019D000016821F00F0131430160FFF715FD074653
:1019E00007E000BFFFF710FDC11B514501D90320DF
:1019F0007AE7D8F8000000F00F00B042F2D1287862
:101A0000400705D5A068E96820F4E0600843A060BD
:101A10002878000706D5A068296920F4605040EABC
:101A2000C100A06000F044F8A1680C4AC1F30311A2
:101A3000515C01F01F01C84009490860094800686D
:101A4000BDE8F047FFF7FEBC002002400010024056
:101A500000B4C4040024F40000366E01A46200083F
:101A600050000020440000200548064900688968AD
:101A7000054AC1F30221515C01F01F01C8407047C3
:101A80005000002000100240B462000805480649DA
:101A900000688968054AC1F3C221515C01F01F0149
:101AA000C84070475000002000100240B462000897
:101AB000184910B58868C0F381021748012A0BD075
:101AC0008A68164BC2F38102022A06D08A68C2F3E2
:101AD0008102032A03D0002010BD184610BDCA6839
:101AE00002F00304CA68C2F30312521C032C02D092
:101AF000B0FBF2F001E0B3FBF2F0CA68C968C2F3D0
:101B000006225043C1F34161491C4900B0FBF1F08A
:101B100010BD0000001002400024F40000366E01E9
:101B20002DE9F84304007AD02078FA4DC00747D059
:101B3000A868E96800F00C0001F003010C2802D04D
:101B4000082817D001E0032914D06068B0F5803F61
:101B500017D0B0F5A02F286817D020F48030286067
:101B6000286820F4802028606068E0B1FFF74CFC12
:101B7000064614E02868800322D560680028D2D089
:101B80001EE0286840F48030EDE740F480202860B3
:101B9000F7E700BFFFF738FC801B642870D828687F
:101BA0008003F7D50CE0FFF72FFC064605E000BFE9
:101BB000FFF72AFC801B6428F0D828688003F7D43C
:101BC000207880074CD5A868E96800F00C0001F087
:101BD00003010C2802D004280DD001E002290AD00C
:101BE000E068002828682BD040F480702860FFF758
:101BF0000BFC064619E02868400502D5E06800287D
:101C000091D06868217C20F0FE4040EA0160686065
:101C1000C1480068FFF716FC002800D120E076E1FB
:101C2000FFF7F2FB801B0228B8D828684005F7D5DB
:101C30006868217C20F0FE4040EA016068600FE0A7
:101C400020F480702860FFF7DFFB064605E000BF48
:101C5000FFF7DAFB801B0228A0D828684005F7D4DC
:101C60002078000729D560690028D5F8940013D0A2
:101C700040F00100C5F89400FFF7C6FB064606E0F9
:101C800090E000BFFFF7C0FB801B022886D8D5F884
:101C900094008007F6D510E020F00100C5F894000C
:101CA000FFF7B2FB064604E0FFF7AEFB801B0228FD
:101CB00078D8D5F894008007F6D42078400761D50D
:101CC000A86D0026C00008D4A86D40F08050A8651B
:101CD000A86D012600F08050009090480168C90569
:101CE00011D40168804641F480710160FFF78CFBDC
:101CF000074604E0FFF788FBC01B022852D8D8F83B
:101D00000000C005F6D5A068012815D00528D5F833
:101D1000900016D020F00100C5F89000D5F8900092
:101D200020F00400C5F89000A06841F28838B8B1EE
:101D3000FFF76AFB07460EE0D5F8900040F001007F
:101D4000F0E740F00400C5F89000F5E7FFF75CFB12
:101D5000C11B414526D8D5F890008007F6D50CE088
:101D6000FFF752FB074604E0FFF74EFBC11B41455E
:101D700018D8D5F890008007F6D41EB1A86D20F0D1
:101D80008050A8652078800629D5A0690028D5F85C
:101D9000980013D040F00100C5F89800FFF734FB1D
:101DA000064606E077E000BFFFF72EFB801B022807
:101DB00077D8D5F898008007F6D510E020F001001C
:101DC000C5F89800FFF720FB064604E0FFF71CFB70
:101DD000801B022865D8D5F898008007F6D4E06902
:101DE000F0B3A968C1F38101032961D002282868F2
:101DF00020F0807028600BD0E86820F00300E860D5
:101E0000E86847490840E860FFF7FEFA04464BE0FF
:101E1000FFF7FAFA064604E0FFF7F6FA801B0228FD
:101E20003FD828688001F7D4F4E908016FF00F0269
:101E300002EB01110843218A5204490802EB415187
:101E4000A26841EA02210843217D4FF07E42490801
:101E500002EB41610843217B40EAC160E96800E090
:101E600062E0304A11400843E860286840F0807022
:101E70002860E86840F08070E860FFF7C5FA044623
:101E800005E000BFFFF7C0FA001B022809D8286848
:101E90008001F7D548E004E0FFF7B6FA001B0228FE
:101EA00002D90320BDE8F88328688001F4D43BE020
:101EB0000128F7D0E868226A00F00301914226D198
:101EC000616A00F0F0020901103991421FD1A26A43
:101ED00000F4FE41B1EB022F19D194F82C2000F050
:101EE0007841B1EBC26F12D1218E00F4C0024908D3
:101EF0004905A1F50011914209D194F8341000F080
:101F0000C06049084906A1F1007181420CD001204E
:101F1000C8E70000001002404400002000700040AC
:101F2000FFFFEEFE0C809F010020BBE7704770476B
:101F30002DE9F04781460F4804680F4EDFF83C80DA
:101F4000E0074FF001054FF4003705D03560C8F8C1
:101F500000704846FFF7EBFFA00706D5022030606F
:101F6000C8F800704846FFF7E1FF89F82550BDE842
:101F7000F0870000542800405C2800401404014011
:101F80000F4810B50B4601680E480140080CD87088
:101F9000C1F304245C7001F03F049C70C1F3423132
:101FA000197052B901F0D6FCD870587801F0D2FC03
:101FB0005870987801F0CEFC9870002010BD000099
:101FC000042800403FFFFF00144810B500680B468E
:101FD0004860124808300068C0F30E0088600F485F
:101FE000083801680E480140C1F305401870C1F37C
:101FF00006245C7001F07F049C70890DD97052B981
:1020000001F0A8FC1870587801F0A4FC587098787A
:1020100001F0A0FC9870002010BD000008280040CE
:102020007F7F7F0070B504004FF001003ED094F830
:10203000250028B9002084F82400204600F03CF850
:10204000022084F825001A4ECA20306053203060E8
:10205000204601F095FC10BB154D0C3D2868154934
:102060000840286028686168A26908432169114313
:10207000084328602189E06840EA01400C4914398E
:102080000860204601F0A2FC48B9D4E907211143B9
:1020900062692B6823F060431A4311432960FF21D2
:1020A0003160002802D1012184F8251070BD0000A4
:1020B00024280040BFFF8FFB10B500680949884203
:1020C0000FD1094850F8901F41F4004101600022EF
:1020D00003212920FFF7FEF9BDE810402920FFF772
:1020E000EBB910BD00280040001002402DE9F05F60
:1020F000044690F824000B46012848D04FF0010B0D
:1021000084F824B0022084F825005948002600688D
:102110004FEA4060D2B3002800DBDE70987819786F
:10212000DA7840EA01405978090241EA82510843CD
:1021300093F8201040EA0165D8695F680543586943
:10214000DFF82C910543986909F10C090743CA216E
:10215000C9F800105321C9F800104549586A4431A4
:10216000B0F5807F4248434B4FF40032D0F800C0B6
:102170004FF0FF0A28D02CF4085CC0F800C0022001
:1021800008601A60FFF740F980464EE002E0022046
:10219000BDE8F09F002800DBDE70187801F0E3FB5B
:1021A0000504587801F0DFFB45EA0025987801F036
:1021B000DAFB0543D87845EA805593F8200001F012
:1021C000D2FB45EA0065B7E72CF4885CC0F800C094
:1021D000C1F800B01A60FFF717F9804607E000BFAA
:1021E000FFF712F9A0EB0800B0F57A7F15D8204868
:1021F0000C380068C007F3D01D4828300560001D6A
:1022000007601B48016841F488511CE0FFF7FCF8A7
:10221000A0EB0800B0F57A7F07D9C9F800A0032029
:1022200084F8250084F82460B2E711480C3800686F
:102230008007EBD50E4830300560001D07600C4864
:10224000016841F4085101600A481438016841F4FA
:102250000031016007480C38016841F40031016029
:10226000C9F800A084F825B084F8246000208FE726
:1022700018280040140401402DE9F041044690F86C
:1022800024000B4601281AD0012684F8246002207D
:1022900084F82500B2B19878D97840EA0145587899
:1022A0001978000240EA413005431B4FCA203860CC
:1022B00053203860204601F063FBD8B122E00220B1
:1022C000BDE8F0815878C10603D500F0EF000A3070
:1022D0005870D87801F047FB0504587801F043FBAB
:1022E00045EA0025987801F03EFB0543187845EA59
:1022F0004035DAE7094805400748203805602046A0
:1023000001F064FBFF21396008B984F825600021E1
:1023100084F82410D4E70000242800403FFFFF0089
:102320002DE9F047054690F8240017460C46012891
:1023300014D04FF0010985F82490022085F825007B
:10234000DFF8A480CA21C8F800105321C8F8001093
:10235000284601F015FB002618B127E00220BDE851
:10236000F087214B0C3B18684FEA40601FB30028F0
:1023700000DBE670A0782178E27840EA01406178DD
:10238000090241EA82510843184908401649243994
:102390000860186820F480201860D4E9030108431D
:1023A000196808431860284601F010FBFF22C8F89E
:1023B0000020A0B115E0002800DBE670207801F0D5
:1023C000D2FA0704607801F0CEFA47EA0027A07835
:1023D00001F0C9FA0743E07847EA8050D4E785F86E
:1023E000259085F82460BAE7242800407F7F7F008D
:1023F00070B50B4D286820F020002860FFF704F826
:1024000004464FF47A7606E0FEF7FEFF001BB0426A
:1024100001D9032070BD28688006F5D5002070BD65
:102420000C28004010B5401EB0F1807F01D3012080
:1024300010BD4FF0E02460610F21601702F084F9B5
:102440000020A06107202061002010BD90F88010BE
:10245000012918D0012180F880102421C0F88410AF
:1024600050F8641B0A680B6823F001030B6022F02C
:1024700000510022026050F8643C19602021016282
:10248000027710467047022070477047704770B55A
:10249000044690F8800001281DD0012084F88000B7
:1024A0002420C4F8840020680568026822F0010234
:1024B00002602068826822F060620A4382602046DF
:1024C00001F0C6FB206805602020C4F884000020CD
:1024D00084F8800070BD022070BD70B5044690F88D
:1024E000800001281DD0012084F880002420C4F839
:1024F000840020680568026822F0010202602068FA
:10250000826822F060420A438260204601F0A0FB0C
:10251000206805602020C4F88400002084F8800032
:1025200070BD022070BD7047704770472DE9F041C3
:1025300003680446D86919689A6840F60F0528426E
:102540004FF0000509D186067ED501F0200602F085
:1025500080573E4378D0216FFFE0924E924F164055
:102560000F40374370D0C70709D0CF0507D50127E3
:102570001F62D4F88C3043F00103C4F88C30830719
:102580000AD5D30708D0276802233B62D4F88C30E1
:1025900043F00403C4F88C3043070AD5D30708D0AE
:1025A000276804233B62D4F88C3043F00203C4F85C
:1025B0008C3003070CD501F02003334308D0266884
:1025C00008233362D4F88C3043F00803C4F88C300D
:1025D00003050BD54B0109D526684FF40063336220
:1025E000D4F88C3043F02003C4F88C30D4F88C300D
:1025F000002B34D0800609D501F0200002F0805174
:10260000084303D0216F09B120468847D4F88C00D5
:1026100021688968490602D410F0280F21D020468D
:1026200001F0D6FB20688168490615D5816821F044
:1026300040018160E06F78B15C498163E06FFEF733
:10264000A6FD00280BD000E011E0E06F816B00E0F8
:102650002046BDE8F04108472046FFF766FFBDE889
:10266000F0812046FFF761FFC4F88C50F7E7E76E72
:102670002026012F5CD1C7065AD5CF0658D5102089
:1026800018622068816849062FD5E26F1168496891
:102690000904090CE3D0B4F85C308B42DFD9A4F80C
:1026A0005E1011680968890618D4016821F48071E8
:1026B00001602068816821F00101816020688168E3
:1026C00021F040018160C4F88860E56620680168F7
:1026D00021F010010160E06FFEF724FDB4F85C000A
:1026E000B4F85E10401A81B21EE0B4F85C10B4F881
:1026F0005E20891AB4F85E2089B2002AAFD0002982
:10270000ADD0026822F49072026020688268254B86
:10271000DB431A408260C4F88860E566256720685C
:10272000026822F0100202602046FFF7AEFE96E734
:10273000C70209D5570207D54FF48010186220460A
:10274000BDE8F041FFF7F0BE07060AD501F08007AB
:1027500002F40002174304D0616F00297FF478AFC0
:102760007DE742060CD54A060AD51968204621F0B5
:1027700040011960C4F88460656700F02FF96EE7C6
:10278000020206D54A0004D52046BDE8F041FFF715
:10279000CABEC001CBD50029C9DA2046BDE8F04148
:1027A000FFF774BE0100001020010004BD3D0008C9
:1027B00010B5040003D0D4F8840010B107E0012064
:1027C00010BD002084F88000204600F027F8242067
:1027D000C4F884002068016821F0010101602046EE
:1027E00001F09EFD0128EBD0A06A10B1204601F057
:1027F00051FA2068416821F4904141602068816865
:1028000021F02A0181602068016841F00101016026
:102810002046BDE8104001F0A1BA000010B586B016
:10282000044614216846FDF72BFD174920688842AD
:1028300027D11648016E41F480410166016E01F412
:1028400080410591C16C41F00101C164C06C6946D1
:1028500000F0010005904FF4C0600090022001904C
:10286000002002900390072004904FF09040FEF764
:10287000DDFC002211462520FEF72CFE2520FEF768
:102880001BFE06B010BD00000038014000100240E1
:1028900010B4D0F88830202B1BD1B9B1B2B190F868
:1028A0008030012B15D0012380F880300023C366CF
:1028B000094C0368A34206D05C68240203D51C6857
:1028C00044F080641C6010BC01F064BE012010BCA8
:1028D00070470220FBE70000008000400C490846DA
:1028E000CA7A807A6B2A00D118B10B78012B05D0F7
:1028F00008E0084B1B684B6301230B70064B1A540E
:10290000401C8872024901220B310448FFF7C0BF06
:10291000000000204C0000209C00002094010020BA
:102920002DE9F8430446D0F884001F4616460D46AC
:10293000202851D1DDB1D6B194F8800001284BD0C8
:10294000012084F880004FF00008C4F88C8021201A
:10295000C4F884001834FEF757FDA6878146E68741
:1029600054F8100C183CB0F5805F03D004E001204F
:10297000BDE8F883206920B12E46002584F88080C8
:1029800010E00026FAE78021204601F06FFEB8B97A
:10299000C6B116F8010B21688862B4F85600401ED3
:1029A000A4F85600B4F856004B464FF000020097CA
:1029B0000028E8D14FF04001204601F057FE30B129
:1029C0000320D5E735F8020BC0F30800E3E7202029
:1029D000C4F884000020CBE70220C9E77047FEE777
:1029E00000B585B014216846FDF74AFCC020009070
:1029F0000120019002900220039069460248FEF7F0
:102A000015FC05B000BD00000004004870B50824A6
:102A1000002501F087F813E06806050E002001F09C
:102A200069F8142002F00EFB142002F00BFB0120C9
:102A300001F060F8142002F005FB01F067F805438F
:102A4000641EE4B2E8D2002001F054F8142002F031
:102A5000F9FA01F089F8284670BD70B504460825DA
:102A600016E001F047F8142002F0ECFA04F08000C0
:102A700001F06EF8142002F0E5FA6006040E14204E
:102A800002F0E0FA012001F035F8142002F0DAFA41
:102A90006D1EEDB24FF00000E3D201F02BF8BDE85F
:102AA0007040142002F0CEBA10B5012001F050F8A9
:102AB000142002F0C7FA142002F0C4FA012001F039
:102AC00019F8142002F0BEFA002001F013F8BDE856
:102AD0001040142002F0B6BA10B5012001F038F809
:102AE000142002F0AFFA012001F004F8142002F0E3
:102AF000A9FA002001F02CF8142002F0A3FA00201B
:102B000000F0F8FFBDE81040142002F09BBA10B5A9
:102B1000002000F0EFFF142002F094FA002001F0F2
:102B200017F8142002F08EFA012000F0E3FF1420C1
:102B300002F088FA012001F00BF8BDE810401420E3
:102B400002F080BA10B5052400F0ECFF142002F06A
:102B500079FA012000F0CEFF142002F073FA05E0AC
:102B6000641EA4B2142002F06DFA6CB100F0CEFF26
:102B70000028F5D100F0F8FF002000F0BBFF142082
:102B800002F060FA002010BD00F0EEFFFFF7BFFF7B
:102B9000012010BD10B50446FFF79EFFA020FFF7EF
:102BA0005CFFFFF7CFFF2046FFF757FFFFF7CAFF95
:102BB000FFF792FFA120FFF750FFFFF7C3FFFFF7DA
:102BC00025FF0446FFF770FFFFF7A1FF204610BD69
:102BD00070B50D460446FFF77FFFA020FFF73DFFCD
:102BE000FFF7B0FF2846FFF738FFFFF7ABFF20469F
:102BF000FFF733FFFFF7A6FFFFF789FFBDE870403F
:102C00000220FEF701BB0000F0B587B01421684632
:102C1000FDF736FB3048C16C41F00401C164C16C62
:102C200001F004010591C16C41F02001C164C16C47
:102C300001F020010591C16C41F00101C164C16C3A
:102C400001F001010591C16C41F00201C164C16C48
:102C500001F002010591C16C41F00801C164C06C32
:102C60001E4E00F008004FF47F44059001222146DB
:102C70003046FEF7C4FB1A4F012204213846FEF706
:102C8000BEFB0125CDE9004500240294694630468B
:102C90000394FEF7CBFACDE9005469464FF090401B
:102CA0000294FEF7C3FA0720CDE9000469460D48F7
:102CB0000294FEF7BBFA04200090CDE90154694666
:102CC00038460394FEF7B2FA002204213846FEF794
:102CD00096FB07B0F0BD000000100240000800485D
:102CE000000C00480004004870B542480168424C9E
:102CF000226A891A642939D30068206200F088F8B2
:102D0000A071617A20EA01024140E271814321729F
:102D10006072E07848B1012828D1002604F10F053F
:102D2000012924D0022928D045E0012919D00229FF
:102D30001CD10120E07031A1302000F01DF92FA13D
:102D4000482000F019F92DA1602000F015F92BA101
:102D5000782000F011F9BDE8704028A1902000F023
:102D60000BB96078401C00F00100607070BD6078A5
:102D7000401C00F00100607029E01F48E670667199
:102D800012302978017069784170A97881701BA18F
:102D9000302000F0F1F819A1482000F0EDF817A15B
:102DA000602000F0E9F815A1782000F0E5F813A103
:102DB000902000F0E1F8207A032808D12079401C07
:102DC000C0B20321B0FBF1F201FB12002071A07927
:102DD0000428CBD12079295C491CC9B2295410B9E7
:102DE0002A78182A03D03C29C0D12E5470BD2E70E9
:102DF00070BD00004C00002000000020202020209A
:102E00002020202020202020202020202000000022
:102E100070B50E4D002401212846FEF7EBFA00B9EB
:102E2000012402212846FEF7E5FA00B90224042114
:102E30002846FEF7DFFA00B9032401214FF0904045
:102E4000FEF7D8FA00B90424204670BD00040048FB
:102E500000B585B014216846FDF712FA4FF6FF70F1
:102E6000009000200321CDE902010190694602484B
:102E7000FEF7DCF905B000BD0008004800B585B0DC
:102E800014216846FDF7FCF94FF6FF700090012011
:102E90000190032003900020029069460248FEF74B
:102EA000C5F905B000BD00000008004870B5002459
:102EB00006462146204600F003F900F041F94FF4A0
:102EC0009635304600F010F9641CAC42F9D370BD61
:102ED00030B587B014216846FDF7D2F91E48C16CA1
:102EE00041F00401C164C16C01F004010591C16CA1
:102EF00041F00101C164C16C01F001010591C16C97
:102F000041F00201C164C06C012500F0020005908F
:102F10004FF44870CDE900050024039469460294FB
:102F20000E48FEF783F9280203940090CDE901547E
:102F30004FF0904469462046FEF778F9FFF79EFF70
:102F4000A06940F48070A06104481830016841F421
:102F50000871016007B030BD001002400004004855
:102F6000203AD2B2034B02EB420203EB021200F012
:102F700019B80000AC500008F0B50E460746002511
:102F800040F23F1407E021463846FFF7E9FF103CC6
:102F90006D1CA4B2761C3278002A01D0142DF2D315
:102FA000F0BD00002DE9F04791468A460026044610
:102FB00000F086F8DFF84080012700BF00F0C0F87D
:102FC0005FF0000539F8160007FA05F1084240469F
:102FD00001D1408800E0008800F086F86D1C102DBB
:102FE000F0D3641CE4B25146204600F069F8761C28
:102FF000182EE3D3BDE8F0873C00002010B5FFF7A2
:1030000067FF002000F014F8084CA080A088A0F50D
:103010000241303906D000F095FB002000F008F89E
:10302000A08010BD00F005FBF7E700003C00002089
:1030300070B51D490A6842F400720A600A6842F4D9
:1030400080720A60184C103C226842F02002226014
:10305000164A1060086840F02000086000BF00BFFA
:1030600000BF206840F020002060206840F480709D
:103070002060FFF7EDFE4FF09041886A40F48070C9
:10308000886200BF00BF00BF0848001F006885B20B
:10309000886940F480708861FFF7F0FE206840F492
:1030A00000702060284670BD2804004814080048BD
:1030B00001B5BDF800000149488008BD3C00002072
:1030C00010B50C460146202000F068F82146BDE806
:1030D0001040212000F062B801B5BDF800000149A0
:1030E000088008BD3C000020134A116841F40071BB
:1030F0001160114910390B6843F480730B600B6841
:1031000043F020030B600D4B1860106840F0200066
:10311000106000BF00BF00BF086840F020000860DA
:10312000086840F48070086000BF00BF00BF0868F6
:1031300040F40070086070472804004814080048F4
:103140001449086840F400700860086840F4807012
:10315000086010481038026842F0200202600E4BEE
:1031600022221A600A6842F020020A6000BF00BFF3
:1031700000BF016841F020010160016841F48071E5
:10318000016000BF00BF00BF016841F40071016031
:10319000704700002804004814080048184B10B578
:1031A0001A6842F400721A601A6842F480721A6057
:1031B000134A103A146844F020041460114C206043
:1031C000186840F02000186000BF00BF00BF106802
:1031D00040F020001060106840F4807010602160A2
:1031E000186840F02000186000BF00BF00BF1068E2
:1031F00040F020001060106840F48070106010BD36
:10320000280400481408004870B5124D04460122F5
:103210004FF6FF712846FEF7F2F80F4E0122042107
:103220003046FEF7ECF8002204213046FEF7E7F8BE
:10323000210200222846FEF7E2F80122042130464E
:10324000FEF7DDF83046BDE8704000220421FEF7AD
:10325000D6B8000000080048000C004800EB8100D0
:10326000006E00F0F84070478068C0F3C0007047FF
:103270008068C0F380007047042303EAD15310B57F
:1032800018444369C1F3045107248C40A3438A4086
:103290001343436110BD00EB8100016E21F000413A
:1032A0001143016670470000F0B52DED068B83B029
:1032B000844D2868844C616A401A64287BD328684E
:1032C0006062E07800269FED81AB9FED829B9FEDD1
:1032D000838A0127F0B101286DD1FDF747FBFDF787
:1032E000CCF853EC1A2BFCF7D6FF53EC192BFDF757
:1032F00044F8FDF7E2F800EE100A84ED0E0AD4ED72
:10330000070A60EE880AF4EEC00AF1EE10FA7DD2E8
:10331000A7708BE00020FFF73DFCFDF7AEF89FEDB6
:10332000701B53EC112BFDF728F8FDF7C6F8E06190
:1033300000226D496D48FEF747FE634900221531B2
:103340006A48FEF71DFEFDF711FBFDF796F853ECFA
:103350001A2BFCF7A0FF53EC192BFDF70EF8FDF725
:10336000ACF800EE100A84ED0E0AD4ED070A60EE08
:10337000880AF4EEC00AF1EE10FA01D2A77000E05C
:10338000A67010EE100AFDF785F841EC100B5648B8
:1033900053EC102B56A1143001F0C2F952493020E1
:1033A0001431FFF7E9FDE069FDF774F841EC100B0B
:1033B00053EC102B00E080E04B4853A1143001F097
:1033C000AFF9494948201431FFF7D6FD607801284C
:1033D00029D053A14448143001F0A2F94249602099
:1033E0001431FFF7C9FD4048817800914378027895
:1033F00050A1143001F094F93B4978201431FFF7C3
:10340000BBFD394822782930817800E00DE0CDE914
:103410000012437802784DA1153801F081F9324944
:103420001431902042E04FA1D4E7A6702E4852A15B
:10343000143001F075F92C4930201431FFF79CFD50
:1034400021480F30817800914378027826484EA1B8
:10345000143001F065F92868216B401AB0F5FA7F45
:1034600006D928682063A07B401C00F00100A073EF
:103470001D4822791430202122B1012A08D0022AC5
:103480000CD010E0A27B012A0DD1417181710AE0BC
:10349000A27B012A07D10172417204E0A27B012ABA
:1034A00001D1C172017310491431602003B0BDEC29
:1034B000068BBDE8F040FFF75FBD03B0BDEC068BA7
:1034C000F0BD00004C00002000000020666666662B
:1034D00066660A400000000000FEAF4033335340F0
:1034E0000000000000002440540000206C01002077
:1034F00020202056313A252E3266562020202020CA
:1035000020202020000000002020206B3A252E31B2
:1035100066202020202020202020202000000000E5
:103520002020204C45443A4F464620202020202091
:1035300020200000202020543A253032642D2530F0
:1035400032642D2530326420000000002020202528
:10355000642025642025642025642020202020204C
:10356000000000002020204C45443A4F4E202020EF
:1035700020202020202000002020202020536574BF
:1035800074696E673A200000202020202025303208
:10359000642D253032642D253032640070B51F480B
:1035A00001681F4CA26A891AC82935D30068A06235
:1035B000A078012802D16078012804D0BDE87040CD
:1035C0000020FFF721BE607B164D401C00F001007B
:1035D000607301224FF6FF712846FDF710FF124E6F
:1035E000012204213046FDF70AFF00220421304663
:1035F000FDF705FF627B4FF480712846FDF7FFFE63
:10360000012204213046FDF7FAFE3046BDE8704045
:1036100000220421FDF7F3BE70BD00004C00002025
:103620000000002000080048000C0048FEE7FEE70C
:10363000704730B501210020FFF7B0FD4FF47A70DC
:10364000FDF7A2F900210120FFF7A8FD41F29071DA
:103650001020FFF7A3FD4FF41C516020FFF79EFDE3
:1036600001216120FFF79AFD02214620FFF796FD18
:1036700048F210011320FFF791FD48F2FE011220DD
:10368000FFF78CFD4FF4A0610220FFF787FD41F2A8
:1036900030010320FFF782FD40F203342146302041
:1036A000FFF77CFD21463120FFF778FD21463220CF
:1036B000FFF774FDE51E29463320FFF76FFD032158
:1036C0003420FFF76BFD21463520FFF767FD1421FD
:1036D0003620FFF763FD21463720FFF75FFD2146C7
:1036E0003820FFF75BFD21463920FFF757FD2946BB
:1036F0003A20FFF753FD03213B20FFF74FFD214602
:103700003C20FFF74BFD4FF4A0513D20FFF746FD55
:103710004FF400719220FFF741FD21469320FFF7FF
:103720003DFD40F60D019020FFF738FD41F21801F4
:103730000320FFF733FDBDE8304040F2731107204E
:10374000FFF72CBD10B543F20801E320FFF726FD7B
:103750001221E720FFF722FD41F23121EF20FFF790
:103760001DFD00210120FFF719FD4FF4E06102204B
:10377000FFF714FD41F230010320FFF70FFD002198
:103780000420FFF70BFD40F207210820FFF706FD9C
:1037900000210920FFF702FD00210A20FFF7FEFCAF
:1037A00000210C20FFF7FAFC00210D20FFF7F6FCAA
:1037B00000210F20FFF7F2FC00211020FFF7EEFCA4
:1037C00007211120FFF7EAFC00211220FFF7E6FC99
:1037D00000211320FFF7E2FCC820FDF715FD41F2A0
:1037E00090611020FFF7DAFC40F227211120FFF74B
:1037F000D5FC3220FDF708FD1D211220FFF7CEFC7D
:103800003220FDF701FD4FF400611320FFF7C6FCE5
:1038100014212920FFF7C2FC0B212B20FFF7BEFC4F
:103820003220FDF7F1FC00212020FFF7B7FC00213A
:103830002120FFF7B3FC07213020FFF7AFFC40F257
:1038400007713120FFF7AAFC06213220FFF7A6FC02
:1038500040F204713520FFF7A1FC41F604713620D7
:10386000FFF79CFC04213720FFF798FC002138204B
:10387000FFF794FC40F206713920FFF78FFC40F20D
:1038800001713C20FFF78AFC0F213D20FFF786FCE9
:1038900000215020FFF782FCEF215120FFF77EFC32
:1038A00000215220FFF77AFC40F23F115320FFF72E
:1038B00075FC4FF41C516020FFF770FC0121612062
:1038C000FFF76CFC00216A20FFF768FC00218020D4
:1038D000FFF764FC00218120FFF760FC00218220BB
:1038E000FFF75CFC00218320FFF758FC00218420B7
:1038F000FFF754FC00218520FFF750FC1021902099
:10390000FFF74CFC00219220FFF748FC0321932095
:10391000FFF744FC4FF488719520FFF73FFC00212E
:103920009720FFF73BFC00219820FFF737FC41F27E
:1039300018010320FFF732FCBDE8104040F273117C
:103940000720FFF72BBC00000148FEF7F1BA00008A
:103950006C010020010901EB810100F00F0000EB78
:103960004100C0B270470022014602E00A39C9B2E4
:10397000521C0A29FAD2100741EA10607047000071
:103980002DE9F047104C814600252068400618D4E8
:10399000206840F080002060FDF736FD06464FF4B9
:1039A0007A78032708E000BFFDF72EFD801B404515
:1039B00002D9032589F825702068400601D4032D1B
:1039C000F2D12846BDE8F0870C2800402DE9F041EF
:1039D000064613480025016821F080010160104C63
:1039E0000C3420684FF00307800607D43046FEF7FA
:1039F000FFFC90B186F8257003250EE0206820F0CA
:103A0000200020603046FEF7F3FC10B186F82570E8
:103A10000325206840F0200020602846BDE8F081A2
:103A20000C28004030B591B028216846FCF728FCEE
:103A300014210AA8FCF724FC2C4800242A490F94DE
:103A4000C0E900144A21816042F20F71C0E90314F9
:103A50004FF080414461C0E906410462FEF7E2FA9A
:103A600008B1FCF79FFF23208DF8280059208DF81E
:103A7000290055208DF82A000B940D9401220AA9E3
:103A80001A480E94FEF74CFC08B1FCF78BFF012599
:103A90008DF83C508DF83D508DF83E508DF83F40EC
:103AA0002A460FA91148FEF7E7FB08B1FCF77AFF99
:103AB0008DF800408DF801408DF802400C480194CB
:103AC000CDE905044FF48070099007948DF82050DB
:103AD000012269460548FEF709FB002801D0FCF7E2
:103AE00061FF11B030BD0000002800406C010020D3
:103AF0008080800008B1044801E00348103001686C
:103B000041F04001016070471804004810B5802161
:103B10000348FDF76FFC012800D0002010BD000015
:103B20000004004800B585B014216846FCF7A8FBE6
:103B3000802000900020019001200290022003903C
:103B400069460248FDF772FB05B000BD000400485D
:103B500008B1044801E003481030016841F08001D9
:103B6000016070471804004800B585B0142168460C
:103B7000FCF786FB8020009011200190002002902D
:103B80000220039069460248FDF750FB05B000BDD6
:103B9000000400487047FDF73DBC000010B5A6B01A
:103BA00038216846FCF76CFB14211FA8FCF768FB62
:103BB00044210EA8FCF764FB4FF40070FDF7BCFC39
:103BC000012000900004019002200324CDE90704A5
:103BD0001421CDE90A100C900D9009946846FDF768
:103BE0009FFF08B172B6FEE70F20CDE91F04002445
:103BF0002194229402211FA82394FDF747FE08B1C7
:103C000072B6FEE70C48C16C41F02001C164C06C83
:103C100000F0200024900948CDE90E0400071D9013
:103C20004FF440701E900EA8FDF7ECFC002801D068
:103C300072B6FEE726B010BD0010024001800800F9
:103C40000248016841F470010160704788ED00E0AE
:103C500030B5416EB9B1026891689268C1F34261B2
:103C60000B4B520F9C5CE50003F10804A25CB5FB12
:103C7000F2F2A0F86A205A5C615CD200B2FBF1F16A
:103C8000A0F8681030BD0121A0F86A10F8E7000024
:103C90009462000890F82810C90706D001684A68A5
:103CA000C36A22F400321A434A6090F82810890748
:103CB00006D501684A68036B22F480321A434A60D1
:103CC00090F82810490706D501684A68436B22F42A
:103CD00080221A434A6090F82810090706D5016827
:103CE0004A68836B22F400421A434A6090F8281015
:103CF000C90606D501688A68C36B22F480521A434C
:103D00008A6090F82810890606D501688A68036CD5
:103D100022F400521A438A6090F82810490611D5FF
:103D200001684A68436C22F480121A434A60416C6D
:103D3000B1F5801F06D101684A68836C22F4C00285
:103D40001A434A6090F82810090606D501684A68A7
:103D5000C06C22F4002202434A607047F8B5002686
:103D60000446C0F88C60FDF74FFB054620680068EC
:103D70006FF07E47000708D52B4600224FF4001154
:103D80002046009700F072FC60B920680068400788
:103D90000AD52B4600224FF480012046009700F000
:103DA00065FC08B10320F8BD2020C4F88400C4F8E5
:103DB000880044F86C6F00202675F8BD10B5806A45
:103DC0000021A0F85E10A0F85610FEF7AEFB10BD63
:103DD00001680A6822F490720A6001688A68094BD7
:103DE0001A408A60C16E012904D101680A6822F074
:103DF00010020A602021C0F888100021C166016706
:103E000070470000FEFFFFEF184810B5164901602B
:103E10004FF416514160002181600C22C160C0E95D
:103E200004128161C161016241628162FEF7C0FCDE
:103E300008B1FCF7B7FD00210C48FEF74EFB08B1B6
:103E4000FCF7B0FD00210948FEF721FB08B1FCF7A3
:103E5000A9FD0648FEF7FAFA002803D0BDE8104095
:103E6000FCF7A0BD10BD0000003801409401002007
:103E70002DE9F043404885B00168404DEA6A891A4F
:103E8000642975D30168E9620268696B521AB2F558
:103E9000167F37D80068401AC82833D3A87A062876
:103EA0002DD1374C20786B2829D16078302826D145
:103EB000A0782E2823D1E078302820D93A281ED2A5
:103EC00020795C281BD160796E2818D13223022218
:103ED0002CA12D48FEF724FDE07830380446FCF78D
:103EE000BBFA9FED2A1B53EC112BFCF746FAFCF7AB
:103EF000E4FAE861E0B228730021FEF769FE0020D1
:103F00002870A8721E481D494838123102780B7873
:103F1000914693422CD142784B789046934227D1D8
:103F200089788478A14223D16879002820D10120A2
:103F30006871E869FCF7AEFA06460F46A86BFCF715
:103F4000A9FACDE9038441EC100B0D488DE8C002BD
:103F500053EC102B0FA1153800F0E2FB05B0084917
:103F6000BDE8F0433223152215390748FEF7D8BCC7
:103F700005B0BDE8F08300004C00002000000020E8
:103F80009C0000204F4B0000940100200000000026
:103F900000002440252E32662B252E31662B256409
:103FA000256425640000000070B5B0F86010D0F8FA
:103FB000882004460068222A04D0816941F0080163
:103FC000816170BD406AA26D08401080A06D801CA8
:103FD000A065B4F85E00401EA4F85E00B4F85E0070
:103FE0000028EED12068016821F4907101602068FA
:103FF000816821F0010181602020C4F8880000253B
:104000002567E06E012804D02046FEF767FCE566D0
:1040100070BD2068016821F010010160B4F85C10E7
:104020002046FEF732FAF2E72DE9F0470446B0F8F1
:1040300060600068C569D0F800A0D0F80880D4F8A6
:104040008810222905D0816941F008018161BDE80D
:10405000F087B4F868704FF000095BE02068406AB0
:10406000A16D30400880A06D801CA065B4F85E0092
:10407000401EA4F85E002068C569690730D0E907D2
:104080000AD05FEACA5107D501210162D4F88C0039
:1040900040F00100C4F88C00A8070BD55FEAC87097
:1040A00008D0216802200862D4F88C0040F0040097
:1040B000C4F88C0068070BD55FEAC87008D0216887
:1040C00004200862D4F88C0040F00200C4F88C0090
:1040D000D4F88C0020B12046FEF727FAC4F88C9063
:1040E000B4F85E00B0B92068016821F48071016005
:1040F00020688168194A114081602020C4F8880036
:10410000C4F87090E06E01281CD02046FEF7E6FB54
:10411000C4F86C900FB1A806A0D4B4F85E000028D3
:1041200095D0B4F86810814291D92068816821F057
:10413000805181600A4820672068016841F02001B1
:10414000016084E72068016821F010010160B4F883
:104150005C102046FEF799F9DAE70000FEFFFFEF5A
:10416000A93F000870B5B0F86010D0F88820044668
:104170000068222A04D0816941F00801816170BD84
:10418000406A0840A16D0870A06D401CA065B4F89D
:104190005E00401EA4F85E00B4F85E000028EED178
:1041A0002068016821F4907101602068816821F025
:1041B000010181602020C4F8880000252567E06E99
:1041C000012804D02046FEF789FBE56670BD206813
:1041D000016821F010010160B4F85C102046FEF780
:1041E00054F9F2E72DE9F0470446B0F86060006842
:1041F000C569D0F800A0D0F80880D4F8881022292A
:1042000005D0816941F008018161BDE8F087B4F80B
:1042100068704FF000095BE02068406AA16D304093
:104220000870A06D401CA065B4F85E00401EA4F8A4
:104230005E002068C569690730D0E9070AD05FEAE7
:10424000CA5107D501210162D4F88C0040F0010069
:10425000C4F88C00A8070BD55FEAC87008D02168A5
:1042600002200862D4F88C0040F00400C4F88C00EE
:1042700068070BD55FEAC87008D02168042008627F
:10428000D4F88C0040F00200C4F88C00D4F88C0004
:1042900020B12046FEF749F9C4F88C90B4F85E00CE
:1042A000B0B92068016821F48071016020688168DC
:1042B000194A114081602020C4F88800C4F8709029
:1042C000E06E01281CD02046FEF708FBC4F86C9075
:1042D0000FB1A806A0D4B4F85E00002895D0B4F8B9
:1042E0006810814291D92068816821F080518160F5
:1042F0000A4820672068016841F02001016084E7D6
:104300002068016821F010010160B4F85C102046BB
:10431000FEF7BBF8DAE70000FEFFFFEF654100089B
:104320002DE9F0410446016880682269E369104381
:10433000626900251A431043DFF82CC20A688B4BD0
:104340001A4002430A6020684168E26821F4405143
:10435000114341602168A069614501D0226A104380
:104360008A68834B1A4002438A602068C16A626A85
:1043700021F00F011143C1627E4923687E488B42C0
:104380000DD1D0F8880010F0030006D0012855D0D8
:10439000022842D003283FD152E001203DE0774976
:1043A0008B420BD1D0F8880010F00C0035D00428D7
:1043B00033D0082840D00C282ED141E070498B42E0
:1043C0000BD1D0F8880010F0300026D0102835D05E
:1043D000202831D030281FD132E06A498B420BD1DE
:1043E000D0F8880010F0C00017D0402826D08028D0
:1043F00022D0C02810D123E063450DD1D0F8880029
:1044000010F4406009D0B0F5806F17D0B0F5006FA0
:1044100012D0B0F5406F13D010205B4A5B4F0026DE
:104420004FF40041634539D160B102280DD0042812
:104430000DD0082831D10EE00220EEE70420ECE791
:104440000820EAE7FDF710FB03E0114603E0FDF763
:104450002FFB01007DD0606A37F810206768B1FB40
:10446000F2F007EB470383426CD8B0EB073F69D803
:10447000002308461946FBF7CBFE090241EA10610A
:1044800002027808101871413A460023FBF7C0FE7B
:104490003F4AA0F54071914259D953E0E3694FF684
:1044A000EF788B422DD109284CD2DFE800F00508C7
:1044B0000D4B274B4B4B0E00FDF7D6FA01E0FDF7F5
:1044C000E5FA010001D144E01146606A37F81000B6
:1044D000B1FBF0F04100606801EB5001B1FBF0F07E
:1044E00080B2A0F1100141452CD84FF6F071014087
:1044F000C0F3420001432068C1602AE0FDF7D8FA0A
:10450000DFE709281ED2DFE800F005080D1D1F1D9A
:104510001D1D0E00FDF7A8FA01E0FDF7B7FA010036
:1045200001D116E01146606A37F81000B1FBF0F1D6
:10453000606801EB5001B1FBF0F080B2A0F1100116
:10454000414504D9012504E0FDF7B2FAE7E7216807
:10455000C8600120A4F86A0024F8680F2846A66005
:10456000E660BDE8F081000000800040F369FFCF05
:10457000FFF4FF11003801400010024000440040E9
:1045800000480040004C00400024F4007C62000819
:10459000FFFC0F0070B58165A0F85C20A0F85E20DC
:1045A0000021016783684FF48056FF24B34204D191
:1045B0000369D3B940F2FF131DE07F259BB1B3F12E
:1045C000805F15D0A0F86010C0F88C102223C0F8CE
:1045D000883003689C6844F001049C60436EB3F12A
:1045E000005F0ED027E0036943B9A0F86040EBE715
:1045F00003691BB13F23A0F86030E5E7A0F86050E5
:10460000E2E7B0F86830934215D88268B24201D12F
:10461000026972B1114A026780F8801001680A6865
:1046200042F480720A600068816841F080518160C4
:104630000FE00B4AEFE78268B24201D1026952B142
:10464000084A026780F880100068016841F49071A0
:104650000160002070BD044AF3E70000E541000856
:104660002940000865410008A93F00082DE9F047EE
:104670009A4617460E4604464FF000094FF02008B0
:10468000089D39E0681C37D0FCF7BEFEA0EB0A009D
:10469000A84222D80DB32068016849072CD5C0690B
:1046A000C043000528D421684FF4006008622068E8
:1046B000016821F4D07101602068816821F0010156
:1046C0008160C4F88480C4F88880C4F88C8000BFFE
:1046D00084F880900320BDE8F0872068016821F409
:1046E000D07101602068816821F001018160C4F807
:1046F0008480C4F88880EBE72068C06936EA00004F
:1047000004D00020B842BDD00020E4E70120F9E742
:104710000148FDF70BBF000094010020FEE70000F8
:104720000FB4084B10B504A902AA039800F0EEF8E4
:10473000044602A9002000F080FC204610BC5DF871
:1047400014FB00003B5000080907090E002804DB99
:1047500000F1E02080F80014704700F00F0000F135
:10476000E02080F8141D704702E008C8121F08C13D
:10477000002AFAD170477047002001E001C1121FE2
:10478000002AFBD1704700002DE9FF5F82B00021B5
:10479000DDE90430020DDDF840B0034318D044F6E3
:1047A0001050A2F2FF3242431514119801281FD075
:1047B000A5EB0B00401C5FEA000A4FF000064E4FCD
:1047C000DFF83891B046504615D5CAF1000413E021
:1047D000119801244AA3012801D16FEA0B01029824
:1047E000119AC0E90031C0E9024206B0BDE8F09F6D
:1047F000CBF10000DFE704460021404A491842EBB4
:104800000450CDE9001012E0E00707D032463B46E5
:1048100040464946FBF73FFD8046894632463B46C7
:1048200010461946FBF737FD06460F466410002C6C
:10483000EAD1DDE90401DDE90023BAF1000F06DA6F
:10484000FBF729FD42464B46FBF725FD05E0FBF74C
:1048500094FD42464B46FBF790FD04460E4600226F
:10486000284BFBF7CFFF03D84FF0FF30014607E09E
:104870000022254B20463146FBF704FFFBF7A9FF3A
:10488000102409E0002C0ADB0A220023FBF7C0FCFD
:10489000039B30321A55641E50EA0102F2D1641CA7
:1048A000039AC4F111031444119A012A03D001227E
:1048B00008430DD10AE0084304D000204FF0110B4B
:1048C000119072E7A3EB0B056D1E0DE05B4504DD57
:1048D0004FF0000205F1010504E003DA4FF0000299
:1048E000A5F10105002AECD002981199C0E9023126
:1048F000C0E9004579E70000000014400000F03FE7
:10490000300000000000F0430000E03F2DE9FF4FC1
:1049100095B09B468946064600250FE2252877D1AB
:1049200000242746F84A0121059400E0044316F8C4
:10493000013F203B01FA03F01042F7D130782A28DA
:1049400011D06FF02F033078A0F13002092A16D869
:10495000059A44F0020402EB820203EB4202104487
:10496000761C0590EFE759F8042B0592002A03DA2C
:10497000504244F40054059044F00204761C307810
:104980002E2816D116F8010F44F004042A280DD061
:104990006FF02F023078A0F13003092B09D807EB14
:1049A000870302EB4303C718761CF3E759F8047B2F
:1049B000761C30786C280FD006DC4C2817D068287D
:1049C0000DD06A2814D104E0742810D07A280FD1B1
:1049D0000DE044F400140AE044F4801401E044F4CF
:1049E00040147278824202D104F58014761C761C41
:1049F000307866280BD013DC582877D009DC0028E3
:104A000075D04528F6D04628F4D047281AD19DE124
:104A100018E0632835D0642879D0652812D195E153
:104A2000702873D008DC6728F1D069286FD06E2811
:104A30000DD06F2806D1B5E073282CD0752875D01D
:104A4000782874D05A46179990476D1C75E1C4F3C5
:104A50000250022809D003280DD0D9F800100428EC
:104A60000DD00D6009F1040967E1D9F80010EA17CB
:104A7000C1E90052F6E7D9F800100D80F2E70D7099
:104A8000F0E719F8041B8DF8001000208DF80100E4
:104A9000EA46012003E059F804AB4FF0FF3061070C
:104AA0004FF0000102D40DE008F101018846B9423F
:104AB0000FDA8045F8DB1AF808100029F4D108E075
:104AC00008F1010188468142FADB1AF80810002932
:104AD000F6D105985B46A0EB080721463846179AA1
:104AE00000F094FA284400EB080507E04DE029E1C6
:104AF0000DE01AF8010B5A4617999047B8F10108D2
:104B0000F7D25B4621463846179A13E142E00A2263
:104B10000092C4F302524FF0000A022A08D059F85A
:104B200004CB032A4FEAEC710AD00DE029E02AE019
:104B300009F1070121F00702F2E802C1914609E0FC
:104B40000FFA8CFC4FEAEC71042A03D14FFA8CFC6B
:104B50004FEAEC71002907DA0A460021DCF1000C6B
:104B600061EB02012D2202E0220504D52B228DF8F3
:104B70000420012203E0E20701D02022F7E790465B
:104B800059E00A2102E010220DE010214FF0000A46
:104B900000910BE010224FF0000A44F004040827B3
:104BA000009203E008224FF0000A0092C4F3025280
:104BB000022A05D059F804CB0021032A08D009E0C5
:104BC00009F1070121F00702F2E802C1914605E070
:104BD0001FFA8CFC042A01D10CF0FF0C4FF00008E6
:104BE000220728D5702806D0009B83F0100353EAD3
:104BF0000A0305D00EE040228DF80420012208E0CF
:104C00005CEA010206D030228DF804208DF8050000
:104C100002229046009B83F0080353EA0A030AD15C
:104C20005CEA010201D1620705D530228DF804202B
:104C30004FF001087F1E582804D034A003900EA81E
:104C400002900DE036A0F9E753466046009AFBF764
:104C5000DFFA84460398825C0298401E029002703C
:104C60005CEA0100F0D1029806A9081A00F1200AB6
:104C7000600702D524F4803400E00127574502DDA7
:104C8000A7EB0A0000E0002000EB0A010090059865
:104C90004144401A0590E00306D45B462146179A2A
:104CA000059800F0B3F90544002706E001A85A462C
:104CB000C05D179990476D1C7F1C4745F6DBE003EC
:104CC0000CD55B462146179A059800F09FF90544DC
:104CD00004E030205A46179990476D1C0099481EF1
:104CE00000900029F5DC08E0029802995A46007805
:104CF000491C0291179990476D1CBAF10001AAF165
:104D0000010AF1DC65E1000009280100303132338D
:104D100034353637383961626364656600000000F7
:104D200030313233343536373839414243444546E1
:104D30000000000000F058F90544761C3078002887
:104D40007FF4ECAD19B02846BDE8F08F620700D4BF
:104D5000062709F1070222F0070CFCE80223E146CE
:104D600003F000485FEA080C02D00FF2702C0DE04F
:104D70005FEA045C02D50FF2682C07E05FEAC47CAE
:104D800002D00FF2602C01E0AFF2700C4FF0FF3850
:104D900023F00043CDF850C065280CD006DC452830
:104DA00009D046281DD047283DD13DE0662818D0BF
:104DB00067287ED138E00021112F01DB112000E0AF
:104DC000781CCDE9000106A90EA8FFF7DDFCDDE99E
:104DD0000F010E9A03910021009207F1010A04913C
:104DE0004DE04FF000400097CDE9011006A90EA854
:104DF000FFF7CAFCDDE90F0203920E9B1199002216
:104E0000DDF80CA00093049211B9791C00EB010AA3
:104E1000B7EB0A0004D4C0F1FF3007F1010A049097
:104E2000AAEB0700019044E0012F00DA01270021DE
:104E3000112F01DD112000E03846CDE9000106A95F
:104E40000EA8FFF7A1FCDDE90F010E9A03910021E6
:104E500004910092BA4621070CD40399514500DA17
:104E60008A46BAF1010F05DD009AAAF10101515CF1
:104E7000302908D0B84202DA10F1040F06DA012115
:104E8000CDE9011015E0AAF10101E9E7002805DCF0
:104E9000049901440491AAEB000102E0411C514530
:104EA00000DD8A460499401A401C01904FF00040F2
:104EB0000290200704D40198504501DBCDF804800E
:104EC00000208DF84F0002980DF14F07B0F1004F10
:104ED00025D02B200E9002984FF0020800280CDA03
:104EE000404202902D200E9007E00A210298FBF725
:104EF00000FB3031029007F8011DB8F10001A8F164
:104F00000108F2DC02980028EFD1791E0E98087093
:104F1000307800F0200040F0450007F8020D12A89C
:104F2000C01B00F107081498007800B1012000EBC5
:104F30000A01019801EBE07105984144401A401EB6
:104F40000590E00306D45B462146179A059800F0C9
:104F50005DF805441498007818B15A46179990479F
:104F60006D1CE00324D55B462146179A059800F096
:104F70004DF805441CE00498002807DBDDE9030137
:104F8000884203DD0098405C179901E017993020B2
:104F90005A469047049805F10105401C0490019879
:104FA000401E019004D12E205A46179990476D1C3F
:104FB000BAF10001AAF1010ADDDC05E017F8010BE6
:104FC0005A46179990476D1CB8F10001A8F10108E5
:104FD000F4DC5B462146179A0598ABE62D000000ED
:104FE0002B000000200000002DE9F04104460025C0
:104FF0001E461746880404D405E039462020B047F1
:105000006D1C641EF9D52846BDE8F0812DE9F041FC
:10501000044600251E469046C80301D5302700E00F
:105020002027880404D505E041463846B0476D1C6A
:10503000641EF9D52846BDE8F0810A68531C0B6050
:1050400010707047002100E0491C8142FCD370477A
:10505000FCF7E8F9FEF7A2FDFDF7D0FFFDF7D4FD60
:10506000FDF7BEFCFEF7D0FEFBF708FCFEF7DAFC0E
:105070001F20FDF71BFF1F20FEF71AF84FF6FF70E9
:10508000FEF72AF8012207490748FDF701FC00BF97
:10509000FDF72AFEFEF782FAFEF706F9FEF7E8FEB4
:1050A000F6E700000B000020940100200000000043
:1050B00000000000000000000000000000000000F0
:1050C00000000000000000000000000000000000E0
:1050D000000000000000000000000000000080014F
:1050E00080018001800180018001800180018001B8
:1050F00080018001800180010000000080018001AA
:10510000000000000000000000000000000000009F
:10511000CC00CC00CC00CC00CC00CC0000000000C7
:10512000000000000000000000000000000000007F
:10513000000000000000000000000000000000006F
:105140000000000000000000600C600C600C3006E5
:105150003006FE1FFE1F300638071803FE1FFE1F15
:10516000180318038C018C018C01000000008000E2
:10517000E003F80F9C0E8C1C8C188C009800F80132
:10518000E007800E801C8C188C189C18B80CF00F4F
:10519000E00380008000000000000000000000002C
:1051A00000000E181B0C110C11061106110311033F
:1051B0009B018E01C038C06C604460443044304470
:1051C0001844186C0C380000000000000000E001DA
:1051D000F0033807180618063003F001F000F80055
:1051E0009C310E33061E061C061C063FFC73F02184
:1051F00000000000000000000000000000000000AF
:105200000C000C000C000C000C000C000000000056
:10521000000000000000000000000000000000008E
:10522000000000000000000000000000000000027C
:1052300000038001C000C00060006000300030004A
:10524000300030003000300030003000600060007E
:10525000C000C00080010003000200000000200028
:105260006000C0008001800100030003000600060A
:105270000006000600060006000600060003000304
:1052800080018001C00060002000000000000000DC
:105290000000000000000000C000C000D806F807B1
:1052A000E0013003380700000000000000000000AB
:1052B00000000000000000000000000000000000EE
:1052C00000000000000000008001800180018001DA
:1052D0008001FC3FFC3F8001800180018001800152
:1052E00000000000000000000000000000000000BE
:1052F00000000000000000000000000000000000AE
:10530000000000000000000000000000000080011C
:10531000800100010001800000000000000000008A
:10532000000000000000000000000000000000007D
:1053300000000000E007E00700000000000000009F
:10534000000000000000000000000000000000005D
:10535000000000000000000000000000000000004D
:105360000000000000000000000000000000C0007D
:10537000C000000000000000000000000000000C61
:10538000000C000600060006000300030003800373
:10539000800180018001C000C000C000600060008A
:1053A0000000000000000000000000000000E0031A
:1053B000F007380E180C0C180C180C180C180C18D8
:1053C0000C180C180C180C18180C380EF007E00309
:1053D00000000000000000000000000000000001CC
:1053E0008001C001F00198018801800180018001E5
:1053F00080018001800180018001800180018001A5
:105400000000000000000000000000000000E003B9
:10541000F80F180C0C180C1800180018000C0006D7
:1054200000038001C000600030001800FC1FFC1F5A
:105430000000000000000000000000000000E0018B
:10544000F807180E0C0C0C0C000C0006C003C0076B
:10545000000C001800180C180C18180CF807E003C2
:105460000000000000000000000000000000000C30
:10547000000E000F000F800DC00C600C600C300C93
:10548000180C0C0CFC3FFC3F000C000C000C000C3A
:105490000000000000000000000000000000F80F05
:1054A000F80F180018000C00EC03FC071C0E001C81
:1054B0000018001800180C181C0C180EF807E00350
:1054C0000000000000000000000000000000C00715
:1054D000F00F381C181818000C00CC03EC0F3C0E11
:1054E0001C1C0C180C180C18181C380EF007E003C4
:1054F0000000000000000000000000000000FC1F91
:10550000FC1F000C00060006000380038001C001A0
:10551000C000E0006000600070003000300030002B
:105520000000000000000000000000000000E00398
:10553000F007380E180C180C180C3806F007F00796
:10554000180C0C180C180C180C18380CF80FE00379
:105550000000000000000000000000000000E00368
:10556000F007380E1C0C0C180C180C181C1C381EDC
:10557000F81BE0190018000C000C1C0EF807F001D5
:10558000000000000000000000000000000000001B
:105590000000000000000000800180010000000009
:1055A00000000000000000000000000080018001F9
:1055B00000000000000000000000000000000000EB
:1055C00000000000000000008001800100000000D9
:1055D00000000000000000000000000080018001C9
:1055E0000001000180000000000000000000000039
:1055F0000000000000000000000000000010001C7F
:10560000800FE003F8001800F800E003800F001C92
:10561000001000000000000000000000000000007A
:10562000000000000000000000000000F81F000063
:1056300000000000F81F0000000000000000000053
:10564000000000000000000000000000000000005A
:10565000000000000000000000000000080038000A
:10566000F001C007001F0018001FC007F00138003C
:105670000800000000000000000000000000E0033F
:10568000F80F180C0C180C180018000C000600037A
:105690008001C000C000C00000000000C000C000C9
:1056A00000000000000000000000000000000000FA
:1056B000E00718180420C229224A11440944094469
:1056C000094409221113E20C024004201818E007D3
:1056D0000000000000000000000000000000800347
:1056E0008003C006C006C006600C600C301830187D
:1056F0003018F83FF83F1C700C600C6006C006C004
:105700000000000000000000000000000000FC039A
:10571000FC0F0C0C0C180C180C180C0CFC07FC0FD4
:105720000C180C300C300C300C300C18FC1FFC0723
:105730000000000000000000000000000000C007A2
:10574000F01F38381C300C7006600600060006009A
:1057500006000600060006600C701C30F01FE00713
:105760000000000000000000000000000000FE0338
:10577000FE0F060E061806180630063006300630F4
:1057800006300630063006180618060EFE0FFE0319
:105790000000000000000000000000000000FC3FCE
:1057A000FC3F0C000C000C000C000C00FC1FFC1F4C
:1057B0000C000C000C000C000C000C00FC3FFC3F2B
:1057C0000000000000000000000000000000F83FA2
:1057D000F83F18001800180018001800F81FF81FEC
:1057E00018001800180018001800180018001800F9
:1057F0000000000000000000000000000000E00FBA
:10580000F83F3C780E6006E007C00300030003FE8B
:1058100003FE03C007C006C00EC03CF0F83FE00F17
:1058200000000000000000000000000000000C303C
:105830000C300C300C300C300C300C30FC3FFC3F8A
:105840000C300C300C300C300C300C300C300C3078
:1058500000000000000000000000000000008001C7
:105860008001800180018001800180018001800130
:105870008001800180018001800180018001800120
:105880000000000000000000000000000000000612
:1058900000060006000600060006000600060006D8
:1058A000000600060006180618063807F003E00197
:1058B00000000000000000000000000000000630B2
:1058C0000618060C060606038601C600660076006A
:1058D000DE008E0106030606060C0618063006607A
:1058E00000000000000000000000000000001800A0
:1058F00018001800180018001800180018001800E8
:10590000180018001800180018001800F81FF81FD9
:1059100000000000000000000000000000000EE099
:105920001EF01EF01EF036D836D836D836D866CCE3
:1059300066CC66CCC6C6C6C6C6C6C6C686C386C341
:1059400000000000000000000000000000000C301B
:105950001C303C303C306C306C30CC30CC308C3136
:105960000C330C330C360C360C3C0C3C0C380C3025
:105970000000000000000000000000000000E00740
:10598000F81F1C380E70066003C003C003C003C0BC
:1059900003C003C003C006600E701C38F81FE00788
:1059A0000000000000000000000000000000FC0FEC
:1059B000FC1F0C380C300C300C300C300C18FC1F59
:1059C000FC070C000C000C000C000C000C000C0080
:1059D0000000000000000000000000000000E007E0
:1059E000F81F1C380E70066003E003C003C003C03C
:1059F00003C003C007E006630E3F1C3CF83FE0F71E
:105A000000C0000000000000000000000000FE0FC9
:105A1000FE1F06380630063006300638FE1FFE0729
:105A200006030606060C0618061806300630066041
:105A30000000000000000000000000000000E00383
:105A4000F80F1C0C0C180C180C001C00F803E00FCD
:105A5000001E0038063006300E301C1CF80FE00720
:105A60000000000000000000000000000000FE7FB9
:105A7000FE7F800180018001800180018001800122
:105A8000800180018001800180018001800180010E
:105A900000000000000000000000000000000C30CA
:105AA0000C300C300C300C300C300C300C300C3016
:105AB0000C300C300C300C300C301818F81FE0078C
:105AC0000000000000000000000000000000036073
:105AD0000630063006300C180C180C18180C180C70
