:020000040800F2
:10000000D0050020ED0100086F3100081F2900080D
:100010006D310008490900081B3D00080000000080
:10002000000000000000000000000000873400080D
:100030004B090008000000007131000889340008F5
:10004000070200080702000807020008070200086C
:10005000070200080702000807020008070200085C
:10006000070200080702000807020008070200084C
:10007000070200080702000807020008070200083C
:10008000070200080000000007020008070200083D
:10009000070200080702000807020008070200081C
:1000A000F5350008070200080702000807020008EB
:1000B000B9360008C5360008070200080702000824
:1000C00007020008070200080702000807020008EC
:1000D00007020008070200080702000807020008DC
:1000E00007020008070200080702000807020008CC
:1000F00007020008070200080702000800000000CD
:1001000000000000070200080000000007020008CD
:1001100007020008000000000702000807020008AC
:10012000070200080702000807020008070200088B
:10013000070200080000000000000000070200089D
:10014000070200080702000800000000000000008D
:10015000000000000000000000000000000000009F
:10016000000000000000000000000000070200087E
:10017000070200080000000000000000000000006E
:10018000000000000702000800000000000000005E
:10019000000000000000000000000000000000005F
:1001A000000000000000000007020008070200082D
:1001B000070200080702000807020008000000000C
:1001C000000000000702000800000000000000001E
:1001D0000702000807020008DFF80CD000F0FAFA66
:1001E0000048004741460008D005002006488047E7
:1001F00006480047FEE7FEE7FEE7FEE7FEE7FEE70C
:10020000FEE7FEE7FEE7FEE729350008D901000812
:10021000D2B201E000F8012B491EFBD27047002248
:10022000F6E710B513460A4604461946FFF7F0FFF5
:10023000204610BD2DE9FE4F81EA030404F000447E
:1002400021F0004100944FF0000B23F0004350EAEE
:1002500001045ED052EA03045BD0C3F30A54C1F335
:100260000A552C44A4F2F3340194A0FB0254C1F3C8
:10027000130141F48011C3F3130343F4801301FB12
:10028000024400FB034E840A970A44EA815447EA79
:100290008357A4FB076802958D0A05FB07854FEA83
:1002A000932C04FB0C542705029D4FEA065847EA9D
:1002B0001637B5EB08056EEB070C870E920E47EA72
:1002C000811742EA8312A7FB0201B6EB0B0164EB34
:1002D00000042B0D43EA0C335E1844EB1C50DA4645
:1002E0005146E7FB0201C5F313044FEA0B3343EA1F
:1002F00014534FEA0432019C43EA0603A4F10C04B0
:100300000294009CCDE900B400F03EF903B0BDE8D2
:10031000F08F00200146F9E72DE9F04D81EA030452
:1003200004F0004B21F0004514464FF0000A23F082
:10033000004150EA050220D054EA01021DD0C5F365
:100340000A570246C5F31303C1F31300C1F30A565B
:1003500040F4801543F48013A7EB0608101BD64623
:1003600008F2FD3873EB050002D308F1010801E043
:1003700092185B41B8F1000F03DA00200146BDE896
:10038000F08D00204FF48011064684460EE0171BC6
:1003900073EB050705D3121B63EB050306434CEA19
:1003A000010C49084FEA300092185B4150EA0107FE
:1003B000EDD152EA030012D082EA040083EA05017B
:1003C000084305D0101BAB4106D20122002306E0F2
:1003D00000224FF0004302E06FF0010253101AEBCD
:1003E00006004CEB085110EB0A0041EB0B01BDE895
:1003F000F04D00F0BAB80EB540F233410291002141
:10040000CDE900110A460B4600F0BEF803B000BD6E
:1004100000F0004230F000400AD0C10D01F56071DB
:10042000C0F3160042EA0151C20840071143704769
:1004300000200146704701F0004330B421F0004134
:1004400050EA010206D00A0DA2F56072C1F3130151
:10045000002A02DC30BC00207047440F44EAC1048B
:10046000C100E01830BC00EBC25000F047B830B516
:100470000B46014600202022012409E021FA02F562
:100480009D4205D303FA02F5491B04FA02F52844FC
:10049000151EA2F10102F1DC30BD2DE9F05F054629
:1004A000002092469B4688460646814640241BE033
:1004B000284641464746224600F0ADF953465A4683
:1004C000C01A914110D311461846224600F094F903
:1004D0002D1A67EB01084F4622460120002100F04B
:1004E0008BF917EB00094E41201EA4F10104DFDC5B
:1004F000484631462A464346BDE8F09F0029A8BF3A
:100500007047401C490008BF20F00100704710B43C
:10051000B0FA80FC00FA0CF050EA010404BF10BCF1
:10052000704749B1CCF1200421FA04F411FA0CF11E
:1005300018BF012121430843A3EB0C01CB1D4FEA57
:1005400000614FEA102042BF002010BC704700EB52
:10055000C35010440029A4BF10BC7047401C490080
:1005600008BF20F0010010BC704710B5141E73F1D5
:10057000000408DA401C41F1000192185B411A4363
:1005800001D120F0010010BD2DE9F04D92469B46AF
:1005900011B1B1FA81F202E0B0FA80F22032904655
:1005A00000F02AF904460F4640EA0A0041EA0B012E
:1005B00053465A46084313D0114653EA010019D056
:1005C000C8F14002504600F026F905460E46504656
:1005D0005946424600F010F9084305D0012004E0D6
:1005E00020463946BDE8F08D0020054346EAE07616
:1005F0002C4337430A986305E40AA0EB0800002265
:10060000FD0A44EA47540A3002D500200146E9E7D2
:10061000010510196941DDE9084500196941BDE886
:10062000F04DA2E72DE9FE4F804681EA0300C00F9E
:100630000C46009021F0004123F00045B8EB020089
:10064000A94105D24046214690461C460B4602462B
:1006500023F00040104347D0270DC7F30A00C3F32F
:100660000A510290401A019040286BDAC3F313003C
:1006700040F4801B0098924620B10023D2EB030A7D
:1006800063EB0B0B01985946C0F14002504600F055
:10069000B3F806460D4650465946019A00F0CBF88D
:1006A00010EB08006141002487EA115284EAE773E5
:1006B0001A4340D0009A62B3019A012A4FEA0752C6
:1006C00015DC001B61EB02014FF0004202EA075209
:1006D000CDE90042001C41F5801132462B46FFF760
:1006E00053FF03B0BDE8F08F40462146F9E7001BF9
:1006F00061EB0201001C41F5801300185B412018DA
:10070000A2F5001747EB030140EAD570B6196D4119
:1007100011E06D084FEA360645EAC0754FEA075208
:10072000001B61EB0201001C41F5801149084FEAF2
:1007300030000019514132462B4603B0BDE8F04F5E
:10074000FFF713BF0098012240000023D0EB020204
:1007500063EBE073009821464FEAE074B8EB0000C9
:1007600061EB0401E9E783F000435BE781F00041BE
:1007700058E7C1F30A52C1F3130140F2FF3341F4C9
:1007800080119A4202DA00200146704740F233435A
:100790009A42A2F2334202DC524200F03CB800F02E
:1007A0002BB8000030B5041E71F1000404DB4FF0DB
:1007B0000044404264EB0101141E73F1000405DBA8
:1007C0001C464FF00043524263EB0403994208BFBA
:1007D000904230BD064C074D06E0E06840F0010352
:1007E00094E8070098471034AC42F6D3FFF7F8FCC2
:1007F00084580008A4580008202A04DB203A00FA94
:1008000002F1002070479140C2F1200320FA03F367
:10081000194390407047202A04DB203A21FA02F065
:100820000021704721FA02F3D040C2F1200291402A
:10083000084319467047202A06DBCB17203A41FAB5
:1008400002F043EAE07306E041FA02F3D040C2F15D
:1008500020029140084319467047000070B51B48BC
:100860001949002401608902C0E90114C46004250B
:100870000461C0E90545047744770121016280F8ED
:100880002440C462046380F83840C46380F8404068
:1008900000F0B6FA08B100F067F80C480C492038AF
:1008A00001600621C0E901147F214461C0E90315FC
:1008B0000146203000F08EF8002803D0BDE87040DB
:1008C00000F052B870BD0000000100507C00002014
:1008D0000020903670B504460068816811F0010F61
:1008E0002DD18168174A11421AD18168D543294018
:1008F000491C816000F02AFD06461BE0816811F06A
:10090000010F03D181682940491C816000F01EFD60
:10091000801B02280ED920680068C043C00709D098
:10092000E06D40F01000E065206E40F001002066B0
:10093000012070BD20680168C943C907DED10020CD
:1009400070BD00003F000080FEE77047002240F6C7
:10095000B83306E00021491C89B29942FBD3521CEE
:1009600092B28242F6D3704772B6FEE70B4910B5D9
:100970000948086001F1200000F02CF807482030F9
:1009800000F06AFB012000F0E1FB0448203000F099
:1009900033FA80B210BD0000000052475C00002016
:1009A0000B4910B50948086001F1200000F012F869
:1009B0000748203000F050FB012000F0C7FB04483E
:1009C000203000F019FA80B210BD000000209036EF
:1009D0005C0000202DE9F84F00270446009790F8AE
:1009E0005800DFF8E0930D46B846012811D00126E3
:1009F00084F85860206802F01DFA60B1E06D40F0A4
:100A00002000E0655FF0010784F858803846BDE8B3
:100A1000F88F0220FBE7D5E900210C23206803EAC8
:100A200091131844036B01F01F014FF01F0C0CFAD7
:100A300001FCC2F3846223EA0C038A40134303637C
:100A4000206802F0F7F98246206802F0EFF95AEACE
:100A500000003CD1AA6829682068B2F1004F37D065
:100A600002F0ECF92068416921F000414161206801
:100A70006969C268C2F3C102520091402A69042A1E
:100A800031D000EB82002B68026EDFF83CC303F02C
:100A9000F84302EA0C020B431A4342F0004101669C
:100AA00020682A69A96900EB8200026E22F0807238
:100AB0000A430266297F22682869012910D0002193
:100AC00002EB8000026E22F000720A4302667DE0B3
:100AD000002202F0B3F92068416941F00041C5E706
:100AE0004FF00071ECE7002102F09AF94003206812
:100AF0004FF0000172D002F093F990FAA0F0B0FA32
:100B000080F1286842036ED090FAA0F0B0FA80F02D
:100B1000814204D100221146206802F09EF9012191
:100B2000206802F07DF9400320684FF001015DD09C
:100B300002F076F990FAA0F0B0FA80F1286842034A
:100B400059D090FAA0F0B0FA80F0814204D100228E
:100B50000121206802F081F90221206802F060F989
:100B6000400320684FF0020148D002F059F990FA92
:100B7000A0F0B0FA80F12868420344D090FAA0F0C7
:100B8000B0FA80F0814204D100220221206802F0F4
:100B900064F90321206802F043F9400320684FF014
:100BA000030133D002F03CF990FAA0F0B0FA80F1E2
:100BB000286842032FD090FAA0F0B0FA80F081426A
:100BC00004D100220321206802F047F920688168DF
:100BD00011F0010F22D0ACE000E004E002F020F9B7
:100BE000C0F384618DE7C0F3846091E702F018F9E7
:100BF000C0F38461A2E7C0F38460A6E702F010F9B5
:100C0000C0F38461B7E7C0F38460BBE702F008F982
:100C1000C0F38461CCE7C0F38460D0E72A7B296805
:100C200050F8B03FC1F3120C23EA0C0302F0180C89
:100C3000664A22FA0CF20A4013430360E968494508
:100C400077D1286841031CD090FAA0F1B1FA81F164
:100C5000491C01F01F0109294FEA403132D800290F
:100C600012D000BF90FAA0F1B1FA81F101F10101B7
:100C700001F01F0106FA01F609D100BFC0F384613B
:100C800009E0C0F38461E3E7C0F38461EEE790FA22
:100C9000A0F1B1FA81F101F1010101F01F0146EA71
:100CA000816102D1C0F3846003E090FAA0F0B0FA51
:100CB00080F000F1010000F01F0000EB400041EA6D
:100CC000005132E000290ED090FAA0F1B1FA81F182
:100CD00001F1010101F01F0106FA01F606D100BF82
:100CE000C0F3846106E0C0F38461F1E790FAA0F1FB
:100CF000B1FA81F101F1010101F01F0146EA8161C0
:100D000002D1C0F3846003E090FAA0F0B0FA80F062
:100D100000F1010000F01F002D4A00EB400002EB43
:100D2000005041EA000141F00071AA68206802F019
:100D300085F828482A6802423FF466AE2648816852
:100D4000264B01F0E0719A4202D0254B9A421CD109
:100D50000B021AD42268B2F1A04F7FF455AE82681C
:100D600041F4000122F0E0720A4382601D481E49EE
:100D70000068B0FBF1F0401C00EB4000800000E098
:100D8000401E00900028FBD13EE6184D184BAA42A9
:100D900007D1CD0105D422689A42F5D041F0807187
:100DA00009E0144DAA42EFD14A02EDD422689A42DA
:100DB000EAD041F48001826822F0E0720A43826046
:100DC00022E6000000007F4000F0FF03FFFF070065
:100DD000000020FE0000088000030050000021C336
:100DE0001000C09038000020400D0300000052C7E2
:100DF00000010050000084CB0068006C70470000C8
:100E0000F8B54FF0000504002E46009502D0E06DC5
:100E100010B107E00120F8BD204600F0EFF826668B
:100E200084F8586020688168C1F3407119B1816805
:100E30006A4A1140816020688168C1F3007189B9F4
:100E40008168674A114041F0805181606548664978
:100E50000068B0FBF1F04000801C00E0401E0090F4
:100E60000028FBD120688168C1F3007141B9E16DB0
:100E700041F01001E165216E41F00101216601257B
:100E800001F0D8FFE16DC90600D430B1E06D40F04B
:100E90001000E06501252846F8BDE06D20F4807063
:100EA00040F00200E0652068806810F0010F11D169
:100EB0004FF0A04080684D4900F00100896801F0C2
:100EC0000101084306D14A486168826822F47C1215
:100ED0000A438260E168E06B627F0843A16841EAEF
:100EE0004231084394F8241040EA0140012904D11A
:100EF000218D404A02EB41410843E16A29B101F4E6
:100F00007871226B014342EA01002168CA683A4BBA
:100F10001A400243CA6020680169626B21F0406197
:100F200011430161206801F085FF0646206801F049
:100F30007DFF30432ED1207F94F83810800340EAA3
:100F400041022068C16844F2020399431143C16021
:100F500020690028206801690AD041F480310161CC
:100F6000206850F8C01F22696FF30D01114307E09C
:100F700021F480310161206850F8C01F6FF30D012A
:100F8000016094F8400001280CD02068016921F02C
:100F900001010161606901282068016B21F00F01E6
:100FA00011D013E0D4E911010843D4E9131211431D
:100FB000084321680A6940F2FC739A43104340F0E9
:100FC00001000861E6E7226A521E11430163E06DE9
:100FD00020F0020040F00100E0655CE7C0FFFF5F29
:100FE000C0FFFF7F38000020400D030000010050CB
:100FF000000300500000FEFF0740F0FF10B586B070
:10100000044614216846FFF70AF91149206888420E
:101010001BD11048C16C41F40051C164C16C01F492
:1010200000510591C16C41F00101C164C06C694679
:1010300000F0010005903020009003200190002076
:1010400002904FF0904000F093F806B010BD000001
:1010500000010050001002402DE9F04104463848DC
:10106000806800F01F05206801F0E4FE18B102213D
:101070000846BDE8F08194F8580001280CD0012002
:1010800084F858002046FFF725FC01004FF00003CC
:1010900004D084F85830EBE70220EAE7E06D40F630
:1010A0000162904340F48070E065264A20684FF06A
:1010B000A046904201D1374600E00746874200D063
:1010C0001DB9E76D27F48017E765E76DFF0404D5C8
:1010D000276E27F00607276600E023661C270760B7
:1010E00084F858302068904201D1334600E003462E
:1010F000834215D0A5B1052D12D0092D10D0E36D76
:1011000043F48013E365904200D13046C06880010B
:10111000AED5E06D20F4005040F48050E065A7E7C4
:10112000C268920105D5E26D22F4005242F4805269
:10113000E2658268044B1A40121D826098E7000045
:101140000003005000010050C0FFFF7F70B504464F
:1011500000F0FCF80546601C02D0044840680444D6
:1011600000F0F4F8401BA042FAD370BD2C00002020
:101170002DE9FC4FDFF8A0A1002301250AF1040BA3
:1011800003244FF00F0C0BF1040EBDE005FA03F63B
:1011900032406FD04F68012F05D0022F03D0112F9E
:1011A00001D0122F17D1D0F808905F0004FA07F889
:1011B00029EA08090097D1F80C8008FA07F848EAEC
:1011C0000908C0F808804768B7430E79C6F30016CF
:1011D0009E403E434660C6684FEA430804FA08F75B
:1011E000BE4301978F6807FA08F73743C7604E6818
:1011F000022E01D0122E13D1DE0800EB86060096D7
:10120000366A5F07FF0E0CFA07F926EA0906D1F8DD
:10121000109009FA07F949EA0609009EC6F82090DD
:101220000668019FBE430F7907F0030707FA08F726
:10123000374307604E68F60065D5384E376E47F085
:1012400001073766366E23F0030706F001060096A5
:10125000334E3E44B146B6689F074FEA17780CFA02
:1012600008F7BE43B0F1904F05D02E4FB84204D1DD
:10127000012717E047E0002714E02B4FB84201D1C7
:1012800002270FE0294FB84201D103270AE0284F77
:10129000B84201D1042705E0264FB84201D1052705
:1012A00000E0062707FA08F73743C9F80870DAF8AC
:1012B00000605746D1F8048096435FEAC83800D5ED
:1012C00016433E60DBF800605F46D1F80480964329
:1012D0005FEA883800D516433E60DEF80060774646
:1012E000D1F8048096435FEAC82800D516433E60D3
:1012F000094F0C373E68D1F8048096435FEA88288E
:1013000000D516433E605B1C0A6832FA03F67FF490
:101310003DAFBDE8FC8F000000040140001002401A
:10132000000001400004004800080048000C00488C
:1013300000100048001400480069084000D0012057
:1013400070470AB1816170478162704701488068C7
:10135000704700002C000020024881684268114458
:10136000816070472C00002010B50024032000F09D
:1013700073F80F2000F008F808B1012401E000F034
:1013800025F8204610BD000070B50E4E054600241D
:10139000706898B14FF47A71B1FBF0F00A490968AE
:1013A000B1FBF0F000F040FD40B9102D06D2002254
:1013B0002946501E00F030F8356000E00124204638
:1013C00070BD00002C000020380000200A4882B0C8
:1013D000016E41F001010166016E01F00101009111
:1013E000816D41F080518165806D00F080500090EA
:1013F00002B000F0A1B8000000100240002809DB94
:1014000000F01F02012191404009800000F1E0201E
:10141000C0F8001170470000F0B40E4B1B680C467A
:10142000C3F30223C3F10705042D00D90425191DB8
:10143000072901D2002300E0DB1E012606FA05F190
:10144000491E214099409E40761E16403143F0BC13
:1014500002F078BC0CED00E0064900F007020868D5
:101460004FF6FF03184040EA0220034A1043086089
:10147000704700000CED00E00000FA052B492C4BF2
:101480000A6832214A432B4940B1B0F5007F086811
:1014900029D020F4C06040F480602CE00868C0F3DC
:1014A0004120022804D051F8800F20F4807022E0FF
:1014B000D1F8800020F48070C1F88000086820F422
:1014C000C06040F400700860B2FBF3F0401C00E024
:1014D000401E4A69520501D50028F9D148694005E6
:1014E0000AD503207047C0F34120022806D051F8E6
:1014F000800F40F48070086000207047D1F88000B1
:1015000040F48070C1F88000086820F4C06040F4A6
:1015100000700860B2FBF3F0401C00E0401E4A6916
:101520005205DBD50028F9D1D8E7000038000020AB
:1015300040420F00007000400248816841F4804141
:1015400081607047007000402DE9F8430446006850
:1015500000269D4D00035ED5A86D0027C00008D46D
:10156000A86D40F08050A865A86D012700F080505C
:101570000090DFF85892D9F8001041F48071C9F852
:101580000010FFF7E3FE804606E000BFFFF7DEFE37
:10159000A0EB080002282BD8D9F80000C005F5D52B
:1015A000D5F8900010F4407014D0216C814211D015
:1015B000D5F89000D5F8901020F4407041F48031B7
:1015C000C5F89010D5F8901021F48031C5F890102E
:1015D000C5F89000C00711D0FFF7B8FE804641F271
:1015E000883907E0FFF7B2FEA0EB0801494501D9B1
:1015F00003260BE0D5F890008007F3D5D5F89000CE
:10160000216C20F440700843C5F890001FB1A86D0C
:1016100020F08050A8652078C00707D0D5F8880052
:10162000616820F003000843C5F88800207880072F
:1016300007D5D5F88800A16820F00C000843C5F84C
:1016400088002078400707D5D5F88800E16820F0A9
:1016500030000843C5F888002078000707D5D5F882
:101660008800216920F0C0000843C5F88800207870
:10167000800607D5D5F88800616920F440600843EA
:10168000C5F888002078400607D5D5F88800A169FC
:1016900020F440500843C5F888002078000607D59C
:1016A000D5F88800E16920F440400843C5F8880077
:1016B0002088C00507D5D5F88800216A20F440307D
:1016C0000843C5F888002088800507D5D5F888002C
:1016D000616A20F440200843C5F88800208840054E
:1016E0000FD5D5F88800A16A20F440100843C5F84A
:1016F0008800A06AB0F5801F03D1E86840F480102C
:10170000E860208800050FD5D5F88800E16A20F44C
:1017100040000843C5F88800E06AB0F5800F03D1A7
:10172000E86840F48010E8602088C0040FD5D5F840
:101730008800216B20F040700843C5F88800206BBA
:10174000B0F1807F03D1E86840F48010E860208821
:101750004FF0006180040ED5D5F88800626B20F050
:1017600040601043C5F88800606B884203D1E86888
:1017700040F48010E860208840040ED5D5F8880039
:10178000A26B20F040601043C5F88800A06B88422F
:1017900003D1E86840F48010E860208800040FD589
:1017A000D5F88800E16B20F040500843C5F8880068
:1017B000E06BB0F1805F03D1E86840F48030E8600E
:1017C0003046BDE8F8830000001002400070004081
:1017D0002DE9F0470E4605004FF0000725D0DFF851
:1017E000AC81D8F8000000F00F00B0420CD2D8F85D
:1017F000001021F00F013143C8F80010D8F80000A4
:1018000000F00F00B04210D12968614CC80741F2C6
:10181000883A5AD06868DFF87C91032808D00228FB
:1018200020682DD0400500282CDB0120BDE8F08782
:1018300020688001F9D5E06800F00302E068C0F399
:101840000310401C032A19D0534A00BFB2FBF0F02A
:10185000E268C2F306225043E268C2F34162521CBE
:101860005200B0FBF2F0484517D9A06810F0F00F15
:101870000CD0880711D5A86840B10EE0474AE5E7CB
:101880008003D0E700F092F8484506D9A06820F020
:10189000F00040F08000A0608027A068696820F018
:1018A00003000843A060FFF751FD814606E000BF3A
:1018B000FFF74CFDA0EB090151453AD8A0686968D3
:1018C00000F00C00B0EB810FF2D12868810714D52D
:1018D000400703D5A06840F4E060A06028780007C6
:1018E00005D5A06820F4605040F4E060A060A068D6
:1018F000A96820F0F000084304E0802F03D1A0681D
:1019000020F0F000A060D8F80010404601F00F0170
:10191000B14216D9016821F00F0131430160FFF790
:1019200015FD074607E000BFFFF710FDC11B51453D
:1019300001D903207AE7D8F8000000F00F00B04288
:10194000F2D12878400705D5A068E96820F4E06066
:101950000843A0602878000706D5A068296920F40C
:10196000605040EAC100A06000F020F8A1680C4A75
:10197000C1F30311515C01F01F01C840094908601F
:1019800009480068BDE8F047FFF7FEBC00200240B0
:101990000010024000B4C4040024F40000366E01BC
:1019A000A4460008380000202C000020184910B57B
:1019B0008868C0F381021748012A0BD08A68164B49
:1019C000C2F38102022A06D08A68C2F38102032A86
:1019D00003D0002010BD184610BDCA6802F00304F1
:1019E000CA68C2F30312521C032C02D0B0FBF2F0FF
:1019F00001E0B3FBF2F0CA68C968C2F306225043A3
:101A0000C1F34161491C4900B0FBF1F010BD000079
:101A1000001002400024F40000366E012DE9F84366
:101A200004007AD02078FA4DC00747D0A868E9684A
:101A300000F00C0001F003010C2802D0082817D098
:101A400001E0032914D06068B0F5803F17D0B0F5ED
:101A5000A02F286817D020F480302860286820F450
:101A6000802028606068E0B1FFF770FC064614E053
:101A70002868800322D560680028D2D01EE028683C
:101A800040F48030EDE740F480202860F7E700BFA5
:101A9000FFF75CFC801B642870D828688003F7D5AA
:101AA0000CE0FFF753FC064605E000BFFFF74EFCD5
:101AB000801B6428F0D828688003F7D4207880073A
:101AC0004CD5A868E96800F00C0001F003010C286F
:101AD00002D004280DD001E002290AD0E0680028D5
:101AE00028682BD040F480702860FFF72FFC064652
:101AF00019E02868400502D5E068002891D06868A0
:101B0000217C20F0FE4040EA01606860C148006826
:101B1000FFF73AFC002800D120E076E1FFF716FC41
:101B2000801B0228B8D828684005F7D56868217C52
:101B300020F0FE4040EA016068600FE020F4807011
:101B40002860FFF703FC064605E000BFFFF7FEFB39
:101B5000801B0228A0D828684005F7D42078000709
:101B600029D560690028D5F8940013D040F0010011
:101B7000C5F89400FFF7EAFB064606E090E000BFD8
:101B8000FFF7E4FB801B022886D8D5F89400800775
:101B9000F6D510E020F00100C5F89400FFF7D6FB61
:101BA000064604E0FFF7D2FB801B022878D8D5F860
:101BB00094008007F6D42078400761D5A86D0026F0
:101BC000C00008D4A86D40F08050A865A86D01261B
:101BD00000F08050009090480168C90511D4016858
:101BE000804641F480710160FFF7B0FB074604E0D6
:101BF000FFF7ACFBC01B022852D8D8F80000C00584
:101C0000F6D5A068012815D00528D5F8900016D083
:101C100020F00100C5F89000D5F8900020F00400F5
:101C2000C5F89000A06841F28838B8B1FFF78EFB84
:101C300007460EE0D5F8900040F00100F0E740F0D4
:101C40000400C5F89000F5E7FFF780FBC11B414594
:101C500026D8D5F890008007F6D50CE0FFF776FB84
:101C6000074604E0FFF772FBC11B414518D8D5F8C1
:101C700090008007F6D41EB1A86D20F08050A865B2
:101C80002078800629D5A0690028D5F8980013D0BF
:101C900040F00100C5F89800FFF758FB064606E043
:101CA00077E000BFFFF752FB801B022877D8D5F8FA
:101CB00098008007F6D510E020F00100C5F89800E4
:101CC000FFF744FB064604E0FFF740FB801B0228B9
:101CD00065D8D5F898008007F6D4E069F0B3A96814
:101CE000C1F38101032961D00228286820F08070A7
:101CF00028600BD0E86820F00300E860E8684749F6
:101D00000840E860FFF722FB04464BE0FFF71EFBAC
:101D1000064604E0FFF71AFB801B02283FD828681C
:101D20008001F7D4F4E908016FF00F0202EB011112
:101D30000843218A5204490802EB4151A26841EA52
:101D400002210843217D4FF07E42490802EB4161A8
:101D50000843217B40EAC160E96800E062E0304A64
:101D600011400843E860286840F080702860E86807
:101D700040F08070E860FFF7E9FA044605E000BF34
:101D8000FFF7E4FA001B022809D828688001F7D57C
:101D900048E004E0FFF7DAFA001B022802D903202A
:101DA000BDE8F88328688001F4D43BE00128F7D02F
:101DB000E868226A00F00301914226D1616A00F0CE
:101DC000F0020901103991421FD1A26A00F4FE41CC
:101DD000B1EB022F19D194F82C2000F07841B1EB2F
:101DE000C26F12D1218E00F4C00249084905A1F545
:101DF0000011914209D194F8341000F0C0604908F4
:101E00004906A1F1007181420CD00120C8E7000011
:101E1000001002402C00002000700040FFFFEEFE8A
:101E20000C809F010020BBE710B5401EB0F1807F01
:101E300001D3012010BD4FF0E02460610F21601735
:101E400001F080FF0020A06107202061002010BD6C
:101E5000704770477047704770477047F0B590F80B
:101E60003C20012A3AD0012580F83C50022280F81B
:101E70003D2003685A689C68194E1A4FB34201D03E
:101E8000BB4204D122F4700C4A6842EA0C02DFF82B
:101E900058C002EA0C02D1F800C04CEA020CC3F8A8
:101EA00004C00268B2420DD0B2F1804F0AD00F4B8D
:101EB0009A4207D00E4B9A4204D0BA4202D00D4B40
:101EC0009A4204D1896824F080031943916080F814
:101ED0003D50002180F83C100846F0BD0220F0BDC6
:101EE000002C0140003401408FFFFFFD0004004042
:101EF0000008004000400140704710B5040003D0C6
:101F000094F83D0010B107E0012010BD002084F8D6
:101F10003C00204600F022F8022084F83D00211DFC
:101F2000206801F025FC012084F8480084F83E0078
:101F300084F83F0084F8400084F8410084F84200AF
:101F400084F8430084F8440084F8450084F846008F
:101F500084F8470084F83D00002010BD30B587B0FC
:101F6000044614216846FEF75AF9246800233049D4
:101F700002224FF09040B4F1804F15D02D4DAC426D
:101F800032D1886D40F002008865886D002200F033
:101F90000200059011461D20FFF73EFA5FF01D007C
:101FA000FFF72CFA07B030BD8C6D44F001048C654E
:101FB0008C6D04F001040594CC6C44F00104CC64F5
:101FC000C96C009201F001010591CDE901230121C5
:101FD000CDE903316946FFF7CBF8002211461C20FA
:101FE000FFF71AFA1C20DBE7134DAC42DAD10C6E76
:101FF00044F480340C660C6E04F480340594CC6C8C
:1020000044F00104CC64C96C01F001010591042184
:102010008DE80E000921CDE903316946FFF7A8F8E4
:10202000002211461820FFF7F7F91820B8E7000042
:1020300000100240000400400040014070B504461A
:1020400090F83C00012814D0012584F83C5002206F
:1020500084F83D0022689068344B184020F47F409B
:1020600090600868702827D010DC10F00F0F03D0A4
:102070004AE04FF0020070BD4FEA2012072A43D217
:10208000DFE802F05050505048313900284BC21A56
:10209000984247D009DCB0F5805F35D0B0F5005FDD
:1020A00015D0B0F1101F2FD13CE0102A3AD0202AD1
:1020B00038D0502A28D135E0CB68D1E901212068F9
:1020C00001F0BBFB2068816841F0770109E0CB6833
:1020D000D1E90121206801F0B0FB2068816841F45A
:1020E0008041816010E0CA684968206801F0A0FD65
:1020F0005021206806E0CA684968206801F0E0FDC8
:102100006021206801F0A4FB84F83D50002084F891
:102110003C0070BDCA684968206801F089FD402113
:102120002068EFE7226801461046EBE788FFCEFF04
:102130002000100070B505460068114C114EB0F13A
:10214000804F0BD1287F022818D10421284600F0A7
:10215000A5FB401CE061B6FBF0F060610A4928680D
:1021600088420BD1287F012808D10021284600F0A1
:1021700095FB401C2062B6FBF0F0A06170BD000032
:102180000000002040420F00004001402DE9F041D6
:10219000054690F83C000C46012836D0012085F811
:1021A0003C008AB3042A42D02868082A51D0D4E9D6
:1021B0000023E168066A26F480560662C669076A4B
:1021C00026F4407646EA03234FF6FF7606EA01310D
:1021D00023F4704319434FF4204627F4204306EAC2
:1021E00002321A43C16102622868C16921F4406168
:1021F000C1612868C169A26841EA0221C161002069
:1022000085F83C00BDE8F08101E00220FAE7D4E95E
:102210000012E368286801F01DFD2868816921F03B
:102220000C01816128688169A26811430FE0D4E93B
:102230000012E368286801F055FD2868816921F4DF
:102240004061816128688169A26841EA0221816157
:10225000D5E7D4E90027267B016A21F48071016269
:10226000C169036A21F00301394321F0F007310706
:102270004FF4206647EA116123F4206306EA022244
:102280001A43C16102622868C16921F00C01C16171
:102290002868C169A2681143B0E710B5040003D0F3
:1022A00094F83D0010B107E0012010BD002084F833
:1022B0003C00204600F022F8022084F83D00211D59
:1022C000206801F055FA012084F8480084F83E00A7
:1022D00084F83F0084F8400084F8410084F842000C
:1022E00084F8430084F8440084F8450084F84600EC
:1022F00084F8470084F83D00002010BD70470000BE
:1023000010B5044679B1042912D0082915D00C293A
:1023100018D0102919D094F8430000BF94F8472032
:10232000012817D114E094F83E0094F84420F7E710
:1023300094F83F0094F84520F2E794F8400094F8B0
:102340004620EDE794F84100E8E794F84200E5E71D
:10235000012A01D0012010BD022071B1042915D03D
:1023600008291CD00C2948D0102949D084F84300F2
:1023700084F847000C291BD145E084F83E0084F81E
:1023800044002068C26842F0020210E084F83F0076
:1023900084F845002068C26842F0040207E084F82F
:1023A000400084F846002068C26842F00802C2601B
:1023B0000122206801F034FA1549206888420ED0C5
:1023C000B0F1804F0BD01349884208D0124988429F
:1023D00005D01249884202D01149884207D181684C
:1023E000104A1140062906D0B1F5803F03D001689C
:1023F00041F001010160002010BD84F84100B7E701
:1024000084F84200B4E72068C26842F01002CEE7C8
:10241000002C01400004004000080040003401404E
:10242000004001400700010070B5044600680169E2
:102430004FF00005C943890715D4C168C94389070E
:1024400011D4E91E0161012020772068806980078E
:10245000204602D0FFF76EFE04E000F03FF9204670
:1024600000F01AFA257720680169C943490717D493
:10247000C168C943490713D46FF004010161022008
:1024800020772068806910F4407F204602D0FFF753
:1024900051FE04E000F022F9204600F0FDF9257716
:1024A00020680169C943090716D4C168C9430907EF
:1024B00012D46FF008010161042020772068C06900
:1024C0008007204602D0FFF735FE04E000F006F951
:1024D000204600F0E1F9257720680169C943C90663
:1024E00017D4C168C943C90613D46FF01001016144
:1024F000082020772068C06910F4407F204602D071
:10250000FFF718FE04E000F0E9F8204600F0C4F9F7
:10251000257720680169C943C90708D1C168C94343
:10252000C90704D1891E0161204600F0B6F9206870
:102530000169C943090609D4C168C943090605D41C
:102540006FF0800101612046FFF783FC206801697C
:10255000C943C90509D4C168C943090605D46FF444
:10256000807101612046FFF773FC20680169C9434F
:10257000490609D4C168C943490605D46FF0400132
:102580000161204600F0CAF920680169C943890643
:1025900009D4C168C943890605D46FF020010161DF
:1025A0002046FFF757FC20680169C943C90209D4D6
:1025B000C168C943C90205D46FF480110161204686
:1025C000FFF74AFC20680169C943890209D4C16840
:1025D000C943890205D46FF4001101612046FFF759
:1025E0003AFC20680169C943490209D4C168C9435A
:1025F000490205D46FF4800101612046FFF72DFCEC
:1026000020680169C94309020BD4C168C9430902A2
:1026100007D46FF4000101612046BDE87040FFF768
:102620006BBC70BD10B586B0044614216846FDF73A
:10263000F6FD0E492068884215D10D48C16C41F065
:102640000101C164C06C002100F0010005908020F0
:1026500000900220CDE901010390049069464FF0FB
:102660009040FEF785FD06B010BD0000000400405C
:102670000010024010B5044690F83C0001280BD031
:10268000012084F83C000C2A19D007DC5AB1042A36
:102690000DD0082A1ED10EE0022010BD102A12D043
:1026A000142A17D113E0206801F0DCF812E020684A
:1026B00001F026F90EE0206801F06AF90AE02068CE
:1026C00001F0AEF906E0206801F0F2F902E02068BE
:1026D00001F026FA002084F83C0010BD0A4A016887
:1026E00091420CD1007F022809D10848427A3AB1C0
:1026F000012A04D14A6A006A02EB500088637047DD
:102700004A6AC069F8E700000004004000000020A9
:1027100010B5040003D094F83D0010B107E001208B
:1027200010BD002084F83C00204600F022F8022072
:1027300084F83D00211D206801F01AF8012084F87A
:10274000480084F83E0084F83F0084F8400084F894
:10275000410084F8420084F8430084F8440084F87F
:10276000450084F8460084F8470084F83D000020C6
:1027700010BD704730B50446022269B1042916D055
:10278000082920D00C2929D010292ED094F84300F4
:10279000012831D0012030BD94F83E000128F9D144
:1027A00084F83E202068C26842F0020209E094F8F2
:1027B0003F000128EED184F83F202068C26842F033
:1027C0000402C2601CE094F840000128E2D184F8C1
:1027D00040202068C26842F00802F2E794F8410005
:1027E0000128D7D184F8412008E094F8420001285C
:1027F000D0D184F8422003E084F843200C2935D05E
:102800000122206801F00CF81B4920681B4A1C4B70
:10281000884209D0904207D0984205D0194DA8426D
:1028200002D0194DA84203D1456C45F400454564DA
:10283000206888420CD0B0F1804F09D013498842FB
:1028400006D01349884203D0904201D0984207D164
:102850008168104A1140062906D0B1F5803F03D0A7
:10286000016841F001010160002030BD2068C268AC
:1028700042F01002A5E70000002C014000340140A6
:102880000040014000440140004801400004004075
:102890000008004007000100704770470246002012
:1028A00041B1042909D008290AD00C2901D11068A6
:1028B000006C70471068406B70471068806B704701
:1028C0001068C06B704770B5044690F83C00012852
:1028D00012D0012584F83C50022084F83D002046A7
:1028E00001F056F901004FF0000007D084F83D5088
:1028F00084F83C00012070BD022070BD2168CA68C8
:1029000022F04002CA602168CA6822F48042CA608C
:1029100084F83D5084F83C00002070BD7047FEE70D
:102920002A4810B501682A4CE268891A642930D314
:102930000068E06000F04EF82071E27920EA0201C0
:10294000424082436171A271E071012909D1207A6C
:10295000401C00F001002072002000F089F8207A6D
:1029600018B1207A012807D00BE02078A070607899
:10297000E0700020A07204E0607902280AD00328E9
:1029800016D06079042804D1607A401C00F0010060
:10299000607210BD2078401C00F007002070617844
:1029A000884201D1401C207000F00700207010BD4B
:1029B0006078401C00F0070060702178814201D1EE
:1029C000401C607000F00700607010BD34000020F3
:1029D0000000002070B50E4D002401212846FEF7AE
:1029E000ABFC00B9012402212846FEF7A5FC00B982
:1029F000022404212846FEF79FFC00B9032401218C
:102A00004FF09040FEF798FC00B90424204670BDBA
:102A10000004004800B585B014216846FDF7FFFBAF
:102A20004FF6FF70009000200321CDE902010190D4
:102A300069460248FEF79CFB05B000BD000800484F
:102A400000B585B014216846FDF7E9FB4FF6FF702D
:102A5000009001200190032003900020029069461D
:102A60000248FEF785FB05B000BD000000080048E5
:102A700070B5002406462146204600F003F900F018
:102A800041F94FF49635304600F010F9641CAC4221
:102A9000F9D370BD30B587B014216846FDF7BFFB90
:102AA0001E48C16C41F00401C164C16C01F0040115
:102AB0000591C16C41F00101C164C16C01F00101DB
:102AC0000591C16C41F00201C164C06C012500F0A8
:102AD000020005904FF44870CDE9000500240394EE
:102AE000694602940E48FEF743FB280203940090C7
:102AF000CDE901544FF0904469462046FEF738FB7B
:102B0000FFF79EFFA06940F48070A0610448183070
:102B1000016841F40871016007B030BD0010024047
:102B200000040048203AD2B2034B02EB420203EB0E
:102B3000021200F019B80000B4460008F0B50E46C5
:102B40000746002540F23F1407E021463846FFF7CC
:102B5000E9FF103C6D1CA4B2761C3278002A01D02B
:102B6000142DF2D3F0BD00002DE9F04791468A46BE
:102B70000026044600F086F8DFF84080012700BFF9
:102B800000F0C0F85FF0000539F8160007FA05F10B
:102B90000842404601D1408800E0008800F086F8F5
:102BA0006D1C102DF0D3641CE4B25146204600F099
:102BB00069F8761C182EE3D3BDE8F0873C000020AE
:102BC00010B5FFF767FF002000F014F8084CA08054
:102BD000A088A0F50241303906D000F053FB002058
:102BE00000F008F8A08010BD00F0C3FAF7E700007D
:102BF0003C00002070B51D490A6842F400720A606A
:102C00000A6842F480720A60184C103C226842F054
:102C100020022260164A1060086840F02000086018
:102C200000BF00BF00BF206840F020002060206887
:102C300040F480702060FFF7EDFE4FF09041886A0D
:102C400040F48070886200BF00BF00BF0848001FCA
:102C5000006885B2886940F480708861FFF7F0FEF3
:102C6000206840F400702060284670BD28040048A9
:102C70001408004801B5BDF800000149488008BDAE
:102C80003C00002010B50C460146202000F068F8FA
:102C90002146BDE81040212000F062B801B5BDF822
:102CA00000000149088008BD3C000020134A11685B
:102CB00041F400711160114910390B6843F48073BD
:102CC0000B600B6843F020030B600D4B186010681D
:102CD00040F02000106000BF00BF00BF086840F057
:102CE00020000860086840F48070086000BF00BFE2
:102CF00000BF086840F4007008607047280400486E
:102D0000140800481449086840F400700860086816
:102D100040F48070086010481038026842F02002C9
:102D200002600E4B22221A600A6842F020020A60FA
:102D300000BF00BF00BF016841F0200101600168D1
:102D400041F48071016000BF00BF00BF016841F421
:102D50000071016070470000280400481408004812
:102D6000184B10B51A6842F400721A601A6842F4DF
:102D700080721A60134A103A146844F020041460F8
:102D8000114C2060186840F02000186000BF00BFA0
:102D900000BF106840F020001060106840F48070A0
:102DA00010602160186840F02000186000BF00BF6C
:102DB00000BF106840F020001060106840F4807080
:102DC000106010BD280400481408004870B5124D6A
:102DD000044601224FF6FF712846FEF7B2FA0F4E65
:102DE000012204213046FEF7ACFA002204213046CD
:102DF000FEF7A7FA210200222846FEF7A2FA0122D6
:102E000004213046FEF79DFA3046BDE870400022AE
:102E10000421FEF796BA000000080048000C0048A4
:102E200000EB8100006E00F0F84070478068C0F34E
:102E3000C00070478068C0F380007047042303EA35
:102E4000D15310B518444369C1F3045107248C4091
:102E5000A3438A401343436110BD00EB8100016E20
:102E600021F00041114301667047000010B5584839
:102E70002DED048B0168574C2269891A64297CD393
:102E800000682061FDF772FDFDF7B5FA9FED528BEA
:102E900053EC182BFDF7CEF99FED519B53EC192BFA
:102EA000FDF73AFAFDF7C7FA6062FDF779FDFDF725
:102EB000A2FA53EC182BFDF7BDF953EC192BFDF7D3
:102EC0002BFAFDF7B8FAA062207A10B1012837D0AA
:102ED00052E045A1494800F021FF48491820FFF77A
:102EE0002DFE606AFDF794FA41EC100B44A153ECFF
:102EF000102B424800F012FF40494820FFF71EFE09
:102F0000A06AFDF785FA41EC100B42A153EC102B9F
:102F10003A4800F003FF39496020FFF70FFE42A155
:102F20003648626900F0FAFE34497820FFF706FE61
:102F300042A13248A26900F0F1FE3049902019E028
:102F400043A12E4800F0EAFE2C491820FFF7F6FDB9
:102F5000227844A12948521C00F0E0FE274948206D
:102F6000FFF7ECFD627844A12448521C00F0D6FE25
:102F700022496020FFF7E2FD00E026E094ED090A17
:102F8000D4ED0A0A0120A178B4EEE00AA27AF1EEAB
:102F900010FA00FA01F102DD1143A17201E08A4347
:102FA000A272D4E905129142E17800FA01F0A17A07
:102FB00002D90843A07201E08143A172A07ABDEC5E
:102FC000048BBDE81040FFF701BFBDEC048B10BDC2
:102FD00034000020000000206666666666660A40CF
:102FE0000000000000FEAF4020202020444154415A
:102FF000202020202020202020000000440000204D
:103000002020202056313A252E31665620202020BF
:10301000200000002020202056323A252E3166560E
:1030200020202020200000002020202046313A25AA
:1030300064487A202020202020000000202020202A
:1030400046323A2564487A202020202020000000C3
:1030500020202020504152412020202020202020CC
:10306000200000002020202056443A4C44253164A2
:1030700020202020200000002020202046443A4C20
:10308000442531642020202020000000F0B587B0C6
:1030900014216846FDF7C3F83048C16C41F00401C3
:1030A000C164C16C01F004010591C16C41F02001C3
:1030B000C164C16C01F020010591C16C41F00101B6
:1030C000C164C16C01F001010591C16C41F00201C4
:1030D000C164C16C01F002010591C16C41F00801AD
:1030E000C164C06C1E4E00F008004FF47F44059090
:1030F000012221463046FEF724F91A4F012204210D
:103100003846FEF71EF90125CDE90045002402945A
:10311000694630460394FEF72BF8CDE90054694622
:103120004FF090400294FEF723F80720CDE9000409
:1031300069460D480294FEF71BF804200090CDE983
:103140000154694638460394FEF712F80022042120
:103150003846FEF7F6F807B0F0BD00000010024058
:1031600000080048000C004800040048FEE7FEE7A5
:10317000704730B501210020FFF7F2FD4FF47A705F
:10318000FDF7E4FB00210120FFF7EAFD41F2907119
:103190001020FFF7E5FD4FF41C516020FFF7E0FD24
:1031A00001216120FFF7DCFD02214620FFF7D8FD59
:1031B00048F210011320FFF7D3FD48F2FE01122060
:1031C000FFF7CEFD4FF4A0610220FFF7C9FD41F2E9
:1031D00030010320FFF7C4FD40F2033421463020C4
:1031E000FFF7BEFD21463120FFF7BAFD2146322010
:1031F000FFF7B6FDE51E29463320FFF7B1FD032199
:103200003420FFF7ADFD21463520FFF7A9FD14213D
:103210003620FFF7A5FD21463720FFF7A1FD214607
:103220003820FFF79DFD21463920FFF799FD2946FB
:103230003A20FFF795FD03213B20FFF791FD214642
:103240003C20FFF78DFD4FF4A0513D20FFF788FD96
:103250004FF400719220FFF783FD21469320FFF782
:103260007FFD40F60D019020FFF77AFD41F2180135
:103270000320FFF775FDBDE8304040F273110720D1
:10328000FFF76EBD10B543F20801E320FFF768FDBC
:103290001221E720FFF764FD41F23121EF20FFF713
:1032A0005FFD00210120FFF75BFD4FF4E06102208C
:1032B000FFF756FD41F230010320FFF751FD0021D9
:1032C0000420FFF74DFD40F207210820FFF748FDDD
:1032D00000210920FFF744FD00210A20FFF740FDEF
:1032E00000210C20FFF73CFD00210D20FFF738FDE9
:1032F00000210F20FFF734FD00211020FFF730FDE3
:1033000007211120FFF72CFD00211220FFF728FDD7
:1033100000211320FFF724FDC820FDF717FF41F21D
:1033200090611020FFF71CFD40F227211120FFF7CC
:1033300017FD3220FDF70AFF1D211220FFF710FDB7
:103340003220FDF703FF4FF400611320FFF708FD63
:1033500014212920FFF704FD0B212B20FFF700FD8E
:103360003220FDF7F3FE00212020FFF7F9FC0021B9
:103370002120FFF7F5FC07213020FFF7F1FC40F298
:1033800007713120FFF7ECFC06213220FFF7E8FC43
:1033900040F204713520FFF7E3FC41F6047136205A
:1033A000FFF7DEFC04213720FFF7DAFC002138208C
:1033B000FFF7D6FC40F206713920FFF7D1FC40F24E
:1033C00001713C20FFF7CCFC0F213D20FFF7C8FC2A
:1033D00000215020FFF7C4FCEF215120FFF7C0FC73
:1033E00000215220FFF7BCFC40F23F115320FFF7B1
:1033F000B7FC4FF41C516020FFF7B2FC01216120A3
:10340000FFF7AEFC00216A20FFF7AAFC0021802014
:10341000FFF7A6FC00218120FFF7A2FC00218220FB
:10342000FFF79EFC00218320FFF79AFC00218420F7
:10343000FFF796FC00218520FFF792FC10219020D9
:10344000FFF78EFC00219220FFF78AFC03219320D6
:10345000FFF786FC4FF488719520FFF781FC00216F
:103460009720FFF77DFC00219820FFF779FC41F2BF
:1034700018010320FFF774FCBDE8104040F27311FF
:103480000720FFF76DBC7047FDF766BF10B5A6B00B
:1034900038216846FCF7C3FE14211FA8FCF7BFFEC5
:1034A00044210EA8FCF7BBFE4FF40070FDF7E6FFC9
:1034B000012000900004019002200324CDE90704BC
:1034C0001421CDE90A100C900D9009946846FEF77E
:1034D000A5FA08B172B6FEE70F20CDE91F0400205F
:1034E00021902290239002211FA8FEF771F908B1C4
:1034F00072B6FEE70B48C16C41F02001C164C06C9C
:1035000000F0200024904FF400400E9080031D90A6
:103510000EA8FEF719F8002801D072B6FEE726B013
:1035200010BD0000001002400248016841F4700123
:103530000160704788ED00E010B590B00024099458
:103540000A940B94142104A80C94FCF768FE2848F4
:103550000D940F940E9400940194029423490394C3
:1035600001604F21C0E901144FF6FF71C0E9031457
:1035700044618461FEF7C1FC08B1FDF7F5F94FF431
:103580008050099009A91A48FEF758FD08B1FDF7C7
:10359000EBF91748FEF781FE08B1FDF7E5F90420C5
:1035A00004905020CDE9050404A911480894FFF7C0
:1035B0008AF908B1FDF7D8F90D940DA90C480F94BC
:1035C000FEF74CFC08B1FDF7CFF90120CDE9004032
:1035D00002940022694606480394FEF7D7FD0028AE
:1035E00001D0FDF7C1F910B010BD0000004001404E
:1035F000800100200148FEF717BF00008001002075
:1036000010B590B0002409940A940B94142104A8D6
:103610000C94FCF704FE27480D940F940E9400942C
:10362000019402944FF08041039401604F21C0E95E
:1036300001144FF6FF71C0E903148461FEF75DFCCD
:1036400008B1FDF791F94FF48050099009A9194884
:10365000FEF7F4FC08B1FDF787F91648FEF71DFEEA
:1036600008B1FDF781F9042004906020CDE905043C
:1036700004A910480894FFF726F908B1FDF774F97A
:103680000D940DA90B480F94FEF7E8FB08B1FDF768
:103690006BF90120CDE900400294042269460548F7
:1036A0000394FEF773FD002801D0FDF75DF910B01B
:1036B00010BD0000E80000200148FEF7B5BE000084
:1036C000E80000200148FEF7AFBE000034010020F2
:1036D00010B58EB000240794089409940A940B94B2
:1036E0000C941C2168460D94FCF799FD1F481E4957
:1036F00001604F21C0E901144FF6FF71C0E90314C6
:103700008461FEF7FAFB08B1FDF72EF94FF4805003
:10371000079007A91548FEF791FC08B1FDF724F9B9
:103720001248FEF7F5FF08B1FDF71EF90B940BA93F
:103730000E480D94FEF792FB08B1FDF715F9302005
:1037400000904FF4FA70CDE901040422694607485D
:103750000494FEF78FFF08B1FDF706F90348FEF762
:1037600061FF0EB010BD00000004004034010020D5
:103770002DE9F0430268234B234D244E244C4FF097
:103780008049984207D0484505D0A84203D0B042AE
:1037900001D0A04203D122F070074A683A431D4F7E
:1037A000DFF874C0DFF8748098420DD048450BD024
:1037B000A84209D0B04207D0A04205D0B84203D0F9
:1037C000604501D0404503D122F44075CA682A43C0
:1037D0004D6922F080022A4302608A68C2620A6848
:1037E0008262984207D0A04205D0B84203D060451B
:1037F00001D0404501D10969016301214161BDE862
:10380000F0830000002C014000040040000800404C
:1038100000340140004001400044014000480140A4
:1038200010B501F01F030121046A99408C43046222
:10383000016A9A401143016210BD10B5846842EAE2
:10384000032224F47F440A432243826010BD000017
:103850008268034B1A400A4342F0070181607047B7
:103860008FFFCFFF2DE9F043026A22F001020262CE
:10387000056A436882691C4C25F0020522400C68E9
:1038800022F0030214438A68194E2A43174D194F38
:10389000DFF864C0DFF86490A84207D0B04205D0DA
:1038A000B84203D0604501D0484506D122F008084F
:1038B000CA6842EA080222F00402A84207D0B042D5
:1038C00005D0B84203D0604501D0484505D14D69C7
:1038D00023F440731D438B692B4343608461496823
:1038E00041630262BDE8F0838FFFFEFF002C0140C0
:1038F00000340140004001400044014000480140C4
:10390000F0B5026A22F010020262056A4268836919
:10391000194C1B4E23400C6823F4407343EA0424E3
:1039200025F020038D6843EA0513144DA84201D009
:10393000B04206D1CF6823F0800343EA071323F097
:103940004003A8420AD0B04208D00E4DA84205D08C
:103950000D4DA84202D00D4DA84207D14D6922F469
:10396000406242EA85028D6942EA850242608461D2
:10397000496881630362F0BDFF8FFFFE002C0140A8
:103980000034014000400140004401400048014033
:10399000F0B5026A22F480720262056A4368C26965
:1039A000194C1B4E22400C6822F00302144325F4EC
:1039B00000728D6842EA0522144DA84201D0B0423F
:1039C00006D1CF6822F4006242EA072222F4806224
:1039D000A8420AD0B04208D00E4DA84205D00E4DE4
:1039E000A84202D00D4DA84207D14D6923F440539F
:1039F00043EA05138D6943EA05134360C4614968CE
:103A0000C1630262F0BD00008FFFFEFF002C014089
:103A100000340140004001400044014000480140A2
:103A2000F0B5026A22F480520262056A4268C369F4
:103A3000194C1B4E23400C6823F4407343EA0424C2
:103A400025F400538D6843EA0533144DA84201D094
:103A5000B04206D1CF6823F4004343EA073323F48E
:103A60008043A8420AD0B04208D00E4DA84205D0EB
:103A70000D4DA84202D00D4DA84207D14D6922F448
:103A8000404242EA85128D6942EA85124260C46171
:103A9000496801640362F0BDFF8FFFFE002C014006
:103AA0000034014000400140004401400048014012
:103AB00030B5026A22F480320262046A4268036D01
:103AC000114D2B400D681D4324F400330C8943EA4B
:103AD00004430E4CA0420BD00D4CA04208D00D4C1C
:103AE000A04205D00C4CA04202D00C4CA04204D104
:103AF0004C6922F4803242EA04224260056549683A
:103B00008164036230BD00008FFFFEFF002C014086
:103B100000340140004001400044014000480140A1
:103B200030B5026A22F480120262046A4268036DB0
:103B3000114D24F400142B400D6843EA05230D8930
:103B400044EA05540D4DA8420BD00D4DA84208D0B3
:103B50000C4DA84205D00C4DA84202D00B4DA842F6
:103B600004D14D6922F4802242EA85224260036535
:103B70004968C164046230BDFF8FFFFE002C014024
:103B80000034014000400140004401400048014031
:103B900010B50468A268234B1A404B681343224AAD
:103BA00013400A681A43A2604A68602A32D006DCD1
:103BB000302A34DD402A0ED0502A30D124E01B4B6D
:103BC0009A422CDA702A2AD10B69D1E902210068C5
:103BD000FFF733FE23E00A68052A13D0B2F1011F74
:103BE00010D00268136A146A24F001041462026897
:103BF0009469096924F0F00444EA011191610068B4
:103C000003620CE0012010BD0A698968006800F0B9
:103C10000FF804E00A698968006800F051F8002094
:103C200010BD00008FFFCFFFF8FFFEFF3000100037
:103C300010B5036A046A24F001040462846924F064
:103C4000F00444EA021423F00A020A438461026287
:103C500010BD000070B5046A24F001040462846998
:103C6000056A124EB0420ED0B0F1804F0BD0104E0C
:103C7000B04208D00F4EB04205D00F4EB04202D035
:103C80000E4EB04203D124F00304144301E044F08B
:103C900001041A0724F0F00444EA126225F00A0332
:103CA00001F00A0119438261016270BD002C0140DC
:103CB0000004004000080040003401400040014082
:103CC00010B5036A23F0100303628369046A23F4C6
:103CD000704343EA023224F0A00343EA01118261F7
:103CE000016210BD30B5046A24F0100404628469D6
:103CF000056A24F4407444EA022222F470444FF628
:103D0000FF7202EA03322243A02425F0A00304EA52
:103D1000011119438261016230BDFEE70FB4084B07
:103D200010B504A902AA039800F0EEF8044602A90F
:103D3000002000F080FC204610BC5DF814FB000061
:103D4000374600080907090E002804DB00F1E020CF
:103D500080F80014704700F00F0000F1E02080F8B8
:103D6000141D704702E008C8121F08C1002AFAD1CA
:103D700070477047002001E001C1121F002AFBD1EB
:103D8000704700002DE9FF5F82B00021DDE90430BB
:103D9000020DDDF840B0034318D044F61050A2F2F3
:103DA000FF3242431514119801281FD0A5EB0B00D8
:103DB000401C5FEA000A4FF000064E4FDFF83891D2
:103DC000B046504615D5CAF1000413E011980124FD
:103DD0004AA3012801D16FEA0B010298119AC0E9A8
:103DE0000031C0E9024206B0BDE8F09FCBF100000F
:103DF000DFE704460021404A491842EB0450CDE970
:103E0000001012E0E00707D032463B4640464946E4
:103E1000FCF710FA8046894632463B461046194662
:103E2000FCF708FA06460F466410002CEAD1DDE9DB
:103E30000401DDE90023BAF1000F06DAFCF7FAF914
:103E400042464B46FCF7F6F905E0FCF765FA4246B8
:103E50004B46FCF761FA04460E460022284BFCF75D
:103E6000A1FC03D84FF0FF30014607E00022254BAC
:103E700020463146FCF7D6FBFCF77BFC102409E01A
:103E8000002C0ADB0A220023FCF707FB039B3032DD
:103E90001A55641E50EA0102F2D1641C039AC4F15F
:103EA00011031444119A012A03D0012208430DD1B1
:103EB0000AE0084304D000204FF0110B119072E784
:103EC000A3EB0B056D1E0DE05B4504DD4FF000021A
:103ED00005F1010504E003DA4FF00002A5F1010548
:103EE000002AECD002981199C0E90231C0E90045DE
:103EF00079E70000000014400000F03F30000000AF
:103F00000000F0430000E03F2DE9FF4F95B09B46D5
:103F10008946064600250FE2252877D1002427464A
:103F2000F84A0121059400E0044316F8013F203BC4
:103F300001FA03F01042F7D130782A2811D06FF03F
:103F40002F033078A0F13002092A16D8059A44F0E0
:103F5000020402EB820203EB42021044761C05903D
:103F6000EFE759F8042B0592002A03DA504244F493
:103F70000054059044F00204761C30782E2816D1A7
:103F800016F8010F44F004042A280DD06FF02F0218
:103F90003078A0F13003092B09D807EB870302EB37
:103FA0004303C718761CF3E759F8047B761C307876
:103FB0006C280FD006DC4C2817D068280DD06A2852
:103FC00014D104E0742810D07A280FD10DE044F405
:103FD00000140AE044F4801401E044F440147278C0
:103FE000824202D104F58014761C761C3078662853
:103FF0000BD013DC582877D009DC002875D0452871
:10400000F6D04628F4D047281AD19DE118E063285D
:1040100035D0642879D0652812D195E1702873D005
:1040200008DC6728F1D069286FD06E280DD06F2882
:1040300006D1B5E073282CD0752875D0782874D0B7
:104040005A46179990476D1C75E1C4F30250022837
:1040500009D003280DD0D9F8001004280DD00D6028
:1040600009F1040967E1D9F80010EA17C1E9005223
:10407000F6E7D9F800100D80F2E70D70F0E719F8B7
:10408000041B8DF8001000208DF80100EA46012085
:1040900003E059F804AB4FF0FF3061074FF0000127
:1040A00002D40DE008F101018846B9420FDA8045DB
:1040B000F8DB1AF808100029F4D108E008F1010132
:1040C00088468142FADB1AF808100029F6D10598D3
:1040D0005B46A0EB080721463846179A00F094FA91
:1040E000284400EB080507E04DE029E10DE01AF84F
:1040F000010B5A4617999047B8F10108F7D25B4671
:1041000021463846179A13E142E00A220092C4F38E
:1041100002524FF0000A022A08D059F804CB032AB1
:104120004FEAEC710AD00DE029E02AE009F107011D
:1041300021F00702F2E802C1914609E00FFA8CFC77
:104140004FEAEC71042A03D14FFA8CFC4FEAEC7170
:10415000002907DA0A460021DCF1000C61EB0201BC
:104160002D2202E0220504D52B228DF80420012205
:1041700003E0E20701D02022F7E7904659E00A2148
:1041800002E010220DE010214FF0000A00910BE038
:1041900010224FF0000A44F004040827009203E0C4
:1041A00008224FF0000A0092C4F30252022A05D0FE
:1041B00059F804CB0021032A08D009E009F10701CE
:1041C00021F00702F2E802C1914605E01FFA8CFCDB
:1041D000042A01D10CF0FF0C4FF00008220728D56B
:1041E000702806D0009B83F0100353EA0A0305D021
:1041F0000EE040228DF80420012208E05CEA010272
:1042000006D030228DF804208DF805000222904659
:10421000009B83F0080353EA0A030AD15CEA010217
:1042200001D1620705D530228DF804204FF0010836
:104230007F1E582804D034A003900EA802900DE0F1
:1042400036A0F9E753466046009AFCF726F9844603
:104250000398825C0298401E029002705CEA0100A2
:10426000F0D1029806A9081A00F1200A600702D5C9
:1042700024F4803400E00127574502DDA7EB0A0053
:1042800000E0002000EB0A01009005984144401A2C
:104290000590E00306D45B462146179A059800F086
:1042A000B3F90544002706E001A85A46C05D1799F6
:1042B00090476D1C7F1C4745F6DBE0030CD55B4641
:1042C0002146179A059800F09FF9054404E0302034
:1042D0005A46179990476D1C0099481E0090002976
:1042E000F5DC08E0029802995A460078491C0291D0
:1042F000179990476D1CBAF10001AAF1010AF1DC8F
:1043000065E1000009280100303132333435363799
:104310003839616263646566000000003031323311
:1043200034353637383941424344454600000000B1
:1043300000F058F90544761C307800287FF4ECAD85
:1043400019B02846BDE8F08F620700D4062709F1AE
:10435000070222F0070CFCE80223E14603F00048C4
:104360005FEA080C02D00FF2702C0DE05FEA045CEB
:1043700002D50FF2682C07E05FEAC47C02D00FF28E
:10438000602C01E0AFF2700C4FF0FF3823F00043D7
:10439000CDF850C065280CD006DC452809D0462849
:1043A0001DD047283DD13DE0662818D067287ED132
:1043B00038E00021112F01DB112000E0781CCDE94D
:1043C000000106A90EA8FFF7DDFCDDE90F010E9A3A
:1043D00003910021009207F1010A04914DE04FF092
:1043E00000400097CDE9011006A90EA8FFF7CAFC0E
:1043F000DDE90F0203920E9B11990022DDF80CA05B
:104400000093049211B9791C00EB010AB7EB0A0082
:1044100004D4C0F1FF3007F1010A0490AAEB0700B1
:10442000019044E0012F00DA01270021112F01DD66
:10443000112000E03846CDE9000106A90EA8FFF7DB
:10444000A1FCDDE90F010E9A039100210491009275
:10445000BA4621070CD40399514500DA8A46BAF1CD
:10446000010F05DD009AAAF10101515C302908D045
:10447000B84202DA10F1040F06DA0121CDE9011089
:1044800015E0AAF10101E9E7002805DC04990144DF
:104490000491AAEB000102E0411C514500DD8A466F
:1044A0000499401A401C01904FF0004002902007F0
:1044B00004D40198504501DBCDF8048000208DF82C
:1044C0004F0002980DF14F07B0F1004F25D02B207F
:1044D0000E9002984FF0020800280CDA4042029039
:1044E0002D200E9007E00A210298FBF7C0FF303123
:1044F000029007F8011DB8F10001A8F10108F2DCF3
:1045000002980028EFD1791E0E980870307800F0DC
:10451000200040F0450007F8020D12A8C01B00F172
:1045200007081498007800B1012000EB0A010198F7
:1045300001EBE07105984144401A401E0590E003EC
:1045400006D45B462146179A059800F05DF80544AD
:104550001498007818B15A46179990476D1CE003DB
:1045600024D55B462146179A059800F04DF805447E
:104570001CE00498002807DBDDE90301884203DD25
:104580000098405C179901E0179930205A469047EF
:10459000049805F10105401C04900198401E01900B
:1045A00004D12E205A46179990476D1CBAF100018C
:1045B000AAF1010ADDDC05E017F8010B5A4617994C
:1045C00090476D1CB8F10001A8F10108F4DC5B46CE
:1045D0002146179A0598ABE62D0000002B0000003D
:1045E000200000002DE9F041044600251E46174634
:1045F000880404D405E039462020B0476D1C641EB1
:10460000F9D52846BDE8F0812DE9F04104460025A2
:104610001E469046C80301D5302700E020278804B5
:1046200004D505E041463846B0476D1C641EF9D5F7
:104630002846BDE8F0810A68531C0B601070704773
:10464000FCF792FEFEF722FFFEF720FDFEF7B8FA18
:10465000FCF704F9FEF7D4FFFEF76EFFFFF738F81A
:104660000020FEF705FA4FF6FF70FEF717FB00205B
:10467000FEF700FB04210848FDF742FE0021074831
:10468000FDF73EFE04210648FEF774F8FEF748F9F0
:10469000FEF7ECFBFAE70000E800002080010020B4
:1046A00034010020000000000000000001020304AB
:1046B00006070809000000000000000000000000DC
:1046C00000000000000000000000000000000000EA
:1046D00000000000000000000000000000000000DA
:1046E0000000000000008001800180018001800145
:1046F00080018001800180018001800180018001B2
:1047000000000000800180010000000000000000A7
:104710000000000000000000CC00CC00CC00CC0069
:10472000CC00CC00000000000000000000000000F1
:104730000000000000000000000000000000000079
:104740000000000000000000000000000000000069
:10475000600C600C600C30063006FE1FFE1F300639
:1047600038071803FE1FFE1F180318038C018C0165
:104770008C01000000008000E003F80F9C0E8C1CF0
:104780008C188C009800F801E007800E801C8C18B3
:104790008C189C18B80CF00FE0038000800000001B
:1047A000000000000000000000000E181B0C110C9F
:1047B00011061106110311039B018E01C038C06C54
:1047C00060446044304430441844186C0C38000095
:1047D000000000000000E001F0033807180618068A
:1047E0003003F001F000F8009C310E33061E061C69
:1047F000061C063FFC73F0210000000000000000D2
:1048000000000000000000000C000C000C000C0078
:104810000C000C0000000000000000000000000080
:104820000000000000000000000000000000000088
:10483000000000000000000200038001C000C00072
:104840006000600030003000300030003000300088
:104850003000300060006000C000C0008001000334
:1048600000020000000020006000C0008001800104
:10487000000300030006000600060006000600060E
:10488000000600060003000380018001C0006000F4
:1048900020000000000000000000000000000000F8
:1048A000C000C000D806F807E00130033807000058
:1048B00000000000000000000000000000000000F8
:1048C00000000000000000000000000000000000E8
:1048D00080018001800180018001FC3FFC3F80015C
:1048E00080018001800180010000000000000000C4
:1048F00000000000000000000000000000000000B8
:1049000000000000000000000000000000000000A7
:104910000000000000008001800100010001800013
:104920000000000000000000000000000000000087
:10493000000000000000000000000000E007E007A9
:104940000000000000000000000000000000000067
:104950000000000000000000000000000000000057
:104960000000000000000000000000000000000047
:10497000000000000000C000C000000000000000B7
:10498000000000000000000C000C000600060006FD
:104990000003000300038003800180018001C00048
:1049A000C000C000600060000000000000000000C7
:1049B000000000000000E003F007380E180C0C188F
:1049C0000C180C180C180C180C180C180C180C18C7
:1049D000180C380EF007E003000000000000000093
:1049E00000000000000000018001C001F0019801FA
:1049F00088018001800180018001800180018001A7
:104A000080018001800180010000000000000000A2
:104A1000000000000000E003F80F180C0C180C1840
:104A200000180018000C000600038001C0006000A0
:104A300030001800FC1FFC1F0000000000000000F8
:104A4000000000000000E001F807180E0C0C0C0C30
:104A5000000C0006C003C007000C001800180C185A
:104A60000C18180CF807E00300000000000000001C
:104A7000000000000000000C000E000F000F800D71
:104A8000C00C600C600C300C180C0C0CFC3FFC3F94
:104A9000000C000C000C000C0000000000000000E6
:104AA000000000000000F80FF80F180018000C00BC
:104AB000EC03FC071C0E001C0018001800180C1852
:104AC0001C0C180EF807E0030000000000000000B6
:104AD000000000000000C007F00F381C1818180074
:104AE0000C00CC03EC0F3C0E1C1C0C180C180C1802
:104AF000181C380EF007E003000000000000000062
:104B0000000000000000FC1FFC1F000C0006000657
:104B1000000380038001C001C000E000600060006D
:104B20007000300030003000000000000000000085
:104B3000000000000000E003F007380E180C180C0D
:104B4000180C3806F007F007180C0C180C180C1885
:104B50000C18380CF80FE003000000000000000003
:104B6000000000000000E003F007380E1C0C0C18D9
:104B70000C180C181C1C381EF81BE0190018000C2F
:104B8000000C1C0EF807F0010000000000000000FF
:104B90000000000000000000000000000000000015
:104BA0008001800100000000000000000000000003
:104BB00000000000800180010000000000000000F3
:104BC00000000000000000000000000000000000E5
:104BD00080018001000000000000000000000000D3
:104BE0000000000080018001000100018000000041
:104BF00000000000000000000000000000000000B5
:104C0000000000000010001C800FE003F8001800F6
:104C1000F800E003800F001C0010000000000000FE
:104C20000000000000000000000000000000000084
:104C300000000000F81F000000000000F81F000046
:104C40000000000000000000000000000000000064
:104C50000000000000000000000000000000000054
:104C60000000000008003800F001C007001F001815
:104C7000001FC007F001380008000000000000001D
:104C8000000000000000E003F80F180C0C180C18CE
:104C90000018000C000600038001C000C000C00026
:104CA00000000000C000C000000000000000000084
:104CB0000000000000000000E00718180420C229CE
:104CC000224A114409440944094409221113E20CFF
:104CD000024004201818E007000000000000000057
:104CE00000000000000080038003C006C006C0066C
:104CF000600C600C301830183018F83FF83F1C700A
:104D00000C600C6006C006C000000000000000003F
:104D1000000000000000FC03FC0F0C0C0C180C1829
:104D20000C180C0CFC07FC0F0C180C300C300C3061
:104D30000C300C18FC1FFC070000000000000000F5
:104D4000000000000000C007F01F38381C300C7055
:104D50000660060006000600060006000600066063
:104D60000C701C30F01FE007000000000000000085
:104D7000000000000000FE03FE0F060E06180618D5
:104D8000063006300630063006300630063006188B
:104D90000618060EFE0FFE030000000000000000D3
:104DA000000000000000FC3FFC3F0C000C000C0069
:104DB0000C000C00FC1FFC1F0C000C000C000C0075
:104DC0000C000C00FC3FFC3F000000000000000055
:104DD000000000000000F83FF83F1800180018001D
:104DE00018001800F81FF81F180018001800180005
:104DF0001800180018001800000000000000000053
:104E0000000000000000E00FF83F3C780E6006E074
:104E100007C00300030003FE03FE03C007C006C073
:104E20000EC03CF0F83FE00F000000000000000062
:104E30000000000000000C300C300C300C300C3046
:104E40000C300C30FC3FFC3F0C300C300C300C3084
:104E50000C300C300C300C30000000000000000062
:104E600000000000000080018001800180018001BD
:104E7000800180018001800180018001800180012A
:104E8000800180018001800100000000000000001E
:104E900000000000000000060006000600060006F4
:104EA00000060006000600060006000600061806BA
:104EB00018063807F003E0010000000000000000C1
:104EC00000000000000006300618060C0606060367
:104ED0008601C60066007600DE008E010603060627
:104EE000060C0618063006600000000000000000F6
:104EF000000000000000180018001800180018003A
:104F000018001800180018001800180018001800E1
:104F100018001800F81FF81F000000000000000033
:104F20000000000000000EE01EF01EF01EF036D85B
:104F300036D836D836D866CC66CC66CCC6C6C6C699
:104F4000C6C6C6C686C386C30000000000000000B7
:104F50000000000000000C301C303C303C306C3055
:104F60006C30CC30CC308C310C330C330C360C36EE
:104F70000C3C0C3C0C380C30000000000000000021
:104F8000000000000000E007F81F1C380E700660EB
:104F900003C003C003C003C003C003C003C0066056
:104FA0000E701C38F81FE007000000000000000031
:104FB000000000000000FC0FFC1F0C380C300C300F
:104FC0000C300C300C18FC1FFC070C000C000C0003
:104FD0000C000C000C000C000000000000000000A1
:104FE000000000000000E007F81F1C380E7006608B
:104FF00003E003C003C003C003C003C007E00663AF
:105000000E3F1C3CF83FE0F700C00000000000002D
:10501000000000000000FE0FFE1F063806300630BC
:1050200006300638FE1FFE0706030606060C0618A5
:105030000618063006300660000000000000000080
:10504000000000000000E003F80F1C0C0C180C1806
:105050000C001C00F803E00F001E0038063006307C
:105060000E301C1CF80FE0070000000000000000DC
:10507000000000000000FE7FFE7F800180018001B3
:105080008001800180018001800180018001800118
:10509000800180018001800100000000000000000C
:1050A0000000000000000C300C300C300C300C30D4
:1050B0000C300C300C300C300C300C300C300C3010
:1050C0000C301818F81FE007000000000000000076
:1050D00000000000000003600630063006300C18A7
:1050E0000C180C18180C180C380E30063006700707
:1050F00060036003C001C001000000000000000068
:105100000000000000000360C361C361C361663337
:10511000663366336633663366336C1B6C1B6C1BFD
:105120002C1A3C1E380E380E000000000000000053
:105130000000000000000FE00C7018303018700CF8
:10514000600EC00780038003C003E006700C301CB3
:1051500018180C300E6007E000000000000000008E
:1051600000000000000003C006600C301C38381836
:10517000300C6006E007C0038001800180018001DF
:10518000800180018001800100000000000000001B
:10519000000000000000FC7FFC7F00600030001871
:1051A000000C000600038001C00060003000180001
:1051B0000C000600FE7FFE7F0000000000000000E3
:1051C000000000000000E003E003600060006000F9
:1051D00060006000600060006000600060006000CF
:1051E0006000600060006000600060006000E0033C
:1051F000E00300000000300030006000600060004C
:10520000C000C000C000C001800180018001000317
:10521000000300030006000600000000000000007C
:10522000000000000000E003E003000300030003AF
:105230000003000300030003000300030003000356
:105240000003000300030003000300030003E00366
:10525000E003000000000000C001C0016003600323
:10526000600330063006180C180C00000000000027
:10527000000000000000000000000000000000002E
:10528000000000000000000000000000000000001E
:10529000000000000000000000000000000000000E
:1052A000000000000000FFFFFFFF00000000000002
:1052B0000000000000000C000C000C000C000C00B2
:1052C0000C000000000000000000000000000000D2
:1052D00000000000000000000000000000000000CE
:1052E00000000000000000000000000000000000BE
:1052F000F003F8071C0C0C0C000FF00FF80C0C0C52
:105300000C0C1C0FF80FF01800000000000000004B
:105310000000000000001800180018001800180015
:10532000D803F80F380C1818181818181818181867
:105330001818380CF80FD803000000000000000017
:10534000000000000000000000000000000000005D
:10535000C003F007300E180C1800180018001800D1
:10536000180C300EF007C003000000000000000021
:1053700000000000000000180018001800180018B5
:10538000C01BF01F301C18181818181818181818F7
:105390001818301CF01FC01B0000000000000000A7
:1053A00000000000000000000000000000000000FD
:1053B000C003F00F300C1818F81FF81F1800180061
:1053C0003818301CF00FC00700000000000000007B
:1053D000000000000000800FC00FC000C000C0002F
:1053E000F007F007C000C000C000C000C000C0004F
:1053F000C000C000C000C0000000000000000000AD
:10540000000000000000000000000000000000009C
:10541000E00DF80F180E0C0C0C0C0C0C0C0C0C0CFA
:105420000C0C180EF80FE00D000C0C0C1C06F80705
:10543000F001000000001800180018001800180003
:10544000D807F80F381C1818181818181818181832
:10545000181818181818181800000000000000008C
:10546000000000000000C000C000000000000000BC
:10547000C000C000C000C000C000C000C000C0002C
:10548000C000C000C000C00000000000000000001C
:10549000000000000000C000C0000000000000008C
:1054A000C000C000C000C000C000C000C000C000FC
:1054B000C000C000C000C000C000C000C000F800B4
:1054C0007800000000000C000C000C000C000C0028
:1054D0000C0C0C060C038C01CC006C00FC009C0135
:1054E0008C030C030C060C0C0000000000000000F4
:1054F000000000000000C000C000C000C000C000EC
:10550000C000C000C000C000C000C000C000C0009B
:10551000C000C000C000C00000000000000000008B
:10552000000000000000000000000000000000007B
:105530007C3CFF7EC7E383C183C183C183C183C138
:1055400083C183C183C183C100000000000000004B
:10555000000000000000000000000000000000004B
:105560009807F80F381C1818181818181818181851
:10557000181818181818181800000000000000006B
:10558000000000000000000000000000000000001B
:10559000C003F00F300C181818181818181818181D
:1055A0001818300CF00FC0030000000000000000CD
:1055B00000000000000000000000000000000000EB
:1055C000D803F80F380C18181818181818181818C5
:1055D0001818380CF80FD803180018001800180015
:1055E00018000000000000000000000000000000A3
:1055F000C01BF01F301C1818181818181818181885
:105600001818301CF01FC01B0018001800180018D4
:105610000018000000000000000000000000000072
:10562000B007F00370003000300030003000300070
:1056300030003000300030000000000000000000AA
:10564000000000000000000000000000000000005A
:10565000E003F003380E180C3800F003C007000C0C
:10566000180C380EF007E0030000000000000000F6
:1056700000000000000000008000C000C000C0006A
:10568000F007F007C000C000C000C000C000C000AC
:10569000C000C000C007800700000000000000003C
:1056A00000000000000000000000000000000000FA
:1056B000181818181818181818181818181818186A
:1056C0001818381CF01FE01900000000000000004E
:1056D00000000000000000000000000000000000CA
:1056E0000C18180C180C180C300630063006600325
:1056F00060036003C001C001000000000000000062
:105700000000000000000000000000000000000099
:10571000C141C141C3616363636363633636363637
:1057200036361C1C1C1C1C1C000000000000000065
:105730000000000000000000000000000000000069
:105740001C38381C300C6006600360036003600383
:105750006006300C381C1C380000000000000000FF
:105760000000000000000000000000000000000039
:105770001830301830187018600C600CE00CC0063F
:10578000C00680038003800380018001C001F00017
:105790007000000000000000000000000000000099
:1057A000FC1FFC1F000C000600038001C00060000D
:1057B00030001800FC1FFC1F00000000000000006B
:1057C00000000000000000038001C000C000C00015
:1057D000C000C000C00060006000300060004000F9
:1057E000C000C000C000C000C000C00080010003B5
:1057F0000000000000008001800180018001800124
:105800008001800180018001800180018001800190
:105810008001800180018001800180018001800180
:105820008001000000006000C000C0018001800114
:1058300080018001800100030003000600030001D5
:10584000800180018001800180018001C000600032
:105850000000000000000000000000000000000048
:1058600000000000F010F81F080F0000000000000A
:105870000000000000000000000000000000000028
:1058800000000000A45800080000002044000000B0
:10589000643D0008E8580008440000208C05000022
:1058A000743D00080001000100000000000000003D
:1058B00000000000000000000000000000000000E8
:1058C00000000000000000000000000000000000D8
:1058D0001000000001000000000000000024F4009F
:0858E0000000FFFF00000000C2
:04000005080001D915
:00000001FF
