:020000040800F2
:1000000030050020ED010008BF1E0008E9170008B8
:10001000BD1E000885020008052B00080000000036
:100020000000000000000000000000007124000833
:100030008702000800000000F91F00085D26000884
:10004000070200080702000807020008070200086C
:10005000070200080702000807020008070200085C
:10006000070200080702000807020008070200084C
:10007000070200080702000807020008070200083C
:10008000070200080000000007020008070200083D
:10009000070200080702000807020008070200081C
:1000A000070200080702000807020008070200080C
:1000B00007020008070200080702000807020008FC
:1000C00007020008070200080702000807020008EC
:1000D00007020008070200080702000807020008DC
:1000E00007020008070200080702000807020008CC
:1000F00007020008070200080702000800000000CD
:1001000000000000070200080000000007020008CD
:1001100007020008000000000702000807020008AC
:10012000070200080702000807020008070200088B
:10013000070200080000000000000000070200089D
:10014000070200080702000800000000000000008D
:10015000000000000000000000000000000000009F
:10016000000000000000000000000000070200087E
:10017000070200080000000000000000000000006E
:10018000000000000702000800000000000000005E
:10019000000000000000000000000000000000005F
:1001A000000000000000000007020008070200082D
:1001B000070200080702000807020008000000000C
:1001C000000000000702000800000000000000001E
:1001D0000702000807020008DFF80CD000F040F822
:1001E00000480047BD2E0008300500200648804723
:1001F00006480047FEE7FEE7FEE7FEE7FEE7FEE70C
:10020000FEE7FEE7FEE7FEE7FD260008D90100084D
:10021000D2B201E000F8012B491EFBD27047002248
:10022000F6E710B513460A4604461946FFF7F0FFF5
:10023000204610BD30B50B46014600202022012487
:1002400009E021FA02F59D4205D303FA02F5491BA4
:1002500004FA02F52844151EA2F10102F1DC30BDBA
:10026000064C074D06E0E06840F0010394E8070003
:1002700098471034AC42F6D3FFF7B2FFF4400008C1
:1002800014410008FEE77047002240F6B83306E04C
:100290000021491C89B29942FBD3521C92B282427E
:1002A000F6D3704772B6FEE770B5044600F0FCF86E
:1002B0000546601C02D004484068044400F0F4F88D
:1002C000401BA042FAD370BD300000202DE9FC4F46
:1002D000DFF8A0A1002301250AF1040B03244FF04D
:1002E0000F0C0BF1040EBDE005FA03F632406FD09F
:1002F0004F68012F05D0022F03D0112F01D0122FEC
:1003000017D1D0F808905F0004FA07F829EA080925
:100310000097D1F80C8008FA07F848EA0908C0F8F5
:1003200008804768B7430E79C6F300169E403E43E7
:100330004660C6684FEA430804FA08F7BE430197CF
:100340008F6807FA08F73743C7604E68022E01D05E
:10035000122E13D1DE0800EB86060096366A5F0780
:10036000FF0E0CFA07F926EA0906D1F8109009FAEF
:1003700007F949EA0609009EC6F820900668019F21
:10038000BE430F7907F0030707FA08F73743076002
:100390004E68F60065D5384E376E47F00107376670
:1003A000366E23F0030706F001060096334E3E44F6
:1003B000B146B6689F074FEA17780CFA08F7BE43B4
:1003C000B0F1904F05D02E4FB84204D1012717E06D
:1003D00047E0002714E02B4FB84201D102270FE07D
:1003E000294FB84201D103270AE0284FB84201D172
:1003F000042705E0264FB84201D1052700E0062773
:1004000007FA08F73743C9F80870DAF8006057466A
:10041000D1F8048096435FEAC83800D516433E60A1
:10042000DBF800605F46D1F8048096435FEA8838C5
:1004300000D516433E60DEF800607746D1F80480B0
:1004400096435FEAC82800D516433E60094F0C3733
:100450003E68D1F8048096435FEA882800D51643A9
:100460003E605B1C0A6832FA03F67FF43DAFBDE8DC
:10047000FC8F000000040140001002400000014019
:100480000004004800080048000C00480010004824
:10049000001400480069084000D0012070470AB1EC
:1004A0008161704781627047014880687047000031
:1004B0003000002002488168426811448160704722
:1004C0003000002010B50024032000F065F80F2054
:1004D00000F008F808B1012401E000F025F82046FA
:1004E00010BD000070B50E4E05460024706898B12E
:1004F0004FF47A71B1FBF0F00A490968B1FBF0F0F2
:1005000000F0B4FE40B9102D06D200222946501E3C
:1005100000F022F8356000E00124204670BD0000A4
:10052000300000203C0000200A4882B0016E41F0FB
:1005300001010166016E01F001010091816D41F040
:1005400080518165806D00F08050009002B000F015
:1005500093B8000000100240F0B40E4B1B680C462C
:10056000C3F30223C3F10705042D00D90425191D87
:10057000072901D2002300E0DB1E012606FA05F15F
:10058000491E214099409E40761E16403143F0BCE2
:1005900002F0CEBA0CED00E0064900F00702086850
:1005A0004FF6FF03184040EA0220034A1043086058
:1005B000704700000CED00E00000FA052B492C4BC1
:1005C0000A6832214A432B4940B1B0F5007F0868E0
:1005D00029D020F4C06040F480602CE00868C0F3AB
:1005E0004120022804D051F8800F20F4807022E0CE
:1005F000D1F8800020F48070C1F88000086820F4F1
:10060000C06040F400700860B2FBF3F0401C00E0F2
:10061000401E4A69520501D50028F9D148694005B4
:100620000AD503207047C0F34120022806D051F8B4
:10063000800F40F48070086000207047D1F880007F
:1006400040F48070C1F88000086820F4C06040F475
:1006500000700860B2FBF3F0401C00E0401E4A69E5
:100660005205DBD50028F9D1D8E700003C00002076
:1006700040420F00007000400248816841F4804110
:1006800081607047007000402DE9F843044600681F
:1006900000269D4D00035ED5A86D0027C00008D43C
:1006A000A86D40F08050A865A86D012700F080502B
:1006B0000090DFF85892D9F8001041F48071C9F821
:1006C0000010FFF7F1FE804606E000BFFFF7ECFEEA
:1006D000A0EB080002282BD8D9F80000C005F5D5FA
:1006E000D5F8900010F4407014D0216C814211D0E4
:1006F000D5F89000D5F8901020F4407041F4803186
:10070000C5F89010D5F8901021F48031C5F89010FC
:10071000C5F89000C00711D0FFF7C6FE804641F231
:10072000883907E0FFF7C0FEA0EB0801494501D971
:1007300003260BE0D5F890008007F3D5D5F890009C
:10074000216C20F440700843C5F890001FB1A86DDB
:1007500020F08050A8652078C00707D0D5F8880021
:10076000616820F003000843C5F8880020788007FE
:1007700007D5D5F88800A16820F00C000843C5F81B
:1007800088002078400707D5D5F88800E16820F078
:1007900030000843C5F888002078000707D5D5F851
:1007A0008800216920F0C0000843C5F8880020783F
:1007B000800607D5D5F88800616920F440600843B9
:1007C000C5F888002078400607D5D5F88800A169CB
:1007D00020F440500843C5F888002078000607D56B
:1007E000D5F88800E16920F440400843C5F8880046
:1007F0002088C00507D5D5F88800216A20F440304C
:100800000843C5F888002088800507D5D5F88800FA
:10081000616A20F440200843C5F88800208840051C
:100820000FD5D5F88800A16A20F440100843C5F818
:100830008800A06AB0F5801F03D1E86840F48010FA
:10084000E860208800050FD5D5F88800E16A20F41B
:1008500040000843C5F88800E06AB0F5800F03D176
:10086000E86840F48010E8602088C0040FD5D5F80F
:100870008800216B20F040700843C5F88800206B89
:10088000B0F1807F03D1E86840F48010E8602088F0
:100890004FF0006180040ED5D5F88800626B20F01F
:1008A00040601043C5F88800606B884203D1E86857
:1008B00040F48010E860208840040ED5D5F8880008
:1008C000A26B20F040601043C5F88800A06B8842FE
:1008D00003D1E86840F48010E860208800040FD558
:1008E000D5F88800E16B20F040500843C5F8880037
:1008F000E06BB0F1805F03D1E86840F48030E860DD
:100900003046BDE8F883000000100240007000404F
:100910002DE9F0470E4605004FF0000725D0DFF81F
:10092000AC81D8F8000000F00F00B0420CD2D8F82B
:10093000001021F00F013143C8F80010D8F8000072
:1009400000F00F00B04210D12968614CC80741F295
:10095000883A5AD06868DFF87C91032808D00228CA
:1009600020682DD0400500282CDB0120BDE8F08751
:1009700020688001F9D5E06800F00302E068C0F368
:100980000310401C032A19D0534A00BFB2FBF0F0F9
:10099000E268C2F306225043E268C2F34162521C8D
:1009A0005200B0FBF2F0484517D9A06810F0F00FE4
:1009B0000CD0880711D5A86840B10EE0474AE5E79A
:1009C0008003D0E700F092F8484506D9A06820F0EF
:1009D000F00040F08000A0608027A068696820F0E7
:1009E00003000843A060FFF75FFD814606E000BFFB
:1009F000FFF75AFDA0EB090151453AD8A068696894
:100A000000F00C00B0EB810FF2D12868810714D5FB
:100A1000400703D5A06840F4E060A0602878000794
:100A200005D5A06820F4605040F4E060A060A068A4
:100A3000A96820F0F000084304E0802F03D1A068EB
:100A400020F0F000A060D8F80010404601F00F013F
:100A5000B14216D9016821F00F0131430160FFF75F
:100A600023FD074607E000BFFFF71EFDC11B5145F0
:100A700001D903207AE7D8F8000000F00F00B04257
:100A8000F2D12878400705D5A068E96820F4E06035
:100A90000843A0602878000706D5A068296920F4DB
:100AA000605040EAC100A06000F020F8A1680C4A44
:100AB000C1F30311515C01F01F01C84009490860EE
:100AC00009480068BDE8F047FFF70CBD0020024070
:100AD0000010024000B4C4040024F40000366E018B
:100AE000E44000083C00002030000020184910B508
:100AF0008868C0F381021748012A0BD08A68164B18
:100B0000C2F38102022A06D08A68C2F38102032A54
:100B100003D0002010BD184610BDCA6802F00304BF
:100B2000CA68C2F30312521C032C02D0B0FBF2F0CD
:100B300001E0B3FBF2F0CA68C968C2F30622504371
:100B4000C1F34161491C4900B0FBF1F010BD000048
:100B5000001002400024F40000366E012DE9F84335
:100B600004007AD02078FA4DC00747D0A868E96819
:100B700000F00C0001F003010C2802D0082817D067
:100B800001E0032914D06068B0F5803F17D0B0F5BC
:100B9000A02F286817D020F480302860286820F41F
:100BA000802028606068E0B1FFF77EFC064614E014
:100BB0002868800322D560680028D2D01EE028680B
:100BC00040F48030EDE740F480202860F7E700BF74
:100BD000FFF76AFC801B642870D828688003F7D56B
:100BE0000CE0FFF761FC064605E000BFFFF75CFC88
:100BF000801B6428F0D828688003F7D42078800709
:100C00004CD5A868E96800F00C0001F003010C283D
:100C100002D004280DD001E002290AD0E0680028A3
:100C200028682BD040F480702860FFF73DFC064612
:100C300019E02868400502D5E068002891D068686E
:100C4000217C20F0FE4040EA01606860C1480068F5
:100C5000FFF748FC002800D120E076E1FFF724FCF4
:100C6000801B0228B8D828684005F7D56868217C21
:100C700020F0FE4040EA016068600FE020F48070E0
:100C80002860FFF711FC064605E000BFFFF70CFCEB
:100C9000801B0228A0D828684005F7D420780007D8
:100CA00029D560690028D5F8940013D040F00100E0
:100CB000C5F89400FFF7F8FB064606E090E000BF99
:100CC000FFF7F2FB801B022886D8D5F89400800736
:100CD000F6D510E020F00100C5F89400FFF7E4FB22
:100CE000064604E0FFF7E0FB801B022878D8D5F821
:100CF00094008007F6D42078400761D5A86D0026BF
:100D0000C00008D4A86D40F08050A865A86D0126E9
:100D100000F08050009090480168C90511D4016826
:100D2000804641F480710160FFF7BEFB074604E096
:100D3000FFF7BAFBC01B022852D8D8F80000C00544
:100D4000F6D5A068012815D00528D5F8900016D052
:100D500020F00100C5F89000D5F8900020F00400C4
:100D6000C5F89000A06841F28838B8B1FFF79CFB45
:100D700007460EE0D5F8900040F00100F0E740F0A3
:100D80000400C5F89000F5E7FFF78EFBC11B414555
:100D900026D8D5F890008007F6D50CE0FFF784FB45
:100DA000074604E0FFF780FBC11B414518D8D5F882
:100DB00090008007F6D41EB1A86D20F08050A86581
:100DC0002078800629D5A0690028D5F8980013D08E
:100DD00040F00100C5F89800FFF766FB064606E004
:100DE00077E000BFFFF760FB801B022877D8D5F8BB
:100DF00098008007F6D510E020F00100C5F89800B3
:100E0000FFF752FB064604E0FFF74EFB801B02286B
:100E100065D8D5F898008007F6D4E069F0B3A968E2
:100E2000C1F38101032961D00228286820F0807075
:100E300028600BD0E86820F00300E860E8684749C4
:100E40000840E860FFF730FB04464BE0FFF72CFB5F
:100E5000064604E0FFF728FB801B02283FD82868DD
:100E60008001F7D4F4E908016FF00F0202EB0111E1
:100E70000843218A5204490802EB4151A26841EA21
:100E800002210843217D4FF07E42490802EB416177
:100E90000843217B40EAC160E96800E062E0304A33
:100EA00011400843E860286840F080702860E868D6
:100EB00040F08070E860FFF7F7FA044605E000BFF5
:100EC000FFF7F2FA001B022809D828688001F7D53D
:100ED00048E004E0FFF7E8FA001B022802D90320EB
:100EE000BDE8F88328688001F4D43BE00128F7D0FE
:100EF000E868226A00F00301914226D1616A00F09D
:100F0000F0020901103991421FD1A26A00F4FE419A
:100F1000B1EB022F19D194F82C2000F07841B1EBFD
:100F2000C26F12D1218E00F4C00249084905A1F513
:100F30000011914209D194F8341000F0C0604908C2
:100F40004906A1F1007181420CD00120C8E70000E0
:100F5000001002403000002000700040FFFFEEFE55
:100F60000C809F010020BBE70F4810B50B460168BD
:100F70000E480140080CD870C1F304245C7001F0E5
:100F80003F049C70C1F34231197052B901F0BFF9AE
:100F9000D870587801F0BBF95870987801F0B7F91B
:100FA0009870002010BD0000042800403FFFFF00A3
:100FB000144810B500680B464860124808300068B5
:100FC000C0F30E0088600F48083801680E480140E1
:100FD000C1F305401870C1F306245C7001F07F0472
:100FE0009C70890DD97052B901F091F91870587838
:100FF00001F08DF95870987801F089F99870002007
:1010000010BD0000082800407F7F7F0070B50400FD
:101010004FF001003ED094F8250028B9002084F854
:101020002400204600F03CF8022084F825001A4EE7
:10103000CA20306053203060204601F07DF910BB9B
:10104000154D0C3D286815490840286028686168DE
:10105000A269084321691143084328602189E06897
:1010600040EA01400C4914390860204601F08AF931
:1010700048B9D4E90721114362692B6823F0604322
:101080001A4311432960FF213160002802D1012158
:1010900084F8251070BD000024280040BFFF8FFB9E
:1010A00000680549884205D1044850F8901F41F472
:1010B000004101607047000000280040001002401D
:1010C0002DE9F041044690F824000B4601281AD07F
:1010D000012684F82460022084F82500B2B19878B3
:1010E000D97840EA014558781978000240EA413041
:1010F00005431B4FCA20386053203860204601F05A
:101100001BF9D8B122E00220BDE8F0815878C10671
:1011100003D500F0EF000A305870D87801F000F9DC
:101120000504587801F0FCF845EA0025987801F0AC
:10113000F7F80543187845EA4035DAE709480540ED
:10114000074820380560204601F01CF9FF2139606E
:1011500008B984F82560002184F82410D4E7000041
:10116000242800403FFFFF002DE9F047054690F896
:10117000240017460C46012814D04FF0010985F8C9
:101180002490022085F82500DFF8A480CA21C8F841
:1011900000105321C8F80010284601F0CDF80026B1
:1011A00018B127E00220BDE8F087214B0C3B1868FE
:1011B0004FEA40601FB3002800DBE670A07821787A
:1011C000E27840EA01406178090241EA825108432D
:1011D00018490840164924390860186820F480200E
:1011E0001860D4E9030108431968084318602846C9
:1011F00001F0C8F8FF22C8F80020A0B115E00028CF
:1012000000DBE670207801F08BF80704607801F0CD
:1012100087F847EA0027A07801F082F80743E078D2
:1012200047EA8050D4E785F8259085F82460BAE72E
:10123000242800407F7F7F0070B50B4D286820F088
:1012400020002860FFF730F904464FF47A7606E074
:10125000FFF72AF9001BB04201D9032070BD2868AE
:101260008006F5D5002070BD0C28004010B5401E4A
:10127000B0F1807F01D3012010BD4FF0E024606108
:101280000F21601701F054FC0020A06107202061AD
:10129000002010BDF0B590F83C20012A4AD0012270
:1012A00080F83C20CA688B6822F440721A434B686D
:1012B00022F480621A430B6822F400621A430B691D
:1012C00022F480521A434B6922F400521A430B6BEA
:1012D00022F480421A430B8B22F4702242EA03422A
:1012E000154C03680026154DA34201D0AB4203D133
:1012F000CF6922F080523A43A34201D0AB4214D1CD
:101300000F8D22F4700242EA07520F6A22F08072B7
:101310003A434F6A22F000723A43A34201D0AB42F3
:1013200003D1C96A22F000520A435A6480F83C6033
:101330000020F0BD0220F0BD002C0140003401402F
:1013400010B5040003D094F83D0010B107E001206F
:1013500010BD002084F83C00204600F023F8022055
:1013600084F83D00211D206801F0D0F9012084F8A7
:10137000480084F83E0084F83F0084F8400084F878
:10138000410084F8420084F8430084F8440084F863
:10139000450084F8460084F8470084F83D000020AA
:1013A00010BD000008B50C4A01680C48914207D1F5
:1013B000016E41F400310166006E00F4003009E076
:1013C000074A914207D1016E41F480210166006E07
:1013D00000F48020009008BD00440140001002404D
:1013E0000048014090F83D10012901D001207047CC
:1013F000022180F83D1000680F4988420ED0B0F1FC
:10140000804F0BD00D49884208D00D49884205D045
:101410000C49884202D00C49884207D181680B4AA6
:101420001140062906D0B1F5803F03D0016841F094
:101430000101016000207047002C014000040040C1
:101440000008004000340140004001400700010056
:1014500070B586B0044614216846FEF7E0FE144ECF
:10146000256800231349022201244FF09040B54221
:1014700009D1CD6C45F00105CD64C96C01F00101C5
:10148000059140210BE00C4EB5420FD1CD6C45F0DB
:101490000105CD64C96C01F00101059180218DE841
:1014A0000E00CDE903246946FEF710FF06B070BDBB
:1014B00000440140001002400048014070B504465D
:1014C00090F83C000D4601280BD0012084F83C0028
:1014D0000C2A45D007DC5AB1042A1BD0082A78D13F
:1014E0002CE0022070BD102A4ED0142A71D15DE08C
:1014F000206801F071F92068816941F0080181617B
:101500002068816921F004018161206881692A696C
:10151000114311E0206801F0ADF92068816941F4C0
:10152000006181612068816921F4806181612068A6
:1015300081692A6941EA022181614AE0206801F05B
:10154000E1F92068C16941F00801C1612068C16901
:1015500021F00401C1612068C1692A69114311E0C9
:10156000206801F017FA2068C16941F40061C16187
:101570002068C16921F48061C1612068C1692A695C
:1015800041EA0221C16124E0206801F04BFA2068A1
:10159000016D41F0080101652068016D21F0040131
:1015A00001652068016D2A69114311E0206801F08E
:1015B00071FA2068016D41F4006101652068016DD8
:1015C00021F4806101652068016D2A6941EA0221E8
:1015D0000165002084F83C0070BD10B5040003D004
:1015E00094F83D0010B107E0012010BD002084F800
:1015F0003C00204600F022F8022084F83D00211D26
:10160000206801F083F8012084F8480084F83E0047
:1016100084F83F0084F8400084F8410084F84200D8
:1016200084F8430084F8440084F8450084F84600B8
:1016300084F8470084F83D00002010BD704700008A
:1016400030B50446022269B1042912D0082917D006
:101650000C291CD0102921D094F84300012824D053
:10166000012030BD94F83E000128F9D184F83E20D5
:101670001DE094F83F000128F2D184F83F2016E0E5
:1016800094F840000128EBD184F840200FE094F852
:1016900041000128E4D184F8412008E094F8420098
:1016A0000128DDD184F8422001E084F843200122A2
:1016B000206801F083F8194B20681949194A9842AB
:1016C00009D0884207D0904205D0174DA84202D0D9
:1016D000164DA84203D1456C45F400454564206889
:1016E00098420CD0B0F1804F09D0114B984206D0EF
:1016F000104B984203D0884201D0904207D18168B4
:101700000D4A1140062906D0B1F5803F03D001688B
:1017100041F001010160002030BD0000002C0140BB
:1017200000340140004001400044014000480140B5
:1017300000040040000800400700010030B50446E6
:101740000D460068002201F039F8224B41F21111D8
:1017500020688A0098420BD01F4B984208D01F4B3C
:10176000984205D01E4B984202D01E4B984209D198
:10177000036A0B4206D1036A134203D1436C23F47C
:10178000004343642068036A0B4206D1016A114298
:1017900003D1016821F00101016001205DB1042D38
:1017A0000CD0082D0DD00C2D0ED0102D0FD084F89C
:1017B0004300002030BD84F83E00FAE784F83F0083
:1017C000F7E784F84000F4E784F84100F1E784F893
:1017D0004200EEE7002C014000340140004001408F
:1017E0000044014000480140FEE700002DE9F041BF
:1017F00086B014216846FEF712FD3B48C16C41F0EB
:101800000401C164C16C01F004010591C16C41F097
:101810002001C164C16C01F020010591C16C41F04F
:101820000101C164C16C01F001010591C16C41F07D
:101830000201C164C16C01F002010591C16C41F06B
:101840000801C164C06C294E00F008004FF47F44C9
:101850000590012221463046FEF721FE4FF09047C9
:10186000012210213846FEF71AFE002220213846B8
:10187000FEF715FEDFF87880012204214046FEF7CE
:101880000EFE0125CDE9004500240294694630464C
:101890000394FEF71BFDCDE90054694638460294D7
:1018A000FEF714FD30200090CDE90154694638461A
:1018B0000394FEF70BFD0720CDE9000469460D48AF
:1018C0000294FEF703FD04200090CDE9015469461F
:1018D00040460394FEF7FAFC002204214046FEF73E
:1018E000DEFD06B0BDE8F0810010024000080048AF
:1018F000000C00480004004870B5134D2868134CD4
:101900002169401A64281DD32868206100F020F85E
:101910002071E27920EA0201424061718243A271A2
:10192000E071A07A08B101280CD100290AD02078F2
:10193000814207D00120491E8840617808436070C9
:101940002868206270BD00003800002000000020E0
:1019500070B50E4D002401212846FEF79BFD00B90D
:10196000012402212846FEF795FD00B90224042136
:101970002846FEF78FFD00B9032401214FF0904067
:10198000FEF788FD00B90424204670BD000400481D
:1019900000B585B014216846FEF741FC4FF6FF7094
:1019A000009000200321CDE9020101906946024820
:1019B000FEF78CFC05B000BD0008004800B585B0FE
:1019C00014216846FEF72BFC4FF6FF7000900120B3
:1019D0000190032003900020029069460248FEF720
:1019E00075FC05B000BD00000008004870B500247B
:1019F00006462146204600F003F900F041F94FF475
:101A00009635304600F010F9641CAC42F9D370BD35
:101A100030B587B014216846FEF701FC1E48C16C42
:101A200041F00401C164C16C01F004010591C16C75
:101A300041F00101C164C16C01F001010591C16C6B
:101A400041F00201C164C06C012500F00200059064
:101A50004FF44870CDE900050024039469460294D0
:101A60000E48FEF733FC280203940090CDE90154A0
:101A70004FF0904469462046FEF728FCFFF79EFF92
:101A8000A06940F48070A06104481830016841F4F6
:101A90000871016007B030BD00100240000400482A
:101AA000203AD2B2034B02EB420203EB021200F0E7
:101AB00019B80000142F0008F0B50E46074600259F
:101AC00040F23F1407E021463846FFF7E9FF103C9B
:101AD0006D1CA4B2761C3278002A01D0142DF2D3EA
:101AE000F0BD00002DE9F04791468A4600260446E5
:101AF00000F086F8DFF84080012700BF00F0C0F852
:101B00005FF0000539F8160007FA05F10842404673
:101B100001D1408800E0008800F086F86D1C102D8F
:101B2000F0D3641CE4B25146204600F069F8761CFC
:101B3000182EE3D3BDE8F0872800002010B5FFF78A
:101B400067FF002000F014F8084CA080A088A0F5E2
:101B50000241303906D000F0D9FA002000F008F830
:101B6000A08010BD00F049FAF7E70000280000202F
:101B700070B51D490A6842F400720A600A6842F4AE
:101B800080720A60184C103C226842F020022260E9
:101B9000164A1060086840F02000086000BF00BFCF
:101BA00000BF206840F020002060206840F4807072
:101BB0002060FFF7EDFE4FF09041886A40F480709E
:101BC000886200BF00BF00BF0848001F006885B2E0
:101BD000886940F480708861FFF7F0FE206840F467
:101BE00000702060284670BD280400481408004892
:101BF00001B5BDF800000149488008BD280000205B
:101C000010B50C460146202000F068F82146BDE8DA
:101C10001040212000F062B801B5BDF80000014974
:101C2000088008BD28000020134A116841F40071A3
:101C30001160114910390B6843F480730B600B6815
:101C400043F020030B600D4B1860106840F020003B
:101C5000106000BF00BF00BF086840F020000860AF
:101C6000086840F48070086000BF00BF00BF0868CB
:101C700040F40070086070472804004814080048C9
:101C80001449086840F400700860086840F48070E7
:101C9000086010481038026842F0200202600E4BC3
:101CA00022221A600A6842F020020A6000BF00BFC8
:101CB00000BF016841F020010160016841F48071BA
:101CC000016000BF00BF00BF016841F40071016006
:101CD000704700002804004814080048184B10B54D
:101CE0001A6842F400721A601A6842F480721A602C
:101CF000134A103A146844F020041460114C206018
:101D0000186840F02000186000BF00BF00BF1068D6
:101D100040F020001060106840F480701060216076
:101D2000186840F02000186000BF00BF00BF1068B6
:101D300040F020001060106840F48070106010BD0A
:101D4000280400481408004870B5124D04460122CA
:101D50004FF6FF712846FEF7A2FB0F4E0122042129
:101D60003046FEF79CFB002204213046FEF797FB2D
:101D7000210200222846FEF792FB01220421304670
:101D8000FEF78DFB3046BDE8704000220421FEF7CF
:101D900086BB000000080048000C004838B5224807
:101DA0000168224C6269891AFA293CD30068606193
:101DB00000221F491F48FFF7FBF8002204F10C0125
:101DC0001C48FFF7D1F8607800901948A37A227870
:101DD00019A1143000F098FE207A01280ED1607A03
:101DE000401CC0B26072C10703D0114A20211432D6
:101DF0005172042802D90020607220720C496020C0
:101E00001431FFF759FE0A4881780091437802782F
:101E10000EA1143000F078FE0549BDE838401431B9
:101E2000C020FFF749BE38BD380000200000002068
:101E3000400000206C0000202020202020202020B6
:101E40002025642C25642C256400000020202020FF
:101E50002020253032643A253032643A253032640D
:101E600000000000134810B50168134CE269891A9C
:101E7000B1F5FA7F1DD30068E0612046A178C27AEF
:101E80004078012906D0E178012908D0BDE810404A
:101E9000FFF75ABF102191400143C8B202E08021F0
:101EA000D1400843FFF750FFE07A401C00F00300E8
:101EB000E07210BD3800002000000020FEE7FEE7C1
:101EC00010B594B01C210DA8FEF7A9F9342168467D
:101ED000FEF7A5F920481F490024016040F21F3198
:101EE000C0E901146321C0E903148021C0E9054160
:101EF000FFF726FA08B1FEF7D5F91748FFF76DFB93
:101F000008B1FEF7CFF96020CDE90D040F941094CD
:101F10001194129400220DA90F481394FFF7CEFAE2
:101F200008B1FEF7BFF900944FF40050CDE904402A
:101F30000194029403940694694607480C94FFF7B1
:101F4000A9F908B1FEF7AEF90348FFF781FA14B01A
:101F500010BD0000004401409400002010B594B072
:101F60001C210DA8FEF75BF934216846FEF757F9EE
:101F700020481F490024016040F28F11C0E901147C
:101F80006321C0E9031444618461FFF7D9F908B102
:101F9000FEF788F91748FFF720FB08B1FEF782F932
:101FA00060200D903220CDE90E041094119412940B
:101FB00000220DA90F481394FFF780FA08B1FEF72D
:101FC00071F900944FF40050CDE90440019402945B
:101FD00003940694694607480C94FFF75BF908B12F
:101FE000FEF760F90348FFF733FA14B010BD0000A4
:101FF00000480140E0000020704730B5012100207A
:10200000FFF76CFE4FF47A70FEF73EF900210120D5
:10201000FFF764FE41F290711020FFF75FFE4FF46E
:102020001C516020FFF75AFE01216120FFF756FE88
:1020300002214620FFF752FE48F210011320FFF75D
:102040004DFE48F2FE011220FFF748FE4FF4A0615A
:102050000220FFF743FE41F230010320FFF73EFE6E
:1020600040F2033421463020FFF738FE214631206C
:10207000FFF734FE21463220FFF730FEE51E2946E9
:102080003320FFF72BFE03213420FFF727FE2146E4
:102090003520FFF723FE14213620FFF71FFE2146CF
:1020A0003720FFF71BFE21463820FFF717FE214699
:1020B0003920FFF713FE29463A20FFF70FFE0321D0
:1020C0003B20FFF70BFE21463C20FFF707FE4FF4B5
:1020D000A0513D20FFF702FE4FF400719220FFF760
:1020E000FDFD21469320FFF7F9FD40F60D019020FC
:1020F000FFF7F4FD41F218010320FFF7EFFDBDE803
:10210000304040F273110720FFF7E8BD10B543F2ED
:102110000801E320FFF7E2FD1221E720FFF7DEFDD3
:1021200041F23121EF20FFF7D9FD00210120FFF717
:10213000D5FD4FF4E0610220FFF7D0FD41F2300100
:102140000320FFF7CBFD00210420FFF7C7FD40F27D
:1021500007210820FFF7C2FD00210920FFF7BEFD7F
:1021600000210A20FFF7BAFD00210C20FFF7B6FD81
:1021700000210D20FFF7B2FD00210F20FFF7AEFD7B
:1021800000211020FFF7AAFD07211120FFF7A6FD6F
:1021900000211220FFF7A2FD00211320FFF79EFD72
:1021A000C820FEF781F841F290611020FFF796FDFC
:1021B00040F227211120FFF791FD3220FEF774F83D
:1021C0001D211220FFF78AFD3220FEF76DF84FF433
:1021D00000611320FFF782FD14212920FFF77EFD07
:1021E0000B212B20FFF77AFD3220FEF75DF800214E
:1021F0002020FFF773FD00212120FFF76FFD07214D
:102200003020FFF76BFD40F207713120FFF766FDCC
:1022100006213220FFF762FD40F204713520FFF7FE
:102220005DFD41F604713620FFF758FD042137208B
:10223000FFF754FD00213820FFF750FD40F20671F2
:102240003920FFF74BFD40F201713C20FFF746FDBE
:102250000F213D20FFF742FD00215020FFF73EFDFA
:10226000EF215120FFF73AFD00215220FFF736FD04
:1022700040F23F115320FFF731FD4FF41C51602015
:10228000FFF72CFD01216120FFF728FD00216A20C6
:10229000FFF724FD00218020FFF720FD0021812091
:1022A000FFF71CFD00218220FFF718FD002183208D
:1022B000FFF714FD00218420FFF710FD0021852089
:1022C000FFF70CFD10219020FFF708FD0021922060
:1022D000FFF704FD03219320FFF700FD4FF4887101
:1022E0009520FFF7FBFC00219720FFF7F7FC00216A
:1022F0009820FFF7F3FC41F218010320FFF7EEFCF2
:10230000BDE8104040F273110720FFF7E7BC010958
:1023100001EB810100F00F0000EB4100C0B27047FB
:102320000022014602E00A39C9B2521C0A29FAD237
:10233000100741EA106070472DE9F047104C8146C4
:1023400000252068400618D4206840F080002060F6
:10235000FEF7AAF806464FF47A78032708E000BF94
:10236000FEF7A2F8801B404502D9032589F82570A5
:102370002068400601D4032DF2D12846BDE8F0873D
:102380000C2800402DE9F04106461348002501685D
:1023900021F080010160104C0C3420684FF00307DD
:1023A000800607D43046FEF747FF90B186F82570C7
:1023B00003250EE0206820F0200020603046FEF764
:1023C0003BFF10B186F825700325206840F02000FF
:1023D00020602846BDE8F0810C28004010B586B08A
:1023E00014216846FDF71BFF204800241E49059470
:1023F000C0E900144A21816042F20F71C0E9031460
:102400004FF080414461C0E906410462FEF7FEFDE1
:1024100008B1FDF747FF09208DF8000020208DF856
:10242000010050208DF802000194039401226946B6
:102430000E480494FEF798FE08B1FDF733FF012023
:102440008DF814008DF815008DF8160002468DF8F1
:10245000174005A90548FEF733FE002801D0FDF717
:1024600021FF06B010BD0000002800406C000020D5
:10247000704700002DE9F05F744E3068744CA1691C
:10248000401A32287BD33068A061206A01251428C5
:1024900002D9A17A01B9A57231680027081A40F65D
:1024A000B8314FF0020B4FF4FA68884202D9A07A93
:1024B000012803D0A07A022805D01FE084F80AB0D2
:1024C00027623068606200216248FFF7B9F861480E
:1024D000322100684163002220214FF09040FDF737
:1024E000DEFF3068616A401A404507D90320A072B8
:1024F0003068606200215748FFF720F9A07A4FF05A
:102500003C0A03283CD120786178401E05FA00F08F
:10251000081ADFF84491002810DD4FF0000148460A
:10252000FFF78EF8D9F800005021416301221021F5
:102530004FF09040FDF7B3FFA57010E00FD54FF0BE
:1025400000014548FFF77CF8D9F80010C1F834A025
:10255000012210214FF09040FDF7A1FFE570306897
:10256000616A401A41F27071884209D900213A48E3
:10257000FFF7E4F80420A0723068606203E056E0E0
:10258000A07A04284AD1A078012812D0E078012846
:1025900023D028E0421E05FA02F20A4206D0C0B259
:1025A000401E05FA00F08143617006E0401C207077
:1025B00000E0617820780428ECD9A77012E0401E72
:1025C00005FA00F20A4206D02078401E05FA00F013
:1025D0008143617005E0207000E061782078002878
:1025E000EDD1E770257200211A48FFF729F8194943
:1025F0000968C1F834A0012220214FF09040FDF776
:102600004EFF3068616A401A404507D90520A07224
:102610003068606200210F48FFF790F8A07A052823
:1026200007D0062803D1607868B184F80AB0BDE805
:10263000F09F3068616A401A4045F8D90620A072C0
:1026400030686062EFE7A772F1E700003800002011
:1026500000000020E000002094000020FDF72ABFC9
:1026600010B5A6B038216846FDF7D9FD14211FA882
:10267000FDF7D5FD44210EA8FDF7D1FD4FF4007004
:10268000FDF79CFF0120009000040190022003242C
:10269000CDE907041421CDE90A100C900D9009949E
:1026A0006846FEF75BFA08B172B6FEE70F20CDE987
:1026B0001F04002021902290239002211FA8FEF7E2
:1026C00027F908B172B6FEE70B48C16C41F0200152
:1026D000C164C06C00F0200024904FF400200E90E4
:1026E0004FF440701E900EA8FDF7CEFF002801D0D9
:1026F00072B6FEE726B010BD001002400248016825
:1027000041F470010160704788ED00E02DE9F0436D
:102710000268234B234D244E244C4FF080499842AD
:1027200007D0484505D0A84203D0B04201D0A0420E
:1027300003D122F070074A683A431D4FDFF874C096
:10274000DFF8748098420DD048450BD0A84209D0DC
:10275000B04207D0A04205D0B84203D0604501D0B6
:10276000404503D122F44075CA682A434D6922F0DE
:1027700080022A4302608A68C2620A6882629842C2
:1027800007D0A04205D0B84203D0604501D04045F3
:1027900001D10969016301214161BDE8F0830000B5
:1027A000002C0140000400400008004000340140BB
:1027B00000400140004401400048014010B501F0D4
:1027C0001F030121046A99408C430462016A9A4004
:1027D0001143016210BD00002DE9F043026A22F0AE
:1027E00001020262056A436882691C4C25F00205F9
:1027F00022400C6822F0030214438A68194E2A43CF
:10280000174D194FDFF864C0DFF86490A84207D075
:10281000B04205D0B84203D0604501D0484506D14A
:1028200022F00808CA6842EA080222F00402A8421C
:1028300007D0B04205D0B84203D0604501D048452A
:1028400005D14D6923F440731D438B692B434360CD
:102850008461496841630262BDE8F0838FFFFEFF37
:10286000002C014000340140004001400044014080
:1028700000480140F0B5026A22F010020262056AC7
:1028800042688369194C1B4E23400C6823F4407343
:1028900043EA042425F020038D6843EA0513144D10
:1028A000A84201D0B04206D1CF6823F0800343EAAA
:1028B000071323F04003A8420AD0B04208D00E4DBF
:1028C000A84205D00D4DA84202D00D4DA84207D117
:1028D0004D6922F4406242EA85028D6942EA85022E
:1028E00042608461496881630362F0BDFF8FFFFE2F
:1028F000002C0140003401400040014000440140F0
:1029000000480140F0B5026A22F480720262056A52
:102910004368C269194C1B4E22400C6822F0030226
:10292000144325F400728D6842EA0522144DA84232
:1029300001D0B04206D1CF6822F4006242EA0722F9
:1029400022F48062A8420AD0B04208D00E4DA842BC
:1029500005D00E4DA84202D00D4DA84207D14D69B9
:1029600023F4405343EA05138D6943EA051343609A
:10297000C4614968C1630262F0BD00008FFFFEFFC1
:10298000002C01400034014000400140004401405F
:1029900000480140F0B5026A22F480520262056AE2
:1029A0004268C369194C1B4E23400C6823F44073E2
:1029B00043EA042425F400538D6843EA0533144D9B
:1029C000A84201D0B04206D1CF6823F4004343EAC5
:1029D000073323F48043A8420AD0B04208D00E4DFA
:1029E000A84205D00D4DA84202D00D4DA84207D1F6
:1029F0004D6922F4404242EA85128D6942EA85120D
:102A00004260C461496801640362F0BDFF8FFFFE4C
:102A1000002C0140003401400040014000440140CE
:102A20000048014030B5026A22F480320262046A32
:102A30004268036D114D2B400D681D4324F4003393
:102A40000C8943EA04430E4CA0420BD00D4CA0422B
:102A500008D00D4CA04205D00C4CA04202D00C4C2A
:102A6000A04204D14C6922F4803242EA042242603E
:102A7000056549688164036230BD00008FFFFEFF79
:102A8000002C01400034014000400140004401405E
:102A90000048014030B5026A22F480120262046AE2
:102AA0004268036D114D24F400142B400D6843EA75
:102AB00005230D8944EA05540D4DA8420BD00D4D58
:102AC000A84208D00C4DA84205D00C4DA84202D017
:102AD0000B4DA84204D14D6922F4802242EA85229E
:102AE000426003654968C164046230BDFF8FFFFE28
:102AF000002C0140003401400040014000440140EE
:102B000000480140FEE700000FB4084B10B504A9CF
:102B100002AA039800F02CF8044602A9002000F055
:102B2000C8F9204610BC5DF814FB0000B32E000865
:102B30000907090E002804DB00F1E02080F80014EA
:102B4000704700F00F0000F1E02080F8141D70477E
:102B500002E008C8121F08C1002AFAD17047704766
:102B6000002001E001C1121F002AFBD170470000C4
:102B70002DE9FF4F8BB088460546002606E0252844
:102B80000BD0DDE90D1290476D1C761C28780028CB
:102B9000F5D10FB03046BDE8F08F0024A146A24623
:102BA0000122AE4900E0044315F8013F203B02FA40
:102BB00003F00842F7D128782A2810D06FF02F02AE
:102BC0002878A0F13001092915D809EB890102EB19
:102BD000410144F0020400EB01096D1CF0E758F8D4
:102BE000041B5FEA010903D544F40054C9F100094C
:102BF00044F002046D1C28782E2817D115F8010F17
:102C000044F004042A280ED06FF02F022878A0F197
:102C1000300109290AD80AEB8A0102EB410100EBD5
:102C2000010A6D1CF2E758F804AB6D1C28786C287B
:102C30000FD006DC4C2817D068280DD06A2814D194
:102C400004E0742810D07A280FD10DE044F4001469
:102C50000AE044F4801401E044F4401469788142AD
:102C600002D104F580146D1C6D1C2878692865D08C
:102C700006DC00288DD0632827D0642806D15DE0CB
:102C80006E2808D073282AD0752877D0DDE90D1278
:102C90009047761CE0E0C4F30250022809D00328D4
:102CA0000DD0D8F8001004280DD00E6008F10408EB
:102CB000D2E0D8F80010F217C1E90062F6E7D8F8C0
:102CC00000100E80F2E70E70F0E718F8041B8DF884
:102CD000001000208DF80100EB46012003E058F8B9
:102CE00004BB4FF0FF3061074FF0000701D40AE04A
:102CF0007F1C57450DDA8742FADB1BF807100029C5
:102D0000F6D106E07F1C8742FCDB1BF80710002988
:102D1000F8D1DDE90D23A9EB07008146214600F03B
:102D2000B1F83044C61904E0DDE90D121BF8010BBF
:102D300090477F1EF8D22146484688E058F8040B99
:102D4000C4F302514FF00A0B032900D100B2042949
:102D500000D140B2002802DA40422D2102E02105D4
:102D600005D52B218DF82410012104E006E0E107B0
:102D700010D02021F6E708AF089113E058F8040BB3
:102D8000C4F302514FF00A0B032900D180B2042989
:102D900000D1C0B20021EEE75946FDF74BFA3031C1
:102DA00007F8011D0028F7D1ADEB070000F1200B5B
:102DB000600702D524F4803401E04FF0010ADA45BF
:102DC00002DDAAEB0B0000E00020824600EB0B01C5
:102DD00008980144A9EB01000A90E00306D4DDE95C
:102DE0000D2321460A9800F04DF806444FF00009E3
:102DF00008E009A911F80900DDE90D12904709F171
:102E00000109761C08998945F3DBE0030CD5DDE95F
:102E10000D2321460A9800F035F8064404E0DDE968
:102E20000D1230209047761CBAF10001AAF1010A78
:102E3000F5DC05E0DDE90D1217F8010B9047761C73
:102E4000BBF10001ABF1010BF4DC0A982146DDE98E
:102E50000D2300F005F806446D1C97E609280100D3
:102E60002DE9F041044600251E461746880404D487
:102E700005E039462020B0476D1C641EF9D5284670
:102E8000BDE8F0812DE9F041044600251E4690463C
:102E9000C80301D5302700E02027880404D505E0C9
:102EA00041463846B0476D1C641EF9D52846BDE83A
:102EB000F0810A68531C0B6010707047FDF702FB2D
:102EC000FFF7CEFBFEF792FCFFF788FAFEF736FE1F
:102ED000FEF7F6FFFFF742F81F20FEF787FD1F20E1
:102EE000FEF786FE4FF6FF70FEF796FE0748FEF7E8
:102EF00079FA0748FEF776FAFEF750FFFEF7FCFC7A
:102F0000FEF7B0FFFFF7B6FAF6E7000094000020E6
:102F1000E0000020000000000000000000000000B1
:102F200000000000000000000000000000000000A1
:102F30000000000000000000000000000000000091
:102F400000000000000080018001800180018001FC
:102F50008001800180018001800180018001800169
:102F6000000000008001800100000000000000005F
:102F70000000000000000000CC00CC00CC00CC0021
:102F8000CC00CC00000000000000000000000000A9
:102F90000000000000000000000000000000000031
:102FA0000000000000000000000000000000000021
:102FB000600C600C600C30063006FE1FFE1F3006F1
:102FC00038071803FE1FFE1F180318038C018C011D
:102FD0008C01000000008000E003F80F9C0E8C1CA8
:102FE0008C188C009800F801E007800E801C8C186B
:102FF0008C189C18B80CF00FE003800080000000D3
:10300000000000000000000000000E181B0C110C56
:1030100011061106110311039B018E01C038C06C0B
:1030200060446044304430441844186C0C3800004C
:10303000000000000000E001F00338071806180641
:103040003003F001F000F8009C310E33061E061C20
:10305000061C063FFC73F021000000000000000089
:1030600000000000000000000C000C000C000C0030
:103070000C000C0000000000000000000000000038
:103080000000000000000000000000000000000040
:10309000000000000000000200038001C000C0002A
:1030A0006000600030003000300030003000300040
:1030B0003000300060006000C000C00080010003EC
:1030C00000020000000020006000C00080018001BC
:1030D00000030003000600060006000600060006C6
:1030E000000600060003000380018001C0006000AC
:1030F00020000000000000000000000000000000B0
:10310000C000C000D806F807E0013003380700000F
:1031100000000000000000000000000000000000AF
:10312000000000000000000000000000000000009F
:1031300080018001800180018001FC3FFC3F800113
:10314000800180018001800100000000000000007B
:10315000000000000000000000000000000000006F
:10316000000000000000000000000000000000005F
:1031700000000000000080018001000100018000CB
:10318000000000000000000000000000000000003F
:10319000000000000000000000000000E007E00761
:1031A000000000000000000000000000000000001F
:1031B000000000000000000000000000000000000F
:1031C00000000000000000000000000000000000FF
:1031D000000000000000C000C0000000000000006F
:1031E000000000000000000C000C000600060006B5
:1031F0000003000300038003800180018001C00000
:10320000C000C0006000600000000000000000007E
:10321000000000000000E003F007380E180C0C1846
:103220000C180C180C180C180C180C180C180C187E
:10323000180C380EF007E00300000000000000004A
:1032400000000000000000018001C001F0019801B1
:10325000880180018001800180018001800180015E
:10326000800180018001800100000000000000005A
:10327000000000000000E003F80F180C0C180C18F8
:1032800000180018000C000600038001C000600058
:1032900030001800FC1FFC1F0000000000000000B0
:1032A000000000000000E001F807180E0C0C0C0CE8
:1032B000000C0006C003C007000C001800180C1812
:1032C0000C18180CF807E0030000000000000000D4
:1032D000000000000000000C000E000F000F800D29
:1032E000C00C600C600C300C180C0C0CFC3FFC3F4C
:1032F000000C000C000C000C00000000000000009E
:10330000000000000000F80FF80F180018000C0073
:10331000EC03FC071C0E001C0018001800180C1809
:103320001C0C180EF807E00300000000000000006D
:10333000000000000000C007F00F381C181818002B
:103340000C00CC03EC0F3C0E1C1C0C180C180C18B9
:10335000181C380EF007E003000000000000000019
:10336000000000000000FC1FFC1F000C000600060F
:10337000000380038001C001C000E0006000600025
:10338000700030003000300000000000000000003D
:10339000000000000000E003F007380E180C180CC5
:1033A000180C3806F007F007180C0C180C180C183D
:1033B0000C18380CF80FE0030000000000000000BB
:1033C000000000000000E003F007380E1C0C0C1891
:1033D0000C180C181C1C381EF81BE0190018000CE7
:1033E000000C1C0EF807F0010000000000000000B7
:1033F00000000000000000000000000000000000CD
:1034000080018001000000000000000000000000BA
:1034100000000000800180010000000000000000AA
:10342000000000000000000000000000000000009C
:10343000800180010000000000000000000000008A
:1034400000000000800180010001000180000000F8
:10345000000000000000000000000000000000006C
:10346000000000000010001C800FE003F8001800AE
:10347000F800E003800F001C0010000000000000B6
:10348000000000000000000000000000000000003C
:1034900000000000F81F000000000000F81F0000FE
:1034A000000000000000000000000000000000001C
:1034B000000000000000000000000000000000000C
:1034C0000000000008003800F001C007001F0018CD
:1034D000001FC007F00138000800000000000000D5
:1034E000000000000000E003F80F180C0C180C1886
:1034F0000018000C000600038001C000C000C000DE
:1035000000000000C000C00000000000000000003B
:103510000000000000000000E00718180420C22985
:10352000224A114409440944094409221113E20CB6
:10353000024004201818E00700000000000000000E
:1035400000000000000080038003C006C006C00623
:10355000600C600C301830183018F83FF83F1C70C1
:103560000C600C6006C006C00000000000000000F7
:10357000000000000000FC03FC0F0C0C0C180C18E1
:103580000C180C0CFC07FC0F0C180C300C300C3019
:103590000C300C18FC1FFC070000000000000000AD
:1035A000000000000000C007F01F38381C300C700D
:1035B000066006000600060006000600060006601B
:1035C0000C701C30F01FE00700000000000000003D
:1035D000000000000000FE03FE0F060E061806188D
:1035E0000630063006300630063006300630061843
:1035F0000618060EFE0FFE0300000000000000008B
:10360000000000000000FC3FFC3F0C000C000C0020
:103610000C000C00FC1FFC1F0C000C000C000C002C
:103620000C000C00FC3FFC3F00000000000000000C
:10363000000000000000F83FF83F180018001800D4
:1036400018001800F81FF81F1800180018001800BC
:10365000180018001800180000000000000000000A
:10366000000000000000E00FF83F3C780E6006E02C
:1036700007C00300030003FE03FE03C007C006C02B
:103680000EC03CF0F83FE00F00000000000000001A
:103690000000000000000C300C300C300C300C30FE
:1036A0000C300C30FC3FFC3F0C300C300C300C303C
:1036B0000C300C300C300C3000000000000000001A
:1036C0000000000000008001800180018001800175
:1036D00080018001800180018001800180018001E2
:1036E00080018001800180010000000000000000D6
:1036F00000000000000000060006000600060006AC
:103700000006000600060006000600060006180671
:1037100018063807F003E001000000000000000078
:1037200000000000000006300618060C060606031E
:103730008601C60066007600DE008E0106030606DE
:10374000060C0618063006600000000000000000AD
:1037500000000000000018001800180018001800F1
:103760001800180018001800180018001800180099
:1037700018001800F81FF81F0000000000000000EB
:103780000000000000000EE01EF01EF01EF036D813
:1037900036D836D836D866CC66CC66CCC6C6C6C651
:1037A000C6C6C6C686C386C300000000000000006F
:1037B0000000000000000C301C303C303C306C300D
:1037C0006C30CC30CC308C310C330C330C360C36A6
:1037D0000C3C0C3C0C380C300000000000000000D9
:1037E000000000000000E007F81F1C380E700660A3
:1037F00003C003C003C003C003C003C003C006600E
:103800000E701C38F81FE0070000000000000000E8
:10381000000000000000FC0FFC1F0C380C300C30C6
:103820000C300C300C18FC1FFC070C000C000C00BA
:103830000C000C000C000C00000000000000000058
:10384000000000000000E007F81F1C380E70066042
:1038500003E003C003C003C003C003C007E0066366
:103860000E3F1C3CF83FE0F700C0000000000000E5
:10387000000000000000FE0FFE1F06380630063074
:1038800006300638FE1FFE0706030606060C06185D
:103890000618063006300660000000000000000038
:1038A000000000000000E003F80F1C0C0C180C18BE
:1038B0000C001C00F803E00F001E00380630063034
:1038C0000E301C1CF80FE007000000000000000094
:1038D000000000000000FE7FFE7F8001800180016B
:1038E00080018001800180018001800180018001D0
:1038F00080018001800180010000000000000000C4
:103900000000000000000C300C300C300C300C308B
:103910000C300C300C300C300C300C300C300C30C7
:103920000C301818F81FE00700000000000000002D
:1039300000000000000003600630063006300C185E
:103940000C180C18180C180C380E300630067007BE
:1039500060036003C001C00100000000000000001F
:103960000000000000000360C361C361C3616633EF
:10397000663366336633663366336C1B6C1B6C1BB5
:103980002C1A3C1E380E380E00000000000000000B
:103990000000000000000FE00C7018303018700CB0
:1039A000600EC00780038003C003E006700C301C6B
:1039B00018180C300E6007E0000000000000000046
:1039C00000000000000003C006600C301C383818EE
:1039D000300C6006E007C003800180018001800197
:1039E00080018001800180010000000000000000D3
:1039F000000000000000FC7FFC7F00600030001829
:103A0000000C000600038001C000600030001800B8
:103A10000C000600FE7FFE7F00000000000000009A
:103A2000000000000000E003E003600060006000B0
:103A30006000600060006000600060006000600086
:103A40006000600060006000600060006000E003F3
:103A5000E003000000003000300060006000600003
:103A6000C000C000C000C0018001800180010003CF
:103A70000003000300060006000000000000000034
:103A8000000000000000E003E00300030003000367
:103A9000000300030003000300030003000300030E
:103AA0000003000300030003000300030003E0031E
:103AB000E003000000000000C001C00160036003DB
:103AC000600330063006180C180C000000000000DF
:103AD00000000000000000000000000000000000E6
:103AE00000000000000000000000000000000000D6
:103AF00000000000000000000000000000000000C6
:103B0000000000000000FFFFFFFF000000000000B9
:103B10000000000000000C000C000C000C000C0069
:103B20000C00000000000000000000000000000089
:103B30000000000000000000000000000000000085
:103B40000000000000000000000000000000000075
:103B5000F003F8071C0C0C0C000FF00FF80C0C0C09
:103B60000C0C1C0FF80FF018000000000000000003
:103B700000000000000018001800180018001800CD
:103B8000D803F80F380C181818181818181818181F
:103B90001818380CF80FD8030000000000000000CF
:103BA0000000000000000000000000000000000015
:103BB000C003F007300E180C180018001800180089
:103BC000180C300EF007C0030000000000000000D9
:103BD000000000000000001800180018001800186D
:103BE000C01BF01F301C18181818181818181818AF
:103BF0001818301CF01FC01B00000000000000005F
:103C000000000000000000000000000000000000B4
:103C1000C003F00F300C1818F81FF81F1800180018
:103C20003818301CF00FC007000000000000000032
:103C3000000000000000800FC00FC000C000C000E6
:103C4000F007F007C000C000C000C000C000C00006
:103C5000C000C000C000C000000000000000000064
:103C60000000000000000000000000000000000054
:103C7000E00DF80F180E0C0C0C0C0C0C0C0C0C0CB2
:103C80000C0C180EF80FE00D000C0C0C1C06F807BD
:103C9000F0010000000018001800180018001800BB
:103CA000D807F80F381C18181818181818181818EA
:103CB0001818181818181818000000000000000044
:103CC000000000000000C000C00000000000000074
:103CD000C000C000C000C000C000C000C000C000E4
:103CE000C000C000C000C0000000000000000000D4
:103CF000000000000000C000C00000000000000044
:103D0000C000C000C000C000C000C000C000C000B3
:103D1000C000C000C000C000C000C000C000F8006B
:103D20007800000000000C000C000C000C000C00DF
:103D30000C0C0C060C038C01CC006C00FC009C01EC
:103D40008C030C030C060C0C0000000000000000AB
:103D5000000000000000C000C000C000C000C000A3
:103D6000C000C000C000C000C000C000C000C00053
:103D7000C000C000C000C000000000000000000043
:103D80000000000000000000000000000000000033
:103D90007C3CFF7EC7E383C183C183C183C183C1F0
:103DA00083C183C183C183C1000000000000000003
:103DB0000000000000000000000000000000000003
:103DC0009807F80F381C1818181818181818181809
:103DD0001818181818181818000000000000000023
:103DE00000000000000000000000000000000000D3
:103DF000C003F00F300C18181818181818181818D5
:103E00001818300CF00FC003000000000000000084
:103E100000000000000000000000000000000000A2
:103E2000D803F80F380C181818181818181818187C
:103E30001818380CF80FD8031800180018001800CC
:103E4000180000000000000000000000000000005A
:103E5000C01BF01F301C181818181818181818183C
:103E60001818301CF01FC01B00180018001800188C
:103E7000001800000000000000000000000000002A
:103E8000B007F00370003000300030003000300028
:103E90003000300030003000000000000000000062
:103EA0000000000000000000000000000000000012
:103EB000E003F003380E180C3800F003C007000CC4
:103EC000180C380EF007E0030000000000000000AE
:103ED00000000000000000008000C000C000C00022
:103EE000F007F007C000C000C000C000C000C00064
:103EF000C000C000C00780070000000000000000F4
:103F000000000000000000000000000000000000B1
:103F10001818181818181818181818181818181821
:103F20001818381CF01FE019000000000000000005
:103F30000000000000000000000000000000000081
:103F40000C18180C180C180C3006300630066003DC
:103F500060036003C001C001000000000000000019
:103F60000000000000000000000000000000000051
:103F7000C141C141C36163636363636336363636EF
:103F800036361C1C1C1C1C1C00000000000000001D
:103F90000000000000000000000000000000000021
:103FA0001C38381C300C600660036003600360033B
:103FB0006006300C381C1C380000000000000000B7
:103FC00000000000000000000000000000000000F1
:103FD0001830301830187018600C600CE00CC006F7
:103FE000C00680038003800380018001C001F000CF
:103FF0007000000000000000000000000000000051
:10400000FC1FFC1F000C000600038001C0006000C4
:1040100030001800FC1FFC1F000000000000000022
:1040200000000000000000038001C000C000C000CC
:10403000C000C000C00060006000300060004000B0
:10404000C000C000C000C000C000C000800100036C
:1040500000000000000080018001800180018001DB
:104060008001800180018001800180018001800148
:104070008001800180018001800180018001800138
:104080008001000000006000C000C00180018001CC
:10409000800180018001000300030006000300018D
:1040A000800180018001800180018001C0006000EA
:1040B0000000000000000000000000000000000000
:1040C00000000000F010F81F080F000000000000C2
:1040D00000000000000000000000000000000000E0
:1040E00000000000000000000000000001020304C6
:1040F00006070809144100080000002040000000E5
:10410000502B00085441000840000020F00400003B
:10411000602B00080200000000000000000000000A
:10412000000000000000000000000000000000008F
:104130000000000000000000000000000000FFFF81
:10414000000000001000000001000000000000005E
:044150000024F40053
:04000005080001D915
:00000001FF
