:020000040800F2
:1000000070070020ED010008EB4200082B380008C3
:10001000E942000885090008A95B0008000000000B
:10002000000000000000000000000000FD47000884
:100030008709000800000000ED420008FF470008A3
:10004000070200080702000807020008070200086C
:10005000070200080702000807020008070200085C
:10006000070200080702000807020008070200084C
:10007000070200080702000807020008070200083C
:10008000070200080000000007020008070200083D
:10009000070200080702000807020008070200081C
:1000A000070200080702000807020008070200080C
:1000B0008D490008654A0008414B00080702000806
:1000C00007020008070200080702000807020008EC
:1000D00007020008395B0008070200080702000851
:1000E00007020008070200080702000807020008CC
:1000F00007020008070200080702000800000000CD
:1001000000000000070200080000000007020008CD
:1001100007020008000000000702000807020008AC
:10012000070200080702000807020008070200088B
:10013000070200080000000000000000070200089D
:10014000070200080702000800000000000000008D
:10015000000000000000000000000000000000009F
:10016000000000000000000000000000070200087E
:10017000070200080000000000000000000000006E
:10018000000000000702000800000000000000005E
:10019000000000000000000000000000000000005F
:1001A000000000000000000007020008070200082D
:1001B000070200080702000807020008000000000C
:1001C000000000000702000800000000000000001E
:1001D0000702000807020008DFF80CD000F0D6FA8A
:1001E0000048004715650008700700200648804752
:1001F00006480047FEE7FEE7FEE7FEE7FEE7FEE70C
:10020000FEE7FEE7FEE7FEE7A9480008D90100087F
:100210002DE9F05F0546002092469B46884606463B
:10022000814640241BE0284641464746224600F0CE
:1002300069F953465A46C01A914110D311461846DF
:10024000224600F050F92D1A67EB01084F4622466E
:100250000120002100F047F917EB00094E41201E54
:10026000A4F10104DFDC484631462A464346BDE896
:10027000F09FD2B201E000F8012B491EFBD270477B
:100280000022F6E710B513460A4604461946FFF762
:10029000F0FF204610BD2DE9FE4F81EA030404F073
:1002A000004421F0004100944FF0000B23F0004384
:1002B00050EA01045ED052EA03045BD0C3F30A544F
:1002C000C1F30A552C44A4F2F3340194A0FB025468
:1002D000C1F3130141F48011C3F3130343F48013FA
:1002E00001FB024400FB034E840A970A44EA81544E
:1002F00047EA8357A4FB076802958D0A05FB07852B
:100300004FEA932C04FB0C542705029D4FEA065834
:1003100047EA1637B5EB08056EEB070C870E920E11
:1003200047EA811742EA8312A7FB0201B6EB0B01F1
:1003300064EB00042B0D43EA0C335E1844EB1C50B5
:10034000DA465146E7FB0201C5F313044FEA0B33CB
:1003500043EA14534FEA0432019C43EA0603A4F132
:100360000C040294009CCDE900B400F0EAF803B05C
:10037000BDE8F08F00200146F9E72DE9F04D81EA54
:10038000030404F0004B21F0004514464FF0000A2E
:1003900023F0004150EA050220D054EA01021DD0AA
:1003A000C5F30A570246C5F31303C1F31300C1F3A3
:1003B0000A5640F4801543F48013A7EB0608101B7F
:1003C000D64608F2FD3873EB050002D308F10108A8
:1003D00001E092185B41B8F1000F03DA00200146FA
:1003E000BDE8F08D00204FF48011064684460EE0F3
:1003F000171B73EB050705D3121B63EB05030643BD
:100400004CEA010C49084FEA300092185B4150EA6F
:100410000107EDD152EA030012D082EA040083EA18
:100420000501084305D0101BAB4106D20122002371
:1004300006E000224FF0004302E06FF0010253108B
:100440001AEB06004CEB085110EB0A0041EB0B01D4
:10045000BDE8F04D00F066B80EB5C10F80EAE0705F
:100460000844CA07002140F233438DE80E000A46D3
:100470000B4600F066F803B000BD0EB540F2334104
:1004800002910021CDE900110A460B4600F059F80F
:1004900003B000BD00F0004230F000400AD0C10DB2
:1004A00001F56071C0F3160042EA0151C20840072D
:1004B0001143704700200146704730B50B46014696
:1004C00000202022012409E021FA02F59D4205D3F3
:1004D00003FA02F5491B04FA02F52844151EA2F19D
:1004E0000102F1DC30BD202A04DB203A00FA02F1DF
:1004F000002070479140C2F1200320FA03F3194312
:1005000090407047202A04DB203A21FA02F00021B3
:10051000704721FA02F3D040C2F120029140084313
:100520001946704710B5141E73F1000408DA401C18
:1005300041F1000192185B411A4301D120F0010002
:1005400010BD2DE9F04D92469B4611B1B1FA81F2F2
:1005500002E0B0FA80F220329046FFF7C4FF044672
:100560000F4640EA0A0041EA0B0153465A46084347
:1005700013D0114653EA010019D0C8F14002504689
:10058000FFF7C0FF05460E46504659464246FFF764
:10059000AAFF084305D0012004E020463946BDE803
:1005A000F08D0020054346EAE0762C4337430A9855
:1005B0006305E40AA0EB08000022FD0A44EA475460
:1005C0000A3002D500200146E9E70105101969410A
:1005D000DDE9084500196941BDE8F04DA2E72DE9C4
:1005E000FE4F804681EA0300C00F0C46009021F0C8
:1005F000004123F00045B8EB0200A94105D2404676
:10060000214690461C460B46024623F0004010430C
:1006100047D0270DC7F30A00C3F30A510290401ACE
:10062000019040286BDAC3F3130040F4801B00985C
:10063000924620B10023D2EB030A63EB0B0B019827
:100640005946C0F140025046FFF74DFF06460D46A1
:1006500050465946019A00F0ABF810EB0800614192
:10066000002487EA115284EAE7731A4340D0009AC3
:1006700062B3019A012A4FEA075215DC001B61EBB5
:1006800002014FF0004202EA0752CDE90042001C8D
:1006900041F5801132462B46FFF753FF03B0BDE80A
:1006A000F08F40462146F9E7001B61EB0201001C78
:1006B00041F5801300185B412018A2F5001747EBA5
:1006C000030140EAD570B6196D4111E06D084FEA9B
:1006D000360645EAC0754FEA0752001B61EB02017E
:1006E000001C41F5801149084FEA300000195141C2
:1006F00032462B4603B0BDE8F04FFFF713BF00981A
:10070000012240000023D0EB020263EBE07300986B
:1007100021464FEAE074B8EB000061EB0401E9E721
:1007200083F000435BE781F0004158E7C1F30A52D0
:10073000C1F3130140F2FF3341F480119A4202DA0F
:1007400000200146704740F233439A42A2F23342FE
:1007500002DC5242FFF7D6BEFFF7C5BE30B5041E1D
:1007600071F1000404DB4FF00044404264EB0101EE
:10077000141E73F1000405DB1C464FF00043524287
:1007800063EB0403994208BF904230BD064C074D0D
:1007900006E0E06840F0010394E807009847103451
:1007A000AC42F6D3FFF71CFDDC770008FC770008AD
:1007B000202A06DBCB17203A41FA02F043EAE07325
:1007C00006E041FA02F3D040C2F120029140084312
:1007D0001946704710B5044800F0B8FC024800F014
:1007E00061FB80B210BD0000B000002030B58BB0BE
:1007F000002408940994202168460A94FFF740FDDC
:100800001C484FF0A041042501604FF48021C0E94D
:100810000114C4600461C0E90545047744770121EF
:10082000016280F82440C462046380F83840C463E5
:1008300080F8404000F03AFB08B100F0B3F808A996
:100840000C48089400F0B0F808B100F0ABF80A4882
:1008500000900620CDE901047F200594CDE9030531
:100860006946044800F00CF9002801D000F09AF81D
:100870000BB030BDB00000200008302E10B5044889
:1008800000F064FC024800F00DFB80B210BD0000D7
:100890001C01002030B589B020216846FFF7F0FC2C
:1008A00019481849002401608902C0E90114C46094
:1008B00004250461C0E905450477447701210162FC
:1008C00080F82440C462046380F83840C46380F830
:1008D000404000F0EBFA08B100F064F80B480090DB
:1008E0000620CDE901047F200594CDE90305694682
:1008F000054800F0C5F8002801D000F053F809B011
:1009000030BD0000000100501C0100200080F03EBE
:1009100070B504460068816811F0010F2DD181681F
:10092000174A11421AD18168D5432940491C816078
:1009300000F0F8FD06461BE0816811F0010F03D1BD
:1009400081682940491C816000F0ECFD801B022871
:100950000ED920680068C043C00709D0E06D40F0A0
:100960001000E065206E40F001002066012070BD9F
:1009700020680168C943C907DED1002070BD0000AE
:100980003F000080FEE77047002240F6B83306E0E3
:100990000021491C89B29942FBD3521C92B2824277
:1009A000F6D3704772B6FEE72DE9F047044690F89B
:1009B00058009CB00E464FF00009012815D00120C8
:1009C00084F8580000251795189520684FF0A04826
:1009D00040450ED1284F0097384603F0A5FA8246CD
:1009E000206803F0A1FA60B10EE002201CB0BDE85F
:1009F000F087E06D40F02000E06584F85850012059
:100A0000F4E7BAF1000F09D0E06D40F02000E06596
:100A10004FF0010984F858504846E7E71748326814
:100A200040F61F71002A826822F4604216D094F8C2
:100A3000383042EA433273681A438260D8F808209B
:100A4000BB6802F0010203F001031A43E2D1B3686C
:100A500032681A4383688B431A430BE08260D8F8EC
:100A60000820BB6802F0010203F001031A43D1D150
:100A700082688A438260CDE7000100500003005085
:100A80002DE9F84F00270446009790F85800DFF84A
:100A9000E0930D46B846012811D0012684F858602D
:100AA000206803F03DFA60B1E06D40F02000E065A1
:100AB0005FF0010784F858803846BDE8F88F0220BF
:100AC000FBE7D5E900210C23206803EA91131844C1
:100AD000036B01F01F014FF01F0C0CFA01FCC2F375
:100AE000846223EA0C038A4013430363206803F003
:100AF00017FA8246206803F00FFA5AEA00003CD148
:100B0000AA6829682068B2F1004F37D003F010FAC4
:100B10002068416921F00041416120686969C2682B
:100B2000C2F3C102520091402A69042A31D000EB7D
:100B300082002B68026EDFF83CC303F0F84302EA40
:100B40000C020B431A4342F00041016620682A69F7
:100B5000A96900EB8200026E22F080720A430266ED
:100B6000297F22682869012910D0002102EB80002A
:100B7000026E22F000720A4302667DE0002203F05A
:100B8000D7F92068416941F00041C5E74FF0007195
:100B9000ECE7002103F0BAF9400320684FF00001B0
:100BA00072D003F0B3F990FAA0F0B0FA80F128689F
:100BB00042036ED090FAA0F0B0FA80F0814204D1E6
:100BC00000221146206803F0C2F90121206803F0D9
:100BD0009DF9400320684FF001015DD003F096F9C4
:100BE00090FAA0F0B0FA80F12868420359D090FA48
:100BF000A0F0B0FA80F0814204D1002201212068E7
:100C000003F0A5F90221206803F080F94003206871
:100C10004FF0020148D003F079F990FAA0F0B0FA51
:100C200080F12868420344D090FAA0F0B0FA80F036
:100C3000814204D100220221206803F088F90321B7
:100C4000206803F063F9400320684FF0030133D0BC
:100C500003F05CF990FAA0F0B0FA80F12868420342
:100C60002FD090FAA0F0B0FA80F0814204D1002297
:100C70000321206803F06BF92068816811F0010FEF
:100C800022D0ACE000E004E003F040F9C0F384615E
:100C90008DE7C0F3846091E703F038F9C0F3846115
:100CA000A2E7C0F38460A6E703F030F9C0F38461E3
:100CB000B7E7C0F38460BBE703F028F9C0F38461B1
:100CC000CCE7C0F38460D0E72A7B296850F8B03FB6
:100CD000C1F3120C23EA0C0302F0180C664A22FA44
:100CE0000CF20A4013430360E968494577D128684C
:100CF00041031CD090FAA0F1B1FA81F1491C01F036
:100D00001F0109294FEA403132D8002912D000BF13
:100D100090FAA0F1B1FA81F101F1010101F01F0196
:100D200006FA01F609D100BFC0F3846109E0C0F3FF
:100D30008461E3E7C0F38461EEE790FAA0F1B1FAD1
:100D400081F101F1010101F01F0146EA816102D147
:100D5000C0F3846003E090FAA0F0B0FA80F000F1F4
:100D6000010000F01F0000EB400041EA005132E0BA
:100D700000290ED090FAA0F1B1FA81F101F1010140
:100D800001F01F0106FA01F606D100BFC0F384612D
:100D900006E0C0F38461F1E790FAA0F1B1FA81F1C5
:100DA00001F1010101F01F0146EA816102D1C0F3A6
:100DB000846003E090FAA0F0B0FA80F000F1010046
:100DC00000F01F002D4A00EB400002EB005041EA0A
:100DD000000141F00071AA68206803F0A9F82848D2
:100DE0002A6802423FF466AE26488168264B01F02D
:100DF000E0719A4202D0254B9A421CD10B021AD4C0
:100E00002268B2F1A04F7FF455AE826841F4000130
:100E100022F0E0720A4382601D481E490068B0FB60
:100E2000F1F0401C00EB4000800000E0401E00900C
:100E30000028FBD13EE6184D184BAA4207D1CD0140
:100E400005D422689A42F5D041F0807109E0144D32
:100E5000AA42EFD14A02EDD422689A42EAD041F484
:100E60008001826822F0E0720A43826022E600007C
:100E700000007F4000F0FF03FFFF0700000020FE9E
:100E80000000088000030050000021C31000C09043
:100E90004C000020400D0300000052C7000100502C
:100EA000000084CB0068006C70470000F8B54FF07C
:100EB000000504002E46009502D0E06D10B107E059
:100EC0000120F8BD204600F0EFF8266684F858604F
:100ED00020688168C1F3407119B181686A4A114084
:100EE000816020688168C1F3007189B98168674AAF
:100EF000114041F080518160654866490068B0FB4F
:100F0000F1F04000801C00E0401E00900028FBD162
:100F100020688168C1F3007141B9E16D41F01001B1
:100F2000E165216E41F001012166012502F0F8FF23
:100F3000E16DC90600D430B1E06D40F01000E0650D
:100F400001252846F8BDE06D20F4807040F00200D5
:100F5000E0652068806810F0010F11D14FF0A040CB
:100F600080684D4900F00100896801F001010843E3
:100F700006D14A486168826822F47C120A43826082
:100F8000E168E06B627F0843A16841EA42310843AF
:100F900094F8241040EA0140012904D1218D404AEF
:100FA00002EB41410843E16A29B101F47871226BF7
:100FB000014342EA01002168CA683A4B1A400243E1
:100FC000CA6020680169626B21F0406111430161D0
:100FD000206802F0A5FF0646206802F09DFF30431E
:100FE0002ED1207F94F83810800340EA4102206817
:100FF000C16844F2020399431143C160206900288B
:10100000206801690AD041F480310161206850F8FC
:10101000C01F22696FF30D01114307E021F48031F5
:101020000161206850F8C01F6FF30D01016094F852
:10103000400001280CD02068016921F00101016104
:10104000606901282068016B21F00F0111D013E0C5
:10105000D4E911010843D4E913121143084321686C
:101060000A6940F2FC739A43104340F001000861A2
:10107000E6E7226A521E11430163E06D20F0020090
:1010800040F00100E0655CE7C0FFFF5FC0FFFF7F4D
:101090004C000020400D03000001005000030050F0
:1010A0000000FEFF0740F0FFF0B587B004461421B2
:1010B0006846FFF7E5F8214B266800241A680325E7
:1010C0001F482049521CB6F1A04F06D01E4FBE4209
:1010D00031D11A60012A16D01DE01A60012A07D109
:1010E000CA6C42F40052CA64CA6C02F400520592FF
:1010F000CA6C42F00202CA64C96C01F00201059197
:101100004FF4805111E0CA6C42F40052CA64CA6CB8
:1011100002F400520592CA6C42F00202CA64C96C21
:1011200001F0020105914FF40041CDE90015029450
:10113000694600F009F907B0F0BD00003400002056
:101140000004004800100240000100502DE9F04169
:1011500004463848806800F01F05206802F0E0FE71
:1011600018B102210846BDE8F08194F85800012822
:101170000CD0012084F858002046FFF7C9FB01007D
:101180004FF0000304D084F85830EBE70220EAE780
:10119000E06D40F60162904340F48070E065264ABD
:1011A00020684FF0A046904201D1374600E0074644
:1011B000874200D01DB9E76D27F48017E765E76D1A
:1011C000FF0404D5276E27F00607276600E0236694
:1011D0001C27076084F858302068904201D13346BC
:1011E00000E00346834215D0A5B1052D12D0092D8C
:1011F00010D0E36D43F48013E365904200D1304694
:10120000C0688001AED5E06D20F4005040F48050FD
:10121000E065A7E7C268920105D5E26D22F40052AD
:1012200042F48052E2658268044B1A40121D8260CB
:1012300098E700000003005000010050C0FFFF7F4E
:1012400010B590F8253000210122022B03D0042193
:10125000C163012122E003681C6824F00E041C60B5
:10126000836C1C6824F480741C6003681C6824F080
:1012700001041C6090F84430046C03F01F0302FA70
:1012800003F36360D0E913345C60436D33B11C68D1
:1012900024F480741C60D0E916345C6080F825204A
:1012A000002280F82420084610BD70B590F8252053
:1012B000002401212346022A07D00422C26380F8B9
:1012C000251080F82430012429E00268156825F0F3
:1012D0000E0515600268156825F001051560826C21
:1012E000156825F48075156090F84420056C02F0AF
:1012F0001F0201FA02F26A60D0E913255560426DBF
:1013000032B1156825F480751560D0E91625556051
:1013100080F8251080F82430816B01B18847204681
:1013200070BD000070B5044600F0FCF80546601C76
:1013300002D004484068044400F0F4F8401BA04286
:10134000FAD370BD400000202DE9FC4FDFF8A0A1CA
:10135000002301250AF1040B03244FF00F0C0BF1BD
:10136000040EBDE005FA03F632406FD04F68012F3E
:1013700005D0022F03D0112F01D0122F17D1D0F892
:1013800008905F0004FA07F829EA08090097D1F8E5
:101390000C8008FA07F848EA0908C0F8088047688E
:1013A000B7430E79C6F300169E403E434660C668BA
:1013B0004FEA430804FA08F7BE4301978F6807FA1B
:1013C00008F73743C7604E68022E01D0122E13D1A2
:1013D000DE0800EB86060096366A5F07FF0E0CFA01
:1013E00007F926EA0906D1F8109009FA07F949EA3F
:1013F0000609009EC6F820900668019FBE430F793B
:1014000007F0030707FA08F7374307604E68F6004E
:1014100065D5384E376E47F001073766366E23F0D4
:10142000030706F001060096334E3E44B146B66807
:101430009F074FEA17780CFA08F7BE43B0F1904FB8
:1014400005D02E4FB84204D1012717E047E000270E
:1014500014E02B4FB84201D102270FE0294FB842C8
:1014600001D103270AE0284FB84201D1042705E043
:10147000264FB84201D1052700E0062707FA08F7F2
:101480003743C9F80870DAF800605746D1F804808D
:1014900096435FEAC83800D516433E60DBF800602B
:1014A0005F46D1F8048096435FEA883800D516433A
:1014B0003E60DEF800607746D1F8048096435FEA2C
:1014C000C82800D516433E60094F0C373E68D1F856
:1014D000048096435FEA882800D516433E605B1C73
:1014E0000A6832FA03F67FF43DAFBDE8FC8F0000D6
:1014F00000040140001002400000014000040048C8
:1015000000080048000C0048001000480014004883
:101510000069084000D0012070470AB1816170471E
:1015200081627047014880687047000040000020D9
:101530000248816842681144816070474000002081
:1015400010B50024032000F073F80F2000F008F815
:1015500008B1012401E000F025F8204610BD00008C
:1015600070B50E4E05460024706898B14FF47A713C
:10157000B1FBF0F00A490968B1FBF0F000F0E6FEBB
:1015800040B9102D06D200222946501E00F030F836
:10159000356000E00124204670BD000040000020BE
:1015A0004C0000200A4882B0016E41F00101016642
:1015B000016E01F001010091816D41F08051816562
:1015C000806D00F08050009002B000F0A1B80000E3
:1015D00000100240002809DB00F01F0201219140A9
:1015E0004009800000F1E020C0F8001170470000C1
:1015F000F0B40E4B1B680C46C3F30223C3F107057E
:10160000042D00D90425191D072901D2002300E06B
:10161000DB1E012606FA05F1491E214099409E4035
:10162000761E16403143F0BC04F0E4BA0CED00E045
:10163000064900F0070208684FF6FF03184040EA29
:101640000220034A10430860704700000CED00E0E0
:101650000000FA052B492C4B0A6832214A432B49DA
:1016600040B1B0F5007F086829D020F4C06040F494
:1016700080602CE00868C0F34120022804D051F8B3
:10168000800F20F4807022E0D1F8800020F4807078
:10169000C1F88000086820F4C06040F40070086061
:1016A000B2FBF3F0401C00E0401E4A69520501D530
:1016B0000028F9D1486940050AD503207047C0F3D6
:1016C0004120022806D051F8800F40F48070086055
:1016D00000207047D1F8800040F48070C1F880008D
:1016E000086820F4C06040F400700860B2FBF3F0BA
:1016F000401C00E0401E4A695205DBD50028F9D1A4
:10170000D8E700004C00002040420F00007000406D
:101710000248816841F48041816070470070004058
:101720002DE9F8430446006800269D4D00035ED570
:10173000A86D0027C00008D4A86D40F08050A865AF
:10174000A86D012700F080500090DFF85892D9F87A
:10175000001041F48071C9F80010FFF7E3FE8046E5
:1017600006E000BFFFF7DEFEA0EB080002282BD842
:10177000D9F80000C005F5D5D5F8900010F44070F8
:1017800014D0216C814211D0D5F89000D5F890107A
:1017900020F4407041F48031C5F89010D5F89010D5
:1017A00021F48031C5F89010C5F89000C00711D021
:1017B000FFF7B8FE804641F2883907E0FFF7B2FE36
:1017C000A0EB0801494501D903260BE0D5F89000AC
:1017D0008007F3D5D5F89000216C20F440700843C1
:1017E000C5F890001FB1A86D20F08050A865207842
:1017F000C00707D0D5F88800616820F003000843CF
:10180000C5F888002078800707D5D5F88800A1683A
:1018100020F00C000843C5F888002078400707D561
:10182000D5F88800E16820F030000843C5F888004A
:101830002078000707D5D5F88800216920F0C0007E
:101840000843C5F888002078800607D5D5F88800B9
:10185000616920F440600843C5F88800207840069C
:1018600007D5D5F88800A16920F440500843C5F891
:1018700088002078000607D5D5F88800E16920F4B3
:1018800040400843C5F888002088C00507D5D5F832
:101890008800216A20F440300843C5F88800208879
:1018A000800507D5D5F88800616A20F440200843F8
:1018B000C5F88800208840050FD5D5F88800A16AB2
:1018C00020F440100843C5F88800A06AB0F5801FD6
:1018D00003D1E86840F48010E860208800050FD547
:1018E000D5F88800E16A20F440000843C5F8880074
:1018F000E06AB0F5800F03D1E86840F48010E8603A
:101900002088C0040FD5D5F88800216B20F04070E6
:101910000843C5F88800206BB0F1807F03D1E868E8
:1019200040F48010E86020884FF0006180040ED5FC
:10193000D5F88800626B20F040601043C5F888003D
:10194000606B884203D1E86840F48010E86020882A
:1019500040040ED5D5F88800A26B20F040601043FB
:10196000C5F88800A06B884203D1E86840F4801075
:10197000E860208800040FD5D5F88800E16B20F0DE
:1019800040500843C5F88800E06BB0F1805F03D198
:10199000E86840F48030E8603046BDE8F883000035
:1019A00000100240007000402DE9F0470E4605008F
:1019B0004FF0000725D0DFF8AC81D8F8000000F028
:1019C0000F00B0420CD2D8F8001021F00F013143C3
:1019D000C8F80010D8F8000000F00F00B04210D195
:1019E0002968614CC80741F2883A5AD06868DFF824
:1019F0007C91032808D0022820682DD040050028BB
:101A00002CDB0120BDE8F08720688001F9D5E06873
:101A100000F00302E068C0F30310401C032A19D051
:101A2000534A00BFB2FBF0F0E268C2F30622504313
:101A3000E268C2F34162521C5200B0FBF2F048452A
:101A400017D9A06810F0F00F0CD0880711D5A8683E
:101A500040B10EE0474AE5E78003D0E700F0B6F872
:101A6000484506D9A06820F0F00040F08000A06052
:101A70008027A068696820F003000843A060FFF792
:101A800051FD814606E000BFFFF74CFDA0EB0901C8
:101A900051453AD8A068696800F00C00B0EB810F9E
:101AA000F2D12868810714D5400703D5A06840F417
:101AB000E060A0602878000705D5A06820F4605099
:101AC00040F4E060A060A068A96820F0F00008433E
:101AD00004E0802F03D1A06820F0F000A060D8F8C7
:101AE0000010404601F00F01B14216D9016821F003
:101AF0000F0131430160FFF715FD074607E000BF06
:101B0000FFF710FDC11B514501D903207AE7D8F832
:101B1000000000F00F00B042F2D12878400705D550
:101B2000A068E96820F4E0600843A0602878000716
:101B300006D5A068296920F4605040EAC100A06081
:101B400000F044F8A1680C4AC1F30311515C01F0A4
:101B50001F01C8400949086009480068BDE8F0470E
:101B6000FFF7FEBC002002400010024000B4C40495
:101B70000024F40000366E01C47700084C000020F9
:101B8000400000200548064900688968054AC1F3FD
:101B90000221515C01F01F01C84070474C00002039
:101BA00000100240D477000805480649006889689B
:101BB000054AC1F3C221515C01F01F01C8407047C2
:101BC0004C00002000100240D4770008184910B5DE
:101BD0008868C0F381021748012A0BD08A68164B27
:101BE000C2F38102022A06D08A68C2F38102032A64
:101BF00003D0002010BD184610BDCA6802F00304CF
:101C0000CA68C2F30312521C032C02D0B0FBF2F0DC
:101C100001E0B3FBF2F0CA68C968C2F30622504380
:101C2000C1F34161491C4900B0FBF1F010BD000057
:101C3000001002400024F40000366E012DE9F84344
:101C400004007AD02078FA4DC00747D0A868E96828
:101C500000F00C0001F003010C2802D0082817D076
:101C600001E0032914D06068B0F5803F17D0B0F5CB
:101C7000A02F286817D020F480302860286820F42E
:101C8000802028606068E0B1FFF74CFC064614E055
:101C90002868800322D560680028D2D01EE028681A
:101CA00040F48030EDE740F480202860F7E700BF83
:101CB000FFF738FC801B642870D828688003F7D5AC
:101CC0000CE0FFF72FFC064605E000BFFFF72AFCFB
:101CD000801B6428F0D828688003F7D42078800718
:101CE0004CD5A868E96800F00C0001F003010C284D
:101CF00002D004280DD001E002290AD0E0680028B3
:101D000028682BD040F480702860FFF70BFC064653
:101D100019E02868400502D5E068002891D068687D
:101D2000217C20F0FE4040EA01606860C148006804
:101D3000FFF716FC002800D120E076E1FFF7F2FB68
:101D4000801B0228B8D828684005F7D56868217C30
:101D500020F0FE4040EA016068600FE020F48070EF
:101D60002860FFF7DFFB064605E000BFFFF7DAFB60
:101D7000801B0228A0D828684005F7D420780007E7
:101D800029D560690028D5F8940013D040F00100EF
:101D9000C5F89400FFF7C6FB064606E090E000BFDA
:101DA000FFF7C0FB801B022886D8D5F89400800777
:101DB000F6D510E020F00100C5F89400FFF7B2FB63
:101DC000064604E0FFF7AEFB801B022878D8D5F862
:101DD00094008007F6D42078400761D5A86D0026CE
:101DE000C00008D4A86D40F08050A865A86D0126F9
:101DF00000F08050009090480168C90511D4016836
:101E0000804641F480710160FFF78CFB074604E0D7
:101E1000FFF788FBC01B022852D8D8F80000C00585
:101E2000F6D5A068012815D00528D5F8900016D061
:101E300020F00100C5F89000D5F8900020F00400D3
:101E4000C5F89000A06841F28838B8B1FFF76AFB86
:101E500007460EE0D5F8900040F00100F0E740F0B2
:101E60000400C5F89000F5E7FFF75CFBC11B414596
:101E700026D8D5F890008007F6D50CE0FFF752FB86
:101E8000074604E0FFF74EFBC11B414518D8D5F8C3
:101E900090008007F6D41EB1A86D20F08050A86590
:101EA0002078800629D5A0690028D5F8980013D09D
:101EB00040F00100C5F89800FFF734FB064606E045
:101EC00077E000BFFFF72EFB801B022877D8D5F8FC
:101ED00098008007F6D510E020F00100C5F89800C2
:101EE000FFF720FB064604E0FFF71CFB801B0228DF
:101EF00065D8D5F898008007F6D4E069F0B3A968F2
:101F0000C1F38101032961D00228286820F0807084
:101F100028600BD0E86820F00300E860E8684749D3
:101F20000840E860FFF7FEFA04464BE0FFF7FAFAD4
:101F3000064604E0FFF7F6FA801B02283FD828681F
:101F40008001F7D4F4E908016FF00F0202EB0111F0
:101F50000843218A5204490802EB4151A26841EA30
:101F600002210843217D4FF07E42490802EB416186
:101F70000843217B40EAC160E96800E062E0304A42
:101F800011400843E860286840F080702860E868E5
:101F900040F08070E860FFF7C5FA044605E000BF36
:101FA000FFF7C0FA001B022809D828688001F7D57E
:101FB00048E004E0FFF7B6FA001B022802D903202C
:101FC000BDE8F88328688001F4D43BE00128F7D00D
:101FD000E868226A00F00301914226D1616A00F0AC
:101FE000F0020901103991421FD1A26A00F4FE41AA
:101FF000B1EB022F19D194F82C2000F07841B1EB0D
:10200000C26F12D1218E00F4C00249084905A1F522
:102010000011914209D194F8341000F0C0604908D1
:102020004906A1F1007181420CD00120C8E70000EF
:10203000001002404000002000700040FFFFEEFE54
:102040000C809F010020BBE70F4810B50B460168CC
:102050000E480140080CD870C1F304245C7001F0F4
:102060003F049C70C1F34231197052B902F0C9FAB1
:10207000D870587802F0C5FA5870987802F0C1FA12
:102080009870002010BD0000042800403FFFFF00B2
:10209000144810B500680B464860124808300068C4
:1020A000C0F30E0088600F48083801680E480140F0
:1020B000C1F305401870C1F306245C7001F07F0481
:1020C0009C70890DD97052B902F09BFA187058783B
:1020D00002F097FA5870987802F093FA98700020FE
:1020E00010BD0000082800407F7F7F0070B504000D
:1020F0004FF001003ED094F8250028B9002084F864
:102100002400204600F03CF8022084F825001A4EF6
:10211000CA20306053203060204602F087FA10BB9E
:10212000154D0C3D286815490840286028686168ED
:10213000A269084321691143084328602189E068A6
:1021400040EA01400C4914390860204602F094FA34
:1021500048B9D4E90721114362692B6823F0604331
:102160001A4311432960FF213160002802D1012167
:1021700084F8251070BD000024280040BFFF8FFBAD
:1021800000680549884205D1044850F8901F41F481
:10219000004101607047000000280040001002402C
:1021A0002DE9F041044690F824000B4601281AD08E
:1021B000012684F82460022084F82500B2B19878C2
:1021C000D97840EA014558781978000240EA413050
:1021D00005431B4FCA20386053203860204602F068
:1021E00025FAD8B122E00220BDE8F0815878C10676
:1021F00003D500F0EF000A305870D87802F00AFAE0
:102200000504587802F006FA45EA0025987802F0AD
:1022100001FA0543187845EA4035DAE709480540F0
:10222000074820380560204602F026FAFF21396071
:1022300008B984F82560002184F82410D4E7000050
:10224000242800403FFFFF002DE9F047054690F8A5
:10225000240017460C46012814D04FF0010985F8D8
:102260002490022085F82500DFF8A480CA21C8F850
:1022700000105321C8F80010284602F0D7F90026B4
:1022800018B127E00220BDE8F087214B0C3B18680D
:102290004FEA40601FB3002800DBE670A078217889
:1022A000E27840EA01406178090241EA825108433C
:1022B00018490840164924390860186820F480201D
:1022C0001860D4E9030108431968084318602846D8
:1022D00002F0D2F9FF22C8F80020A0B115E00028D2
:1022E00000DBE670207802F095F90704607802F0D0
:1022F00091F947EA0027A07802F08CF90743E078CB
:1023000047EA8050D4E785F8259085F82460BAE73D
:10231000242800407F7F7F0070B50B4D286820F097
:1023200020002860FFF7FEF804464FF47A7606E0B6
:10233000FFF7F8F8001BB04201D9032070BD2868F0
:102340008006F5D5002070BD0C28004010B5401E59
:10235000B0F1807F01D3012010BD4FF0E024606117
:102360000F21601703F046FC0020A06107202061C8
:10237000002010BD7047704770470000F0B590F81E
:102380003C20012A4AD0012280F83C20CA688B6890
:1023900022F440721A434B6822F480621A430B689D
:1023A00022F400621A430B6922F480521A434B69EB
:1023B00022F400521A430B6B22F480421A430B8B17
:1023C00022F4702242EA0342154C03680026154DA0
:1023D000A34201D0AB4203D1CF6922F080523A43ED
:1023E000A34201D0AB4214D10F8D22F4700242EA15
:1023F00007520F6A22F080723A434F6A22F000724D
:102400003A43A34201D0AB4203D1C96A22F0005241
:102410000A435A6480F83C600020F0BD0220F0BD01
:10242000002C0140003401407047704770470000A5
:10243000F0B590F83C20012A3AD0012580F83C50B4
:10244000022280F83D2003685A689C68194E1A4F92
:10245000B34201D0BB4204D122F4700C4A6842EA74
:102460000C02DFF858C002EA0C02D1F800C04CEAB6
:10247000020CC3F804C00268B2420DD0B2F1804F22
:102480000AD00F4B9A4207D00E4B9A4204D0BA4260
:1024900002D00D4B9A4204D1896824F0800319437D
:1024A000916080F83D50002180F83C100846F0BD56
:1024B0000220F0BD002C0140003401408FFFFFFDE1
:1024C00000040040000800400040014010B50446F0
:1024D000022249B104290ED0082913D094F84700EC
:1024E000012816D0012010BD94F844000128F9D12C
:1024F00084F844200FE094F845000128F2D184F8D4
:10250000452008E094F846000128EBD184F84620E5
:1025100001E084F847200422206802F0CCFB206808
:10252000416C41F4004141641049206888420ED05A
:10253000B0F1804F0BD00E49884208D00D49884237
:1025400005D00D49884202D00C49884207D18168E4
:102550000B4A1140062906D0B1F5803F03D001682F
:1025600041F001010160002010BD0000002C01407D
:1025700000040040000800400034014000400140D9
:1025800007000100704710B5040003D094F83D0027
:1025900010B107E0012010BD002084F83C00204667
:1025A00000F022F8022084F83D00211D206802F08E
:1025B0001DFB012084F8480084F83E0084F83F00A9
:1025C00084F8400084F8410084F8420084F8430015
:1025D00084F8440084F8450084F8460084F84700F5
:1025E00084F83D00002010BD10B586B004461421CB
:1025F0006846FDF745FE2368002236480221B3F104
:10260000804F25D0344CA34245D1836D43F0020363
:102610008365836D03F002030593C36C43F00203EB
:10262000C364C06C00F00200059010208DE8070024
:10263000CDE9032169462948FEF786FE00221146AE
:102640001D20FEF7D5FF1D20FEF7C4FF06B010BD0C
:10265000836D43F001038365836D03F001030593EC
:10266000C36C43F00103C364C06C00F0010005902B
:102670004FF400408DE807000120CDE903206946B2
:102680004FF09040FEF760FE002211461C20FEF73E
:10269000AFFF1C20D8E712498B420ED1816D41F06B
:1026A00004018165806D002200F004000590114650
:1026B0001E20FEF79DFF1E20C6E70A498B42C5D1AA
:1026C000016E41F480310166006E00F480300590A7
:1026D000BCE7000000100240000400400004004875
:1026E000000800400040014070B5044690F83C00EE
:1026F000012814D0012584F83C50022084F83D00C4
:1027000022689068344B184020F47F40906008683D
:10271000702827D010DC10F00F0F03D04AE04FF0E4
:10272000020070BD4FEA2012072A43D2DFE802F010
:102730005050505048313900284BC21A984247D067
:1027400009DCB0F5805F35D0B0F5005F15D0B0F191
:10275000101F2FD13CE0102A3AD0202A38D0502A1E
:1027600028D135E0CB68D1E90121206802F0B0FA28
:102770002068816841F0770109E0CB68D1E9012147
:10278000206802F0A5FA2068816841F480418160E8
:1027900010E0CA684968206802F094FC5021206863
:1027A00006E0CA684968206802F0D4FC602120680D
:1027B00002F098FA84F83D50002084F83C0070BD87
:1027C000CA684968206802F07DFC40212068EFE774
:1027D000226801461046EBE788FFCEFF200010007C
:1027E00070B504460068224DB0F1804F1DD1207FA6
:1027F000012812D10021204600F00FFD80B268812F
:10280000A98900EE101AF8EE400A00EE100AB8EEA0
:10281000400A80EE801A85ED0A1A207F022804D132
:102820000421204600F0F9FCA88112492068884262
:102830001DD1207F012812D10021204600F0EDFC9F
:1028400080B2E881298A00EE101AF8EE400A00EE04
:10285000100AB8EE400A80EE801A85ED0B1A207F30
:10286000022804D10421204600F0D7FC288270BD44
:1028700000000020000400402DE9F041054690F8DA
:102880003C000C46012836D0012085F83C008AB374
:10289000042A42D02868082A51D0D4E90023E168EC
:1028A000066A26F480560662C669076A26F44076F0
:1028B00046EA03234FF6FF7606EA013123F470431C
:1028C00019434FF4204627F4204306EA02321A4304
:1028D000C16102622868C16921F44061C161286850
:1028E000C169A26841EA0221C161002085F83C006B
:1028F000BDE8F08101E00220FAE7D4E90012E368C4
:10290000286802F0F1FB2868816921F00C018161DF
:1029100028688169A26811430FE0D4E90012E368D6
:10292000286802F029FC2868816921F440618161EE
:1029300028688169A26841EA02218161D5E7D4E96A
:102940000027267B016A21F480710162C169036A54
:1029500021F00301394321F0F00731074FF42066DD
:1029600047EA116123F4206306EA02221A43C16197
:1029700002622868C16921F00C01C1612868C1693F
:10298000A2681143B0E710B5040003D094F83D00ED
:1029900010B107E0012010BD002084F83C00204663
:1029A00000F022F8022084F83D00211D206802F08A
:1029B0001DF9012084F8480084F83E0084F83F00A7
:1029C00084F8400084F8410084F8420084F8430011
:1029D00084F8440084F8450084F8460084F84700F1
:1029E00084F83D00002010BD7047000010B504467B
:1029F00079B1042912D0082915D00C2918D0102932
:102A000019D094F8430000BF94F84720012817D14B
:102A100014E094F83E0094F84420F7E794F83F005F
:102A200094F84520F2E794F8400094F84620EDE74A
:102A300094F84100E8E794F84200E5E7012A01D064
:102A4000012010BD022071B1042915D008291CD025
:102A50000C2948D0102949D084F8430084F8470055
:102A60000C291BD145E084F83E0084F8440020681E
:102A7000C26842F0020210E084F83F0084F845008A
:102A80002068C26842F0040207E084F8400084F83D
:102A900046002068C26842F00802C2600122206835
:102AA00002F0FCF81549206888420ED0B0F1804F42
:102AB0000BD01349884208D01249884205D01249E8
:102AC000884202D01149884207D18168104A1140DA
:102AD000062906D0B1F5803F03D0016841F001011D
:102AE0000160002010BD84F84100B7E784F842007F
:102AF000B4E72068C26842F01002CEE7002C014023
:102B00000004004000080040003401400040014043
:102B10000700010070B50446006801694FF0000528
:102B2000C943890715D4C168C943890711D4E91E6F
:102B3000016101202077206880698007204602D04B
:102B4000FFF74EFE04E000F055F9204600F0E5FAEC
:102B5000257720680169C943490717D4C168C9436B
:102B6000490713D46FF00401016102202077206827
:102B7000806910F4407F204602D0FFF731FE04E068
:102B800000F038F9204600F0C8FA2577206801697E
:102B9000C943090716D4C168C943090712D46FF0A5
:102BA00008010161042020772068C0698007204661
:102BB00002D0FFF715FE04E000F01CF9204600F0FB
:102BC000ACFA257720680169C943C90617D4C168E2
:102BD000C943C90613D46FF01001016108202077A2
:102BE0002068C06910F4407F204602D0FFF7F8FD4E
:102BF00004E000F0FFF8204600F08FFA2577206807
:102C00000169C943C90708D1C168C943C90704D1CB
:102C1000891E0161204600F0FFFA20680169C9435E
:102C2000090609D4C168C943090605D46FF08001BB
:102C300001612046FFF79FFB20680169C943C90570
:102C400009D4C168C943090605D46FF480710161D4
:102C50002046FFF78FFB20680169C943490609D464
:102C6000C168C943490605D46FF04001016120469F
:102C700000F013FB20680169C943890609D4C168C3
:102C8000C943890605D46FF0200101612046FFF792
:102C900073FB20680169C943C90209D4C168C943EB
:102CA000C90205D46FF4801101612046FFF7BDFB16
:102CB00020680169C943890209D4C168C9438902EE
:102CC00005D46FF4001101612046FFF7ADFB2068C9
:102CD0000169C943490209D4C168C943490205D4FD
:102CE0006FF4800101612046FFF7A0FB20680169B5
:102CF000C94309020BD4C168C943090207D46FF460
:102D0000000101612046BDE87040FFF73BBC70BD8B
:102D100030B587B0044614216846FDF7B1FA24683F
:102D2000174D0022174902234FF09040AC420FD1BB
:102D3000CC6C44F00104CC64C96C01F00101059134
:102D400099020091CDE901320A21CDE9032111E078
:102D50000D4DAC4211D1CC6C44F00104CC64C96C73
:102D6000029201F0010105910621CDE9001309212C
:102D7000CDE903316946FEF7E7FA07B030BD000040
:102D800000080040001002400040014010B5044619
:102D900090F83C0001280BD0012084F83C000C2A5C
:102DA00019D007DC5AB1042A0DD0082A1ED10EE032
:102DB000022010BD102A12D0142A17D113E0206867
:102DC00001F09AFF12E0206801F0E4FF0EE02068B5
:102DD00002F028F80AE0206802F06CF806E02068AB
:102DE00002F0B0F802E0206802F0E4F8002084F875
:102DF0003C0010BD054A0168914206D1007F0128C0
:102E000003D1486A00F5FA70486370470008004033
:102E100010B5040003D094F83D0010B107E0012084
:102E200010BD002084F83C00204600F022F802206B
:102E300084F83D00211D206801F0D8FE012084F8AF
:102E4000480084F83E0084F83F0084F8400084F88D
:102E5000410084F8420084F8430084F8440084F878
:102E6000450084F8460084F8470084F83D000020BF
:102E700010BD704730B50446022269B1042916D04E
:102E8000082920D00C2929D010292ED094F84300ED
:102E9000012831D0012030BD94F83E000128F9D13D
:102EA00084F83E202068C26842F0020209E094F8EB
:102EB0003F000128EED184F83F202068C26842F02C
:102EC0000402C2601CE094F840000128E2D184F8BA
:102ED00040202068C26842F00802F2E794F84100FE
:102EE0000128D7D184F8412008E094F84200012855
:102EF000D0D184F8422003E084F843200C2935D057
:102F00000122206801F0CAFE1B4920681B4A1C4BA5
:102F1000884209D0904207D0984205D0194DA84266
:102F200002D0194DA84203D1456C45F400454564D3
:102F3000206888420CD0B0F1804F09D013498842F4
:102F400006D01349884203D0904201D0984207D15D
:102F50008168104A1140062906D0B1F5803F03D0A0
:102F6000016841F001010160002030BD2068C268A5
:102F700042F01002A5E70000002C0140003401409F
:102F8000004001400044014000480140000400406E
:102F9000000800400700010070B5044690F83C00AE
:102FA0000D4601280BD0012084F83C000C2A45D0A6
:102FB00007DC5AB1042A1BD0082A78D12CE0022061
:102FC00070BD102A4ED0142A71D15DE0206801F046
:102FD00093FE2068816941F0080181612068816960
:102FE00021F004018161206881692A69114311E09F
:102FF000206801F0CFFE2068816941F400618161A1
:103000002068816921F480618161206881692A6971
:1030100041EA022181614AE0206801F003FF206853
:10302000C16941F00801C1612068C16921F0040152
:10303000C1612068C1692A69114311E0206801F06B
:1030400039FF2068C16941F40061C1612068C1692C
:1030500021F48061C1612068C1692A6941EA0221C5
:10306000C16124E0206801F06DFF2068016D41F02E
:10307000080101652068016D21F0040101652068E7
:10308000016D2A69114311E0206801F093FF206867
:10309000016D41F4006101652068016D21F48061DA
:1030A00001652068016D2A6941EA0221016500205D
:1030B00084F83C0070BD10B5040003D094F83D00C6
:1030C00010B107E0012010BD002084F83C0020462C
:1030D00000F022F8022084F83D00211D206801F054
:1030E00085FD012084F8480084F83E0084F83F0004
:1030F00084F8400084F8410084F8420084F84300DA
:1031000084F8440084F8450084F8460084F84700B9
:1031100084F83D00002010BD7047704730B504466C
:10312000022269B1042912D0082917D00C291CD019
:10313000102921D094F84300012824D0012030BD6B
:1031400094F83E000128F9D184F83E201DE094F85F
:103150003F000128F2D184F83F2016E094F84000A7
:103160000128EBD184F840200FE094F841000128B9
:10317000E4D184F8412008E094F842000128DDD130
:1031800084F8422001E084F843200122206801F005
:1031900085FD194B20681949194A984209D088427F
:1031A00007D0904205D0174DA84202D0164DA84234
:1031B00003D1456C45F400454564206898420CD025
:1031C000B0F1804F09D0114B984206D0104B984275
:1031D00003D0884201D0904207D181680D4A114046
:1031E000062906D0B1F5803F03D0016841F0010106
:1031F0000160002030BD0000002C0140003401407F
:1032000000400140004401400048014000040040EB
:10321000000800400700010070470246002041B14D
:10322000042909D008290AD00C2901D11068006CA2
:1032300070471068406B70471068806B704710686B
:10324000C06B704770B5044690F83C00012812D05E
:10325000012584F83C50022084F83D00204601F00E
:10326000E1FE01004FF0000007D084F83D5084F8E3
:103270003C00012070BD022070BD2168CA6822F0A8
:103280004002CA602168CA6822F48042CA6084F899
:103290003D5084F83C00002070BD704790F88010CD
:1032A000012918D0012180F880102421C0F8841051
:1032B00050F8641B0A680B6823F001030B6022F0CE
:1032C00000510022026050F8643C19602021016224
:1032D000027710467047022070477047704770B5FC
:1032E000044690F8800001281DD0012084F8800059
:1032F0002420C4F8840020680568026822F00102D6
:1033000002602068826822F060620A438260204680
:1033100001F04EFF206805602020C4F884000020E2
:1033200084F8800070BD022070BD70B5044690F82E
:10333000800001281DD0012084F880002420C4F8DA
:10334000840020680568026822F00102026020689B
:10335000826822F060420A438260204601F028FF22
:10336000206805602020C4F88400002084F88000D4
:1033700070BD022070BD7047704770472DE9F04165
:1033800003680446D86919689A6840F60F05284210
:103390004FF0000509D186067ED501F0200602F027
:1033A00080573E4378D0216FFFE0924E924F1640F7
:1033B0000F40374370D0C70709D0CF0507D5012785
:1033C0001F62D4F88C3043F00103C4F88C308307BB
:1033D0000AD5D30708D0276802233B62D4F88C3083
:1033E00043F00403C4F88C3043070AD5D30708D050
:1033F000276804233B62D4F88C3043F00203C4F8FE
:103400008C3003070CD501F02003334308D0266825
:1034100008233362D4F88C3043F00803C4F88C30AE
:1034200003050BD54B0109D526684FF400633362C1
:10343000D4F88C3043F02003C4F88C30D4F88C30AE
:10344000002B34D0800609D501F0200002F0805115
:10345000084303D0216F09B120468847D4F88C0077
:1034600021688968490602D410F0280F21D020462F
:1034700001F05EFF20688168490615D5816821F05A
:1034800040018160E06F78B15C498163E06FFDF7D6
:103490000CFF00280BD000E011E0E06F816B00E032
:1034A0002046BDE8F04108472046FFF766FFBDE82B
:1034B000F0812046FFF761FFC4F88C50F7E7E76E14
:1034C0002026012F5CD1C7065AD5CF0658D510202B
:1034D00018622068816849062FD5E26F1168496833
:1034E0000904090CE3D0B4F85C308B42DFD9A4F8AE
:1034F0005E1011680968890618D4016821F480718A
:1035000001602068816821F0010181602068816884
:1035100021F040018160C4F88860E5662068016898
:1035200021F010010160E06FFDF78AFEB4F85C0045
:10353000B4F85E10401A81B21EE0B4F85C10B4F822
:103540005E20891AB4F85E2089B2002AAFD0002923
:10355000ADD0026822F49072026020688268254B28
:10356000DB431A408260C4F88860E56625672068FE
:10357000026822F0100202602046FFF7AEFE96E7D6
:10358000C70209D5570207D54FF4801018622046AC
:10359000BDE8F041FFF7F0BE07060AD501F080074D
:1035A00002F40002174304D0616F00297FF478AF62
:1035B0007DE742060CD54A060AD51968204621F057
:1035C00040011960C4F88460656700F02DF96EE76A
:1035D000020206D54A0004D52046BDE8F041FFF7B7
:1035E000CABEC001CBD50029C9DA2046BDE8F041EA
:1035F000FFF774BE01000010200100041D530008F5
:1036000010B5040003D0D4F8840010B107E0012005
:1036100010BD002084F88000204600F027F8242008
:10362000C4F884002068016821F00101016020468F
:1036300002F08AF80128EBD0A06A10B1204601F010
:10364000D9FD2068416821F490414160206881687B
:1036500021F02A0181602068016841F001010160C8
:103660002046BDE8104001F029BE000010B586B02C
:10367000044614216846FCF703FE17492068884277
:1036800027D11648016E41F480410166016E01F4B4
:1036900080410591C16C41F00101C164C06C694673
:1036A00000F0010005904FF4C060009002200190EE
:1036B000002002900390072004904FF09040FDF707
:1036C00043FE002211462520FDF792FF2520FDF73D
:1036D00081FF06B010BD000000380140001002401C
:1036E00010B4D0F88830202B1BD1B9B1B2B190F80A
:1036F0008030012B15D0012380F880300023C36671
:10370000094C0368A34206D05C68240203D51C68F8
:1037100044F080641C6010BC02F050B9012010BC61
:1037200070470220FBE70000008000400B48017A50
:1037300019B1427A012A05D009E001224272084AF1
:1037400012680263074BC2795A54491C017203493B
:103750000122C91D0448FFF7C3BF0000000000207C
:10376000480000207D000020E00200202DE9F84301
:103770000446D0F884001F4616460D46202851D135
:10378000DDB1D6B194F8800001284BD0012084F837
:1037900080004FF00008C4F88C802120C4F8840019
:1037A0001834FDF7BFFEA6878146E68754F8100C53
:1037B000183CB0F5805F03D004E00120BDE8F88339
:1037C000206920B12E46002584F8808010E0002674
:1037D000FAE78021204602F05DF9B8B9C6B116F8C3
:1037E000010B21688862B4F85600401EA4F8560008
:1037F000B4F856004B464FF0000200970028E8D17D
:103800004FF04001204602F045F930B10320D5E7E2
:1038100035F8020BC0F30800E3E72020C4F8840069
:103820000020CBE70220C9E77047FEE700B585B06E
:1038300014216846FCF724FD3020009001200190FF
:1038400002900220039069464FF09040FDF77CFD06
:1038500005B000BD70B50824002500F098FF13E006
:103860006806050E002000F07BFF142002F040FEE9
:10387000142002F03DFE012000F072FF142002F03F
:1038800037FE00F07AFF0543641EE4B2E8D2002060
:1038900000F066FF142002F02BFE00F09AFF28468D
:1038A00070BD70B50446082516E000F059FF1420DD
:1038B00002F01EFE04F0800000F07EFF142002F0F3
:1038C00017FE6006040E142002F012FE012000F024
:1038D00047FF142002F00CFE6D1EEDB24FF0000009
:1038E000E3D200F03DFFBDE87040142002F000BEBE
:1038F00010B5012000F060FF142002F0F9FD142043
:1039000002F0F6FD012000F02BFF142002F0F0FD84
:10391000002000F025FFBDE81040142002F0E8BDB3
:1039200010B5012000F048FF142002F0E1FD012055
:1039300000F016FF142002F0DBFD002000F03CFF39
:10394000142002F0D5FD002000F00AFFBDE8104071
:10395000142002F0CDBD10B5002000F001FF1420AE
:1039600002F0C6FD002000F027FF142002F0C0FD89
:10397000012000F0F5FE142002F0BAFD012000F055
:103980001BFFBDE81040142002F0B2BD10B50524A5
:1039900000F0FDFE142002F0ABFD012000F0E0FE7F
:1039A000142002F0A5FD05E0641EA4B2142002F06C
:1039B0009FFD6CB100F0E1FE0028F5D100F009FF99
:1039C000002000F0CDFE142002F092FD002010BD7A
:1039D00000F0FFFEFFF7BFFF012010BD114810B53A
:1039E0000168114CE269891A642919D30068E06101
:1039F00000F01CF82070E27820EA02014240824385
:103A00006170A270E070012902D1882000F00AFAEA
:103A10006078022804D1BDE81040002000F002BA0E
:103A200010BD0000480000200000002070B50E4DC1
:103A3000002401212846FDF76BFD00B90124022175
:103A40002846FDF765FD00B9022404212846FDF74C
:103A50005FFD00B9032401214FF09040FDF758FDB0
:103A600000B90424204670BD0004004800B585B0AC
:103A700014216846FCF704FC4FF6FF70009000200C
:103A80000321CDE90201019069460248FDF75CFC83
:103A900005B000BD0008004800B585B01421684697
:103AA000FCF7EEFB4FF6FF70009001200190032021
:103AB00003900020029069460248FDF745FC05B0DE
:103AC00000BD00000008004870B5002406462146ED
:103AD000204600F003F900F041F94FF496353046E6
:103AE00000F010F9641CAC42F9D370BD30B587B05A
:103AF00014216846FCF7C4FB1E48C16C41F0040168
:103B0000C164C16C01F004010591C16C41F0010177
:103B1000C164C16C01F001010591C16C41F0020169
:103B2000C164C06C012500F0020005904FF448709C
:103B3000CDE9000500240394694602940E48FDF780
:103B400003FC280203940090CDE901544FF0904407
:103B500069462046FDF7F8FBFFF79EFFA06940F499
:103B60008070A06104481830016841F40871016058
:103B700007B030BD0010024000040048203AD2B225
:103B8000034B02EB420203EB021200F019B80000F3
:103B9000CC650008F0B50E460746002540F23F14FC
:103BA00007E021463846FFF7E9FF103C6D1CA4B240
:103BB000761C3278002A01D0142DF2D3F0BD00001B
:103BC0002DE9F04791468A460026044600F086F823
:103BD000DFF84080012700BF00F0C0F85FF000056B
:103BE00039F8160007FA05F10842404601D140882D
:103BF00000E0008800F086F86D1C102DF0D3641CE6
:103C0000E4B25146204600F069F8761C182EE3D342
:103C1000BDE8F0873800002010B5FFF767FF0020EF
:103C200000F014F8084CA080A088A0F502413039BB
:103C300006D000F0E5FB002000F008F8A08010BDE1
:103C400000F055FBF7E700003800002070B51D4973
:103C50000A6842F400720A600A6842F480720A60DC
:103C6000184C103C226842F020022260164A106074
:103C7000086840F02000086000BF00BF00BF206857
:103C800040F020002060206840F480702060FFF742
:103C9000EDFE4FF09041886A40F48070886200BF6A
:103CA00000BF00BF0848001F006885B2886940F463
:103CB00080708861FFF7F0FE206840F4007020609B
:103CC000284670BD280400481408004801B5BDF816
:103CD00000000149488008BD3800002010B50C469E
:103CE0000146202000F068F82146BDE81040212060
:103CF00000F062B801B5BDF800000149088008BDB8
:103D000038000020134A116841F400711160114914
:103D100010390B6843F480730B600B6843F0200389
:103D20000B600D4B1860106840F02000106000BF61
:103D300000BF00BF086840F020000860086840F439
:103D40008070086000BF00BF00BF086840F40070CA
:103D5000086070472804004814080048144908689F
:103D600040F400700860086840F4807008601048F3
:103D70001038026842F0200202600E4B22221A60C4
:103D80000A6842F020020A6000BF00BF00BF01685D
:103D900041F020010160016841F48071016000BFC1
:103DA00000BF00BF016841F400710160704700006E
:103DB0002804004814080048184B10B51A6842F44B
:103DC00000721A601A6842F480721A60134A103A3C
:103DD000146844F020041460114C2060186840F00E
:103DE0002000186000BF00BF00BF106840F0200036
:103DF0001060106840F4807010602160186840F016
:103E00002000186000BF00BF00BF106840F0200015
:103E10001060106840F48070106010BD28040048E5
:103E20001408004870B5124D044601224FF6FF7188
:103E30002846FDF772FB0F4E012204213046FDF7A4
:103E40006CFB002204213046FDF767FB21020022B3
:103E50002846FDF762FB012204213046FDF75DFB99
:103E60003046BDE8704000220421FDF756BB00003B
:103E700000080048000C004810B5FFF751FD38203D
:103E8000FFF70FFDFFF782FD2020FFF70AFDFFF788
:103E90007DFD4720FFF705FDFFF778FDBDE81040E9
:103EA000FFF759BD70B5064614460D46272000F0B1
:103EB0000FF8C0070BD0292000F00AF830702B2033
:103EC00000F006F828702D2000F002F8207070BD78
:103ED00010B50446FFF724FD3820FFF7E2FCFFF79A
:103EE00055FD2046FFF7DDFCFFF750FDFFF718FDFD
:103EF0003920FFF7D6FCFFF749FDFFF7ABFC04467E
:103F0000FFF7F6FCFFF727FD204610BD00EB810010
:103F1000006E00F0F84070478068C0F3C000704742
:103F20008068C0F3800070478068C0F380007047ED
:103F3000042303EAD15310B518444369C1F3045173
:103F400007248C40A3438A401343436110BD00EB18
:103F50008100016E21F000411143016670470000AD
:103F600070B57D482DED048B82B001687B4C226AD0
:103F7000891A64297BD30068206200227849794835
:103F8000FEF786F8002204F115017648FEF75CF88A
:103F9000A21D511E481EFFF785FF04F11200817813
:103FA0000091437802786E486FA1143001F00EFE44
:103FB0006B4900201431FFF7EDFDFCF75FFCFCF7C7
:103FC0005CFA9FED6C8B53EC182BFCF764F99FEDBA
:103FD0006B9B53EC192BFCF7D0F90E460546FCF70A
:103FE0004DFC02465E48CDE9005666A1143001F052
:103FF000EDFD5B4918201431FFF7CCFDFCF7EAFB1F
:10400000FCF73BFA53EC182BFCF745F953EC192B52
:10401000FCF7B3F90E460546FCF7DCFB02465048B8
:10402000CDE900565CA1143001F0D0FD4C493020A0
:104030001431FFF7AFFDE06AFCF72CFAE2895B4D23
:10404000CDE90001B5FBF2F2454859A1143001F069
:10405000BDFD434948201431FFF79CFDA06AFCF7E1
:1040600019FA6289CDE90001B5FBF2F200E06EE0D9
:104070003B4854A1143001F0A9FD394960201431A6
:10408000FFF788FD94F90400FCF7E6F99FED528BE9
:1040900053EC182BFCF7FFF89FED519B53EC192BB9
:1040A000FCF76BF941EC100B2D4853EC102B4EA193
:1040B000143001F08BFD2A4978201431FFF76AFD96
:1040C00094F90500FCF7C8F953EC182BFCF7E3F85A
:1040D00053EC192BFCF751F941EC100B204853EC31
:1040E000102B41A1143001F071FD1D4990201431B5
:1040F000FFF750FD94F90600FCF7AEF953EC182BCE
:10410000FCF7C9F853EC192BFCF737F941EC100B0D
:10411000134853EC102B34A1143001F057FD104913
:10412000A8201431FFF736FD0D48817800914378BF
:10413000027830A1143001F049FD02B00849BDEC0D
:10414000048B1431D820BDE87040FFF723BD02B0C6
:10415000BDEC048B70BD0000480000200000002072
:104160005400002088010020256420256420256457
:10417000000000006666666666660A400000000091
:1041800000FEAF405233373A253464202020252EDC
:1041900032662020000000005233383A2534642073
:1041A0002020252E326620200000000040420F0013
:1041B0005233393A253664202020252E32662020BD
:1041C000000000005234303A253664202020252E8D
:1041D0003266202000000000000000000000324095
:1041E0000000000000408F40202025312E32662044
:1041F00020000000253032642D253032642D25301A
:104200003264202020000000F0B587B014216846F9
:10421000FCF736F83048C16C41F00401C164C16C50
:1042200001F004010591C16C41F02001C164C16C31
:1042300001F020010591C16C41F00101C164C16C24
:1042400001F001010591C16C41F00201C164C16C32
:1042500001F002010591C16C41F00801C164C06C1C
:104260001E4E00F008004FF47F44059001222146C5
:104270003046FDF752F91A4F012204213846FDF766
:104280004CF90125CDE900450024029469463046E9
:104290000394FDF759F8CDE9005469464FF090407A
:1042A0000294FDF751F80720CDE9000469460D4856
:1042B0000294FDF749F804200090CDE901546946C5
:1042C00038460394FDF740F8002204213846FDF7F4
:1042D00024F907B0F0BD00000010024000080048BB
:1042E000000C004800040048FEE7FEE7704730B5C8
:1042F00001210020FFF760FD4FF47A70FCF744FBCA
:1043000000210120FFF758FD41F290711020FFF7C6
:1043100053FD4FF41C516020FFF74EFD0121612039
:10432000FFF74AFD02214620FFF746FD48F2100143
:104330001320FFF741FD48F2FE011220FFF73CFD7C
:104340004FF4A0610220FFF737FD41F23001032056
:10435000FFF732FD40F2033421463020FFF72CFDF9
:1043600021463120FFF728FD21463220FFF724FDAA
:10437000E51E29463320FFF71FFD03213420FFF7F8
:104380001BFD21463520FFF717FD14213620FFF7CE
:1043900013FD21463720FFF70FFD21463820FFF798
:1043A0000BFD21463920FFF707FD29463A20FFF78C
:1043B00003FD03213B20FFF7FFFC21463C20FFF7D4
:1043C000FBFC4FF4A0513D20FFF7F6FC4FF40071C9
:1043D0009220FFF7F1FC21469320FFF7EDFC40F619
:1043E0000D019020FFF7E8FC41F218010320FFF7D0
:1043F000E3FCBDE8304040F273110720FFF7DCBC5E
:1044000010B543F20801E320FFF7D6FC1221E720A4
:10441000FFF7D2FC41F23121EF20FFF7CDFC002164
:104420000120FFF7C9FC4FF4E0610220FFF7C4FC54
:1044300041F230010320FFF7BFFC00210420FFF709
:10444000BBFC40F207210820FFF7B6FC0021092041
:10445000FFF7B2FC00210A20FFF7AEFC00210C2080
:10446000FFF7AAFC00210D20FFF7A6FC00210F207A
:10447000FFF7A2FC00211020FFF79EFC072111206E
:10448000FFF79AFC00211220FFF796FC0021132071
:10449000FFF792FCC820FCF745FF41F29061102025
:1044A000FFF78AFC40F227211120FFF785FC32201C
:1044B000FCF738FF1D211220FFF77EFC3220FCF7AD
:1044C00031FF4FF400611320FFF776FC14212920FF
:1044D000FFF772FC0B212B20FFF76EFC3220FCF75C
:1044E00021FF00212020FFF767FC00212120FFF79A
:1044F00063FC07213020FFF75FFC40F20771312099
:10450000FFF75AFC06213220FFF756FC40F20471F7
:104510003520FFF751FC41F604713620FFF74CFCC3
:1045200004213720FFF748FC00213820FFF744FC26
:1045300040F206713920FFF73FFC40F201713C2048
:10454000FFF73AFC0F213D20FFF736FC00215020F9
:10455000FFF732FCEF215120FFF72EFC0021522003
:10456000FFF72AFC40F23F115320FFF725FC4FF4E0
:104570001C516020FFF720FC01216120FFF71CFC8B
:1045800000216A20FFF718FC00218020FFF714FCAF
:1045900000218120FFF710FC00218220FFF70CFC96
:1045A00000218320FFF708FC00218420FFF704FC92
:1045B00000218520FFF700FC10219020FFF7FCFB75
:1045C00000219220FFF7F8FB03219320FFF7F4FB73
:1045D0004FF488719520FFF7EFFB00219720FFF73C
:1045E000EBFB00219820FFF7E7FB41F218010320C5
:1045F000FFF7E2FBBDE8104040F273110720FFF720
:10460000DBBB010901EB810100F00F0000EB410071
:10461000C0B270470022014602E00A39C9B2521CFA
:104620000A29FAD2100741EA106070472DE9F047D5
:10463000104C814600252068400618D4206840F0C0
:1046400080002060FCF76EFF06464FF47A7803275F
:1046500008E000BFFCF766FF801B404502D9032538
:1046600089F825702068400601D4032DF2D1284630
:10467000BDE8F0870C2800402DE9F04106461348BC
:104680000025016821F080010160104C0C34206885
:104690004FF00307800607D43046FDF73DFE90B18A
:1046A00086F8257003250EE0206820F020002060A9
:1046B0003046FDF731FE10B186F8257003252068DD
:1046C00040F0200020602846BDE8F0810C28004022
:1046D00010B586B014216846FBF7D2FD1F480024B0
:1046E0001D490594C0E900144A21816042F20F710E
:1046F000C0E903144FF080414461C0E906410462FF
:10470000FDF7F4FC08B1FCF74DF914208DF800001A
:104710008DF8010015208DF8020001940394012208
:1047200069460E480494FDF78FFD08B1FCF73AF98D
:1047300001208DF814008DF815008DF81600024642
:104740008DF8174005A90548FDF72AFD002801D07E
:10475000FCF728F906B010BD0028004088010020B1
:104760004FF0904120B1886940F010008861704797
:10477000886A40F010008862704710B520214FF021
:104780009040FCF7C5FE012800D0002010BD00B508
:1047900085B014216846FBF773FD202000900020AF
:1047A0000190012002900220039069464FF0904052
:1047B000FCF7CAFD05B000BD4FF0904120B18869FB
:1047C00040F0200088617047886A40F020008862CD
:1047D000704700B585B014216846FBF751FD2020D5
:1047E0000090112001900020029002200390694661
:1047F0004FF09040FCF7A8FD05B000BD7047FCF7F6
:1048000097BE000010B5A6B038216846FBF738FD0A
:1048100014211FA8FBF734FD44210EA8FBF730FD3F
:104820004FF40070FCF716FF012000900004019087
:1048300002200324CDE907041421CDE90A100C90CD
:104840000D9009946846FDF7F9F908B172B6FEE7D4
:104850000F20CDE91F0400242194229402211FA8D7
:104860002394FDF7A1F808B172B6FEE70C48CDE934
:104870000E0440071D904FF440701E900EA8FCF7E8
:104880004FFF08B172B6FEE70648C16C41F0200147
:10489000C164C06C00F02000249026B010BD000060
:1048A00001800800001002400248016841F47001D4
:1048B0000160704788ED00E010B59CB000241494AE
:1048C000159416941794189419941C210DA81A94F1
:1048D000FBF7D6FC34216846FBF7D2FC2A4829496D
:1048E00001604F21C0E9011440F2E731C0E903142F
:1048F00044618461FDF747FE08B1FCF753F84FF4BB
:104900008050149014A92048FDF7EEFE08B1FCF782
:1049100049F81D48FEF7CFFB08B1FCF743F818949F
:1049200018A919481A94FDF783FD08B1FCF73AF865
:1049300060200D904FF49670CDE90E041094119400
:10494000129400220DA910481394FEF725FB08B11C
:10495000FCF728F81420CDE9024000944FF40050F1
:10496000CDE9044001940694694607480C94FDF78C
:1049700005FD08B1FCF716F80348FEF7C9F91CB0AD
:1049800010BD000000400140940200200148FEF7E5
:10499000C1B80000B001002010B590B00024099407
:1049A0000A940B94142104A80C94FBF769FC2C487E
:1049B0000D940F940E940094019402944FF0804152
:1049C000039401604F21C0E901144FF6FF71C0E963
:1049D00003148461FDF7D7FD08B1FBF7E3FF4FF443
:1049E0008050099009A91E48FDF77EFE08B1FBF72B
:1049F000D9FF1B48FDF7C7FF08B1FBF7D3FF042021
:104A000004905020CDE9050404A915480894FEF748
:104A100019FC08B1FBF7C6FF0D940DA910480F94BF
:104A2000FDF706FD08B1FBF7BDFF0120CDE9004011
:104A30000294002269460A480394FDF71DFF08B15D
:104A4000FBF7B0FF02200090019004226946044861
:104A5000FDF712FF002801D0FBF7A4FF10B010BD36
:104A6000B00100200148FEF755B80000FC0100200D
:104A700010B590B0002409940A940B94142104A852
:104A80000C94FBF7FDFB2D480D940F940E940094AD
:104A9000019402942849039401604F21C0E9011454
:104AA0004FF6FF71C0E903148461FDF76CFD08B196
:104AB000FBF778FF4FF48050099009A91F48FDF7D4
:104AC00013FE08B1FBF76EFF1C48FDF75CFF08B151
:104AD000FBF768FF042004905020CDE9050404A9E9
:104AE00016480894FEF7AEFB08B1FBF75BFF0D9488
:104AF0000DA912480F94FDF79BFC08B1FBF752FF7C
:104B00000120CDE900400294002269460B4803943D
:104B1000FDF7B2FE08B1FBF745FF022000900190BF
:104B2000042269460548FDF7A7FE002801D0FBF7DF
:104B300039FF10B010BD000000040040FC0100204F
:104B40000148FDF7E7BF00004802002010B58EB015
:104B500000240794089409940A940B940C941C2143
:104B600068460D94FBF78CFB1F481E4901604F21DE
:104B7000C0E901144FF6FF71C0E903148461FDF729
:104B800002FD08B1FBF70EFF4FF48050079007A914
:104B90001548FDF7A9FD08B1FBF704FF1248FEF721
:104BA00037F908B1FBF7FEFE0B940BA90E480D94E4
:104BB000FDF73EFC08B1FBF7F5FE302000904FF406
:104BC000FA70CDE901040022694607480494FEF713
:104BD000DDF808B1FBF7E6FE0348FEF799F80EB0E2
:104BE00010BD000000080040480200202DE9F043FD
:104BF0000268234B234D244E244C4FF080499842A9
:104C000007D0484505D0A84203D0B04201D0A04209
:104C100003D122F070074A683A431D4FDFF874C091
:104C2000DFF8748098420DD048450BD0A84209D0D7
:104C3000B04207D0A04205D0B84203D0604501D0B1
:104C4000404503D122F44075CA682A434D6922F0D9
:104C500080022A4302608A68C2620A6882629842BD
:104C600007D0A04205D0B84203D0604501D04045EE
:104C700001D10969016301214161BDE8F0830000B0
:104C8000002C0140000400400008004000340140B6
:104C900000400140004401400048014010B501F0CF
:104CA0001F030121046A99408C430462016A9A40FF
:104CB0001143016210BD10B501F01F030421046A05
:104CC00099408C430462016A9A401143016210BD0D
:104CD00010B5846842EA032224F47F440A43224345
:104CE000826010BD8268034B1A400A4342F00701FC
:104CF000816070478FFFCFFF2DE9F043026A22F0F9
:104D000001020262056A436882691C4C25F00205B3
:104D100022400C6822F0030214438A68194E2A4389
:104D2000174D194FDFF864C0DFF86490A84207D030
:104D3000B04205D0B84203D0604501D0484506D105
:104D400022F00808CA6842EA080222F00402A842D7
:104D500007D0B04205D0B84203D0604501D04845E5
:104D600005D14D6923F440731D438B692B43436088
:104D70008461496841630262BDE8F0838FFFFEFFF2
:104D8000002C01400034014000400140004401403B
:104D900000480140F0B5026A22F010020262056A82
:104DA00042688369194C1B4E23400C6823F44073FE
:104DB00043EA042425F020038D6843EA0513144DCB
:104DC000A84201D0B04206D1CF6823F0800343EA65
:104DD000071323F04003A8420AD0B04208D00E4D7A
:104DE000A84205D00D4DA84202D00D4DA84207D1D2
:104DF0004D6922F4406242EA85028D6942EA8502E9
:104E000042608461496881630362F0BDFF8FFFFEE9
:104E1000002C0140003401400040014000440140AA
:104E200000480140F0B5026A22F480720262056A0D
:104E30004368C269194C1B4E22400C6822F00302E1
:104E4000144325F400728D6842EA0522144DA842ED
:104E500001D0B04206D1CF6822F4006242EA0722B4
:104E600022F48062A8420AD0B04208D00E4DA84277
:104E700005D00E4DA84202D00D4DA84207D14D6974
:104E800023F4405343EA05138D6943EA0513436055
:104E9000C4614968C1630262F0BD00008FFFFEFF7C
:104EA000002C01400034014000400140004401401A
:104EB00000480140F0B5026A22F480520262056A9D
:104EC0004268C369194C1B4E23400C6823F440739D
:104ED00043EA042425F400538D6843EA0533144D56
:104EE000A84201D0B04206D1CF6823F4004343EA80
:104EF000073323F48043A8420AD0B04208D00E4DB5
:104F0000A84205D00D4DA84202D00D4DA84207D1B0
:104F10004D6922F4404242EA85128D6942EA8512C7
:104F20004260C461496801640362F0BDFF8FFFFE07
:104F3000002C014000340140004001400044014089
:104F40000048014030B5026A22F480320262046AED
:104F50004268036D114D2B400D681D4324F400334E
:104F60000C8943EA04430E4CA0420BD00D4CA042E6
:104F700008D00D4CA04205D00C4CA04202D00C4CE5
:104F8000A04204D14C6922F4803242EA04224260F9
:104F9000056549688164036230BD00008FFFFEFF34
:104FA000002C014000340140004001400044014019
:104FB0000048014030B5026A22F480120262046A9D
:104FC0004268036D114D24F400142B400D6843EA30
:104FD00005230D8944EA05540D4DA8420BD00D4D13
:104FE000A84208D00C4DA84205D00C4DA84202D0D2
:104FF0000B4DA84204D14D6922F4802242EA852259
:10500000426003654968C164046230BDFF8FFFFEE2
:10501000002C0140003401400040014000440140A8
:105020000048014010B50468A268234B1A404B6841
:105030001343224A13400A681A43A2604A68602A4E
:1050400032D006DC302A34DD402A0ED0502A30D14E
:1050500024E01B4B9A422CDA702A2AD10B69D1E941
:1050600002210068FFF734FE23E00A68052A13D006
:10507000B2F1011F10D00268136A146A24F001040F
:10508000146202689469096924F0F00444EA011189
:105090009161006803620CE0012010BD0A69896813
:1050A000006800F00FF804E00A698968006800F001
:1050B00051F8002010BD00008FFFCFFFF8FFFEFF6A
:1050C0003000100010B5036A046A24F00104046281
:1050D000846924F0F00444EA021423F00A020A432B
:1050E0008461026210BD000070B5046A24F00104FE
:1050F00004628469056A124EB0420ED0B0F1804F4E
:105100000BD0104EB04208D00F4EB04205D00F4E1B
:10511000B04202D00E4EB04203D124F00304144337
:1051200001E044F001041A0724F0F00444EA12629A
:1051300025F00A0301F00A0119438261016270BD82
:10514000002C0140000400400008004000340140F1
:105150000040014010B5036A23F010030362836925
:10516000046A23F4704343EA023224F0A00343EAC2
:1051700001118261016210BD30B5046A24F010048F
:1051800004628469056A24F4407444EA022222F429
:1051900070444FF6FF7202EA03322243A02425F046
:1051A000A00304EA011119438261016230BD0000CD
:1051B00030B5416EB9B1026891689268C1F342613D
:1051C0000B4B520F9C5CE50003F10804A25CB5FB9D
:1051D000F2F2A0F86A205A5C615CD200B2FBF1F1F5
:1051E000A0F8681030BD0121A0F86A10F8E70000AF
:1051F000B477000890F82810C90706D001684A68FB
:10520000C36A22F400321A434A6090F828108907D2
:1052100006D501684A68036B22F480321A434A605B
:1052200090F82810490706D501684A68436B22F4B4
:1052300080221A434A6090F82810090706D50168B1
:105240004A68836B22F400421A434A6090F828109F
:10525000C90606D501688A68C36B22F480521A43D6
:105260008A6090F82810890606D501688A68036C60
:1052700022F400521A438A6090F82810490611D58A
:1052800001684A68436C22F480121A434A60416CF8
:10529000B1F5801F06D101684A68836C22F4C00210
:1052A0001A434A6090F82810090606D501684A6832
:1052B000C06C22F4002202434A607047F8B5002611
:1052C0000446C0F88C60FCF72DF90546206800689C
:1052D0006FF07E47000708D52B4600224FF40011DF
:1052E0002046009700F0D6FB60B9206800684007B0
:1052F0000AD52B4600224FF480012046009700F08B
:10530000C9FB08B10320F8BD2020C4F88400C4F80C
:10531000880044F86C6F00202675F8BD10B5806ACF
:105320000021A0F85E10A0F85610FEF726F810BD78
:1053300001680A6822F490720A6001688A68094B61
:105340001A408A60C16E012904D101680A6822F0FE
:1053500010020A602021C0F888100021C166016790
:1053600070470000FEFFFFEF184810B516490160B6
:105370004FF416514160002181600C22C160C0E9E8
:1053800004128161C161016241628162FEF738F9F4
:1053900008B1FBF707FB00210C48FDF7C6FF08B179
:1053A000FBF700FB00210948FDF799FF08B1FBF767
:1053B000F9FA0648FDF772FF002803D0BDE8104057
:1053C000FBF7F0BA10BD000000380140E0020020F9
:1053D00070B5B0F86010D0F8882004460068222A22
:1053E00004D0816941F00801816170BD406AA26DFD
:1053F00008401080A06D801CA065B4F85E00401EBF
:10540000A4F85E00B4F85E000028EED120680168C0
:1054100021F4907101602068816821F001018160B0
:105420002020C4F8880000252567E06E012804D0FC
:105430002046FEF77BF9E56670BD2068016821F023
:1054400010010160B4F85C102046FDF746FFF2E75A
:105450002DE9F0470446B0F860600068C569D0F8EF
:1054600000A0D0F80880D4F88810222905D08169DE
:1054700041F008018161BDE8F087B4F868704FF031
:1054800000095BE02068406AA16D30400880A06D93
:10549000801CA065B4F85E00401EA4F85E00206881
:1054A000C569690730D0E9070AD05FEACA5107D554
:1054B00001210162D4F88C0040F00100C4F88C0096
:1054C000A8070BD55FEAC87008D0216802200862DF
:1054D000D4F88C0040F00400C4F88C0068070BD5A9
:1054E0005FEAC87008D0216804200862D4F88C00F4
:1054F00040F00200C4F88C00D4F88C0020B12046A3
:10550000FDF73BFFC4F88C90B4F85E00B0B920689A
:10551000016821F48071016020688168194A114096
:1055200081602020C4F88800C4F87090E06E0128E3
:105530001CD02046FEF7FAF8C4F86C900FB1A8060C
:10554000A0D4B4F85E00002895D0B4F86810814269
:1055500091D92068816821F0805181600A482067D4
:105560002068016841F02001016084E7206801683B
:1055700021F010010160B4F85C102046FDF7ADFE8B
:10558000DAE70000FEFFFFEFD153000870B5B0F876
:105590006010D0F8882004460068222A04D081696F
:1055A00041F00801816170BD406A0840A16D08703A
:1055B000A06D401CA065B4F85E00401EA4F85E001B
:1055C000B4F85E000028EED12068016821F49071E3
:1055D00001602068816821F0010181602020C4F809
:1055E000880000252567E06E012804D02046FEF7DC
:1055F0009DF8E56670BD2068016821F0100101602A
:10560000B4F85C102046FDF768FEF2E72DE9F0479C
:105610000446B0F860600068C569D0F800A0D0F812
:105620000880D4F88810222905D0816941F008014A
:105630008161BDE8F087B4F868704FF000095BE065
:105640002068406AA16D30400870A06D401CA065C4
:10565000B4F85E00401EA4F85E002068C5696907C2
:1056600030D0E9070AD05FEACA5107D501210162AB
:10567000D4F88C0040F00100C4F88C00A8070BD5CA
:105680005FEAC87008D0216802200862D4F88C0054
:1056900040F00400C4F88C0068070BD55FEAC870BE
:1056A00008D0216804200862D4F88C0040F0020081
:1056B000C4F88C00D4F88C0020B12046FDF75DFEC4
:1056C000C4F88C90B4F85E00B0B92068016821F489
:1056D0008071016020688168194A11408160202032
:1056E000C4F88800C4F87090E06E01281CD02046F1
:1056F000FEF71CF8C4F86C900FB1A806A0D4B4F85B
:105700005E00002895D0B4F86810814291D92068D5
:10571000816821F0805181600A4820672068016813
:1057200041F02001016084E72068016821F0100148
:105730000160B4F85C102046FDF7CFFDDAE7000009
:10574000FEFFFFEF8D5500082DE9F041044601688A
:1057500080682269E3691043626900251A43104397
:10576000DFF82CC20A688B4B1A4002430A6020689B
:105770004168E26821F44051114341602168A06909
:10578000614501D0226A10438A68834B1A40024364
:105790008A602068C16A626A21F00F011143C16208
:1057A0007E4923687E488B420DD1D0F8880010F0E6
:1057B000030006D0012855D0022842D003283FD14B
:1057C00052E001203DE077498B420BD1D0F88800B0
:1057D00010F00C0035D0042833D0082840D00C2815
:1057E0002ED141E070498B420BD1D0F8880010F0E7
:1057F000300026D0102835D0202831D030281FD1B5
:1058000032E06A498B420BD1D0F8880010F0C0001A
:1058100017D0402826D0802822D0C02810D123E0DD
:1058200063450DD1D0F8880010F4406009D0B0F580
:10583000806F17D0B0F5006F12D0B0F5406F13D065
:1058400010205B4A5B4F00264FF40041634539D17D
:1058500060B102280DD004280DD0082831D10EE007
:105860000220EEE70420ECE70820EAE7FCF78AF9DB
:1058700003E0114603E0FCF7A9F901007DD0606A5E
:1058800037F810206768B1FBF2F007EB470383425B
:105890006CD8B0EB073F69D8002308461946FAF7E1
:1058A000B7FC090241EA1061020278081018714140
:1058B0003A460023FAF7ACFC3F4AA0F5407191420A
:1058C00059D953E0E3694FF6EF788B422DD109287F
:1058D0004CD2DFE800F005080D4B274B4B4B0E0078
:1058E000FCF750F901E0FCF75FF9010001D144E059
:1058F0001146606A37F81000B1FBF0F041006068B3
:1059000001EB5001B1FBF0F080B2A0F11001414574
:105910002CD84FF6F0710140C0F3420001432068DB
:10592000C1602AE0FCF752F9DFE709281ED2DFE860
:1059300000F005080D1D1F1D1D1D0E00FCF722F9AE
:1059400001E0FCF731F9010001D116E01146606A6F
:1059500037F81000B1FBF0F1606801EB5001B1FBCA
:10596000F0F080B2A0F11001414504D9012504E016
:10597000FCF72CF9E7E72168C8600120A4F86A0069
:1059800024F8680F2846A660E660BDE8F0810000B4
:1059900000800040F369FFCFFFF4FF1100380140A1
:1059A000001002400044004000480040004C00400D
:1059B0000024F4009C770008FFFC0F0070B581659F
:1059C000A0F85C20A0F85E200021016783684FF4F6
:1059D0008056FF24B34204D10369D3B940F2FF13C8
:1059E0001DE07F259BB1B3F1805F15D0A0F860105A
:1059F000C0F88C102223C0F8883003689C6844F0FB
:105A000001049C60436EB3F1005F0ED027E0036990
:105A100043B9A0F86040EBE703691BB13F23A0F84E
:105A20006030E5E7A0F86050E2E7B0F868309342F4
:105A300015D88268B24201D1026972B1114A026777
:105A400080F8801001680A6842F480720A60006879
:105A5000816841F0805181600FE00B4AEFE7826876
:105A6000B24201D1026952B1084A026780F880103F
:105A70000068016841F490710160002070BD044A23
:105A8000F3E700000D560008515400088D5500083A
:105A9000D15300082DE9F0479A4617460E460446B2
:105AA0004FF000094FF02008089D39E0681C37D0FE
:105AB000FBF738FDA0EB0A00A84222D80DB32068FE
:105AC000016849072CD5C069C043000528D4216866
:105AD0004FF4006008622068016821F4D071016011
