:020000040800F2
:10000000F0060020ED010008B9290008732300085C
:10001000B72900087D080008A12F00080000000093
:10002000000000000000000000000000892D000812
:100030007F08000800000000BB290008812E00088E
:10004000070200080702000807020008070200086C
:10005000070200080702000807020008070200085C
:10006000070200080702000807020008070200084C
:10007000070200080702000807020008070200083C
:10008000070200080000000007020008070200083D
:10009000070200080702000807020008070200081C
:1000A000070200080702000807020008070200080C
:1000B000252F0008312F00083D2F000807020008F7
:1000C00007020008070200080702000807020008EC
:1000D00007020008952F0008070200080702000821
:1000E00007020008070200080702000807020008CC
:1000F00007020008070200080702000800000000CD
:1001000000000000070200080000000007020008CD
:1001100007020008000000000702000807020008AC
:10012000070200080702000807020008070200088B
:10013000070200080000000000000000070200089D
:10014000070200080702000800000000000000008D
:10015000000000000000000000000000000000009F
:10016000000000000000000000000000070200087E
:10017000070200080000000000000000000000006E
:10018000000000000702000800000000000000005E
:10019000000000000000000000000000000000005F
:1001A000000000000000000007020008070200082D
:1001B000070200080702000807020008000000000C
:1001C000000000000702000800000000000000001E
:1001D0000702000807020008DFF80CD000F0B2FAAE
:1001E000004800473F390008F006002006488047D5
:1001F00006480047FEE7FEE7FEE7FEE7FEE7FEE70C
:10020000FEE7FEE7FEE7FEE7152F0008D90100082C
:100210002DE9F05F0546002092469B46884606463B
:10022000814640241BE0284641464746224600F0CE
:10023000D6F853465A46C01A914110D31146184673
:10024000224600F0BDF82D1A67EB01084F46224602
:100250000120002100F0B4F817EB00094E41201EE8
:10026000A4F10104DFDC484631462A464346BDE896
:10027000F09FD2B201E000F8012B491EFBD270477B
:100280000022F6E710B513460A4604461946FFF762
:10029000F0FF204610BD2DE9FE4F81EA030404F073
:1002A000004421F0004100944FF0000B23F0004384
:1002B00050EA01045ED052EA03045BD0C3F30A544F
:1002C000C1F30A552C44A4F2F3340194A0FB025468
:1002D000C1F3130141F48011C3F3130343F48013FA
:1002E00001FB024400FB034E840A970A44EA81544E
:1002F00047EA8357A4FB076802958D0A05FB07852B
:100300004FEA932C04FB0C542705029D4FEA065834
:1003100047EA1637B5EB08056EEB070C870E920E11
:1003200047EA811742EA8312A7FB0201B6EB0B01F1
:1003300064EB00042B0D43EA0C335E1844EB1C50B5
:10034000DA465146E7FB0201C5F313044FEA0B33CB
:1003500043EA14534FEA0432019C43EA0603A4F132
:100360000C040294009CCDE900B400F057F803B0EF
:10037000BDE8F08F00200146F9E70EB540F23341A9
:1003800002910021CDE900110A460B4600F046F823
:1003900003B000BD30B50B460146002020220124E9
:1003A00009E021FA02F59D4205D303FA02F5491B43
:1003B00004FA02F52844151EA2F10102F1DC30BD59
:1003C000202A04DB203A00FA02F100207047914015
:1003D000C2F1200320FA03F3194390407047202A0A
:1003E00004DB203A21FA02F00021704721FA02F3DF
:1003F000D040C2F12002914008431946704710B521
:10040000141E73F1000408DA401C41F10001921837
:100410005B411A4301D120F0010010BD2DE9F04DE0
:1004200092469B4611B1B1FA81F202E0B0FA80F235
:1004300020329046FFF7C4FF04460F4640EA0A0008
:1004400041EA0B0153465A46084313D0114653EA7A
:10045000010019D0C8F140025046FFF7C0FF054621
:100460000E46504659464246FFF7AAFF084305D0BC
:10047000012004E020463946BDE8F08D0020054308
:1004800046EAE0762C4337430A986305E40AA0EB7A
:1004900008000022FD0A44EA47540A3002D5002031
:1004A0000146E9E7010510196941DDE90845001930
:1004B0006941BDE8F04DA2E72DE9FE4F804681EA93
:1004C0000300C00F0C46009021F0004123F00045CE
:1004D000B8EB0200A94105D24046214690461C4691
:1004E0000B46024623F00040104347D0270DC7F3C8
:1004F0000A00C3F30A510290401A019040286BDAB7
:10050000C3F3130040F4801B0098924620B10023EF
:10051000D2EB030A63EB0B0B01985946C0F1400282
:100520005046FFF74DFF06460D4650465946019A84
:1005300000F01AF910EB08006141002487EA11521B
:1005400084EAE7731A4340D0009A62B3019A012A01
:100550004FEA075215DC001B61EB02014FF000422D
:1005600002EA0752CDE90042001C41F580113246F3
:100570002B46FFF753FF03B0BDE8F08F40462146FE
:10058000F9E7001B61EB0201001C41F58013001824
:100590005B412018A2F5001747EB030140EAD57034
:1005A000B6196D4111E06D084FEA360645EAC0758F
:1005B0004FEA0752001B61EB0201001C41F580115C
:1005C00049084FEA30000019514132462B4603B02A
:1005D000BDE8F04FFFF713BF009801224000002351
:1005E000D0EB020263EBE073009821464FEAE0741F
:1005F000B8EB000061EB0401E9E783F000435BE73F
:1006000081F0004158E72DE9F04D81EA030404F040
:10061000004B21F0004514464FF0000A23F0004142
:1006200050EA050220D054EA01021DD0C5F30A5752
:100630000246C5F31303C1F31300C1F30A5640F495
:10064000801543F48013A7EB0608101BD64608F26A
:10065000FD3873EB050002D308F1010801E09218A0
:100660005B41B8F1000F03DA00200146BDE8F08DD0
:1006700000204FF48011064684460EE0171B73EBF2
:10068000050705D3121B63EB050306434CEA010C77
:1006900049084FEA300092185B4150EA0107EDD15A
:1006A00052EA030012D082EA040083EA05010843FB
:1006B00005D0101BAB4106D20122002306E0002228
:1006C0004FF0004302E06FF0010253101AEB0600F6
:1006D0004CEB085110EB0A0041EB0B01BDE8F04D6B
:1006E000FFF78DBEC1F30A52C1F3130140F2FF338D
:1006F00041F480119A4202DA00200146704740F22C
:1007000033439A42A2F2334202DC5242FFF767BE01
:10071000FFF756BE30B5041E71F1000404DB4FF044
:100720000044404264EB0101141E73F1000405DB38
:100730001C464FF00043524263EB0403994208BF4A
:10074000904230BD064C074D06E0E06840F00103E2
:1007500094E8070098471034AC42F6D3FFF740FD09
:10076000644C0008844C0008202A06DBCB17203A92
:1007700041FA02F043EAE07306E041FA02F3D040A6
:10078000C2F12002914008431946704730B589B044
:1007900020216846FFF774FD1948184900240160BC
:1007A0008902C0E90114C46004250461C0E905455B
:1007B000047744770121016280F82440C462046315
:1007C00080F83840C46380F8404000F0BDFA08B1BA
:1007D00000F064F80B4800900620CDE901047F206A
:1007E0000594CDE903056946054800F097F800280F
:1007F00001D000F053F809B030BD000000010050F6
:10080000540100200020903670B5044600688168CD
:1008100011F0010F2DD18168174A11421AD1816858
:10082000D5432940491C816000F0DCFD06461BE0F1
:10083000816811F0010F03D181682940491C816052
:1008400000F0D0FD801B02280ED920680068C0434C
:10085000C00709D0E06D40F01000E065206E40F068
:1008600001002066012070BD20680168C943C907E6
:10087000DED1002070BD00003F000080FEE7704721
:10088000002240F6B83306E00021491C89B29942A3
:10089000FBD3521C92B28242F6D3704772B6FEE787
:1008A00010B5044800F0B2FB024800F049FA80B2EB
:1008B00010BD00005401002030B58BB028216846DF
:1008C000FFF7DEFC00256C46FFF7EAFF24F8150071
:1008D0006D1CEDB2142DF7D30021084601E0002075
:1008E0000BE004EB400334F810205D88AA4202D9E3
:1008F00024F810505A80401CC0B2C1F11302824249
:10090000EFDC491CC9B21329E9D3BDF81400BDF8C6
:1009100012100BB00844400830BD00002DE9F84F1C
:1009200000270446009790F85800DFF8E0930D4642
:10093000B846012811D0012684F85860206802F0DA
:100940001FF860B1E06D40F02000E0655FF0010746
:1009500084F858803846BDE8F88F0220FBE7D5E9D7
:1009600000210C23206803EA91131844036B01F063
:100970001F014FF01F0C0CFA01FCC2F3846223EA42
:100980000C038A4013430363206801F0F9FF824699
:10099000206801F0F1FF5AEA00003CD1AA682968FA
:1009A0002068B2F1004F37D001F0EEFF20684169B6
:1009B00021F00041416120686969C268C2F3C10247
:1009C000520091402A69042A31D000EB82002B6842
:1009D000026EDFF83CC303F0F84302EA0C020B435B
:1009E0001A4342F00041016620682A69A96900EBB8
:1009F0008200026E22F080720A430266297F22681A
:100A00002869012910D0002102EB8000026E22F03B
:100A100000720A4302667DE0002201F0B5FF206803
:100A2000416941F00041C5E74FF00071ECE700215A
:100A300001F09CFF400320684FF0000172D001F0EC
:100A400095FF90FAA0F0B0FA80F1286842036ED0CA
:100A500090FAA0F0B0FA80F0814204D10022114651
:100A6000206801F0A0FF0121206801F07FFF400312
:100A700020684FF001015DD001F078FF90FAA0F0FE
:100A8000B0FA80F12868420359D090FAA0F0B0FA89
:100A900080F0814204D100220121206801F083FF0F
:100AA0000221206801F062FF400320684FF002013C
:100AB00048D001F05BFF90FAA0F0B0FA80F128680E
:100AC000420344D090FAA0F0B0FA80F0814204D101
:100AD00000220221206801F066FF0321206801F056
:100AE00045FF400320684FF0030133D001F03EFF83
:100AF00090FAA0F0B0FA80F1286842032FD090FA63
:100B0000A0F0B0FA80F0814204D1002203212068D5
:100B100001F049FF2068816811F0010F22D0ACE09C
:100B200000E004E001F022FFC0F384618DE7C0F330
:100B3000846091E701F01AFFC0F38461A2E7C0F37B
:100B40008460A6E701F012FFC0F38461B7E7C0F349
:100B50008460BBE701F00AFFC0F38461CCE7C0F317
:100B60008460D0E72A7B296850F8B03FC1F3120CAB
:100B700023EA0C0302F0180C664A22FA0CF20A402F
:100B800013430360E968494577D1286841031CD0C5
:100B900090FAA0F1B1FA81F1491C01F01F01092975
:100BA0004FEA403132D8002912D000BF90FAA0F1AC
:100BB000B1FA81F101F1010101F01F0106FA01F61C
:100BC00009D100BFC0F3846109E0C0F38461E3E7A9
:100BD000C0F38461EEE790FAA0F1B1FA81F101F17E
:100BE000010101F01F0146EA816102D1C0F3846076
:100BF00003E090FAA0F0B0FA80F000F1010000F0FC
:100C00001F0000EB400041EA005132E000290ED005
:100C100090FAA0F1B1FA81F101F1010101F01F0197
:100C200006FA01F606D100BFC0F3846106E0C0F306
:100C30008461F1E790FAA0F1B1FA81F101F10101CB
:100C400001F01F0146EA816102D1C0F3846003E034
:100C500090FAA0F0B0FA80F000F1010000F01F005F
:100C60002D4A00EB400002EB005041EA000141F048
:100C70000071AA68206801F087FE28482A680242AD
:100C80003FF466AE26488168264B01F0E0719A4237
:100C900002D0254B9A421CD10B021AD42268B2F121
:100CA000A04F7FF455AE826841F4000122F0E0725B
:100CB0000A4382601D481E490068B0FBF1F0401CE9
:100CC00000EB4000800000E0401E00900028FBD1B7
:100CD0003EE6184D184BAA4207D1CD0105D4226833
:100CE0009A42F5D041F0807109E0144DAA42EFD14B
:100CF0004A02EDD422689A42EAD041F48001826827
:100D000022F0E0720A43826022E6000000007F4089
:100D100000F0FF03FFFF0700000020FE0000088036
:100D200000030050000021C31000C0903C000020D0
:100D3000400D0300000052C700010050000084CBAA
:100D40000068006C70470000F8B54FF00005040023
:100D50002E46009502D0E06D10B107E00120F8BDED
:100D6000204600F0EFF8266684F858602068816815
:100D7000C1F3407119B181686A4A114081602068ED
:100D80008168C1F3007189B98168674A114041F0F7
:100D900080518160654866490068B0FBF1F0400011
:100DA000801C00E0401E00900028FBD12068816874
:100DB000C1F3007141B9E16D41F01001E165216EAF
:100DC00041F001012166012501F0DAFDE16DC9065E
:100DD00000D430B1E06D40F01000E06501252846F8
:100DE000F8BDE06D20F4807040F00200E0652068FE
:100DF000806810F0010F11D14FF0A04080684D497C
:100E000000F00100896801F00101084306D14A4859
:100E10006168826822F47C120A438260E168E06BB8
:100E2000627F0843A16841EA4231084394F82410E4
:100E300040EA0140012904D1218D404A02EB4141A1
:100E40000843E16A29B101F47871226B014342EA57
:100E500001002168CA683A4B1A400243CA60206800
:100E60000169626B21F0406111430161206801F06A
:100E700087FD0646206801F07FFD30432ED1207F9C
:100E800094F83810800340EA41022068C16844F2B7
:100E9000020399431143C160206900282068016959
:100EA0000AD041F480310161206850F8C01F2269E6
:100EB0006FF30D01114307E021F4803101612068D7
:100EC00050F8C01F6FF30D01016094F84000012835
:100ED0000CD02068016921F00101016160690128DD
:100EE0002068016B21F00F0111D013E0D4E911014A
:100EF0000843D4E913121143084321680A6940F2F8
:100F0000FC739A43104340F001000861E6E7226A4F
:100F1000521E11430163E06D20F0020040F0010019
:100F2000E0655CE7C0FFFF5FC0FFFF7F3C00002083
:100F3000400D030000010050000300500000FEFFC0
:100F40000740F0FFF0B587B0044614216846FFF76C
:100F500097F92A4A2368002410680325284E294956
:100F6000401CB3F1A04F06D0274FBB4243D11060C5
:100F7000012816D01DE01060012807D1C86C40F48C
:100F80000050C864C86C00F400500590C86C40F074
:100F90000200C864C86C00F0020005904FF4805055
:100FA00022E0C86C40F40050C864C86C00F40050E3
:100FB0000590C86C40F00100C864C86C00F00100E6
:100FC0000590C86C40F00200C864C86C694600F027
:100FD000020005902020CDE9000502944FF09040DA
:100FE00000F012F94FF40040CDE900056946029483
:100FF000304600F009F907B0F0BD000018000020ED
:101000000004004800100240000100502DE9F041AA
:1010100004463848806800F01F05206801F0B0FCE5
:1010200018B102210846BDE8F08194F85800012863
:101030000CD0012084F858002046FFF7E5FB0100A2
:101040004FF0000304D084F85830EBE70220EAE7C1
:10105000E06D40F60162904340F48070E065264AFE
:1010600020684FF0A046904201D1374600E0074685
:10107000874200D01DB9E76D27F48017E765E76D5B
:10108000FF0404D5276E27F00607276600E02366D5
:101090001C27076084F858302068904201D13346FD
:1010A00000E00346834215D0A5B1052D12D0092DCD
:1010B00010D0E36D43F48013E365904200D13046D5
:1010C000C0688001AED5E06D20F4005040F480503F
:1010D000E065A7E7C268920105D5E26D22F40052EF
:1010E00042F48052E2658268044B1A40121D82600D
:1010F00098E700000003005000010050C0FFFF7F90
:1011000010B590F8253000210122022B03D00421D4
:10111000C163012122E003681C6824F00E041C60F6
:10112000836C1C6824F480741C6003681C6824F0C1
:1011300001041C6090F84430046C03F01F0302FAB1
:1011400003F36360D0E913345C60436D33B11C6812
:1011500024F480741C60D0E916345C6080F825208B
:10116000002280F82420084610BD70B590F8252094
:10117000002401212346022A07D00422C26380F8FA
:10118000251080F82430012429E00268156825F034
:101190000E0515600268156825F001051560826C62
:1011A000156825F48075156090F84420056C02F0F0
:1011B0001F0201FA02F26A60D0E913255560426D00
:1011C00032B1156825F480751560D0E91625556093
:1011D00080F8251080F82430816B01B188472046C3
:1011E00070BD000070B5044600F0FCF80546601CB8
:1011F00002D004484068044400F0F4F8401BA042C8
:10120000FAD370BD300000202DE9FC4FDFF8A0A11B
:10121000002301250AF1040B03244FF00F0C0BF1FE
:10122000040EBDE005FA03F632406FD04F68012F7F
:1012300005D0022F03D0112F01D0122F17D1D0F8D3
:1012400008905F0004FA07F829EA08090097D1F826
:101250000C8008FA07F848EA0908C0F808804768CF
:10126000B7430E79C6F300169E403E434660C668FB
:101270004FEA430804FA08F7BE4301978F6807FA5C
:1012800008F73743C7604E68022E01D0122E13D1E3
:10129000DE0800EB86060096366A5F07FF0E0CFA42
:1012A00007F926EA0906D1F8109009FA07F949EA80
:1012B0000609009EC6F820900668019FBE430F797C
:1012C00007F0030707FA08F7374307604E68F60090
:1012D00065D5384E376E47F001073766366E23F016
:1012E000030706F001060096334E3E44B146B66849
:1012F0009F074FEA17780CFA08F7BE43B0F1904FFA
:1013000005D02E4FB84204D1012717E047E000274F
:1013100014E02B4FB84201D102270FE0294FB84209
:1013200001D103270AE0284FB84201D1042705E084
:10133000264FB84201D1052700E0062707FA08F733
:101340003743C9F80870DAF800605746D1F80480CE
:1013500096435FEAC83800D516433E60DBF800606C
:101360005F46D1F8048096435FEA883800D516437B
:101370003E60DEF800607746D1F8048096435FEA6D
:10138000C82800D516433E60094F0C373E68D1F897
:10139000048096435FEA882800D516433E605B1CB4
:1013A0000A6832FA03F67FF43DAFBDE8FC8F000017
:1013B0000004014000100240000001400004004809
:1013C00000080048000C00480010004800140048C5
:1013D0000069084000D0012070470AB18161704760
:1013E000816270470148806870470000300000202B
:1013F00002488168426811448160704730000020D3
:1014000010B50024032000F065F8002000F008F873
:1014100008B1012401E000F025F8204610BD0000CD
:1014200070B50E4E05460024706898B14FF47A717D
:10143000B1FBF0F00A490968B1FBF0F000F032FDB1
:1014400040B9102D06D200222946501E00F022F885
:10145000356000E00124204670BD0000300000200F
:101460003C0000200A4882B0016E41F00101016693
:10147000016E01F001010091816D41F080518165A3
:10148000806D00F08050009002B000F093B8000032
:1014900000100240F0B40E4B1B680C46C3F302234D
:1014A000C3F10705042D00D90425191D072901D210
:1014B000002300E0DB1E012606FA05F1491E21404B
:1014C00099409E40761E16403143F0BC01F07EBD2F
:1014D0000CED00E0064900F0070208684FF6FF0334
:1014E000184040EA0220034A104308607047000099
:1014F0000CED00E00000FA052B492C4B0A68322164
:101500004A432B4940B1B0F5007F086829D020F448
:10151000C06040F480602CE00868C0F341200228DD
:1015200004D051F8800F20F4807022E0D1F88000C0
:1015300020F48070C1F88000086820F4C06040F496
:1015400000700860B2FBF3F0401C00E0401E4A69E6
:10155000520501D50028F9D1486940050AD5032074
:101560007047C0F34120022806D051F8800F40F4A4
:101570008070086000207047D1F8800040F48070CF
:10158000C1F88000086820F4C06040F40070086072
:10159000B2FBF3F0401C00E0401E4A695205DBD567
:1015A0000028F9D1D8E700003C00002040420F009D
:1015B000007000400248816841F4804181607047BA
:1015C000007000402DE9F8430446006800269D4D58
:1015D00000035ED5A86D0027C00008D4A86D40F0B8
:1015E0008050A865A86D012700F080500090DFF8BA
:1015F0005892D9F8001041F48071C9F80010FFF733
:10160000F1FE804606E000BFFFF7ECFEA0EB08000D
:1016100002282BD8D9F80000C005F5D5D5F89000E0
:1016200010F4407014D0216C814211D0D5F8900094
:10163000D5F8901020F4407041F48031C5F8901036
:10164000D5F8901021F48031C5F89010C5F89000BD
:10165000C00711D0FFF7C6FE804641F2883907E087
:10166000FFF7C0FEA0EB0801494501D903260BE0B6
:10167000D5F890008007F3D5D5F89000216C20F4C0
:1016800040700843C5F890001FB1A86D20F080504D
:10169000A8652078C00707D0D5F88800616820F0D9
:1016A00003000843C5F888002078800707D5D5F8DF
:1016B0008800A16820F00C000843C5F88800207855
:1016C000400707D5D5F88800E16820F030000843CE
:1016D000C5F888002078000707D5D5F8880021696B
:1016E00020F0C0000843C5F888002078800607D5A0
:1016F000D5F88800616920F440600843C5F8880087
:101700002078400607D5D5F88800A16920F440501C
:101710000843C5F888002078000607D5D5F888006A
:10172000E16920F440400843C5F888002088C005DE
:1017300007D5D5F88800216A20F440300843C5F861
:1017400088002088800507D5D5F88800616A20F4D4
:1017500040200843C5F88800208840050FD5D5F8FB
:101760008800A16A20F440100843C5F88800A06AE8
:10177000B0F5801F03D1E86840F48010E86020884D
:1017800000050FD5D5F88800E16A20F44000084331
:10179000C5F88800E06AB0F5800F03D1E86840F42E
:1017A0008010E8602088C0040FD5D5F88800216B30
:1017B00020F040700843C5F88800206BB0F1807FAE
:1017C00003D1E86840F48010E86020884FF00061A1
:1017D00080040ED5D5F88800626B20F0406010437D
:1017E000C5F88800606B884203D1E86840F4801037
:1017F000E860208840040ED5D5F88800A26B20F060
:1018000040601043C5F88800A06B884203D1E868A7
:1018100040F48010E860208800040FD5D5F88800D7
:10182000E16B20F040500843C5F88800E06BB0F150
:10183000805F03D1E86840F48030E8603046BDE85E
:10184000F883000000100240007000402DE9F047CE
:101850000E4605004FF0000725D0DFF8AC81D8F820
:10186000000000F00F00B0420CD2D8F8001021F0B8
:101870000F013143C8F80010D8F8000000F00F0045
:10188000B04210D12968614CC80741F2883A5AD059
:101890006868DFF87C91032808D0022820682DD0E2
:1018A000400500282CDB0120BDE8F087206880017E
:1018B000F9D5E06800F00302E068C0F30310401CB3
:1018C000032A19D0534A00BFB2FBF0F0E268C2F31A
:1018D00006225043E268C2F34162521C5200B0FB40
:1018E000F2F0484517D9A06810F0F00F0CD0880727
:1018F00011D5A86840B10EE0474AE5E78003D0E77C
:1019000000F092F8484506D9A06820F0F00040F0B9
:101910008000A0608027A068696820F00300084369
:10192000A060FFF75FFD814606E000BFFFF75AFDAC
:10193000A0EB090151453AD8A068696800F00C0095
:10194000B0EB810FF2D12868810714D5400703D589
:10195000A06840F4E060A0602878000705D5A06882
:1019600020F4605040F4E060A060A068A96820F016
:10197000F000084304E0802F03D1A06820F0F000BD
:10198000A060D8F80010404601F00F01B14216D90E
:10199000016821F00F0131430160FFF723FD074685
:1019A00007E000BFFFF71EFDC11B514501D9032011
:1019B0007AE7D8F8000000F00F00B042F2D12878A2
:1019C000400705D5A068E96820F4E0600843A060FE
:1019D0002878000706D5A068296920F4605040EAFD
:1019E000C100A06000F020F8A1680C4AC1F3031107
:1019F000515C01F01F01C8400949086009480068AE
:101A0000BDE8F047FFF70CBD002002400010024087
:101A100000B4C4040024F40000366E01544C0008E5
:101A20003C00002030000020184910B58868C0F341
:101A300081021748012A0BD08A68164BC2F3810233
:101A4000022A06D08A68C2F38102032A03D000204A
:101A500010BD184610BDCA6802F00304CA68C2F37C
:101A60000312521C032C02D0B0FBF2F001E0B3FBD6
:101A7000F2F0CA68C968C2F306225043C1F341615B
:101A8000491C4900B0FBF1F010BD000000100240FD
:101A90000024F40000366E012DE9F84304007AD0EA
:101AA0002078FA4DC00747D0A868E96800F00C001C
:101AB00001F003010C2802D0082817D001E0032907
:101AC00014D06068B0F5803F17D0B0F5A02F28681B
:101AD00017D020F480302860286820F48020286007
:101AE0006068E0B1FFF77EFC064614E028688003DA
:101AF00022D560680028D2D01EE0286840F48030EB
:101B0000EDE740F480202860F7E700BFFFF76AFCAC
:101B1000801B642870D828688003F7D50CE0FFF795
:101B200061FC064605E000BFFFF75CFC801B6428F3
:101B3000F0D828688003F7D4207880074CD5A868AF
:101B4000E96800F00C0001F003010C2802D0042821
:101B50000DD001E002290AD0E068002828682BD0C7
:101B600040F480702860FFF73DFC064619E02868C5
:101B7000400502D5E068002891D06868217C20F0FB
:101B8000FE4040EA01606860C1480068FFF748FC19
:101B9000002800D120E076E1FFF724FC801B02281A
:101BA000B8D828684005F7D56868217C20F0FE4049
:101BB00040EA016068600FE020F480702860FFF761
:101BC00011FC064605E000BFFFF70CFC801B022855
:101BD000A0D828684005F7D42078000729D5606987
:101BE0000028D5F8940013D040F00100C5F8940007
:101BF000FFF7F8FB064606E090E000BFFFF7F2FBB8
:101C0000801B022886D8D5F894008007F6D510E00E
:101C100020F00100C5F89400FFF7E4FB064604E05D
:101C2000FFF7E0FB801B022878D8D5F894008007E6
:101C3000F6D42078400761D5A86D0026C00008D4EE
:101C4000A86D40F08050A865A86D012600F0805076
:101C5000009090480168C90511D40168804641F49C
:101C600080710160FFF7BEFB074604E0FFF7BAFB97
:101C7000C01B022852D8D8F80000C005F6D5A068CD
:101C8000012815D00528D5F8900016D020F00100C5
:101C9000C5F89000D5F8900020F00400C5F8900039
:101CA000A06841F28838B8B1FFF79CFB07460EE008
:101CB000D5F8900040F00100F0E740F00400C5F8CE
:101CC0009000F5E7FFF78EFBC11B414526D8D5F8FC
:101CD00090008007F6D50CE0FFF784FB074604E090
:101CE000FFF780FBC11B414518D8D5F8900080074D
:101CF000F6D41EB1A86D20F08050A865207880062B
:101D000029D5A0690028D5F8980013D040F001002B
:101D1000C5F89800FFF766FB064606E077E000BFCF
:101D2000FFF760FB801B022877D8D5F89800800762
:101D3000F6D510E020F00100C5F89800FFF752FB3F
:101D4000064604E0FFF74EFB801B022865D8D5F855
:101D500098008007F6D4E069F0B3A968C1F3810167
:101D6000032961D00228286820F0807028600BD0F9
:101D7000E86820F00300E860E86847490840E86048
:101D8000FFF730FB04464BE0FFF72CFB064604E070
:101D9000FFF728FB801B02283FD828688001F7D472
:101DA000F4E908016FF00F0202EB01110843218AE8
:101DB0005204490802EB4151A26841EA022108435A
:101DC000217D4FF07E42490802EB41610843217BAF
:101DD00040EAC160E96800E062E0304A114008432F
:101DE000E860286840F080702860E86840F0807003
:101DF000E860FFF7F7FA044605E000BFFFF7F2FAE4
:101E0000001B022809D828688001F7D548E004E0C3
:101E1000FFF7E8FA001B022802D90320BDE8F88387
:101E200028688001F4D43BE00128F7D0E868226AF2
:101E300000F00301914226D1616A00F0F00209012D
:101E4000103991421FD1A26A00F4FE41B1EB022F7A
:101E500019D194F82C2000F07841B1EBC26F12D167
:101E6000218E00F4C00249084905A1F500119142F4
:101E700009D194F8341000F0C06049084906A1F176
:101E8000007181420CD00120C8E700000010024020
:101E90003000002000700040FFFFEEFE0C809F012C
:101EA0000020BBE710B5401EB0F1807F01D30120B8
:101EB00010BD4FF0E02460610F21601701F086F83B
:101EC0000020A06107202061002010BD70477047EE
:101ED00070477047704770477047704770B5044649
:101EE000006801694FF00005C943890715D4C1682E
:101EF000C943890711D4E91E0161012020772068B8
:101F000080698007204602D0FFF7E7FF04E000F079
:101F1000E3F8204600F0E1F8257720680169C9431D
:101F2000490717D4C168C943490713D46FF00401A6
:101F30000161022020772068806910F4407F2046EC
:101F400002D0FFF7CAFF04E000F0C6F8204600F018
:101F5000C4F8257720680169C943090716D4C16808
:101F6000C943090712D46FF00801016104202077EA
:101F70002068C0698007204602D0FFF7AEFF04E06A
:101F800000F0AAF8204600F0A8F82577206801693B
:101F9000C943C90617D4C168C943C90613D46FF031
:101FA00010010161082020772068C06910F4407F8B
:101FB000204602D0FFF791FF04E000F08DF82046A4
:101FC00000F08BF8257720680169C943C90708D15B
:101FD000C168C943C90704D1891E0161204600F0C8
:101FE0007DF820680169C943090609D4C168C9435D
:101FF000090605D46FF0800101612046FFF767FFF5
:1020000020680169C943C90509D4C168C9430906E3
:1020100005D46FF4807101612046FFF757FF2068F7
:102020000169C943490609D4C168C943490605D4B1
:102030006FF040010161204600F051F8206801690D
:10204000C943890609D4C168C943890605D46FF01C
:10205000200101612046FFF73BFF20680169C94369
:10206000C90209D4C168C943C90205D46FF48011FB
:1020700001612046FFF72EFF20680169C9438902EC
:1020800009D4C168C943890205D46FF40011016104
:102090002046FFF71EFF20680169C943490209D4A1
:1020A000C168C943490205D46FF48001016120462B
:1020B000FFF711FF20680169C94309020BD4C16809
:1020C000C943090207D46FF4000101612046BDE84D
:1020D0007040FFF701BF70BD704770477047704791
:1020E0007047704770477047704700002DE9F04116
:1020F00003680446D86919689A6840F60F052842B3
:102100004FF0000509D186067ED501F0200602F0C9
:1021100080573E4378D0216FFFE0924E924F164099
:102120000F40374370D0C70709D0CF0507D5012727
:102130001F62D4F88C3043F00103C4F88C3083075D
:102140000AD5D30708D0276802233B62D4F88C3025
:1021500043F00403C4F88C3043070AD5D30708D0F2
:10216000276804233B62D4F88C3043F00203C4F8A0
:102170008C3003070CD501F02003334308D02668C8
:1021800008233362D4F88C3043F00803C4F88C3051
:1021900003050BD54B0109D526684FF40063336264
:1021A000D4F88C3043F02003C4F88C30D4F88C3051
:1021B000002B34D0800609D501F0200002F08051B8
:1021C000084303D0216F09B120468847D4F88C001A
:1021D00021688968490602D410F0280F21D02046D2
:1021E00000F0BCFE20688168490615D5816821F0A1
:1021F00040018160E06F78B15C498163E06FFEF778
:10220000B4FF00280BD000E011E0E06F816B00E02C
:102210002046BDE8F04108472046FFF765FFBDE8CE
:10222000F0812046FFF760FFC4F88C50F7E7E76EB7
:102230002026012F5CD1C7065AD5CF0658D51020CD
:1022400018622068816849062FD5E26F11684968D5
:102250000904090CE3D0B4F85C308B42DFD9A4F850
:102260005E1011680968890618D4016821F480712C
:1022700001602068816821F0010181602068816827
:1022800021F040018160C4F88860E566206801683B
:1022900021F010010160E06FFEF732FFB4F85C003E
:1022A000B4F85E10401A81B21EE0B4F85C10B4F8C5
:1022B0005E20891AB4F85E2089B2002AAFD00029C6
:1022C000ADD0026822F49072026020688268254BCB
:1022D000DB431A408260C4F88860E56625672068A1
:1022E000026822F0100202602046FFF7F9FE96E72E
:1022F000C70209D5570207D54FF48010186220464F
:10230000BDE8F041FFF7EFBE07060AD501F08007F0
:1023100002F40002174304D0616F00297FF478AF04
:102320007DE742060CD54A060AD51968204621F0F9
:1023300040011960C4F88460656700F019F86EE721
:10234000020206D54A0004D52046BDE8F041FFF759
:10235000C9BEC001CBD50029C9DA2046BDE8F0418D
:10236000FFF7BFBE0100001020010004492F000844
:102370007047FEE710B586B014216846FDF780FF70
:102380001248C16C41F00101C164C16C01F001014E
:102390000591C16C41F00201C164C06C002400F0E1
:1023A000020005900120CDE9000469464FF09040FD
:1023B0000294FEF729FF0720CDE90004694604488E
:1023C0000294FEF721FF06B010BD0000001002408D
:1023D00000040048114810B50168114CE268891AE0
:1023E000642919D30068E06000F072FC2070E17885
:1023F00020EA0102414081436270A170E07002292D
:1024000002D1002000F03AFAA078032804D1BDE8F8
:102410001040FF2000F032BA10BD0000380000204C
:102420000000002000B585B014216846FDF728FFA4
:102430004FF6FF70009000200321CDE902010190CA
:1024400069460248FEF7E0FE05B000BD00080048FE
:1024500000B585B014216846FDF712FF4FF6FF70F6
:102460000090012001900320039000200290694613
:102470000248FEF7C9FE05B000BD00000008004894
:1024800070B5002406462146204600F053F900F0BE
:1024900091F94FF49635304600F060F9641CAC4277
:1024A000F9D370BD30B587B014216846FDF7E8FE5A
:1024B0001E48C16C41F00401C164C16C01F004010B
:1024C0000591C16C41F00101C164C16C01F00101D1
:1024D0000591C16C41F00201C164C06C012500F09E
:1024E000020005904FF44870CDE9000500240394E4
:1024F000694602940E48FEF787FE28020394009076
:10250000CDE901544FF0904469462046FEF77CFE29
:10251000FFF79EFFA06940F48070A0610448183066
:10252000016841F40871016007B030BD001002403D
:1025300000040048203AD2B2034B02EB420203EB04
:10254000021200F019B80000843A0008F0B50E46F7
:102550000746002540F23F1407E021463846FFF7C2
:10256000E9FF103C6D1CA4B2761C3278002A01D021
:10257000142DF2D3F0BD00002DE9F04791468A46B4
:102580000026044600F0D6F8DFF84080012700BF9F
:1025900000F010F95FF0000539F8160007FA05F1B0
:1025A0000842404601D1408800E0008800F0D6F89B
:1025B0006D1C102DF0D3641CE4B25146204600F08F
:1025C000B9F8761C182EE3D3BDE8F0871000002080
:1025D00010B5FFF767FF002000F064F8084CA080FA
:1025E000A088A0F50241303906D000F070FA002032
:1025F00000F058F8A08010BD00F0E0F9F7E7000007
:102600001000002010B51B4802681B498B68D21AC5
:10261000642A2ED3006888600879401CC0B2087113
:1026200000F0B3FB00F054FB0446FEF745F9024608
:10263000234612A1154800F0B5FC14490020FFF70D
:1026400085FF01F061F9FDF798FE9FED111B53EC3A
:10265000112BFDF720FE41EC100B0FA153EC102BBA
:102660000A4800F09FFCBDE8104008491820FFF719
:102670006DBF10BD38000020000000204144435FC2
:102680004B45593A2534642C202564004000002035
:10269000000000000000B03F54656D703A252E33F5
:1026A0006600000070B51D490A6842F400720A60B5
:1026B0000A6842F480720A60184C103C226842F0AA
:1026C00020022260164A1060086840F0200008606E
:1026D00000BF00BF00BF206840F0200020602068DD
:1026E00040F480702060FFF79DFE4FF09041886AB3
:1026F00040F48070886200BF00BF00BF0848001F20
:10270000006885B2886940F480708861FFF7A0FE98
:10271000206840F400702060284670BD28040048FE
:102720001408004801B5BDF800000149488008BD03
:102730001000002010B50C460146202000F068F87B
:102740002146BDE81040212000F062B801B5BDF877
:1027500000000149088008BD10000020134A1168DC
:1027600041F400711160114910390B6843F4807312
:102770000B600B6843F020030B600D4B1860106872
:1027800040F02000106000BF00BF00BF086840F0AC
:1027900020000860086840F48070086000BF00BF37
:1027A00000BF086840F400700860704728040048C3
:1027B000140800481449086840F40070086008686C
:1027C00040F48070086010481038026842F020021F
:1027D00002600E4B22221A600A6842F020020A6050
:1027E00000BF00BF00BF016841F020010160016827
:1027F00041F48071016000BF00BF00BF016841F477
:102800000071016070470000280400481408004867
:10281000184B10B51A6842F400721A601A6842F434
:1028200080721A60134A103A146844F0200414604D
:10283000114C2060186840F02000186000BF00BFF5
:1028400000BF106840F020001060106840F48070F5
:1028500010602160186840F02000186000BF00BFC1
:1028600000BF106840F020001060106840F48070D5
:10287000106010BD280400481408004870B5124DBF
:10288000044601224FF6FF712846FEF7A6FD0F4EC3
:10289000012204213046FEF7A0FD0022042130462B
:1028A000FEF79BFD210200222846FEF796FD01223D
:1028B00004213046FEF791FD3046BDE8704000220D
:1028C0000421FEF78ABD000000080048000C004803
:1028D000F0B587B014216846FDF7D2FC2048C16CE2
:1028E00041F00401C164C16C01F004010591C16CA7
:1028F00041F02001C164C16C01F020010591C16C5F
:1029000041F00801C164C06C164E00F008004FF49D
:102910007F440590012221463046FEF75EFD124FAE
:10292000012204213846FEF758FD0125CDE9004576
:1029300000240294694630460394FEF765FC0420A7
:102940000090CDE90154694638460394FEF75CFCDB
:10295000002204213846FEF740FD07B0F0BD00001C
:102960000010024000080048000C004800EB810005
:10297000006E00F0F84070478068C0F3C0007047F8
:102980008068C0F380007047042303EAD15310B578
:1029900018444369C1F3045107248C40A3438A407F
:1029A0001343436110BD00EB8100016E21F0004133
:1029B000114301667047FEE7FEE7704730B501211D
:1029C0000020FFF725FF4FF47A70FDF759FF002133
:1029D0000120FFF71DFF41F290711020FFF718FF53
:1029E0004FF41C516020FFF713FF01216120FFF716
:1029F0000FFF02214620FFF70BFF48F210011320C2
:102A0000FFF706FF48F2FE011220FFF701FF4FF427
:102A1000A0610220FFF7FCFE41F230010320FFF726
:102A2000F7FE40F2033421463020FFF7F1FE214645
:102A30003120FFF7EDFE21463220FFF7E9FEE51ECB
:102A400029463320FFF7E4FE03213420FFF7E0FEA0
:102A500021463520FFF7DCFE14213620FFF7D8FE93
:102A600021463720FFF7D4FE21463820FFF7D0FE5D
:102A700021463920FFF7CCFE29463A20FFF7C8FE51
:102A800003213B20FFF7C4FE21463C20FFF7C0FE98
:102A90004FF4A0513D20FFF7BBFE4FF40071922090
:102AA000FFF7B6FE21469320FFF7B2FE40F60D0178
:102AB0009020FFF7ADFE41F218010320FFF7A8FEBA
:102AC000BDE8304040F273110720FFF7A1BE10B5FA
:102AD00043F20801E320FFF79BFE1221E720FFF7F6
:102AE00097FE41F23121EF20FFF792FE00210120F5
:102AF000FFF78EFE4FF4E0610220FFF789FE41F2FE
:102B000030010320FFF784FE00210420FFF780FE40
:102B100040F207210820FFF77BFE00210920FFF784
:102B200077FE00210A20FFF773FE00210C20FFF73B
:102B30006FFE00210D20FFF76BFE00210F20FFF735
:102B400067FE00211020FFF763FE07211120FFF729
:102B50005FFE00211220FFF75BFE00211320FFF72C
:102B600057FEC820FEF73EFB41F290611020FFF7B0
:102B70004FFE40F227211120FFF74AFE3220FEF7D8
:102B800031FB1D211220FFF743FE3220FEF72AFB06
:102B90004FF400611320FFF73BFE14212920FFF7BB
:102BA00037FE0B212B20FFF733FE3220FEF71AFBF6
:102BB00000212020FFF72CFE00212120FFF728FE16
:102BC00007213020FFF724FE40F207713120FFF784
:102BD0001FFE06213220FFF71BFE40F20471352054
:102BE000FFF716FE41F604713620FFF711FE0421AF
:102BF0003720FFF70DFE00213820FFF709FE40F2D5
:102C000006713920FFF704FE40F201713C20FFF706
:102C1000FFFD0F213D20FFF7FBFD00215020FFF7B6
:102C2000F7FDEF215120FFF7F3FD00215220FFF7C0
:102C3000EFFD40F23F115320FFF7EAFD4FF41C5126
:102C40006020FFF7E5FD01216120FFF7E1FD002194
:102C50006A20FFF7DDFD00218020FFF7D9FD00216C
:102C60008120FFF7D5FD00218220FFF7D1FD002153
:102C70008320FFF7CDFD00218420FFF7C9FD00214F
:102C80008520FFF7C5FD10219020FFF7C1FD002131
:102C90009220FFF7BDFD03219320FFF7B9FD4FF40C
:102CA00088719520FFF7B4FD00219720FFF7B0FD54
:102CB00000219820FFF7ACFD41F218010320FFF737
:102CC000A7FDBDE8104040F273110720FFF7A0BD3B
:102CD00010B5FDF7F1FD642801D2012010BDA0F16F
:102CE0006501C72901D2022010BDA0F22D124FF4B8
:102CF000C7718A4201D8032010BDA0F2BD228A42CA
:102D000001D8042010BDA0F24D428A4201D805200E
:102D100010BDA0F2DD528A4201D8062010BDA0F2FB
:102D20006D71B1F5F97F01D8072010BD40F2572130
:102D3000A0F66110884201D2082010BD002010BD0D
:102D400010B586B014216846FDF79AFA0D48C16C9B
:102D500041F00101C164C06C4FF0904400F00100EB
:102D6000059000220E212046FEF737FB0E20009032
:102D7000012001900020029069462046FEF744FAA7
:102D800006B010BD0010024070470A21B0FBF1F3FD
:102D900030B4B0FBF1F2B3FBF1F401FB120201FB22
:102DA00014316423B0FBF3F030BCC0B2AFF3008049
:102DB0002DE9F04716468846814600254FF090449D
:102DC0002A4604212046FEF708FB2C4FBE5D300644
:102DD00001D5012200E0002202212046FEF7FDFA83
:102DE0007600002208212046FEF7F7FA012208218A
:102DF0002046FEF7F2FA6D1C082DE8DB17F8086094
:102E00000025300601D5012200E0002202212046E3
:102E1000FEF7E3FA7600002208212046FEF7DDFAED
:102E2000012208212046FEF7D8FA6D1C082DE8DBA8
:102E300017F809600025300601D5012200E00022C4
:102E400002212046FEF7C9FA76000022082120461A
:102E5000FEF7C3FA012208212046FEF7BEFA6D1CD8
:102E6000082DE8DB002204212046FEF7B6FA2046B2
:102E7000BDE8F04701220421FEF7AFBA1C00002094
:102E8000FEF7B6BA10B5A4B038216846FDF7F8F9D8
:102E900014211FA8FDF7F4F944210EA8FDF7F0F95D
:102EA0004FF40070FEF728FB012000900004019011
:102EB00002200324CDE907041421CDE90A100C9067
:102EC0000D9009946846FEF7E7FD08B172B6FEE77B
:102ED0000F20CDE91F0400242194229402211FA871
:102EE0002394FEF7B3FC08B172B6FEE70848CDE9BB
:102EF0000E0440071D904FF440701E900EA8FEF780
:102F000061FB002801D072B6FEE724B010BD0000BE
:102F1000018008000248016841F4700101607047B7
:102F200088ED00E00148FEF7D9BF0000C001002095
:102F30000148FEF7D3BF00000C0200200148FEF755
:102F4000CDBF00005802002010B5806A0021A0F813
:102F50005E10A0F85610FFF7C7F810BD01680A68A8
:102F600022F490720A6001688A68094B1A408A60EC
:102F7000C16E012904D101680A6822F010020A60BA
:102F80002021C0F888100021C16601677047000049
:102F9000FEFFFFEF0148FFF7A9B80000580000202E
:102FA000FEE700000FB4084B10B504A902AA03986D
:102FB00000F0EEF8044602A9002000F080FC204654
:102FC00010BC5DF814FB0000BF3800080907090EAB
:102FD000002804DB00F1E02080F80014704700F0C6
:102FE0000F0000F1E02080F8141D704702E008C8CF
:102FF000121F08C1002AFAD170477047002001E073
:1030000001C1121F002AFBD1704700002DE9FF5FAC
:1030100082B00021DDE90430020DDDF840B0034349
:1030200018D044F61050A2F2FF3242431514119802
:1030300001281FD0A5EB0B00401C5FEA000A4FF0EF
:1030400000064E4FDFF83891B046504615D5CAF10C
:10305000000413E0119801244AA3012801D16FEA6A
:103060000B010298119AC0E90031C0E9024206B092
:10307000BDE8F09FCBF10000DFE704460021404AA5
:10308000491842EB0450CDE9001012E0E00707D0E8
:1030900032463B4640464946FDF7FDF880468946A4
:1030A00032463B4610461946FDF7F5F806460F46F0
:1030B0006410002CEAD1DDE90401DDE90023BAF156
:1030C000000F06DAFDF7E7F842464B46FDF7E3F856
:1030D00005E0FDF798FA42464B46FDF794FA0446A0
:1030E0000E460022284BFDF715FB03D84FF0FF30AA
:1030F000014607E00022254B20463146FDF7DCF96A
:10310000FDF7F0FA102409E0002C0ADB0A22002364
:10311000FDF77EF8039B30321A55641E50EA010217
:10312000F2D1641C039AC4F111031444119A012AC8
:1031300003D0012208430DD10AE0084304D0002047
:103140004FF0110B119072E7A3EB0B056D1E0DE014
:103150005B4504DD4FF0000205F1010504E003DAF0
:103160004FF00002A5F10105002AECD00298119958
:10317000C0E90231C0E9004579E7000000001440D1
:103180000000F03F300000000000F0430000E03F8E
:103190002DE9FF4F95B09B468946064600250FE274
:1031A000252877D100242746F84A0121059400E01C
:1031B000044316F8013F203B01FA03F01042F7D117
:1031C00030782A2811D06FF02F033078A0F1300228
:1031D000092A16D8059A44F0020402EB820203EB96
:1031E00042021044761C0590EFE759F8042B059233
:1031F000002A03DA504244F40054059044F00204DB
:10320000761C30782E2816D116F8010F44F00404ED
:103210002A280DD06FF02F023078A0F13003092B4F
:1032200009D807EB870302EB4303C718761CF3E7C3
:1032300059F8047B761C30786C280FD006DC4C28BB
:1032400017D068280DD06A2814D104E0742810D053
:103250007A280FD10DE044F400140AE044F48014FD
:1032600001E044F440147278824202D104F58014E3
:10327000761C761C307866280BD013DC582877D063
:1032800009DC002875D04528F6D04628F4D0472818
:103290001AD19DE118E0632835D0642879D06528DB
:1032A00012D195E1702873D008DC6728F1D0692825
:1032B0006FD06E280DD06F2806D1B5E073282CD0C2
:1032C000752875D0782874D05A46179990476D1C88
:1032D00075E1C4F30250022809D003280DD0D9F8B3
:1032E000001004280DD00D6009F1040967E1D9F838
:1032F0000010EA17C1E90052F6E7D9F800100D8076
:10330000F2E70D70F0E719F8041B8DF800100020AB
:103310008DF80100EA46012003E059F804AB4FF0B4
:10332000FF3061074FF0000102D40DE008F1010108
:103330008846B9420FDA8045F8DB1AF808100029F0
:10334000F4D108E008F1010188468142FADB1AF85D
:1033500008100029F6D105985B46A0EB0807214626
:103360003846179A00F094FA284400EB080507E065
:103370004DE029E10DE01AF8010B5A4617999047E4
:10338000B8F10108F7D25B4621463846179A13E197
:1033900042E00A220092C4F302524FF0000A022ACD
:1033A00008D059F804CB032A4FEAEC710AD00DE09B
:1033B00029E02AE009F1070121F00702F2E802C141
:1033C000914609E00FFA8CFC4FEAEC71042A03D114
:1033D0004FFA8CFC4FEAEC71002907DA0A4600210B
:1033E000DCF1000C61EB02012D2202E0220504D584
:1033F0002B228DF80420012203E0E20701D02022D5
:10340000F7E7904659E00A2102E010220DE0102172
:103410004FF0000A00910BE010224FF0000A44F038
:1034200004040827009203E008224FF0000A0092EB
:10343000C4F30252022A05D059F804CB0021032A12
:1034400008D009E009F1070121F00702F2E802C102
:10345000914605E01FFA8CFC042A01D10CF0FF0C08
:103460004FF00008220728D5702806D0009B83F073
:10347000100353EA0A0305D00EE040228DF8042021
:10348000012208E05CEA010206D030228DF8042017
:103490008DF8050002229046009B83F0080353EA52
:1034A0000A030AD15CEA010201D1620705D5302284
:1034B0008DF804204FF001087F1E582804D034A056
:1034C00003900EA802900DE036A0F9E7534660463F
:1034D000009AFCF79DFE84460398825C0298401E89
:1034E000029002705CEA0100F0D1029806A9081A65
:1034F00000F1200A600702D524F4803400E001279F
:10350000574502DDA7EB0A0000E0002000EB0A01AE
:10351000009005984144401A0590E00306D45B46AC
:103520002146179A059800F0B3F90544002706E0F4
:1035300001A85A46C05D179990476D1C7F1C4745EE
:10354000F6DBE0030CD55B462146179A059800F0A0
:103550009FF9054404E030205A46179990476D1CA6
:103560000099481E00900029F5DC08E002980299B5
:103570005A460078491C0291179990476D1CBAF180
:103580000001AAF1010AF1DC65E10000092801004F
:1035900030313233343536373839616263646566C9
:1035A000000000003031323334353637383941428B
:1035B000434445460000000000F058F90544761CDD
:1035C000307800287FF4ECAD19B02846BDE8F08FC4
:1035D000620700D4062709F1070222F0070CFCE875
:1035E0000223E14603F000485FEA080C02D00FF224
:1035F000702C0DE05FEA045C02D50FF2682C07E046
:103600005FEAC47C02D00FF2602C01E0AFF2700CD4
:103610004FF0FF3823F00043CDF850C065280CD0A0
:1036200006DC452809D046281DD047283DD13DE07D
:10363000662818D067287ED138E00021112F01DBE1
:10364000112000E0781CCDE9000106A90EA8FFF7C3
:10365000DDFCDDE90F010E9A03910021009207F1D4
:10366000010A04914DE04FF000400097CDE90110B0
:1036700006A90EA8FFF7CAFCDDE90F0203920E9B14
:1036800011990022DDF80CA00093049211B9791C65
:1036900000EB010AB7EB0A0004D4C0F1FF3007F1D8
:1036A000010A0490AAEB0700019044E0012F00DA20
:1036B00001270021112F01DD112000E03846CDE95E
:1036C000000106A90EA8FFF7A1FCDDE90F010E9A83
:1036D0000391002104910092BA4621070CD403996A
:1036E000514500DA8A46BAF1010F05DD009AAAF1C8
:1036F0000101515C302908D0B84202DA10F1040F00
:1037000006DA0121CDE9011015E0AAF10101E9E78E
:10371000002805DC049901440491AAEB000102E0B1
:10372000411C514500DD8A460499401A401C019015
:103730004FF000400290200704D40198504501DB6F
:10374000CDF8048000208DF84F0002980DF14F074E
:10375000B0F1004F25D02B200E9002984FF00208B8
:1037600000280CDA404202902D200E9007E00A213A
:103770000298FCF70FFE3031029007F8011DB8F1F6
:103780000001A8F10108F2DC02980028EFD1791EAF
:103790000E980870307800F0200040F0450007F8DF
:1037A000020D12A8C01B00F107081498007800B1A0
:1037B000012000EB0A01019801EBE07105984144FA
:1037C000401A401E0590E00306D45B462146179A36
:1037D000059800F05DF805441498007818B15A4631
:1037E000179990476D1CE00324D55B462146179A34
:1037F000059800F04DF805441CE00498002807DB0C
:10380000DDE90301884203DD0098405C179901E07F
:10381000179930205A469047049805F10105401C3D
:1038200004900198401E019004D12E205A46179909
:1038300090476D1CBAF10001AAF1010ADDDC05E038
:1038400017F8010B5A46179990476D1CB8F1000103
:10385000A8F10108F4DC5B462146179A0598ABE60F
:103860002D0000002B000000200000002DE9F04199
:10387000044600251E461746880404D405E0394650
:103880002020B0476D1C641EF9D52846BDE8F081A4
:103890002DE9F041044600251E469046C80301D597
:1038A000302700E02027880404D505E0414638464B
:1038B000B0476D1C641EF9D52846BDE8F0810A6842
:1038C000531C0B601070704700B587B01421684618
:1038D000FCF7D6FC0B48C16C41F00101C164C06C1F
:1038E000022100F001000590402000900120CDE968
:1038F0000201019069464FF09040FDF785FC07B04A
:1039000000BD00000010024010B500F095F8CC207A
:1039100000F080F8442000F07DF800F08DF8CC2015
:1039200000F078F8BE2000F075F800F070F804465A
:1039300000F06DF844EA0020C0F30A0010BDFDF766
:103940005FFDFFF79FFAFEF7C3FFFEF713FDFEF7DB
:103950003FFEFFF7F5F9FCF719FFFFF7B5FF002071
:10396000FEF78EFD0020FEF7DDFE4FF6FF70FEF73E
:10397000EDFEFEF72FFDFEF745FEFAE700B585B038
:1039800014216846FCF77CFC402000900020019048
:10399000029069464FF09040FDF736FC05B000BD3F
:1039A00000B585B014216846FCF76AFC4020009001
:1039B00001200190022003900020029069464FF000
:1039C0009040FDF721FC05B000BD70B50446FFF73F
:1039D000E7FF4FF09045002240212846FDF7FDFC0F
:1039E0000F20401EFDD20CB1FFF7C8FF8E20401EF5
:1039F000FDD240212846FDF7EBFC00B9002440F23F
:103A0000CE20401EFDD2FFF7B9FF204670BDFF203B
:103A1000AFF3008070B504465FF0080504F00100C4
:103A2000FFF7D3FF640808B144F080046D1E15F061
:103A3000FF05F3D1204670BD70B5FFF7B1FF4FF021
:103A40009044002240212046FDF7C7FC41F6FF01CB
:103A5000491EFDD2FFF792FF40F21E41491EFDD2E2
:103A6000402125462046FDF7B3FC044641F6DE1012
:103A7000401EFDD240212846FDF7AAFC00B90124D2
:103A8000204670BD000000000000000000000000A3
:103A90000000000000000000000000000000000026
:103AA0000000000000000000000000000000000016
:103AB0000000000000008001800180018001800181
:103AC00080018001800180018001800180018001EE
:103AD00000000000800180010000000000000000E4
:103AE0000000000000000000CC00CC00CC00CC00A6
:103AF000CC00CC000000000000000000000000002E
:103B000000000000000000000000000000000000B5
:103B100000000000000000000000000000000000A5
:103B2000600C600C600C30063006FE1FFE1F300675
:103B300038071803FE1FFE1F180318038C018C01A1
:103B40008C01000000008000E003F80F9C0E8C1C2C
:103B50008C188C009800F801E007800E801C8C18EF
:103B60008C189C18B80CF00FE00380008000000057
:103B7000000000000000000000000E181B0C110CDB
:103B800011061106110311039B018E01C038C06C90
:103B900060446044304430441844186C0C380000D1
:103BA000000000000000E001F003380718061806C6
:103BB0003003F001F000F8009C310E33061E061CA5
:103BC000061C063FFC73F02100000000000000000E
:103BD00000000000000000000C000C000C000C00B5
:103BE0000C000C00000000000000000000000000BD
:103BF00000000000000000000000000000000000C5
:103C0000000000000000000200038001C000C000AE
:103C100060006000300030003000300030003000C4
:103C20003000300060006000C000C0008001000370
:103C300000020000000020006000C0008001800140
:103C4000000300030006000600060006000600064A
:103C5000000600060003000380018001C000600030
:103C60002000000000000000000000000000000034
:103C7000C000C000D806F807E00130033807000094
:103C80000000000000000000000000000000000034
:103C90000000000000000000000000000000000024
:103CA00080018001800180018001FC3FFC3F800198
:103CB0008001800180018001000000000000000000
:103CC00000000000000000000000000000000000F4
:103CD00000000000000000000000000000000000E4
:103CE0000000000000008001800100010001800050
:103CF00000000000000000000000000000000000C4
:103D0000000000000000000000000000E007E007E5
:103D100000000000000000000000000000000000A3
:103D20000000000000000000000000000000000093
:103D30000000000000000000000000000000000083
:103D4000000000000000C000C000000000000000F3
:103D5000000000000000000C000C00060006000639
:103D60000003000300038003800180018001C00084
:103D7000C000C00060006000000000000000000003
:103D8000000000000000E003F007380E180C0C18CB
:103D90000C180C180C180C180C180C180C180C1803
:103DA000180C380EF007E0030000000000000000CF
:103DB00000000000000000018001C001F001980136
:103DC00088018001800180018001800180018001E3
:103DD00080018001800180010000000000000000DF
:103DE000000000000000E003F80F180C0C180C187D
:103DF00000180018000C000600038001C0006000DD
:103E000030001800FC1FFC1F000000000000000034
:103E1000000000000000E001F807180E0C0C0C0C6C
:103E2000000C0006C003C007000C001800180C1896
:103E30000C18180CF807E003000000000000000058
:103E4000000000000000000C000E000F000F800DAD
:103E5000C00C600C600C300C180C0C0CFC3FFC3FD0
:103E6000000C000C000C000C000000000000000022
:103E7000000000000000F80FF80F180018000C00F8
:103E8000EC03FC071C0E001C0018001800180C188E
:103E90001C0C180EF807E0030000000000000000F2
:103EA000000000000000C007F00F381C18181800B0
:103EB0000C00CC03EC0F3C0E1C1C0C180C180C183E
:103EC000181C380EF007E00300000000000000009E
:103ED000000000000000FC1FFC1F000C0006000694
:103EE000000380038001C001C000E00060006000AA
:103EF00070003000300030000000000000000000C2
:103F0000000000000000E003F007380E180C180C49
:103F1000180C3806F007F007180C0C180C180C18C1
:103F20000C18380CF80FE00300000000000000003F
:103F3000000000000000E003F007380E1C0C0C1815
:103F40000C180C181C1C381EF81BE0190018000C6B
:103F5000000C1C0EF807F00100000000000000003B
:103F60000000000000000000000000000000000051
:103F7000800180010000000000000000000000003F
:103F8000000000008001800100000000000000002F
:103F90000000000000000000000000000000000021
:103FA000800180010000000000000000000000000F
:103FB000000000008001800100010001800000007D
:103FC00000000000000000000000000000000000F1
:103FD000000000000010001C800FE003F800180033
:103FE000F800E003800F001C00100000000000003B
:103FF00000000000000000000000000000000000C1
:1040000000000000F81F000000000000F81F000082
:1040100000000000000000000000000000000000A0
:104020000000000000000000000000000000000090
:104030000000000008003800F001C007001F001851
:10404000001FC007F0013800080000000000000059
:10405000000000000000E003F80F180C0C180C180A
:104060000018000C000600038001C000C000C00062
:1040700000000000C000C0000000000000000000C0
:104080000000000000000000E00718180420C2290A
:10409000224A114409440944094409221113E20C3B
:1040A000024004201818E007000000000000000093
:1040B00000000000000080038003C006C006C006A8
:1040C000600C600C301830183018F83FF83F1C7046
:1040D0000C600C6006C006C000000000000000007C
:1040E000000000000000FC03FC0F0C0C0C180C1866
:1040F0000C180C0CFC07FC0F0C180C300C300C309E
:104100000C300C18FC1FFC07000000000000000031
:10411000000000000000C007F01F38381C300C7091
:10412000066006000600060006000600060006609F
:104130000C701C30F01FE0070000000000000000C1
:10414000000000000000FE03FE0F060E0618061811
:1041500006300630063006300630063006300618C7
:104160000618060EFE0FFE0300000000000000000F
:10417000000000000000FC3FFC3F0C000C000C00A5
:104180000C000C00FC1FFC1F0C000C000C000C00B1
:104190000C000C00FC3FFC3F000000000000000091
:1041A000000000000000F83FF83F18001800180059
:1041B00018001800F81FF81F180018001800180041
:1041C000180018001800180000000000000000008F
:1041D000000000000000E00FF83F3C780E6006E0B1
:1041E00007C00300030003FE03FE03C007C006C0B0
:1041F0000EC03CF0F83FE00F00000000000000009F
:104200000000000000000C300C300C300C300C3082
:104210000C300C30FC3FFC3F0C300C300C300C30C0
:104220000C300C300C300C3000000000000000009E
:1042300000000000000080018001800180018001F9
:104240008001800180018001800180018001800166
:10425000800180018001800100000000000000005A
:104260000000000000000006000600060006000630
:1042700000060006000600060006000600061806F6
:1042800018063807F003E0010000000000000000FD
:1042900000000000000006300618060C06060603A3
:1042A0008601C60066007600DE008E010603060663
:1042B000060C061806300660000000000000000032
:1042C0000000000000001800180018001800180076
:1042D000180018001800180018001800180018001E
:1042E00018001800F81FF81F000000000000000070
:1042F0000000000000000EE01EF01EF01EF036D898
:1043000036D836D836D866CC66CC66CCC6C6C6C6D5
:10431000C6C6C6C686C386C30000000000000000F3
:104320000000000000000C301C303C303C306C3091
:104330006C30CC30CC308C310C330C330C360C362A
:104340000C3C0C3C0C380C3000000000000000005D
:10435000000000000000E007F81F1C380E70066027
:1043600003C003C003C003C003C003C003C0066092
:104370000E701C38F81FE00700000000000000006D
:10438000000000000000FC0FFC1F0C380C300C304B
:104390000C300C300C18FC1FFC070C000C000C003F
:1043A0000C000C000C000C000000000000000000DD
:1043B000000000000000E007F81F1C380E700660C7
:1043C00003E003C003C003C003C003C007E00663EB
:1043D0000E3F1C3CF83FE0F700C00000000000006A
:1043E000000000000000FE0FFE1F063806300630F9
:1043F00006300638FE1FFE0706030606060C0618E2
:1044000006180630063006600000000000000000BC
:10441000000000000000E003F80F1C0C0C180C1842
:104420000C001C00F803E00F001E003806300630B8
:104430000E301C1CF80FE007000000000000000018
:10444000000000000000FE7FFE7F800180018001EF
:104450008001800180018001800180018001800154
:104460008001800180018001000000000000000048
:104470000000000000000C300C300C300C300C3010
:104480000C300C300C300C300C300C300C300C304C
:104490000C301818F81FE0070000000000000000B2
:1044A00000000000000003600630063006300C18E3
:1044B0000C180C18180C180C380E30063006700743
:1044C00060036003C001C0010000000000000000A4
:1044D0000000000000000360C361C361C361663374
:1044E000663366336633663366336C1B6C1B6C1B3A
:1044F0002C1A3C1E380E380E000000000000000090
:104500000000000000000FE00C7018303018700C34
:10451000600EC00780038003C003E006700C301CEF
:1045200018180C300E6007E00000000000000000CA
:1045300000000000000003C006600C301C38381872
:10454000300C6006E007C00380018001800180011B
:104550008001800180018001000000000000000057
:10456000000000000000FC7FFC7F006000300018AD
:10457000000C000600038001C0006000300018003D
:104580000C000600FE7FFE7F00000000000000001F
:10459000000000000000E003E00360006000600035
:1045A000600060006000600060006000600060000B
:1045B0006000600060006000600060006000E00378
:1045C000E003000000003000300060006000600088
:1045D000C000C000C000C001800180018001000354
:1045E00000030003000600060000000000000000B9
:1045F000000000000000E003E003000300030003EC
:104600000003000300030003000300030003000392
:104610000003000300030003000300030003E003A2
:10462000E003000000000000C001C001600360035F
:10463000600330063006180C180C00000000000063
:10464000000000000000000000000000000000006A
:10465000000000000000000000000000000000005A
:10466000000000000000000000000000000000004A
:10467000000000000000FFFFFFFF0000000000003E
:104680000000000000000C000C000C000C000C00EE
:104690000C0000000000000000000000000000000E
:1046A000000000000000000000000000000000000A
:1046B00000000000000000000000000000000000FA
:1046C000F003F8071C0C0C0C000FF00FF80C0C0C8E
:1046D0000C0C1C0FF80FF018000000000000000088
:1046E0000000000000001800180018001800180052
:1046F000D803F80F380C18181818181818181818A4
:104700001818380CF80FD803000000000000000053
:104710000000000000000000000000000000000099
:10472000C003F007300E180C18001800180018000D
:10473000180C300EF007C00300000000000000005D
:1047400000000000000000180018001800180018F1
:10475000C01BF01F301C1818181818181818181833
:104760001818301CF01FC01B0000000000000000E3
:104770000000000000000000000000000000000039
:10478000C003F00F300C1818F81FF81F180018009D
:104790003818301CF00FC0070000000000000000B7
:1047A000000000000000800FC00FC000C000C0006B
:1047B000F007F007C000C000C000C000C000C0008B
:1047C000C000C000C000C0000000000000000000E9
:1047D00000000000000000000000000000000000D9
:1047E000E00DF80F180E0C0C0C0C0C0C0C0C0C0C37
:1047F0000C0C180EF80FE00D000C0C0C1C06F80742
:10480000F00100000000180018001800180018003F
:10481000D807F80F381C181818181818181818186E
:1048200018181818181818180000000000000000C8
:10483000000000000000C000C000000000000000F8
:10484000C000C000C000C000C000C000C000C00068
:10485000C000C000C000C000000000000000000058
:10486000000000000000C000C000000000000000C8
:10487000C000C000C000C000C000C000C000C00038
:10488000C000C000C000C000C000C000C000F800F0
:104890007800000000000C000C000C000C000C0064
:1048A0000C0C0C060C038C01CC006C00FC009C0171
:1048B0008C030C030C060C0C000000000000000030
:1048C000000000000000C000C000C000C000C00028
:1048D000C000C000C000C000C000C000C000C000D8
:1048E000C000C000C000C0000000000000000000C8
:1048F00000000000000000000000000000000000B8
:104900007C3CFF7EC7E383C183C183C183C183C174
:1049100083C183C183C183C1000000000000000087
:104920000000000000000000000000000000000087
:104930009807F80F381C181818181818181818188D
:1049400018181818181818180000000000000000A7
:104950000000000000000000000000000000000057
:10496000C003F00F300C1818181818181818181859
:104970001818300CF00FC003000000000000000009
:104980000000000000000000000000000000000027
:10499000D803F80F380C1818181818181818181801
:1049A0001818380CF80FD803180018001800180051
:1049B00018000000000000000000000000000000DF
:1049C000C01BF01F301C18181818181818181818C1
:1049D0001818301CF01FC01B001800180018001811
:1049E00000180000000000000000000000000000AF
:1049F000B007F003700030003000300030003000AD
:104A000030003000300030000000000000000000E6
:104A10000000000000000000000000000000000096
:104A2000E003F003380E180C3800F003C007000C48
:104A3000180C380EF007E003000000000000000032
:104A400000000000000000008000C000C000C000A6
:104A5000F007F007C000C000C000C000C000C000E8
:104A6000C000C000C0078007000000000000000078
:104A70000000000000000000000000000000000036
:104A800018181818181818181818181818181818A6
:104A90001818381CF01FE01900000000000000008A
:104AA0000000000000000000000000000000000006
:104AB0000C18180C180C180C300630063006600361
:104AC00060036003C001C00100000000000000009E
:104AD00000000000000000000000000000000000D6
:104AE000C141C141C3616363636363633636363674
:104AF00036361C1C1C1C1C1C0000000000000000A2
:104B000000000000000000000000000000000000A5
:104B10001C38381C300C60066003600360036003BF
:104B20006006300C381C1C3800000000000000003B
:104B30000000000000000000000000000000000075
:104B40001830301830187018600C600CE00CC0067B
:104B5000C00680038003800380018001C001F00053
:104B600070000000000000000000000000000000D5
:104B7000FC1FFC1F000C000600038001C000600049
:104B800030001800FC1FFC1F0000000000000000A7
:104B900000000000000000038001C000C000C00051
:104BA000C000C000C0006000600030006000400035
:104BB000C000C000C000C000C000C00080010003F1
:104BC0000000000000008001800180018001800160
:104BD00080018001800180018001800180018001CD
:104BE00080018001800180018001800180018001BD
:104BF0008001000000006000C000C0018001800151
:104C00008001800180010003000300060003000111
:104C1000800180018001800180018001C00060006E
:104C20000000000000000000000000000000000084
:104C300000000000F010F81F080F00000000000046
:104C40000000000000000000000000000000000064
:104C5000000000000000000000000000010203044A
:104C600006070809844C00080000002040000000EE
:104C7000EC2F0008C44C000840000020B0060000E3
:104C8000FC2F0008000000000000000000000000F1
:104C9000000000000000FFFF000000000000000016
:104CA0003F065B4F666D7D077F6F777C395E79715C
:104CB00000000000100000000100000000000000E3
:044CC0000024F400D8
:04000005080001D915
:00000001FF
