:020000040800F2
:1000000010060020ED010008D31A0008EB140008C8
:10001000D11A0008590200084D2000080000000015
:10002000000000000000000000000000351E000875
:100030005B02000800000000D51A00082D1F000810
:10004000070200080702000807020008070200086C
:10005000070200080702000807020008070200085C
:10006000070200080702000807020008070200084C
:10007000070200080702000807020008070200083C
:10008000070200080000000007020008070200083D
:10009000070200080702000807020008070200081C
:1000A000070200080702000807020008070200080C
:1000B000D11F0008DD1F0008E91F00080702000823
:1000C00007020008070200080702000807020008EC
:1000D0000702000841200008070200080702000884
:1000E00007020008070200080702000807020008CC
:1000F00007020008070200080702000800000000CD
:1001000000000000070200080000000007020008CD
:1001100007020008000000000702000807020008AC
:10012000070200080702000807020008070200088B
:10013000070200080000000000000000070200089D
:10014000070200080702000800000000000000008D
:10015000000000000000000000000000000000009F
:10016000000000000000000000000000070200087E
:10017000070200080000000000000000000000006E
:10018000000000000702000800000000000000005E
:10019000000000000000000000000000000000005F
:1001A000000000000000000007020008070200082D
:1001B000070200080702000807020008000000000C
:1001C000000000000702000800000000000000001E
:1001D0000702000807020008DFF80CD000F02AF838
:1001E00000480047DF20000810060020064880472E
:1001F00006480047FEE7FEE7FEE7FEE7FEE7FEE70C
:10020000FEE7FEE7FEE7FEE7C11F0008D901000890
:10021000D2B201E000F8012B491EFBD27047002248
:10022000F6E710B513460A4604461946FFF7F0FFF5
:10023000204610BD064C074D06E0E06840F0010383
:1002400094E8070098471034AC42F6D3FFF7C8FF94
:10025000F432000814330008FEE77047002240F62D
:10026000B83306E00021491C89B29942FBD3521CE5
:1002700092B28242F6D3704710B590F82530002133
:100280000122022B03D00421C163012122E0036873
:100290001C6824F00E041C60836C1C6824F48074B9
:1002A0001C6003681C6824F001041C6090F8443052
:1002B000046C03F01F0302FA03F36360D0E9133404
:1002C0005C60436D33B11C6824F480741C60D0E919
:1002D00016345C6080F82520002280F8242008462F
:1002E00010BD70B590F82520002401212346022A74
:1002F00007D00422C26380F8251080F8243001243E
:1003000029E00268156825F00E0515600268156879
:1003100025F001051560826C156825F4807515605F
:1003200090F84420056C02F01F0201FA02F26A60A4
:10033000D0E913255560426D32B1156825F48075FA
:100340001560D0E91625556080F8251080F8243016
:10035000816B01B18847204670BD000070B504462E
:1003600000F0FCF80546601C02D0044840680444D4
:1003700000F0F4F8401BA042FAD370BD2800002022
:100380002DE9FC4FDFF8A0A1002301250AF1040BA1
:1003900003244FF00F0C0BF1040EBDE005FA03F639
:1003A00032406FD04F68012F05D0022F03D0112F9C
:1003B00001D0122F17D1D0F808905F0004FA07F887
:1003C00029EA08090097D1F80C8008FA07F848EAEA
:1003D0000908C0F808804768B7430E79C6F30016CD
:1003E0009E403E434660C6684FEA430804FA08F759
:1003F000BE4301978F6807FA08F73743C7604E6816
:10040000022E01D0122E13D1DE0800EB86060096D4
:10041000366A5F07FF0E0CFA07F926EA0906D1F8DB
:10042000109009FA07F949EA0609009EC6F82090DB
:100430000668019FBE430F7907F0030707FA08F724
:10044000374307604E68F60065D5384E376E47F083
:1004500001073766366E23F0030706F001060096A3
:10046000334E3E44B146B6689F074FEA17780CFA00
:1004700008F7BE43B0F1904F05D02E4FB84204D1DB
:10048000012717E047E0002714E02B4FB84201D1C5
:1004900002270FE0294FB84201D103270AE0284F75
:1004A000B84201D1042705E0264FB84201D1052703
:1004B00000E0062707FA08F73743C9F80870DAF8AA
:1004C00000605746D1F8048096435FEAC83800D5EB
:1004D00016433E60DBF800605F46D1F80480964327
:1004E0005FEA883800D516433E60DEF80060774644
:1004F000D1F8048096435FEAC82800D516433E60D1
:10050000094F0C373E68D1F8048096435FEA88288B
:1005100000D516433E605B1C0A6832FA03F67FF48E
:100520003DAFBDE8FC8F0000000401400010024018
:10053000000001400004004800080048000C00488A
:1005400000100048001400480069084000D0012055
:1005500070470AB1816170478162704701488068C5
:10056000704700002800002002488168426811445A
:10057000816070472800002010B50024032000F09F
:1005800065F8002000F008F808B1012401E000F04F
:1005900025F8204610BD000070B50E4E054600241B
:1005A000706898B14FF47A71B1FBF0F00A490968AC
:1005B000B1FBF0F000F032FD40B9102D06D2002260
:1005C0002946501E00F022F8356000E00124204644
:1005D00070BD000028000020340000200A4882B0CE
:1005E000016E41F001010166016E01F0010100910F
:1005F000816D41F080518165806D00F080500090E8
:1006000002B000F093B8000000100240F0B40E4BAE
:100610001B680C46C3F30223C3F10705042D00D960
:100620000425191D072901D2002300E0DB1E012645
:1006300006FA05F1491E214099409E40761E16405B
:100640003143F0BC01F016BD0CED00E0064900F0AE
:10065000070208684FF6FF03184040EA0220034AE9
:1006600010430860704700000CED00E00000FA0540
:100670002B492C4B0A6832214A432B4940B1B0F533
:10068000007F086829D020F4C06040F480602CE02E
:100690000868C0F34120022804D051F8800F20F4EC
:1006A000807022E0D1F8800020F48070C1F88000D2
:1006B000086820F4C06040F400700860B2FBF3F0FA
:1006C000401C00E0401E4A69520501D50028F9D1BE
:1006D000486940050AD503207047C0F3412002282D
:1006E00006D051F8800F40F48070086000207047F9
:1006F000D1F8800040F48070C1F88000086820F4D0
:10070000C06040F400700860B2FBF3F0401C00E0F1
:10071000401E4A695205DBD50028F9D1D8E7000010
:100720003400002040420F00007000400248816801
:1007300041F4804181607047007000402DE9F8432A
:100740000446006800269D4D00035ED5A86D002775
:10075000C00008D4A86D40F08050A865A86D01279E
:1007600000F080500090DFF85892D9F8001041F462
:100770008071C9F80010FFF7F1FE804606E000BF67
:10078000FFF7ECFEA0EB080002282BD8D9F80000F8
:10079000C005F5D5D5F8900010F4407014D0216C48
:1007A000814211D0D5F89000D5F8901020F4407017
:1007B00041F48031C5F89010D5F8901021F48031C3
:1007C000C5F89010C5F89000C00711D0FFF7C6FE1D
:1007D000804641F2883907E0FFF7C0FEA0EB080130
:1007E000494501D903260BE0D5F890008007F3D5E1
:1007F000D5F89000216C20F440700843C5F89000B3
:100800001FB1A86D20F08050A8652078C00707D0E0
:10081000D5F88800616820F003000843C5F8880017
:100820002078800707D5D5F88800A16820F00C0053
:100830000843C5F888002078400707D5D5F8880018
:10084000E16820F030000843C5F8880020780007F0
:1008500007D5D5F88800216920F0C0000843C5F805
:1008600088002078800607D5D5F88800616920F4D3
:1008700040600843C5F888002078400607D5D5F8C1
:100880008800A16920F440500843C5F8880020780A
:10089000000607D5D5F88800E16920F440400843F8
:1008A000C5F888002088C00507D5D5F88800216ADA
:1008B00020F440300843C5F888002088800507D51B
:1008C000D5F88800616A20F440200843C5F8880004
:1008D000208840050FD5D5F88800A16A20F4401083
:1008E0000843C5F88800A06AB0F5801F03D1E86806
:1008F00040F48010E860208800050FD5D5F8880006
:10090000E16A20F440000843C5F88800E06AB0F5C9
:10091000800F03D1E86840F48010E8602088C004AC
:100920000FD5D5F88800216B20F040700843C5F83A
:100930008800206BB0F1807F03D1E86840F480101C
:10094000E86020884FF0006180040ED5D5F888005B
:10095000626B20F040601043C5F88800606B8842ED
:1009600003D1E86840F48010E860208840040ED588
:10097000D5F88800A26B20F040601043C5F88800CD
:10098000A06B884203D1E86840F48010E8602088BA
:1009900000040FD5D5F88800E16B20F040500843E3
:1009A000C5F88800E06BB0F1805F03D1E86840F4DF
:1009B0008030E8603046BDE8F88300000010024057
:1009C000007000402DE9F0470E4605004FF000078B
:1009D00025D0DFF8AC81D8F8000000F00F00B0425D
:1009E0000CD2D8F8001021F00F013143C8F80010E4
:1009F000D8F8000000F00F00B04210D12968614C17
:100A0000C80741F2883A5AD06868DFF87C91032819
:100A100008D0022820682DD0400500282CDB0120BA
:100A2000BDE8F08720688001F9D5E06800F0030296
:100A3000E068C0F30310401C032A19D0534A00BFDA
:100A4000B2FBF0F0E268C2F306225043E268C2F360
:100A50004162521C5200B0FBF2F0484517D9A06821
:100A600010F0F00F0CD0880711D5A86840B10EE047
:100A7000474AE5E78003D0E700F092F8484506D9F9
:100A8000A06820F0F00040F08000A0608027A068FF
:100A9000696820F003000843A060FFF75FFD81460E
:100AA00006E000BFFFF75AFDA0EB090151453AD817
:100AB000A068696800F00C00B0EB810FF2D12868E3
:100AC000810714D5400703D5A06840F4E060A0601A
:100AD0002878000705D5A06820F4605040F4E06055
:100AE000A060A068A96820F0F000084304E0802F0F
:100AF00003D1A06820F0F000A060D8F800104046B4
:100B000001F00F01B14216D9016821F00F01314304
:100B10000160FFF723FD074607E000BFFFF71EFD5A
:100B2000C11B514501D903207AE7D8F8000000F035
:100B30000F00B042F2D12878400705D5A068E968D7
:100B400020F4E0600843A0602878000706D5A0687C
:100B5000296920F4605040EAC100A06000F020F84C
:100B6000A1680C4AC1F30311515C01F01F01C84098
:100B70000949086009480068BDE8F047FFF70CBD67
:100B8000002002400010024000B4C4040024F4001D
:100B900000366E01E43200083400002028000020F6
:100BA000184910B58868C0F381021748012A0BD094
:100BB0008A68164BC2F38102022A06D08A68C2F301
:100BC0008102032A03D0002010BD184610BDCA6858
:100BD00002F00304CA68C2F30312521C032C02D0B1
:100BE000B0FBF2F001E0B3FBF2F0CA68C968C2F3EF
:100BF00006225043C1F34161491C4900B0FBF1F0AA
:100C000010BD0000001002400024F40000366E0108
:100C10002DE9F84304007AD02078FA4DC00747D078
:100C2000A868E96800F00C0001F003010C2802D06C
:100C3000082817D001E0032914D06068B0F5803F80
:100C400017D0B0F5A02F286817D020F48030286086
:100C5000286820F4802028606068E0B1FFF77EFCFF
:100C6000064614E02868800322D560680028D2D0A8
:100C70001EE0286840F48030EDE740F480202860D2
:100C8000F7E700BFFFF76AFC801B642870D828686C
:100C90008003F7D50CE0FFF761FC064605E000BFD6
:100CA000FFF75CFC801B6428F0D828688003F7D429
:100CB000207880074CD5A868E96800F00C0001F0A6
:100CC00003010C2802D004280DD001E002290AD02B
:100CD000E068002828682BD040F480702860FFF777
:100CE0003DFC064619E02868400502D5E06800286A
:100CF00091D06868217C20F0FE4040EA0160686085
:100D0000C1480068FFF748FC002800D120E076E1E8
:100D1000FFF724FC801B0228B8D828684005F7D5C7
:100D20006868217C20F0FE4040EA016068600FE0C6
:100D300020F480702860FFF711FC064605E000BF34
:100D4000FFF70CFC801B0228A0D828684005F7D4C8
:100D50002078000729D560690028D5F8940013D0C1
:100D600040F00100C5F89400FFF7F8FB064606E0E6
:100D700090E000BFFFF7F2FB801B022886D8D5F871
:100D800094008007F6D510E020F00100C5F894002B
:100D9000FFF7E4FB064604E0FFF7E0FB801B0228B8
:100DA00078D8D5F894008007F6D42078400761D52C
:100DB000A86D0026C00008D4A86D40F08050A8653A
:100DC000A86D012600F08050009090480168C90588
:100DD00011D40168804641F480710160FFF7BEFBC9
:100DE000074604E0FFF7BAFBC01B022852D8D8F828
:100DF0000000C005F6D5A068012815D00528D5F853
:100E0000900016D020F00100C5F89000D5F89000B1
:100E100020F00400C5F89000A06841F28838B8B10D
:100E2000FFF79CFB07460EE0D5F8900040F001006C
:100E3000F0E740F00400C5F89000F5E7FFF78EFBFF
:100E4000C11B414526D8D5F890008007F6D50CE0A7
:100E5000FFF784FB074604E0FFF780FBC11B414519
:100E600018D8D5F890008007F6D41EB1A86D20F0F0
:100E70008050A8652078800629D5A0690028D5F87B
:100E8000980013D040F00100C5F89800FFF766FB0A
:100E9000064606E077E000BFFFF760FB801B0228F4
:100EA00077D8D5F898008007F6D510E020F001003B
:100EB000C5F89800FFF752FB064604E0FFF74EFB2B
:100EC000801B022865D8D5F898008007F6D4E06921
:100ED000F0B3A968C1F38101032961D00228286811
:100EE00020F0807028600BD0E86820F00300E860F4
:100EF000E86847490840E860FFF730FB04464BE0EC
:100F0000FFF72CFB064604E0FFF728FB801B0228B6
:100F10003FD828688001F7D4F4E908016FF00F0288
:100F200002EB01110843218A5204490802EB4151A6
:100F3000A26841EA02210843217D4FF07E42490820
:100F400002EB41610843217B40EAC160E96800E0AF
:100F500062E0304A11400843E860286840F0807041
:100F60002860E86840F08070E860FFF7F7FA044610
:100F700005E000BFFFF7F2FA001B022809D8286835
:100F80008001F7D548E004E0FFF7E8FA001B0228EB
:100F900002D90320BDE8F88328688001F4D43BE03F
:100FA0000128F7D0E868226A00F00301914226D1B7
:100FB000616A00F0F0020901103991421FD1A26A62
:100FC00000F4FE41B1EB022F19D194F82C2000F06F
:100FD0007841B1EBC26F12D1218E00F4C0024908F2
:100FE0004905A1F50011914209D194F8341000F09F
:100FF000C06049084906A1F1007181420CD001206E
:10100000C8E70000001002402800002000700040E7
:10101000FFFFEEFE0C809F010020BBE710B5401ED5
:10102000B0F1807F01D3012010BD4FF0E02460615A
:101030000F21601701F01EF80020A0610720206139
:10104000002010BD70477047704770477047704769
:101050007047704770B50446006801694FF000059D
:10106000C943890715D4C168C943890711D4E91E4A
:10107000016101202077206880698007204602D026
:10108000FFF7E7FF04E000F0E3F8204600F0E1F8A6
:10109000257720680169C943490717D4C168C94346
:1010A000490713D46FF00401016102202077206802
:1010B000806910F4407F204602D0FFF7CAFF04E0A9
:1010C00000F0C6F8204600F0C4F8257720680169D2
:1010D000C943090716D4C168C943090712D46FF080
:1010E00008010161042020772068C069800720463C
:1010F00002D0FFF7AEFF04E000F0AAF8204600F0AF
:10110000A8F8257720680169C943C90617D4C168C2
:10111000C943C90613D46FF010010161082020777C
:101120002068C06910F4407F204602D0FFF791FF8D
:1011300004E000F08DF8204600F08BF82577206859
:101140000169C943C90708D1C168C943C90704D1A6
:10115000891E0161204600F07DF820680169C943BD
:10116000090609D4C168C943090605D46FF0800196
:1011700001612046FFF767FF20680169C943C9057F
:1011800009D4C168C943090605D46FF480710161AF
:101190002046FFF757FF20680169C943490609D473
:1011A000C168C943490605D46FF04001016120467A
:1011B00000F051F820680169C943890609D4C16863
:1011C000C943890605D46FF0200101612046FFF76D
:1011D0003BFF20680169C943C90209D4C168C943FA
:1011E000C90205D46FF4801101612046FFF72EFF7C
:1011F00020680169C943890209D4C168C9438902C9
:1012000005D46FF4001101612046FFF71EFF20682E
:101210000169C943490209D4C168C943490205D4D7
:101220006FF4800101612046FFF711FF206801691A
:10123000C94309020BD4C168C943090207D46FF43A
:10124000000101612046BDE87040FFF701BF70BD9D
:1012500070477047704770477047704770477047D6
:10126000704700002DE9F04103680446D869196809
:101270009A6840F60F0528424FF0000509D186060E
:101280007ED501F0200602F080573E4378D0216FD2
:10129000FFE0924E924F16400F40374370D0C70781
:1012A00009D0CF0507D501271F62D4F88C3043F051
:1012B0000103C4F88C3083070AD5D30708D0276808
:1012C00002233B62D4F88C3043F00403C4F88C3022
:1012D00043070AD5D30708D0276804233B62D4F814
:1012E0008C3043F00203C4F88C3003070CD501F0B6
:1012F0002003334308D0266808233362D4F88C30A7
:1013000043F00803C4F88C3003050BD54B0109D515
:1013100026684FF400633362D4F88C3043F0200326
:10132000C4F88C30D4F88C30002B34D0800609D52A
:1013300001F0200002F08051084303D0216F09B171
:1013400020468847D4F88C0021688968490602D471
:1013500010F0280F21D0204600F056FE206881684A
:10136000490615D5816821F040018160E06F78B1B0
:101370005C498163E06FFEF7B4FF00280BD000E00A
:1013800011E0E06F816B00E02046BDE8F0410847C6
:101390002046FFF765FFBDE8F0812046FFF760FFBC
:1013A000C4F88C50F7E7E76E2026012F5CD1C70602
:1013B0005AD5CF0658D51020186220688168490692
:1013C0002FD5E26F116849680904090CE3D0B4F81D
:1013D0005C308B42DFD9A4F85E1011680968890679
:1013E00018D4016821F4807101602068816821F0BF
:1013F000010181602068816821F040018160C4F8AA
:101400008860E5662068016821F010010160E06FE6
:10141000FEF732FFB4F85C00B4F85E10401A81B2F7
:101420001EE0B4F85C10B4F85E20891AB4F85E20AF
:1014300089B2002AAFD00029ADD0026822F49072A0
:10144000026020688268254BDB431A408260C4F842
:101450008860E56625672068026822F01002026055
:101460002046FFF7F9FE96E7C70209D5570207D5D0
:101470004FF4801018622046BDE8F041FFF7EFBE40
:1014800007060AD501F0800702F40002174304D0D2
:10149000616F00297FF478AF7DE742060CD54A06DC
:1014A0000AD51968204621F040011960C4F884600B
:1014B000656700F019F86EE7020206D54A0004D508
:1014C0002046BDE8F041FFF7C9BEC001CBD50029D9
:1014D000C9DA2046BDE8F041FFF7BFBE01000010A9
:1014E00020010004F51F00087047FEE710B586B024
:1014F00014216846FEF793FE1248C16C41F00101C9
:10150000C164C16C01F001010591C16C41F002019F
:10151000C164C06C002400F0020005900120CDE9F8
:10152000000469464FF090400294FEF729FF07201F
:10153000CDE90004694604480294FEF721FF06B095
:1015400010BD00000010024000040048114810B512
:101550000168114CE268891A642919D30068E060B7
:1015600000F01CF82070E17820EA0102414081433C
:101570006270A170E070022902D1002000F030FA00
:10158000A078032804D1BDE81040FF2000F028BA5D
:1015900010BD0000300000200000002070B50E4D8E
:1015A000002401212846FEF7CFFF00B901240221C3
:1015B0002846FEF7C9FF00B9022404212846FEF799
:1015C000C3FF00B9032401214FF09040FEF7BCFF98
:1015D00000B90424204670BD0004004800B585B061
:1015E00014216846FEF71BFE4FF6FF7000900020A6
:1015F0000321CDE90201019069460248FEF7C0FED1
:1016000005B000BD0008004800B585B0142168464B
:10161000FEF705FE4FF6FF700090012001900320B9
:1016200003900020029069460248FEF7A9FE05B02B
:1016300000BD00000008004870B5002406462146A1
:10164000204600F029F900F067F94FF4963530464E
:1016500000F036F9641CAC42F9D370BD30B587B0E8
:1016600014216846FEF7DBFD1E48C16C41F0040101
:10167000C164C16C01F004010591C16C41F001012C
:10168000C164C16C01F001010591C16C41F002011E
:10169000C164C06C012500F0020005904FF4487051
:1016A000CDE9000500240394694602940E48FEF734
:1016B00067FE280203940090CDE901544FF0904456
:1016C00069462046FEF75CFEFFF79EFFA06940F4E6
:1016D0008070A06104481830016841F4087101600D
:1016E00007B030BD0010024000040048203AD2B2DA
:1016F000034B02EB420203EB021200F019B80000A8
:1017000014210008F0B50E460746002540F23F14AC
:1017100007E021463846FFF7E9FF103C6D1CA4B2F4
:10172000761C3278002A01D0142DF2D3F0BD0000CF
:101730002DE9F04791468A460026044600F0ACF8B1
:10174000DFF84080012700BF00F0E6F85FF00005F9
:1017500039F8160007FA05F10842404601D14088E1
:1017600000E0008800F0ACF86D1C102DF0D3641C74
:10177000E4B25146204600F08FF8761C182EE3D3D1
:10178000BDE8F0871000002010B5FFF767FF0020CC
:1017900000F03AF8084CA080A088A0F5024130394A
:1017A00006D000F021FA002000F02EF8A08010BD35
:1017B00000F091F9F7E70000100000200D4810B587
:1017C00002680D498B68D21A642A11D300688860B8
:1017D0000879401CC0B2087100F02DFB07A1094830
:1017E00000F036FCBDE8104006490020FFF78ABF34
:1017F00010BD0000300000200000002048656C6C27
:101800006F0000003800002070B51D490A6842F4DE
:1018100000720A600A6842F480720A60184C103C38
:10182000226842F020022260164A1060086840F0E8
:101830002000086000BF00BF00BF206840F020000B
:101840002060206840F480702060FFF7C7FE4FF0F2
:101850009041886A40F48070886200BF00BF00BF7A
:101860000848001F006885B2886940F4807088616C
:10187000FFF7CAFE206840F400702060284670BD63
:10188000280400481408004801B5BDF800000149CB
:10189000488008BD1000002010B50C4601462020ED
:1018A00000F068F82146BDE81040212000F062B841
:1018B00001B5BDF800000149088008BD10000020F6
:1018C000134A116841F400711160114910390B6815
:1018D00043F480730B600B6843F020030B600D4BE7
:1018E0001860106840F02000106000BF00BF00BF0B
:1018F000086840F020000860086840F480700860C4
:1019000000BF00BF00BF086840F400700860704767
:1019100028040048140800481449086840F400707E
:101920000860086840F48070086010481038026849
:1019300042F0200202600E4B22221A600A6842F036
:1019400020020A6000BF00BF00BF016841F0200113
:101950000160016841F48071016000BF00BF00BFF9
:10196000016841F4007101607047000028040048DC
:1019700014080048184B10B51A6842F400721A6037
:101980001A6842F480721A60134A103A146844F0DC
:1019900020041460114C2060186840F0200018608A
:1019A00000BF00BF00BF106840F02000106010684A
:1019B00040F4807010602160186840F020001860CA
:1019C00000BF00BF00BF106840F02000106010682A
:1019D00040F48070106010BD2804004814080048CE
:1019E00070B5124D044601224FF6FF712846FEF7EE
:1019F000B0FD0F4E012204213046FEF7AAFD002261
:101A000004213046FEF7A5FD210200222846FEF7FC
:101A1000A0FD012204213046FEF79BFD3046BDE8C3
:101A2000704000220421FEF794BD00000008004829
:101A3000000C0048F0B587B014216846FEF7EFFBB4
:101A40002048C16C41F00401C164C16C01F0040183
:101A50000591C16C41F02001C164C16C01F020010D
:101A60000591C16C41F00801C164C06C164E00F0D4
:101A700008004FF47F440590012221463046FEF7CE
:101A800068FD124F012204213846FEF762FD012550
:101A9000CDE9004500240294694630460394FEF7E0
:101AA0006FFC04200090CDE9015469463846039448
:101AB000FEF766FC002204213846FEF74AFD07B017
:101AC000F0BD00000010024000080048000C004873
:101AD000FEE7FEE7704730B501210020FFF74AFF1F
:101AE0004FF47A70FEF7BAFB00210120FFF742FFA6
:101AF00041F290711020FFF73DFF4FF41C51602020
:101B0000FFF738FF01216120FFF734FF0221462053
:101B1000FFF730FF48F210011320FFF72BFF48F2C8
:101B2000FE011220FFF726FF4FF4A0610220FFF70D
:101B300021FF41F230010320FFF71CFF40F2033484
:101B400021463020FFF716FF21463120FFF712FF14
:101B500021463220FFF70EFFE51E29463320FFF70E
:101B600009FF03213420FFF705FF21463520FFF749
:101B700001FF14213620FFF7FDFE21463720FFF735
:101B8000F9FE21463820FFF7F5FE21463920FFF700
:101B9000F1FE29463A20FFF7EDFE03213B20FFF737
:101BA000E9FE21463C20FFF7E5FE4FF4A0513D2021
:101BB000FFF7E0FE4FF400719220FFF7DBFE2146B5
:101BC0009320FFF7D7FE40F60D019020FFF7D2FEDD
:101BD00041F218010320FFF7CDFEBDE8304040F28E
:101BE00073110720FFF7C6BE10B543F20801E320CA
:101BF000FFF7C0FE1221E720FFF7BCFE41F23121C2
:101C0000EF20FFF7B7FE00210120FFF7B3FE4FF4EE
:101C1000E0610220FFF7AEFE41F230010320FFF742
:101C2000A9FE00210420FFF7A5FE40F207210820AD
:101C3000FFF7A0FE00210920FFF79CFE00210A20EB
:101C4000FFF798FE00210C20FFF794FE00210D20E5
:101C5000FFF790FE00210F20FFF78CFE00211020DF
:101C6000FFF788FE07211120FFF784FE00211220D4
:101C7000FFF780FE00211320FFF77CFEC820FEF74F
:101C80006DFB41F290611020FFF774FE40F22721B6
:101C90001120FFF76FFE3220FEF760FB1D2112209E
:101CA000FFF768FE3220FEF759FB4FF40061132066
:101CB000FFF760FE14212920FFF75CFE0B212B208B
:101CC000FFF758FE3220FEF749FB00212020FFF7E6
:101CD00051FE00212120FFF74DFE07213020FFF7A4
:101CE00049FE40F207713120FFF744FE0621322001
:101CF000FFF740FE40F204713520FFF73BFE41F64E
:101D000004713620FFF736FE04213720FFF732FE3C
:101D100000213820FFF72EFE40F206713920FFF730
:101D200029FE40F201713C20FFF724FE0F213D20E7
:101D3000FFF720FE00215020FFF71CFEEF2151206D
:101D4000FFF718FE00215220FFF714FE40F23F116A
:101D50005320FFF70FFE4FF41C516020FFF70AFEDF
:101D600001216120FFF706FE00216A20FFF702FE35
:101D700000218020FFF7FEFD00218120FFF7FAFD02
:101D800000218220FFF7F6FD00218320FFF7F2FDFE
:101D900000218420FFF7EEFD00218520FFF7EAFDFA
:101DA00010219020FFF7E6FD00219220FFF7E2FDD1
:101DB00003219320FFF7DEFD4FF488719520FFF794
:101DC000D9FD00219720FFF7D5FD00219820FFF7CE
:101DD000D1FD41F218010320FFF7CCFDBDE8104012
:101DE00040F273110720FFF7C5BD000010B586B0A3
:101DF00014216846FEF713FA0D48C16C41F0010149
:101E0000C164C06C4FF0904400F0010005900022C6
:101E10000E212046FEF79DFB0E2000900120019030
:101E20000020029069462046FEF7AAFA06B010BDCF
:101E30000010024070470A21B0FBF1F330B4B0FB50
:101E4000F1F2B3FBF1F401FB120201FB1431642344
:101E5000B0FBF3F030BCC0B2AFF300802DE9F04727
:101E600016468846814600254FF090442A460421B4
:101E70002046FEF76EFB2C4FBE5D300601D50122D9
:101E800000E0002202212046FEF763FB76000022DC
:101E900008212046FEF75DFB012208212046FEF7BF
:101EA00058FB6D1C082DE8DB17F80860002530068C
:101EB00001D5012200E0002202212046FEF749FB65
:101EC0007600002208212046FEF743FB012208216C
:101ED0002046FEF73EFB6D1C082DE8DB17F8096075
:101EE0000025300601D5012200E000220221204613
:101EF000FEF72FFB7600002208212046FEF729FB83
:101F0000012208212046FEF724FB6D1C082DE8DB8A
:101F1000002204212046FEF71CFB2046BDE8F047C6
:101F200001220421FEF715BB16000020FEF71CBBA2
:101F300010B5A4B038216846FEF771F914211FA826
:101F4000FEF76DF944210EA8FEF769F94FF4007011
:101F5000FEF78EFB01200090000401900220032474
:101F6000CDE907041421CDE90A100C900D900994D5
:101F70006846FEF74DFE08B172B6FEE70F20CDE9C8
:101F80001F0400242194229402211FA82394FEF709
:101F900019FD08B172B6FEE70848CDE90E04400706
:101FA0001D904FF440701E900EA8FEF7C7FB00284E
:101FB00001D072B6FEE724B010BD00000180080019
:101FC0000248016841F470010160704788ED00E04B
:101FD0000148FFF73FB80000E00000200148FFF78C
:101FE00039B800002C0100200148FFF733B8000089
:101FF0007801002010B5806A0021A0F85E10A0F8DA
:102000005610FFF72DF910BD01680A6822F490728E
:102010000A6001688A68094B1A408A60C16E01290A
:1020200004D101680A6822F010020A602021C0F879
:1020300088100021C166016770470000FEFFFFEFB6
:102040000148FFF70FB9000050000020FEE7000034
:102050000FB4084610B5064A02A900F02AF8044653
:1020600002A9002000F036F8204610BC5DF814FBF1
:10207000D52000080907090E002804DB00F1E02044
:1020800080F80014704700F00F0000F1E02080F8A5
:10209000141D704702E008C8121F08C1002AFAD1B7
:1020A00070477047002001E001C1121F002AFBD1D8
:1020B00070472DE9F04116460F460446002503E01F
:1020C0003946B047641C6D1C20780028F8D128469A
:1020D000BDE8F0810A68531C0B6010707047FEF772
:1020E0004BFAFFF725FFFFF7A5FCFFF7FFF9FFF716
:1020F0004BFBFFF77BFE0020FFF79EFA0020FFF767
:10210000C3FB4FF6FF70FFF7D3FBFFF71FFAFFF794
:1021100055FBFAE70000000000000000000000008E
:1021200000000000000000000000000000000000AF
:10213000000000000000000000000000000000009F
:10214000000000000000800180018001800180010A
:102150008001800180018001800180018001800177
:10216000000000008001800100000000000000006D
:102170000000000000000000CC00CC00CC00CC002F
:10218000CC00CC00000000000000000000000000B7
:10219000000000000000000000000000000000003F
:1021A000000000000000000000000000000000002F
:1021B000600C600C600C30063006FE1FFE1F3006FF
:1021C00038071803FE1FFE1F180318038C018C012B
:1021D0008C01000000008000E003F80F9C0E8C1CB6
:1021E0008C188C009800F801E007800E801C8C1879
:1021F0008C189C18B80CF00FE003800080000000E1
:10220000000000000000000000000E181B0C110C64
:1022100011061106110311039B018E01C038C06C19
:1022200060446044304430441844186C0C3800005A
:10223000000000000000E001F0033807180618064F
:102240003003F001F000F8009C310E33061E061C2E
:10225000061C063FFC73F021000000000000000097
:1022600000000000000000000C000C000C000C003E
:102270000C000C0000000000000000000000000046
:10228000000000000000000000000000000000004E
:10229000000000000000000200038001C000C00038
:1022A000600060003000300030003000300030004E
:1022B0003000300060006000C000C00080010003FA
:1022C00000020000000020006000C00080018001CA
:1022D00000030003000600060006000600060006D4
:1022E000000600060003000380018001C0006000BA
:1022F00020000000000000000000000000000000BE
:10230000C000C000D806F807E0013003380700001D
:1023100000000000000000000000000000000000BD
:1023200000000000000000000000000000000000AD
:1023300080018001800180018001FC3FFC3F800121
:102340008001800180018001000000000000000089
:10235000000000000000000000000000000000007D
:10236000000000000000000000000000000000006D
:1023700000000000000080018001000100018000D9
:10238000000000000000000000000000000000004D
:10239000000000000000000000000000E007E0076F
:1023A000000000000000000000000000000000002D
:1023B000000000000000000000000000000000001D
:1023C000000000000000000000000000000000000D
:1023D000000000000000C000C0000000000000007D
:1023E000000000000000000C000C000600060006C3
:1023F0000003000300038003800180018001C0000E
:10240000C000C0006000600000000000000000008C
:10241000000000000000E003F007380E180C0C1854
:102420000C180C180C180C180C180C180C180C188C
:10243000180C380EF007E003000000000000000058
:1024400000000000000000018001C001F0019801BF
:10245000880180018001800180018001800180016C
:102460008001800180018001000000000000000068
:10247000000000000000E003F80F180C0C180C1806
:1024800000180018000C000600038001C000600066
:1024900030001800FC1FFC1F0000000000000000BE
:1024A000000000000000E001F807180E0C0C0C0CF6
:1024B000000C0006C003C007000C001800180C1820
:1024C0000C18180CF807E0030000000000000000E2
:1024D000000000000000000C000E000F000F800D37
:1024E000C00C600C600C300C180C0C0CFC3FFC3F5A
:1024F000000C000C000C000C0000000000000000AC
:10250000000000000000F80FF80F180018000C0081
:10251000EC03FC071C0E001C0018001800180C1817
:102520001C0C180EF807E00300000000000000007B
:10253000000000000000C007F00F381C1818180039
:102540000C00CC03EC0F3C0E1C1C0C180C180C18C7
:10255000181C380EF007E003000000000000000027
:10256000000000000000FC1FFC1F000C000600061D
:10257000000380038001C001C000E0006000600033
:10258000700030003000300000000000000000004B
:10259000000000000000E003F007380E180C180CD3
:1025A000180C3806F007F007180C0C180C180C184B
:1025B0000C18380CF80FE0030000000000000000C9
:1025C000000000000000E003F007380E1C0C0C189F
:1025D0000C180C181C1C381EF81BE0190018000CF5
:1025E000000C1C0EF807F0010000000000000000C5
:1025F00000000000000000000000000000000000DB
:1026000080018001000000000000000000000000C8
:1026100000000000800180010000000000000000B8
:1026200000000000000000000000000000000000AA
:102630008001800100000000000000000000000098
:102640000000000080018001000100018000000006
:10265000000000000000000000000000000000007A
:10266000000000000010001C800FE003F8001800BC
:10267000F800E003800F001C0010000000000000C4
:10268000000000000000000000000000000000004A
:1026900000000000F81F000000000000F81F00000C
:1026A000000000000000000000000000000000002A
:1026B000000000000000000000000000000000001A
:1026C0000000000008003800F001C007001F0018DB
:1026D000001FC007F00138000800000000000000E3
:1026E000000000000000E003F80F180C0C180C1894
:1026F0000018000C000600038001C000C000C000EC
:1027000000000000C000C000000000000000000049
:102710000000000000000000E00718180420C22993
:10272000224A114409440944094409221113E20CC4
:10273000024004201818E00700000000000000001C
:1027400000000000000080038003C006C006C00631
:10275000600C600C301830183018F83FF83F1C70CF
:102760000C600C6006C006C0000000000000000005
:10277000000000000000FC03FC0F0C0C0C180C18EF
:102780000C180C0CFC07FC0F0C180C300C300C3027
:102790000C300C18FC1FFC070000000000000000BB
:1027A000000000000000C007F01F38381C300C701B
:1027B0000660060006000600060006000600066029
:1027C0000C701C30F01FE00700000000000000004B
:1027D000000000000000FE03FE0F060E061806189B
:1027E0000630063006300630063006300630061851
:1027F0000618060EFE0FFE03000000000000000099
:10280000000000000000FC3FFC3F0C000C000C002E
:102810000C000C00FC1FFC1F0C000C000C000C003A
:102820000C000C00FC3FFC3F00000000000000001A
:10283000000000000000F83FF83F180018001800E2
:1028400018001800F81FF81F1800180018001800CA
:102850001800180018001800000000000000000018
:10286000000000000000E00FF83F3C780E6006E03A
:1028700007C00300030003FE03FE03C007C006C039
:102880000EC03CF0F83FE00F000000000000000028
:102890000000000000000C300C300C300C300C300C
:1028A0000C300C30FC3FFC3F0C300C300C300C304A
:1028B0000C300C300C300C30000000000000000028
:1028C0000000000000008001800180018001800183
:1028D00080018001800180018001800180018001F0
:1028E00080018001800180010000000000000000E4
:1028F00000000000000000060006000600060006BA
:10290000000600060006000600060006000618067F
:1029100018063807F003E001000000000000000086
:1029200000000000000006300618060C060606032C
:102930008601C60066007600DE008E0106030606EC
:10294000060C0618063006600000000000000000BB
:1029500000000000000018001800180018001800FF
:1029600018001800180018001800180018001800A7
:1029700018001800F81FF81F0000000000000000F9
:102980000000000000000EE01EF01EF01EF036D821
:1029900036D836D836D866CC66CC66CCC6C6C6C65F
:1029A000C6C6C6C686C386C300000000000000007D
:1029B0000000000000000C301C303C303C306C301B
:1029C0006C30CC30CC308C310C330C330C360C36B4
:1029D0000C3C0C3C0C380C300000000000000000E7
:1029E000000000000000E007F81F1C380E700660B1
:1029F00003C003C003C003C003C003C003C006601C
:102A00000E701C38F81FE0070000000000000000F6
:102A1000000000000000FC0FFC1F0C380C300C30D4
:102A20000C300C300C18FC1FFC070C000C000C00C8
:102A30000C000C000C000C00000000000000000066
:102A4000000000000000E007F81F1C380E70066050
:102A500003E003C003C003C003C003C007E0066374
:102A60000E3F1C3CF83FE0F700C0000000000000F3
:102A7000000000000000FE0FFE1F06380630063082
:102A800006300638FE1FFE0706030606060C06186B
:102A90000618063006300660000000000000000046
:102AA000000000000000E003F80F1C0C0C180C18CC
:102AB0000C001C00F803E00F001E00380630063042
:102AC0000E301C1CF80FE0070000000000000000A2
:102AD000000000000000FE7FFE7F80018001800179
:102AE00080018001800180018001800180018001DE
:102AF00080018001800180010000000000000000D2
:102B00000000000000000C300C300C300C300C3099
:102B10000C300C300C300C300C300C300C300C30D5
:102B20000C301818F81FE00700000000000000003B
:102B300000000000000003600630063006300C186C
:102B40000C180C18180C180C380E300630067007CC
:102B500060036003C001C00100000000000000002D
:102B60000000000000000360C361C361C3616633FD
:102B7000663366336633663366336C1B6C1B6C1BC3
:102B80002C1A3C1E380E380E000000000000000019
:102B90000000000000000FE00C7018303018700CBE
:102BA000600EC00780038003C003E006700C301C79
:102BB00018180C300E6007E0000000000000000054
:102BC00000000000000003C006600C301C383818FC
:102BD000300C6006E007C0038001800180018001A5
:102BE00080018001800180010000000000000000E1
:102BF000000000000000FC7FFC7F00600030001837
:102C0000000C000600038001C000600030001800C6
:102C10000C000600FE7FFE7F0000000000000000A8
:102C2000000000000000E003E003600060006000BE
:102C30006000600060006000600060006000600094
:102C40006000600060006000600060006000E00301
:102C5000E003000000003000300060006000600011
:102C6000C000C000C000C0018001800180010003DD
:102C70000003000300060006000000000000000042
:102C8000000000000000E003E00300030003000375
:102C9000000300030003000300030003000300031C
:102CA0000003000300030003000300030003E0032C
:102CB000E003000000000000C001C00160036003E9
:102CC000600330063006180C180C000000000000ED
:102CD00000000000000000000000000000000000F4
:102CE00000000000000000000000000000000000E4
:102CF00000000000000000000000000000000000D4
:102D0000000000000000FFFFFFFF000000000000C7
:102D10000000000000000C000C000C000C000C0077
:102D20000C00000000000000000000000000000097
:102D30000000000000000000000000000000000093
:102D40000000000000000000000000000000000083
:102D5000F003F8071C0C0C0C000FF00FF80C0C0C17
:102D60000C0C1C0FF80FF018000000000000000011
:102D700000000000000018001800180018001800DB
:102D8000D803F80F380C181818181818181818182D
:102D90001818380CF80FD8030000000000000000DD
:102DA0000000000000000000000000000000000023
:102DB000C003F007300E180C180018001800180097
:102DC000180C300EF007C0030000000000000000E7
:102DD000000000000000001800180018001800187B
:102DE000C01BF01F301C18181818181818181818BD
:102DF0001818301CF01FC01B00000000000000006D
:102E000000000000000000000000000000000000C2
:102E1000C003F00F300C1818F81FF81F1800180026
:102E20003818301CF00FC007000000000000000040
:102E3000000000000000800FC00FC000C000C000F4
:102E4000F007F007C000C000C000C000C000C00014
:102E5000C000C000C000C000000000000000000072
:102E60000000000000000000000000000000000062
:102E7000E00DF80F180E0C0C0C0C0C0C0C0C0C0CC0
:102E80000C0C180EF80FE00D000C0C0C1C06F807CB
:102E9000F0010000000018001800180018001800C9
:102EA000D807F80F381C18181818181818181818F8
:102EB0001818181818181818000000000000000052
:102EC000000000000000C000C00000000000000082
:102ED000C000C000C000C000C000C000C000C000F2
:102EE000C000C000C000C0000000000000000000E2
:102EF000000000000000C000C00000000000000052
:102F0000C000C000C000C000C000C000C000C000C1
:102F1000C000C000C000C000C000C000C000F80079
:102F20007800000000000C000C000C000C000C00ED
:102F30000C0C0C060C038C01CC006C00FC009C01FA
:102F40008C030C030C060C0C0000000000000000B9
:102F5000000000000000C000C000C000C000C000B1
:102F6000C000C000C000C000C000C000C000C00061
:102F7000C000C000C000C000000000000000000051
:102F80000000000000000000000000000000000041
:102F90007C3CFF7EC7E383C183C183C183C183C1FE
:102FA00083C183C183C183C1000000000000000011
:102FB0000000000000000000000000000000000011
:102FC0009807F80F381C1818181818181818181817
:102FD0001818181818181818000000000000000031
:102FE00000000000000000000000000000000000E1
:102FF000C003F00F300C18181818181818181818E3
:103000001818300CF00FC003000000000000000092
:1030100000000000000000000000000000000000B0
:10302000D803F80F380C181818181818181818188A
:103030001818380CF80FD8031800180018001800DA
:103040001800000000000000000000000000000068
:10305000C01BF01F301C181818181818181818184A
:103060001818301CF01FC01B00180018001800189A
:103070000018000000000000000000000000000038
:10308000B007F00370003000300030003000300036
:103090003000300030003000000000000000000070
:1030A0000000000000000000000000000000000020
:1030B000E003F003380E180C3800F003C007000CD2
:1030C000180C380EF007E0030000000000000000BC
:1030D00000000000000000008000C000C000C00030
:1030E000F007F007C000C000C000C000C000C00072
:1030F000C000C000C0078007000000000000000002
:1031000000000000000000000000000000000000BF
:10311000181818181818181818181818181818182F
:103120001818381CF01FE019000000000000000013
:10313000000000000000000000000000000000008F
:103140000C18180C180C180C3006300630066003EA
:1031500060036003C001C001000000000000000027
:10316000000000000000000000000000000000005F
:10317000C141C141C36163636363636336363636FD
:1031800036361C1C1C1C1C1C00000000000000002B
:10319000000000000000000000000000000000002F
:1031A0001C38381C300C6006600360036003600349
:1031B0006006300C381C1C380000000000000000C5
:1031C00000000000000000000000000000000000FF
:1031D0001830301830187018600C600CE00CC00605
:1031E000C00680038003800380018001C001F000DD
:1031F000700000000000000000000000000000005F
:10320000FC1FFC1F000C000600038001C0006000D2
:1032100030001800FC1FFC1F000000000000000030
:1032200000000000000000038001C000C000C000DA
:10323000C000C000C00060006000300060004000BE
:10324000C000C000C000C000C000C000800100037A
:1032500000000000000080018001800180018001E9
:103260008001800180018001800180018001800156
:103270008001800180018001800180018001800146
:103280008001000000006000C000C00180018001DA
:10329000800180018001000300030006000300019B
:1032A000800180018001800180018001C0006000F8
:1032B000000000000000000000000000000000000E
:1032C00000000000F010F81F080F000000000000D0
:1032D00000000000000000000000000000000000EE
:1032E00000000000000000000000000001020304D4
:1032F0000607080914330008000000203800000009
:10330000942000084C33000838000020D805000045
:10331000A4200008000000000000000000000000E1
:10332000000000000000FFFF00003F065B4F666DDD
:103330007D077F6F777C395E797100001000000097
:0C33400001000000000000000024F40068
:04000005080001D915
:00000001FF
