:020000040800F2
:1000000018060020ED010008E7380008932E0008CC
:10001000E53800086B0A0008DD4C0008000000000D
:10002000000000000000000000000000A13C0008EB
:100030006D0A000800000000E9380008293E0008A9
:10004000070200080702000807020008070200086C
:10005000070200080702000807020008070200085C
:10006000070200080702000807020008070200084C
:10007000070200080702000807020008070200083C
:10008000070200080000000007020008070200083D
:10009000070200080702000807020008070200081C
:1000A000070200080702000807020008070200080C
:1000B00007020008D93E00080702000807020008EE
:1000C00007020008070200080702000807020008EC
:1000D00007020008BD4B00080702000807020008DD
:1000E00007020008070200080702000807020008CC
:1000F00007020008070200080702000800000000CD
:1001000000000000070200080000000007020008CD
:1001100007020008000000000702000807020008AC
:10012000070200080702000807020008070200088B
:10013000070200080000000000000000070200089D
:10014000070200080702000800000000000000008D
:10015000000000000000000000000000000000009F
:10016000000000000000000000000000070200087E
:10017000070200080000000000000000000000006E
:10018000000000000702000800000000000000005E
:10019000000000000000000000000000000000005F
:1001A000000000000000000007020008070200082D
:1001B000070200080702000807020008000000000C
:1001C000000000000702000800000000000000001E
:1001D0000702000807020008DFF80CD000F02AFB35
:1001E00000480047C156000818060020064880470E
:1001F00006480047FEE7FEE7FEE7FEE7FEE7FEE70C
:10020000FEE7FEE7FEE7FEE7C93E0008D901000869
:100210002DE9F05F0546002092469B46884606463B
:10022000814640241BE0284641464746224600F0CE
:1002300085F953465A46C01A914110D311461846C3
:10024000224600F06CF92D1A67EB01084F46224652
:100250000120002100F063F917EB00094E41201E38
:10026000A4F10104DFDC484631462A464346BDE896
:10027000F09FD2B201E000F8012B491EFBD270477B
:100280000022F6E710B513460A4604461946FFF762
:10029000F0FF204610BD2DE9FE4F81EA030404F073
:1002A000004421F0004100944FF0000B23F0004384
:1002B00050EA01045ED052EA03045BD0C3F30A544F
:1002C000C1F30A552C44A4F2F3340194A0FB025468
:1002D000C1F3130141F48011C3F3130343F48013FA
:1002E00001FB024400FB034E840A970A44EA81544E
:1002F00047EA8357A4FB076802958D0A05FB07852B
:100300004FEA932C04FB0C542705029D4FEA065834
:1003100047EA1637B5EB08056EEB070C870E920E11
:1003200047EA811742EA8312A7FB0201B6EB0B01F1
:1003300064EB00042B0D43EA0C335E1844EB1C50B5
:10034000DA465146E7FB0201C5F313044FEA0B33CB
:1003500043EA14534FEA0432019C43EA0603A4F132
:100360000C040294009CCDE900B400F03DF903B008
:10037000BDE8F08F00200146F9E72DE9F04D81EA54
:10038000030404F0004B21F0004514464FF0000A2E
:1003900023F0004150EA050220D054EA01021DD0AA
:1003A000C5F30A570246C5F31303C1F31300C1F3A3
:1003B0000A5640F4801543F48013A7EB0608101B7F
:1003C000D64608F2FD3873EB050002D308F10108A8
:1003D00001E092185B41B8F1000F03DA00200146FA
:1003E000BDE8F08D00204FF48011064684460EE0F3
:1003F000171B73EB050705D3121B63EB05030643BD
:100400004CEA010C49084FEA300092185B4150EA6F
:100410000107EDD152EA030012D082EA040083EA18
:100420000501084305D0101BAB4106D20122002371
:1004300006E000224FF0004302E06FF0010253108B
:100440001AEB06004CEB085110EB0A0041EB0B01D4
:10045000BDE8F04D00F0B9B80EB5C10F80EAE0700C
:100460000844CA07002140F233438DE80E000A46D3
:100470000B4600F0B9F803B000BD0EB540F23341B1
:1004800002910021CDE900110A460B4600F0ACF8BC
:1004900003B000BD00F0004230F000400AD0C10DB2
:1004A00001F56071C0F3160042EA0151C20840072D
:1004B0001143704700200146704701F0004330B4FB
:1004C00021F0004150EA010206D00A0DA2F5607247
:1004D000C1F31301002A02DC30BC00207047440F36
:1004E00044EAC104C100E01830BC00EBC25000F087
:1004F00035B830B50B46014600202022012409E022
:1005000021FA02F59D4205D303FA02F5491B04FACC
:1005100002F52844151EA2F10102F1DC30BD202AAB
:1005200004DB203A00FA02F1002070479140C2F14A
:10053000200320FA03F3194390407047202A04DB7C
:10054000203A21FA02F00021704721FA02F3D0404C
:10055000C2F1200291400843194670470029A8BF04
:100560007047401C490008BF20F00100704710B4DC
:10057000B0FA80FC00FA0CF050EA010404BF10BC91
:10058000704749B1CCF1200421FA04F411FA0CF1BE
:1005900018BF012121430843A3EB0C01CB1D4FEAF7
:1005A00000614FEA102042BF002010BC704700EBF2
:1005B000C35010440029A4BF10BC7047401C490020
:1005C00008BF20F0010010BC704710B5141E73F175
:1005D000000408DA401C41F1000192185B411A4303
:1005E00001D120F0010010BD2DE9F04D92469B464F
:1005F00011B1B1FA81F202E0B0FA80F220329046F5
:10060000FFF78DFF04460F4640EA0A0041EA0B015E
:1006100053465A46084313D0114653EA010019D0F5
:10062000C8F140025046FFF789FF05460E46504686
:1006300059464246FFF773FF084305D0012004E006
:1006400020463946BDE8F08D0020054346EAE076B5
:100650002C4337430A986305E40AA0EB0800002204
:10066000FD0A44EA47540A3002D500200146E9E772
:10067000010510196941DDE9084500196941BDE826
:10068000F04DA2E72DE9FE4F804681EA0300C00F3E
:100690000C46009021F0004123F00045B8EB020029
:1006A000A94105D24046214690461C460B460246CB
:1006B00023F00040104347D0270DC7F30A00C3F3CF
:1006C0000A510290401A019040286BDAC3F31300DC
:1006D00040F4801B0098924620B10023D2EB030A1D
:1006E00063EB0B0B01985946C0F140025046FFF7EF
:1006F00016FF06460D4650465946019A00F0ACF8E2
:1007000010EB08006141002487EA115284EAE77384
:100710001A4340D0009A62B3019A012A4FEA075265
:1007200015DC001B61EB02014FF0004202EA0752A8
:10073000CDE90042001C41F5801132462B46FFF7FF
:1007400053FF03B0BDE8F08F40462146F9E7001B98
:1007500061EB0201001C41F5801300185B41201879
:10076000A2F5001747EB030140EAD570B6196D41B9
:1007700011E06D084FEA360645EAC0754FEA0752A8
:10078000001B61EB0201001C41F5801149084FEA92
:1007900030000019514132462B4603B0BDE8F04FFE
:1007A000FFF713BF0098012240000023D0EB0202A4
:1007B00063EBE073009821464FEAE074B8EB000069
:1007C00061EB0401E9E783F000435BE781F000415E
:1007D00058E7C1F30A52C1F3130140F2FF3341F469
:1007E00080119A4202DA00200146704740F23343FA
:1007F0009A42A2F2334202DC5242FFF79FBEFFF759
:100800008EBE000030B5041E71F1000404DB4FF011
:100810000044404264EB0101141E73F1000405DB47
:100820001C464FF00043524263EB0403994208BF59
:10083000904230BD064C074D06E0E06840F00103F1
:1008400094E8070098471034AC42F6D3FFF7C8FC91
:100850005C6A00087C6A0008202A06DBCB17203A75
:1008600041FA02F043EAE07306E041FA02F3D040B5
:10087000C2F12002914008431946704770B51B48E9
:100880001949002401608902C0E90114C4600425EB
:100890000461C0E90545047744770121016280F8CD
:1008A0002440C462046380F83840C46380F8404048
:1008B00000F074FB08B100F0E8F80C480C4920384F
:1008C00001600621C0E901147F214461C0E90315DC
:1008D0000146203000F04CF9002803D0BDE87040FC
:1008E00000F0D3B870BD000000010050D00000201F
:1008F0000000524770B504460068816811F0010F8E
:100900002DD18168174A11421AD18168D5432940F7
:10091000491C816000F05AFE06461BE0816811F018
:10092000010F03D181682940491C816000F04EFE0F
:10093000801B02280ED920680068C043C00709D078
:10094000E06D40F01000E065206E40F00100206690
:10095000012070BD20680168C943C907DED10020AD
:1009600070BD00003F0000800B4910B509480860C9
:1009700001F1200000F0FCF80748203000F03AFCBC
:10098000012000F023FD0448203000F003FB80B27A
:1009900010BD000000005247B00000200B4910B508
:1009A0000948086001F1200000F0E2F80748203013
:1009B00000F020FC012000F009FD0448203000F088
:1009C000E9FA80B210BD000000209036B00000208F
:1009D00070B515460E46044602F0F0FAA02002F06B
:1009E000AEFA02F021FB304602F0A9FA02F01CFB3D
:1009F00002F0E4FAA12002F0A2FA02F015FB0CE0EA
:100A00002DB102F05DFA207002F081FA04E002F0EC
:100A100057FA207002F0BAFA641C6D1EEDB2EFD2E4
:100A2000BDE8704002F0E5BA70B515460E460446C2
:100A300002F0C4FAA02002F082FA02F0F5FA304681
:100A400002F07DFA02F0F0FA05E0207802F077FA81
:100A500002F0EAFA641C6D1EEDB2F6D202F0C9FA99
:100A6000BDE87040052000F0B1BCFEE770470022F1
:100A700040F6B83306E00021491C89B29942FBD305
:100A8000521C92B28242F6D3704772B6FEE7000063
:100A9000F0B587B014216846FFF7F2FB3048C16C0F
:100AA00041F00401C164C16C01F004010591C16C05
:100AB00041F02001C164C16C01F020010591C16CBD
:100AC00041F00101C164C16C01F001010591C16CEB
:100AD00041F00201C164C16C01F002010591C16CD9
:100AE00041F00801C164C06C1E4E00F008004FF4D4
:100AF0007F44059001222146304600F062FD1A4FE6
:100B000001220421384600F05CFD0125CDE90045B5
:100B10000024029469463046039400F069FCCDE954
:100B2000005469464FF09040029400F061FC0720A9
:100B3000CDE9000469460D48029400F059FC0420F8
:100B40000090CDE9015469463846039400F050FC0A
:100B500000220421384600F034FD07B0F0BD00004B
:100B60000010024000080048000C00480004004843
:100B70002DE9F84F00270446009790F85800DFF859
:100B8000E0930D46B846012811D0012684F858603C
:100B9000206802F017FD60B1E06D40F02000E065D4
:100BA0005FF0010784F858803846BDE8F88F0220CE
:100BB000FBE7D5E900210C23206803EA91131844D0
:100BC000036B01F01F014FF01F0C0CFA01FCC2F384
:100BD000846223EA0C038A4013430363206802F013
:100BE000F1FC8246206802F0E9FC5AEA00003CD1A0
:100BF000AA6829682068B2F1004F37D002F0E6FCFD
:100C00002068416921F00041416120686969C2683A
:100C1000C2F3C102520091402A69042A31D000EB8C
:100C200082002B68026EDFF83CC303F0F84302EA4F
:100C30000C020B431A4342F00041016620682A6906
:100C4000A96900EB8200026E22F080720A430266FC
:100C5000297F22682869012910D0002102EB800039
:100C6000026E22F000720A4302667DE0002202F06A
:100C7000ADFC2068416941F00041C5E74FF00071CB
:100C8000ECE7002102F094FC400320684FF00001E3
:100C900072D002F08DFC90FAA0F0B0FA80F12868D2
:100CA00042036ED090FAA0F0B0FA80F0814204D1F5
:100CB00000221146206802F098FC0121206802F011
:100CC00077FC400320684FF001015DD002F070FC1A
:100CD00090FAA0F0B0FA80F12868420359D090FA57
:100CE000A0F0B0FA80F0814204D1002201212068F6
:100CF00002F07BFC0221206802F05AFC40032068CD
:100D00004FF0020148D002F053FC90FAA0F0B0FA84
:100D100080F12868420344D090FAA0F0B0FA80F045
:100D2000814204D100220221206802F05EFC0321EE
:100D3000206802F03DFC400320684FF0030133D0EF
:100D400002F036FC90FAA0F0B0FA80F12868420375
:100D50002FD090FAA0F0B0FA80F0814204D10022A6
:100D60000321206802F041FC2068816811F0010F26
:100D700022D0ACE000E004E002F01AFCC0F3846191
:100D80008DE7C0F3846091E702F012FCC0F3846148
:100D9000A2E7C0F38460A6E702F00AFCC0F3846116
:100DA000B7E7C0F38460BBE702F002FCC0F38461E4
:100DB000CCE7C0F38460D0E72A7B296850F8B03FC5
:100DC000C1F3120C23EA0C0302F0180C664A22FA53
:100DD0000CF20A4013430360E968494577D128685B
:100DE00041031CD090FAA0F1B1FA81F1491C01F045
:100DF0001F0109294FEA403132D8002912D000BF23
:100E000090FAA0F1B1FA81F101F1010101F01F01A5
:100E100006FA01F609D100BFC0F3846109E0C0F30E
:100E20008461E3E7C0F38461EEE790FAA0F1B1FAE0
:100E300081F101F1010101F01F0146EA816102D156
:100E4000C0F3846003E090FAA0F0B0FA80F000F103
:100E5000010000F01F0000EB400041EA005132E0C9
:100E600000290ED090FAA0F1B1FA81F101F101014F
:100E700001F01F0106FA01F606D100BFC0F384613C
:100E800006E0C0F38461F1E790FAA0F1B1FA81F1D4
:100E900001F1010101F01F0146EA816102D1C0F3B5
:100EA000846003E090FAA0F0B0FA80F000F1010055
:100EB00000F01F002D4A00EB400002EB005041EA19
:100EC000000141F00071AA68206802F07FFB284809
:100ED0002A6802423FF466AE26488168264B01F03C
:100EE000E0719A4202D0254B9A421CD10B021AD4CF
:100EF0002268B2F1A04F7FF455AE826841F4000140
:100F000022F0E0720A4382601D481E490068B0FB6F
:100F1000F1F0401C00EB4000800000E0401E00901B
:100F20000028FBD13EE6184D184BAA4207D1CD014F
:100F300005D422689A42F5D041F0807109E0144D41
:100F4000AA42EFD14A02EDD422689A42EAD041F493
:100F50008001826822F0E0720A43826022E600008B
:100F600000007F4000F0FF03FFFF0700000020FEAD
:100F70000000088000030050000021C31000C09052
:100F800060000020400D0300000052C70001005027
:100F9000000084CB0068006C70470000F8B54FF08B
:100FA000000504002E46009502D0E06D10B107E068
:100FB0000120F8BD204600F0EFF8266684F858605E
:100FC00020688168C1F3407119B181686A4A114093
:100FD000816020688168C1F3007189B98168674ABE
:100FE000114041F080518160654866490068B0FB5E
:100FF000F1F04000801C00E0401E00900028FBD172
:1010000020688168C1F3007141B9E16D41F01001C0
:10101000E165216E41F001012166012502F0D2FA5D
:10102000E16DC90600D430B1E06D40F01000E0651C
:1010300001252846F8BDE06D20F4807040F00200E4
:10104000E0652068806810F0010F11D14FF0A040DA
:1010500080684D4900F00100896801F001010843F2
:1010600006D14A486168826822F47C120A43826091
:10107000E168E06B627F0843A16841EA42310843BE
:1010800094F8241040EA0140012904D1218D404AFE
:1010900002EB41410843E16A29B101F47871226B06
:1010A000014342EA01002168CA683A4B1A400243F0
:1010B000CA6020680169626B21F0406111430161DF
:1010C000206802F07FFA0646206802F077FA304383
:1010D0002ED1207F94F83810800340EA4102206826
:1010E000C16844F2020399431143C160206900289A
:1010F000206801690AD041F480310161206850F80C
:10110000C01F22696FF30D01114307E021F4803104
:101110000161206850F8C01F6FF30D01016094F861
:10112000400001280CD02068016921F00101016113
:10113000606901282068016B21F00F0111D013E0D4
:10114000D4E911010843D4E913121143084321687B
:101150000A6940F2FC739A43104340F001000861B1
:10116000E6E7226A521E11430163E06D20F002009F
:1011700040F00100E0655CE7C0FFFF5FC0FFFF7F5C
:1011800060000020400D03000001005000030050EB
:101190000000FEFF0740F0FF10B586B004461421A2
:1011A0006846FFF76DF81149206888421BD1104846
:1011B000C16C41F40051C164C16C01F4005105914E
:1011C000C16C41F00101C164C06C694600F00100CE
:1011D00005903020009003200190002002904FF0F5
:1011E000904000F005F906B010BD0000000100506D
:1011F000001002402DE9F04104463848806800F0B4
:101200001F05206802F0DEF918B102210846BDE88A
:10121000F08194F8580001280CD0012084F858007F
:101220002046FFF767FB01004FF0000304D084F86D
:101230005830EBE70220EAE7E06D40F601629043A8
:1012400040F48070E065264A20684FF0A046904246
:1012500001D1374600E00746874200D01DB9E76D4F
:1012600027F48017E765E76DFF0404D5276E27F0A4
:101270000607276600E023661C27076084F85830BD
:101280002068904201D1334600E00346834215D0E6
:10129000A5B1052D12D0092D10D0E36D43F48013B4
:1012A000E365904200D13046C0688001AED5E06D64
:1012B00020F4005040F48050E065A7E7C268920136
:1012C00005D5E26D22F4005242F48052E265826854
:1012D000044B1A40121D826098E700000003005082
:1012E00000010050C0FFFF7F10B590F825300021AD
:1012F0000122022B03D00421C163012122E00368F3
:101300001C6824F00E041C60836C1C6824F4807438
:101310001C6003681C6824F001041C6090F84430D1
:10132000046C03F01F0302FA03F36360D0E9133483
:101330005C60436D33B11C6824F480741C60D0E998
:1013400016345C6080F82520002280F824200846AE
:1013500010BD70B590F82520002401212346022AF3
:1013600007D00422C26380F8251080F824300124BD
:1013700029E00268156825F00E05156002681568F9
:1013800025F001051560826C156825F480751560DF
:1013900090F84420056C02F01F0201FA02F26A6024
:1013A000D0E913255560426D32B1156825F480757A
:1013B0001560D0E91625556080F8251080F8243096
:1013C000816B01B18847204670BD000070B50446AE
:1013D00000F0FCF80546601C02D004484068044454
:1013E00000F0F4F8401BA042FAD370BD5400002076
:1013F0002DE9FC4FDFF8A0A1002301250AF1040B21
:1014000003244FF00F0C0BF1040EBDE005FA03F6B8
:1014100032406FD04F68012F05D0022F03D0112F1B
:1014200001D0122F17D1D0F808905F0004FA07F806
:1014300029EA08090097D1F80C8008FA07F848EA69
:101440000908C0F808804768B7430E79C6F300164C
:101450009E403E434660C6684FEA430804FA08F7D8
:10146000BE4301978F6807FA08F73743C7604E6895
:10147000022E01D0122E13D1DE0800EB8606009654
:10148000366A5F07FF0E0CFA07F926EA0906D1F85B
:10149000109009FA07F949EA0609009EC6F820905B
:1014A0000668019FBE430F7907F0030707FA08F7A4
:1014B000374307604E68F60065D5384E376E47F003
:1014C00001073766366E23F0030706F00106009623
:1014D000334E3E44B146B6689F074FEA17780CFA80
:1014E00008F7BE43B0F1904F05D02E4FB84204D15B
:1014F000012717E047E0002714E02B4FB84201D145
:1015000002270FE0294FB84201D103270AE0284FF4
:10151000B84201D1042705E0264FB84201D1052782
:1015200000E0062707FA08F73743C9F80870DAF829
:1015300000605746D1F8048096435FEAC83800D56A
:1015400016433E60DBF800605F46D1F804809643A6
:101550005FEA883800D516433E60DEF800607746C3
:10156000D1F8048096435FEAC82800D516433E6050
:10157000094F0C373E68D1F8048096435FEA88280B
:1015800000D516433E605B1C0A6832FA03F67FF40E
:101590003DAFBDE8FC8F0000000401400010024098
:1015A000000001400004004800080048000C00480A
:1015B00000100048001400480069084000D00120D5
:1015C00070470AB181617047816270470148806845
:1015D00070470000540000200248816842681144AE
:1015E000816070475400002010B50024032000F0F3
:1015F00073F80F2000F008F808B1012401E000F0B2
:1016000025F8204610BD000070B50E4E054600249A
:10161000706898B14FF47A71B1FBF0F00A4909682B
:10162000B1FBF0F000F064FD40B9102D06D20022AD
:101630002946501E00F030F8356000E001242046B5
:1016400070BD000054000020600000200A4882B0F5
:10165000016E41F001010166016E01F0010100918E
:10166000816D41F080518165806D00F08050009067
:1016700002B000F0A1B8000000100240002809DB11
:1016800000F01F02012191404009800000F1E0209C
:10169000C0F8001170470000F0B40E4B1B680C46F8
:1016A000C3F30223C3F10705042D00D90425191D36
:1016B000072901D2002300E0DB1E012606FA05F10E
:1016C000491E214099409E40761E16403143F0BC91
:1016D00003F02ABB0CED00E0064900F007020868A1
:1016E0004FF6FF03184040EA0220034A1043086007
:1016F000704700000CED00E00000FA052B492C4B70
:101700000A6832214A432B4940B1B0F5007F08688E
:1017100029D020F4C06040F480602CE00868C0F359
:101720004120022804D051F8800F20F4807022E07C
:10173000D1F8800020F48070C1F88000086820F49F
:10174000C06040F400700860B2FBF3F0401C00E0A1
:10175000401E4A69520501D50028F9D14869400563
:101760000AD503207047C0F34120022806D051F863
:10177000800F40F48070086000207047D1F880002E
:1017800040F48070C1F88000086820F4C06040F424
:1017900000700860B2FBF3F0401C00E0401E4A6994
:1017A0005205DBD50028F9D1D8E700006000002001
:1017B00040420F00007000400248816841F48041BF
:1017C00081607047007000402DE9F84304460068CE
:1017D00000269D4D00035ED5A86D0027C00008D4EB
:1017E000A86D40F08050A865A86D012700F08050DA
:1017F0000090DFF85892D9F8001041F48071C9F8D0
:101800000010FFF7E3FE804606E000BFFFF7DEFEB4
:10181000A0EB080002282BD8D9F80000C005F5D5A8
:10182000D5F8900010F4407014D0216C814211D092
:10183000D5F89000D5F8901020F4407041F4803134
:10184000C5F89010D5F8901021F48031C5F89010AB
:10185000C5F89000C00711D0FFF7B8FE804641F2EE
:10186000883907E0FFF7B2FEA0EB0801494501D92E
:1018700003260BE0D5F890008007F3D5D5F890004B
:10188000216C20F440700843C5F890001FB1A86D8A
:1018900020F08050A8652078C00707D0D5F88800D0
:1018A000616820F003000843C5F8880020788007AD
:1018B00007D5D5F88800A16820F00C000843C5F8CA
:1018C00088002078400707D5D5F88800E16820F027
:1018D00030000843C5F888002078000707D5D5F800
:1018E0008800216920F0C0000843C5F888002078EE
:1018F000800607D5D5F88800616920F44060084368
:10190000C5F888002078400607D5D5F88800A16979
:1019100020F440500843C5F888002078000607D519
:10192000D5F88800E16920F440400843C5F88800F4
:101930002088C00507D5D5F88800216A20F44030FA
:101940000843C5F888002088800507D5D5F88800A9
:10195000616A20F440200843C5F8880020884005CB
:101960000FD5D5F88800A16A20F440100843C5F8C7
:101970008800A06AB0F5801F03D1E86840F48010A9
:10198000E860208800050FD5D5F88800E16A20F4CA
:1019900040000843C5F88800E06AB0F5800F03D125
:1019A000E86840F48010E8602088C0040FD5D5F8BE
:1019B0008800216B20F040700843C5F88800206B38
:1019C000B0F1807F03D1E86840F48010E86020889F
:1019D0004FF0006180040ED5D5F88800626B20F0CE
:1019E00040601043C5F88800606B884203D1E86806
:1019F00040F48010E860208840040ED5D5F88800B7
:101A0000A26B20F040601043C5F88800A06B8842AC
:101A100003D1E86840F48010E860208800040FD506
:101A2000D5F88800E16B20F040500843C5F88800E5
:101A3000E06BB0F1805F03D1E86840F48030E8608B
:101A40003046BDE8F88300000010024000700040FE
:101A50002DE9F0470E4605004FF0000725D0DFF8CE
:101A6000AC81D8F8000000F00F00B0420CD2D8F8DA
:101A7000001021F00F013143C8F80010D8F8000021
:101A800000F00F00B04210D12968614CC80741F244
:101A9000883A5AD06868DFF87C91032808D0022879
:101AA00020682DD0400500282CDB0120BDE8F08700
:101AB00020688001F9D5E06800F00302E068C0F317
:101AC0000310401C032A19D0534A00BFB2FBF0F0A8
:101AD000E268C2F306225043E268C2F34162521C3C
:101AE0005200B0FBF2F0484517D9A06810F0F00F93
:101AF0000CD0880711D5A86840B10EE0474AE5E749
:101B00008003D0E700F0B6F8484506D9A06820F079
:101B1000F00040F08000A0608027A068696820F095
:101B200003000843A060FFF751FD814606E000BFB7
:101B3000FFF74CFDA0EB090151453AD8A068696850
:101B400000F00C00B0EB810FF2D12868810714D5AA
:101B5000400703D5A06840F4E060A0602878000743
:101B600005D5A06820F4605040F4E060A060A06853
:101B7000A96820F0F000084304E0802F03D1A0689A
:101B800020F0F000A060D8F80010404601F00F01EE
:101B9000B14216D9016821F00F0131430160FFF70E
:101BA00015FD074607E000BFFFF710FDC11B5145BB
:101BB00001D903207AE7D8F8000000F00F00B04206
:101BC000F2D12878400705D5A068E96820F4E060E4
:101BD0000843A0602878000706D5A068296920F48A
:101BE000605040EAC100A06000F044F8A1680C4ACF
:101BF000C1F30311515C01F01F01C840094908609D
:101C000009480068BDE8F047FFF7FEBC002002402D
:101C10000010024000B4C4040024F40000366E0139
:101C2000446A00086000002054000020054806496E
:101C300000688968054AC1F30221515C01F01F0167
:101C4000C84070476000002000100240546A00083D
:101C50000548064900688968054AC1F3C221515CFC
:101C600001F01F01C84070476000002000100240D2
:101C7000546A0008184910B58868C0F381021748F3
:101C8000012A0BD08A68164BC2F38102022A06D0C1
:101C90008A68C2F38102032A03D0002010BD1846CF
:101CA00010BDCA6802F00304CA68C2F30312521CD2
:101CB000032C02D0B0FBF2F001E0B3FBF2F0CA68F3
:101CC000C968C2F306225043C1F34161491C49006F
:101CD000B0FBF1F010BD0000001002400024F40041
:101CE00000366E012DE9F84304007AD02078FA4DD1
:101CF000C00747D0A868E96800F00C0001F00301B4
:101D00000C2802D0082817D001E0032914D06068FD
:101D1000B0F5803F17D0B0F5A02F286817D020F479
:101D200080302860286820F4802028606068E0B156
:101D3000FFF74CFC064614E02868800322D5606853
:101D40000028D2D01EE0286840F48030EDE740F44F
:101D500080202860F7E700BFFFF738FC801B64286D
:101D600070D828688003F7D50CE0FFF72FFC0646F3
:101D700005E000BFFFF72AFC801B6428F0D8286824
:101D80008003F7D4207880074CD5A868E96800F074
:101D90000C0001F003010C2802D004280DD001E052
:101DA00002290AD0E068002828682BD040F480700F
:101DB0002860FFF70BFC064619E02868400502D5AD
:101DC000E068002891D06868217C20F0FE4040EA5D
:101DD00001606860C1480068FFF716FC002800D168
:101DE00020E076E1FFF7F2FB801B0228B8D82868D4
:101DF0004005F7D56868217C20F0FE4040EA01608C
:101E000068600FE020F480702860FFF7DFFB064673
:101E100005E000BFFFF7DAFB801B0228A0D8286886
:101E20004005F7D42078000729D560690028D5F847
:101E3000940013D040F00100C5F89400FFF7C6FBF2
:101E4000064606E090E000BFFFF7C0FB801B0228BB
:101E500086D8D5F894008007F6D510E020F0010070
:101E6000C5F89400FFF7B2FB064604E0FFF7AEFBAF
:101E7000801B022878D8D5F894008007F6D4207803
:101E8000400761D5A86D0026C00008D4A86D40F0B9
:101E90008050A865A86D012600F080500090904801
:101EA0000168C90511D40168804641F48071016060
:101EB000FFF78CFB074604E0FFF788FBC01B0228F6
:101EC00052D8D8F80000C005F6D5A068012815D072
:101ED0000528D5F8900016D020F00100C5F8900034
:101EE000D5F8900020F00400C5F89000A06841F2F9
:101EF0008838B8B1FFF76AFB07460EE0D5F89000C6
:101F000040F00100F0E740F00400C5F89000F5E76C
:101F1000FFF75CFBC11B414526D8D5F89000800730
:101F2000F6D50CE0FFF752FB074604E0FFF74EFB47
:101F3000C11B414518D8D5F890008007F6D41EB1D2
:101F4000A86D20F08050A8652078800629D5A0696A
:101F50000028D5F8980013D040F00100C5F898008B
:101F6000FFF734FB064606E077E000BFFFF72EFBE5
:101F7000801B022877D8D5F898008007F6D510E0A6
:101F800020F00100C5F89800FFF720FB064604E0AA
:101F9000FFF71CFB801B022865D8D5F89800800746
:101FA000F6D4E069F0B3A968C1F38101032961D0D7
:101FB0000228286820F0807028600BD0E86820F0A4
:101FC0000300E860E86847490840E860FFF7FEFA68
:101FD00004464BE0FFF7FAFA064604E0FFF7F6FA8C
:101FE000801B02283FD828688001F7D4F4E9080153
:101FF0006FF00F0202EB01110843218A52044908D5
:1020000002EB4151A26841EA02210843217D4FF0D1
:102010007E42490802EB41610843217B40EAC160EE
:10202000E96800E062E0304A11400843E86028684F
:1020300040F080702860E86840F08070E860FFF74A
:10204000C5FA044605E000BFFFF7C0FA001B0228EE
:1020500009D828688001F7D548E004E0FFF7B6FA10
:10206000001B022802D90320BDE8F88328688001FC
:10207000F4D43BE00128F7D0E868226A00F00301BD
:10208000914226D1616A00F0F002090110399142B3
:102090001FD1A26A00F4FE41B1EB022F19D194F8CE
:1020A0002C2000F07841B1EBC26F12D1218E00F4E8
:1020B000C00249084905A1F50011914209D194F8DF
:1020C000341000F0C06049084906A1F10071814256
:1020D0000CD00120C8E7000000100240540000208E
:1020E00000700040FFFFEEFE0C809F010020BBE768
:1020F00010B5401EB0F1807F01D3012010BD4FF01C
:10210000E02460610F21601702F00EFE0020A06144
:1021100007202061002010BD70477047704770474E
:1021200070477047F0B590F83C20012A3AD001255D
:1021300080F83C50022280F83D2003685A689C6871
:10214000194E1A4FB34201D0BB4204D122F4700C95
:102150004A6842EA0C02DFF858C002EA0C02D1F8E1
:1021600000C04CEA020CC3F804C00268B2420DD0B1
:10217000B2F1804F0AD00F4B9A4207D00E4B9A42D1
:1021800004D0BA4202D00D4B9A4204D1896824F09F
:1021900080031943916080F83D50002180F83C1085
:1021A0000846F0BD0220F0BD002C01400034014083
:1021B0008FFFFFFD00040040000800400040014088
:1021C000704710B5040003D094F83D0010B107E04B
:1021D000012010BD002084F83C00204600F022F8C9
:1021E000022084F83D00211D206801F0E3FE01205B
:1021F00084F8480084F83E0084F83F0084F84000EA
:1022000084F8410084F8420084F8430084F84400D4
:1022100084F8450084F8460084F8470084F83D00BF
:10222000002010BD10B586B0044614216846FEF7A4
:1022300027F816492068884225D11548816D41F05C
:1022400002018165816D01F002010591C16C41F0CF
:102250000101C164C06C002100F0010005908020E4
:1022600000900220CDE90101CDE9031069464FF04D
:102270009040FFF7BDF8002211461D20FFF70CFA31
:102280001D20FFF7FBF906B010BD00000004004060
:102290000010024070B5044690F83C00012814D0AC
:1022A000012584F83C50022084F83D0022689068A3
:1022B000344B184020F47F4090600868702827D085
:1022C00010DC10F00F0F03D04AE04FF0020070BD99
:1022D0004FEA2012072A43D2DFE802F05050505054
:1022E00048313900284BC21A984247D009DCB0F572
:1022F000805F35D0B0F5005F15D0B0F1101F2FD141
:102300003CE0102A3AD0202A38D0502A28D135E093
:10231000CB68D1E90121206801F0B1FE2068816815
:1023200041F0770109E0CB68D1E90121206801F093
:10233000A6FE2068816841F48041816010E0CA688F
:102340004968206801F000FF5021206806E0CA6853
:102350004968206801F040FF6021206801F09AFE82
:1023600084F83D50002084F83C0070BDCA6849687C
:10237000206801F0E9FE40212068EFE7226801466D
:102380001046EBE788FFCEFF2000100070B5054631
:1023900000681249884220D1287F114C022813D1AD
:1023A0000421284600F06DFA401C80B26082A18AA8
:1023B00000EE101AF8EE400A00EE100AB8EE400ADD
:1023C00080EE801A84ED0D1A287F012805D10021A6
:1023D000284600F056FA401CA08270BD0004004060
:1023E000000000202DE9F041054690F83C000C4625
:1023F000012836D0012085F83C008AB3042A42D057
:102400002868082A51D0D4E90023E168066A26F436
:1024100080560662C669076A26F4407646EA0323B8
:102420004FF6FF7606EA013123F4704319434FF467
:10243000204627F4204306EA02321A43C1610262B1
:102440002868C16921F44061C1612868C169A26836
:1024500041EA0221C161002085F83C00BDE8F0811D
:1024600001E00220FAE7D4E90012E368286801F0ED
:102470007DFE2868816921F00C01816128688169ED
:10248000A26811430FE0D4E90012E368286801F064
:10249000B5FE2868816921F44061816128688169FD
:1024A000A26841EA02218161D5E7D4E90027267BB1
:1024B000016A21F480710162C169036A21F003019C
:1024C000394321F0F00731074FF4206647EA1161E4
:1024D00023F4206306EA02221A43C16102622868DB
:1024E000C16921F00C01C1612868C169A26811436A
:1024F000B0E710B5040003D094F83D0010B107E038
:10250000012010BD002084F83C00204600F022F895
:10251000022084F83D00211D206801F04BFD0120C0
:1025200084F8480084F83E0084F83F0084F84000B6
:1025300084F8410084F8420084F8430084F84400A1
:1025400084F8450084F8460084F8470084F83D008C
:10255000002010BD7047000010B5044679B1042971
:1025600012D0082915D00C2918D0102919D094F8A8
:10257000430000BF94F84720012817D114E094F8D5
:102580003E0094F84420F7E794F83F0094F8452083
:10259000F2E794F8400094F84620EDE794F8410003
:1025A000E8E794F84200E5E7012A01D0012010BDD8
:1025B000022071B1042915D008291CD00C2948D05B
:1025C000102949D084F8430084F847000C291BD116
:1025D00045E084F83E0084F844002068C26842F078
:1025E000020210E084F83F0084F845002068C268C9
:1025F00042F0040207E084F8400084F846002068B6
:10260000C26842F00802C2600122206801F02AFD7F
:102610001549206888420ED0B0F1804F0BD0134985
:10262000884208D01249884205D01249884202D017
:102630001149884207D18168104A1140062906D005
:10264000B1F5803F03D0016841F001010160002035
:1026500010BD84F84100B7E784F84200B4E7206871
:10266000C26842F01002CEE7002C01400004004096
:102670000008004000340140004001400700010014
:1026800070B50446006801694FF00005C943890729
:1026900015D4C168C943890711D4E91E016101201D
:1026A0002077206880698007204602D0FFF76EFE01
:1026B00004E000F0E3F8204600F0E1F82577206818
:1026C0000169C943490717D4C168C943490713D4ED
:1026D0006FF004010161022020772068806910F406
:1026E000407F204602D0FFF751FE04E000F0C6F81C
:1026F000204600F0C4F8257720680169C94309071E
:1027000016D4C168C943090712D46FF008010161EA
:10271000042020772068C0698007204602D0FFF798
:1027200035FE04E000F0AAF8204600F0A8F825776E
:1027300020680169C943C90617D4C168C943C906DD
:1027400013D46FF010010161082020772068C06960
:1027500010F4407F204602D0FFF718FE04E000F09E
:102760008DF8204600F08BF8257720680169C94371
:10277000C90708D1C168C943C90704D1891E0161CD
:10278000204600F07DF820680169C943090609D494
:10279000C168C943090605D46FF080010161204674
:1027A000FFF7BBFC20680169C943C90509D4C168AA
:1027B000C943090605D46FF4807101612046FFF713
:1027C000ABFC20680169C943490609D4C168C94303
:1027D000490605D46FF040010161204600F091F8F0
:1027E00020680169C943890609D4C168C9438906BB
:1027F00005D46FF0200101612046FFF78FFC2068AF
:102800000169C943C90209D4C168C943C90205D4D1
:102810006FF4801101612046FFF782FC2068016996
:10282000C943890209D4C168C943890205D46FF438
:10283000001101612046FFF772FC20680169C9435D
:10284000490209D4C168C943490205D46FF4800123
:1028500001612046FFF765FC20680169C943090250
:102860000BD4C168C943090207D46FF400010161A8
:102870002046BDE87040FFF7A3BC70BD70477047AD
:1028800070470246002041B1042909D008290AD026
:102890000C2901D11068006C70471068406B7047BC
:1028A0001068806B70471068C06B704770B5044645
:1028B00090F83C00012812D0012584F83C500220F9
:1028C00084F83D00204601F0EFFB01004FF00000CE
:1028D00007D084F83D5084F83C00012070BD0220F0
:1028E00070BD2168CA6822F04002CA602168CA68C7
:1028F00022F48042CA6084F83D5084F83C000020F5
:1029000070BD704790F88010012918D0012180F81F
:1029100080102421C0F8841050F8641B0A680B68EA
:1029200023F001030B6022F000510022026050F8F6
:10293000643C196020210162027710467047022032
:1029400070477047704770B5044690F880000128C2
:102950001DD0012084F880002420C4F88400206861
:102960000568026822F0010202602068826822F095
:1029700060620A438260204601F05CFC20680560CA
:102980002020C4F88400002084F8800070BD02205C
:1029900070BD70B5044690F8800001281DD001205C
:1029A00084F880002420C4F8840020680568026848
:1029B00022F0010202602068826822F060420A432D
:1029C0008260204601F036FC206805602020C4F8B3
:1029D0008400002084F8800070BD022070BD704724
:1029E000704770472DE9F04103680446D8691968BB
:1029F0009A6840F60F0528424FF0000509D1860677
:102A00007ED501F0200602F080573E4378D0216F3A
:102A1000FFE0924E924F16400F40374370D0C707E9
:102A200009D0CF0507D501271F62D4F88C3043F0B9
:102A30000103C4F88C3083070AD5D30708D0276870
:102A400002233B62D4F88C3043F00403C4F88C308A
:102A500043070AD5D30708D0276804233B62D4F87C
:102A60008C3043F00203C4F88C3003070CD501F01E
:102A70002003334308D0266808233362D4F88C300F
:102A800043F00803C4F88C3003050BD54B0109D57E
:102A900026684FF400633362D4F88C3043F020038F
:102AA000C4F88C30D4F88C30002B34D0800609D593
:102AB00001F0200002F08051084303D0216F09B1DA
:102AC00020468847D4F88C0021688968490602D4DA
:102AD00010F0280F21D0204601F06CFC206881689E
:102AE000490615D5816821F040018160E06F78B119
:102AF0005C498163E06FFEF72CFC00280BD000E0FE
:102B000011E0E06F816B00E02046BDE8F04108472E
:102B10002046FFF766FFBDE8F0812046FFF761FF22
:102B2000C4F88C50F7E7E76E2026012F5CD1C7066A
:102B30005AD5CF0658D510201862206881684906FA
:102B40002FD5E26F116849680904090CE3D0B4F885
:102B50005C308B42DFD9A4F85E10116809688906E1
:102B600018D4016821F4807101602068816821F027
:102B7000010181602068816821F040018160C4F812
:102B80008860E5662068016821F010010160E06F4F
:102B9000FEF7AAFBB4F85C00B4F85E10401A81B2EC
:102BA0001EE0B4F85C10B4F85E20891AB4F85E2018
:102BB00089B2002AAFD00029ADD0026822F4907209
:102BC000026020688268254BDB431A408260C4F8AB
:102BD0008860E56625672068026822F010020260BE
:102BE0002046FFF7AEFE96E7C70209D5570207D584
:102BF0004FF4801018622046BDE8F041FFF7F0BEA8
:102C000007060AD501F0800702F40002174304D03A
:102C1000616F00297FF478AF7DE742060CD54A0644
:102C20000AD51968204621F040011960C4F8846073
:102C3000656700F02DF96EE7020206D54A0004D55B
:102C40002046BDE8F041FFF7CABEC001CBD5002940
:102C5000C9DA2046BDE8F041FFF774BE010000105C
:102C600020010004A143000810B5040003D0D4F8EB
:102C7000840010B107E0012010BD002084F880001E
:102C8000204600F027F82420C4F88400206801685A
:102C900021F001010160204601F098FD0128EBD0F0
:102CA000A06A10B1204601F0E7FA2068416821F4DB
:102CB000904141602068816821F02A01816020688C
:102CC000016841F0010101602046BDE8104001F0BB
:102CD00037BB000010B586B0044614216846FDF7E6
:102CE000CFFA17492068884227D11648016E41F46F
:102CF00080410166016E01F480410591C16C41F093
:102D00000101C164C06C694600F0010005904FF4F8
:102D1000C0600090022001900020029003900720E4
:102D200004904FF09040FEF763FB002211462520EF
:102D3000FEF7B2FC2520FEF7A1FC06B010BD000096
:102D4000003801400010024010B4D0F88830202B29
:102D50001BD1B9B1B2B190F88030012B15D001234D
:102D600080F880300023C366094C0368A34206D074
:102D70005C68240203D51C6844F080641C6010BCAD
:102D800001F05EBE012010BC70470220FBE700008E
:102D9000008000400B48817A19B1C27A012A05D01F
:102DA00009E0094A126882620122C272074B427A24
:102DB0005A54491C81720349012209310448FFF722
:102DC000C3BF0000000000205C0000207D00002048
:102DD000880100202DE9F8430446D0F884001F46FE
:102DE00016460D46202851D1DDB1D6B194F88000A9
:102DF00001284BD0012084F880004FF00008C4F86F
:102E00008C802120C4F884001834FEF7DFFBA687ED
:102E10008146E68754F8100C183CB0F5805F03D06B
:102E200004E00120BDE8F883206920B12E4600258A
:102E300084F8808010E00026FAE78021204601F027
:102E40006BFEB8B9C6B116F8010B21688862B4F8F8
:102E50005600401EA4F85600B4F856004B464FF0FA
:102E6000000200970028E8D14FF04001204601F011
:102E700053FE30B10320D5E735F8020BC0F308004C
:102E8000E3E72020C4F884000020CBE70220C9E754
:102E90007047FEE700B585B014216846FDF7F0F9EC
:102EA000C02000900120019002900220039069460A
:102EB0000248FEF79DFA05B000BD0000000400487E
:102EC00070B50824002500F0B3FE13E06806050E77
:102ED000002000F095FE142002F0A4FB142002F064
:102EE000A1FB012000F08CFE142002F09BFB00F0FF
:102EF00093FE0543641EE4B2E8D2002000F080FE99
:102F0000142002F08FFB00F0B5FE284670BD10B50E
:102F1000002000F0A3FE142002F084FB142002F035
:102F200081FB012000F06CFE142002F07BFB0020EE
:102F300000F066FEBDE81040142002F073BB70B5CF
:102F40000446082516E000F05BFE142002F06AFB40
:102F500004F0800000F082FE142002F063FB6006A3
:102F6000040E142002F05EFB012000F049FE142044
:102F700002F058FB6D1EEDB24FF00000E3D200F0FE
:102F80003FFEBDE87040142002F04CBB10B501209C
:102F900000F064FE142002F045FB142002F042FB16
:102FA000012000F02DFE142002F03CFB002000F078
:102FB00027FEBDE81040142002F034BB10B50120FC
:102FC00000F04CFE142002F02DFB012000F018FE52
:102FD000142002F027FB002000F040FE142002F035
:102FE00021FB002000F00CFEBDE81040142002F090
:102FF00019BB10B5002000F003FE142002F012FBF4
:10300000002000F02BFE142002F00CFB012000F049
:10301000F7FD142002F006FB012000F01FFEBDE8C2
:103020001040142002F0FEBA10B5052400F000FE96
:10303000142002F0F7FA012000F0E2FD142002F063
:10304000F1FA05E0641EA4B2142002F0EBFA6CB1B0
:1030500000F0E2FD0028F5D100F00CFE002000F0A9
:10306000CFFD142002F0DEFA002010BD00F002FEB9
:10307000FFF7BFFF012010BD384810B50168384C7C
:10308000A269891A64294AD30068A06100F06AF82D
:103090006071227A20EA020142408243A171E2710A
:1030A0002072012920D1207B401C00F001002073F8
:1030B000002000F0A5F8207BB0B920786178884224
:1030C00003D1A078E178884229D02549022216311F
:1030D0000888401C0880224800211630FDF7A4FC17
:1030E000A078E07020786070207B012817D1A0794B
:1030F000022804D1A07B401C00F00100A073A07B3B
:10310000002860790CD003281FD0042807D1A078AC
:10311000401EC0B2A070C82801D90020A07010BD08
:1031200003280AD00428FAD12078401EC0B22070AB
:103130001428F4D21420207010BD2078401CC0B296
:1031400020702828F8D92820F5E7A078401CC0B2C4
:10315000A0700128F0D90120E0E700005C00002009
:103160000000002070B50E4D002401212846FEF716
:1031700023FA00B9012402212846FEF71DFA00B9FE
:10318000022404212846FEF717FA00B9032401217E
:103190004FF09040FEF710FA00B90424204670BDAD
:1031A0000004004800B585B014216846FDF768F8B2
:1031B0004FF6FF70009000200321CDE9020101903D
:1031C00069460248FEF714F905B000BD0008004842
:1031D00000B585B014216846FDF752F84FF6FF7030
:1031E0000090012001900320039000200290694686
:1031F0000248FEF7FDF805B000BD000000080048D9
:1032000070B5002406462146204600F003F900F080
:1032100041F94FF49635304600F010F9641CAC4289
:10322000F9D370BD30B587B014216846FDF728F892
:103230001E48C16C41F00401C164C16C01F004017D
:103240000591C16C41F00101C164C16C01F0010143
:103250000591C16C41F00201C164C06C012500F010
:10326000020005904FF44870CDE900050024039456
:10327000694602940E48FEF7BBF8280203940090BA
:10328000CDE901544FF0904469462046FEF7B0F86E
:10329000FFF79EFFA06940F48070A06104481830D9
:1032A000016841F40871016007B030BD00100240B0
:1032B00000040048203AD2B2034B02EB420203EB77
:1032C000021200F019B800004C580008F0B50E4684
:1032D0000746002540F23F1407E021463846FFF735
:1032E000E9FF103C6D1CA4B2761C3278002A01D094
:1032F000142DF2D3F0BD00002DE9F04791468A4627
:103300000026044600F086F8DFF84080012700BF61
:1033100000F0C0F85FF0000539F8160007FA05F173
:103320000842404601D1408800E0008800F086F85D
:103330006D1C102DF0D3641CE4B25146204600F001
:1033400069F8761C182EE3D3BDE8F0873C00002016
:1033500010B5FFF767FF002000F014F8084CA080BC
:10336000A088A0F50241303906D000F047FB0020CC
:1033700000F008F8A08010BD00F0B7FAF7E70000F1
:103380003C00002070B51D490A6842F400720A60D2
:103390000A6842F480720A60184C103C226842F0BD
:1033A00020022260164A1060086840F02000086081
:1033B00000BF00BF00BF206840F0200020602068F0
:1033C00040F480702060FFF7EDFE4FF09041886A76
:1033D00040F48070886200BF00BF00BF0848001F33
:1033E000006885B2886940F480708861FFF7F0FE5C
:1033F000206840F400702060284670BD2804004812
:103400001408004801B5BDF800000149488008BD16
:103410003C00002010B50C460146202000F068F862
:103420002146BDE81040212000F062B801B5BDF88A
:1034300000000149088008BD3C000020134A1168C3
:1034400041F400711160114910390B6843F4807325
:103450000B600B6843F020030B600D4B1860106885
:1034600040F02000106000BF00BF00BF086840F0BF
:1034700020000860086840F48070086000BF00BF4A
:1034800000BF086840F400700860704728040048D6
:10349000140800481449086840F40070086008687F
:1034A00040F48070086010481038026842F0200232
:1034B00002600E4B22221A600A6842F020020A6063
:1034C00000BF00BF00BF016841F02001016001683A
:1034D00041F48071016000BF00BF00BF016841F48A
:1034E000007101607047000028040048140800487B
:1034F000184B10B51A6842F400721A601A6842F448
:1035000080721A60134A103A146844F02004146060
:10351000114C2060186840F02000186000BF00BF08
:1035200000BF106840F020001060106840F4807008
:1035300010602160186840F02000186000BF00BFD4
:1035400000BF106840F020001060106840F48070E8
:10355000106010BD280400481408004870B5124DD2
:10356000044601224FF6FF712846FEF72AF80F4E57
:10357000012204213046FEF724F8002204213046BF
:10358000FEF71FF8210200222846FEF71AF8012252
:1035900004213046FEF715F83046BDE870400022A1
:1035A0000421FEF70EB8000000080048000C004897
:1035B00000EB8100006E00F0F84070478068C0F3B7
:1035C000C00070478068C0F380007047042303EA9E
:1035D000D15310B518444369C1F3045107248C40FA
:1035E000A3438A401343436110BD00EB8100016E89
:1035F00021F00041114301667047000070B5814819
:103600002DED048B0168804CE269891A642977D317
:103610000068E061FDF7A8F9FCF72FFF9FED7B8BB9
:1036200053EC182BFCF737FE9FED7A9B53EC192BCC
:10363000FCF7A3FEFCF741FFE062FDF7AFF9FCF7F2
:103640001CFF53EC182BFCF726FE53EC192BFCF750
:1036500094FEFCF732FF206302F00AF8FCF7FCFE50
:103660009FED6E1B53EC112BFCF715FEFCF725FFAD
:1036700000EE100A002184ED0E0A607800EE900A38
:103680000120F8EE600AB4EEE00AF1EE10FA01DD76
:10369000E07300E0E173E2789FED620A12B1012A63
:1036A00007D014E0D4ED0D0A20EE800AD4ED0B0A09
:1036B00005E0D4ED0D0A20EE800AD4ED0C0AB4EE3C
:1036C000E00AF1EE10FA01D2207400E02174207BB0
:1036D000B8B1012814D154A1584801F011FB574941
:1036E0001820FFF7F3FD227855A1544801F008FB9C
:1036F000A17B4FF6E07500295ED001295ED060E025
:103700007CE0227C53A14D4801F0FAFA4B49182085
:10371000FFF7DCFDE06AFCF7BDFE41EC100B52A1A7
:1037200053EC102B454801F0EBFA44493020FFF7E9
:10373000CDFD206BFCF7AEFE41EC100B4FA153EC1E
:10374000102B3E4801F0DCFA3C494820FFF7BEFD53
:1037500094ED0D0ADFED4E0A20EE200A10EE100A5D
:10376000FCF798FE41EC100B4AA153EC102B3348A8
:1037700001F0C6FA31496020FFF7A8FDA06BFCF705
:1037800089FE41EC100B48A153EC102B2B4801F0A3
:10379000B7FA2A497820FFF799FD1B4847A1163050
:1037A0000288264801F0ACFABDEC048B9020BDE8FD
:1037B00070402249FFF78ABD284600E00020FFF74D
:1037C00021FE1E493020FFF781FDA2783FA11B4852
:1037D000521C01F095FAA07B012801D008B102E04B
:1037E0002846FFF70FFE15494820FFF76FFDBDEC97
:1037F000048B0020BDE87040FFF704BEBDEC048BD5
:1038000070BD00005C000020000000206666666657
:1038100066660A400000000000FEAF4000000000A5
:103820000000B03F33335340202020202020205080
:10383000617261202020202020000000680000200C
:103840002020543A256420202020202020202020E1
:1038500020000000202020202020204D61696E20C3
:1038600020202564202020002020414F313A252EA1
:103870003266562020202020200000002020414FCA
:10388000323A252E326656202020202020000000CB
:103890000000C842202050574D323A252E30662075
:1038A0002020202020000000202054656D703A2543
:1038B0002E326643202020202020000020204E3A77
:1038C0002564202020202020202020002020583A7D
:1038D000414F25316420202020202020202020203E
:1038E00000000000FEE7FEE7704730B50121002030
:1038F000FFF7FEFD4FF47A70FDF7B9F800210120C3
:10390000FFF7F6FD41F290711020FFF7F1FD4FF443
:103910001C516020FFF7ECFD01216120FFF7E8FD5D
:1039200002214620FFF7E4FD48F210011320FFF7C3
:10393000DFFD48F2FE011220FFF7DAFD4FF4A0612F
:103940000220FFF7D5FD41F230010320FFF7D0FD43
:1039500040F2033421463020FFF7CAFD21463120D2
:10396000FFF7C6FD21463220FFF7C2FDE51E2946BE
:103970003320FFF7BDFD03213420FFF7B9FD2146B9
:103980003520FFF7B5FD14213620FFF7B1FD2146A4
:103990003720FFF7ADFD21463820FFF7A9FD21466E
:1039A0003920FFF7A5FD29463A20FFF7A1FD0321A5
:1039B0003B20FFF79DFD21463C20FFF799FD4FF48A
:1039C000A0513D20FFF794FD4FF400719220FFF7C6
:1039D0008FFD21469320FFF78BFD40F60D019020CF
:1039E000FFF786FD41F218010320FFF781FDBDE8D6
:1039F000304040F273110720FFF77ABD10B543F253
:103A00000801E320FFF774FD1221E720FFF770FDA6
:103A100041F23121EF20FFF76BFD00210120FFF77C
:103A200067FD4FF4E0610220FFF762FD41F23001D3
:103A30000320FFF75DFD00210420FFF759FD40F250
:103A400007210820FFF754FD00210920FFF750FD52
:103A500000210A20FFF74CFD00210C20FFF748FD54
:103A600000210D20FFF744FD00210F20FFF740FD4E
:103A700000211020FFF73CFD07211120FFF738FD42
:103A800000211220FFF734FD00211320FFF730FD45
:103A9000C820FDF79BFC41F290611020FFF728FD44
:103AA00040F227211120FFF723FD3220FDF78EFC85
:103AB0001D211220FFF71CFD3220FDF787FC4FF47B
:103AC00000611320FFF714FD14212920FFF710FDDA
:103AD0000B212B20FFF70CFD3220FDF777FC002196
:103AE0002020FFF705FD00212120FFF701FD072120
:103AF0003020FFF7FDFC40F207713120FFF7F8FCA2
:103B000006213220FFF7F4FC40F204713520FFF764
:103B1000EFFC41F604713620FFF7EAFC0421372060
:103B2000FFF7E6FC00213820FFF7E2FC40F20671C7
:103B30003920FFF7DDFC40F201713C20FFF7D8FC93
:103B40000F213D20FFF7D4FC00215020FFF7D0FCCF
:103B5000EF215120FFF7CCFC00215220FFF7C8FCD9
:103B600040F23F115320FFF7C3FC4FF41C5160207B
:103B7000FFF7BEFC01216120FFF7BAFC00216A209B
:103B8000FFF7B6FC00218020FFF7B2FC0021812066
:103B9000FFF7AEFC00218220FFF7AAFC0021832062
:103BA000FFF7A6FC00218420FFF7A2FC002185205E
:103BB000FFF79EFC10219020FFF79AFC0021922035
:103BC000FFF796FC03219320FFF792FC4FF48871D6
:103BD0009520FFF78DFC00219720FFF789FC00213D
:103BE0009820FFF785FC41F218010320FFF780FCC5
:103BF000BDE8104040F273110720FFF779BC0000C8
:103C000008B1044801E003481030016841F0400168
:103C1000016070471804004810B580210348FDF783
:103C2000CBFC012800D0002010BD0000000400489B
:103C300000B585B014216846FCF722FB8020009077
:103C40000020019001200290022003906946024862
:103C5000FDF7CEFB05B000BD0004004808B10448E4
:103C600001E003481030016841F0800101607047B5
:103C70001804004800B585B014216846FCF700FB25
:103C800080200090112001900020029002200390DB
:103C900069460248FDF7ACFB05B000BD00040048D2
:103CA000704700002DE9F0471446894682460025FA
:103CB0004FF090462A4608213046FDF782FC00224C
:103CC00004213046FDF77DFCDFF8B88018F8047059
:103CD0005FF0800424FA05F0384201D0012200E0B0
:103CE000002202213046FDF76CFC012208213046FB
:103CF000FDF767FC002208213046FDF762FC6D1CD1
:103D0000EDB2082DE6D318F80970002524FA05F065
:103D1000384201D0012200E0002202213046FDF7A6
:103D200050FC012208213046FDF74BFC00220821FF
:103D30003046FDF746FC6D1CEDB2082DE6D318F8B1
:103D40000A70002524FA05F0384201D0012200E073
:103D5000002202213046FDF734FC012208213046C2
:103D6000FDF72FFC002208213046FDF72AFC6D1CD0
:103D7000EDB2082DE6D33046BDE8F047012204211C
:103D8000FDF71FBC4200002010B586B01421684624
:103D9000FCF776FA0E48C16C41F00101C164C06CB9
:103DA0004FF0904400F00100059000220E212046C3
:103DB000FDF707FC0E20009001200021CDE9010154
:103DC000039169462046FDF713FB06B010BD0000C5
:103DD0000010024012490A681248436AD21AB2F52A
:103DE000FA6F1BD309684162417B491C11F0010144
:103DF000417309D0002911D0C0780021401CC2B203
:103E00005FF00A00FFF74EBF41780A20B1FBF0F2E5
:103E100000FB1212B1FBF0F10C20F3E77047000039
:103E20005C00002000000020FDF7D6BB10B5A6B056
:103E300038216846FCF724FA14211FA8FCF720FA61
:103E400044210EA8FCF71CFA4FF40070FDF756FC55
:103E5000012000900004019002200324CDE9070412
:103E60001421CDE90A100C900D9009946846FDF7D5
:103E700039FF08B172B6FEE70F20CDE91F04002418
:103E80002194229402211FA82394FDF7E1FD08B19B
:103E900072B6FEE70B48C16C41F02001C164C06CF2
:103EA00000F02000249048F20100CDE90E04400704
:103EB0001D900EA8FDF788FC002801D072B6FEE721
:103EC00026B010BD001002400248016841F47001A4
:103ED0000160704788ED00E00148FEF7D1BB0000AB
:103EE0003C01002010B590B0002409940A940B9472
:103EF000142104A80C94FCF7C3F92D480D940F94D9
:103F00000E940094019402942849039401604F2177
:103F1000C0E901144FF6FF71C0E903148461FEF794
:103F200050F908B1FCF7B1FD4FF48050099009A990
:103F30001F48FEF7AFF908B1FCF7A7FD1C48FEF7D4
:103F4000D8FA08B1FCF7A1FD042004906020CDE967
:103F5000050404A916480894FEF7A8FC08B1FCF76C
:103F600094FD0D940DA912480F94FEF7DBF808B1EB
:103F7000FCF78BFD02200090CDE901040022694688
:103F80000B480394FEF72EFA08B1FCF77EFD0120E2
:103F9000CDE90040042269460548FEF723FA0028CF
:103FA00001D0FCF772FD10B010BD0000000400400D
:103FB0003C0100202DE9F0430268234B234D244EA1
:103FC000244C4FF08049984207D0484505D0A8427C
:103FD00003D0B04201D0A04203D122F070074A685A
:103FE0003A431D4FDFF874C0DFF8748098420DD05B
:103FF00048450BD0A84209D0B04207D0A04205D016
:10400000B84203D0604501D0404503D122F4407549
:10401000CA682A434D6922F080022A4302608A68F6
:10402000C2620A688262984207D0A04205D0B842B4
:1040300003D0604501D0404501D1096901630121E8
:104040004161BDE8F0830000002C01400004004005
:10405000000800400034014000400140004401409D
:104060000048014010B501F01F030121046A994086
:104070008C430462016A9A401143016210BD10B57D
:10408000846842EA032224F47F440A432243826084
:1040900010BD00008268034B1A400A4342F007013A
:1040A000816070478FFFCFFF10B50468A268234B73
:1040B0001A404B681343224A13400A681A43A2600D
:1040C0004A68602A32D006DC302A34DD402A0ED01D
:1040D000502A30D124E01B4B9A422CDA702A2AD184
:1040E0000B69D1E902210068FFF7C9FF23E00A68E4
:1040F000052A13D0B2F1011F10D00268136A146AA6
:1041000024F00104146202689469096924F0F0043F
:1041100044EA01119161006803620CE0012010BDC6
:104120000A698968006800F00FF804E00A69896884
:10413000006800F051F8002010BD00008FFFCFFF95
:10414000F8FFFEFF3000100010B5036A046A24F087
:1041500001040462846924F0F00444EA021423F0A8
:104160000A020A438461026210BD000070B5046A4D
:1041700024F0010404628469056A124EB0420ED034
:10418000B0F1804F0BD0104EB04208D00F4EB0426D
:1041900005D00F4EB04202D00E4EB04203D124F0F3
:1041A0000304144301E044F001041A0724F0F0046E
:1041B00044EA126225F00A0301F00A011943826100
:1041C000016270BD002C0140000400400008004066
:1041D000003401400040014010B5036A23F0100391
:1041E00003628369046A23F4704343EA023224F0D1
:1041F000A00343EA01118261016210BD30B5046A77
:1042000024F0100404628469056A24F4407444EACA
:10421000022222F470444FF6FF7202EA0332224374
:10422000A02425F0A00304EA011119438261016270
:1042300030BD000030B5416EB9B102689168926836
:10424000C1F342610B4B520F9C5CE50003F1080483
:10425000A25CB5FBF2F2A0F86A205A5C615CD20065
:10426000B2FBF1F1A0F8681030BD0121A0F86A108E
:10427000F8E70000346A000890F82810C90706D053
:1042800001684A68C36A22F400321A434A6090F80F
:104290002810890706D501684A68036B22F480322A
:1042A0001A434A6090F82810490706D501684A6801
:1042B000436B22F480221A434A6090F828100907C1
:1042C00006D501684A68836B22F400421A434A60AB
:1042D00090F82810C90606D501688A68C36B22F4D5
:1042E00080521A438A6090F82810890606D5016822
:1042F0008A68036C22F400521A438A6090F82810EE
:10430000490611D501684A68436C22F480121A43A9
:104310004A60416CB1F5801F06D101684A68836C20
:1043200022F4C0021A434A6090F82810090606D504
:1043300001684A68C06C22F4002202434A60704758
:10434000F8B500260446C0F88C60FDF73FF9054635
:10435000206800686FF07E47000708D52B460022D2
:104360004FF400112046009700F0D6FB60B920689A
:10437000006840070AD52B4600224FF480012046F2
:10438000009700F0C9FB08B10320F8BD2020C4F855
:104390008400C4F8880044F86C6F00202675F8BDCE
:1043A00010B5806A0021A0F85E10A0F85610FEF744
:1043B00018FB10BD01680A6822F490720A60016857
:1043C0008A68094B1A408A60C16E012904D10168CC
:1043D0000A6822F010020A602021C0F8881000212B
:1043E000C166016770470000FEFFFFEF184810B577
:1043F000164901604FF416514160002181600C2282
:10440000C160C0E904128161C161016241628162DF
:10441000FEF72AFC08B1FCF738FB00210C48FEF738
:10442000B8FA08B1FCF731FB00210948FEF78BFA16
:1044300008B1FCF72AFB0648FEF764FA002803D00F
:10444000BDE81040FCF721BB10BD00000038014062
:104450008801002070B5B0F86010D0F888200446BC
:104460000068222A04D0816941F00801816170BD91
:10447000406AA26D08401080A06D801CA065B4F851
:104480005E00401EA4F85E00B4F85E000028EED185
:104490002068016821F4907101602068816821F032
:1044A000010181602020C4F8880000252567E06EA6
:1044B000012804D02046FEF76DFCE56670BD20683B
:1044C000016821F010010160B4F85C102046FEF78D
:1044D00038FAF2E72DE9F0470446B0F8606000686A
:1044E000C569D0F800A0D0F80880D4F88810222937
:1044F00005D0816941F008018161BDE8F087B4F819
:1045000068704FF000095BE02068406AA16D3040A0
:104510000880A06D801CA065B4F85E00401EA4F861
:104520005E002068C569690730D0E9070AD05FEAF4
:10453000CA5107D501210162D4F88C0040F0010076
:10454000C4F88C00A8070BD55FEAC87008D02168B2
:1045500002200862D4F88C0040F00400C4F88C00FB
:1045600068070BD55FEAC87008D02168042008628C
:10457000D4F88C0040F00200C4F88C00D4F88C0011
:1045800020B12046FEF72DFAC4F88C90B4F85E00F6
:10459000B0B92068016821F48071016020688168E9
:1045A000194A114081602020C4F88800C4F8709036
:1045B000E06E01281CD02046FEF7ECFBC4F86C909E
:1045C0000FB1A806A0D4B4F85E00002895D0B4F8C6
:1045D0006810814291D92068816821F08051816002
:1045E0000A4820672068016841F02001016084E7E3
:1045F0002068016821F010010160B4F85C102046C9
:10460000FEF79FF9DAE70000FEFFFFEF55440008D0
:1046100070B5B0F86010D0F8882004460068222AEF
:1046200004D0816941F00801816170BD406A084091
:10463000A16D0870A06D401CA065B4F85E00401E1E
:10464000A4F85E00B4F85E000028EED1206801688E
:1046500021F4907101602068816821F0010181607E
:104660002020C4F8880000252567E06E012804D0CA
:104670002046FEF78FFBE56670BD2068016821F0DB
:1046800010010160B4F85C102046FEF75AF9F2E719
:104690002DE9F0470446B0F860600068C569D0F8BD
:1046A00000A0D0F80880D4F88810222905D08169AC
:1046B00041F008018161BDE8F087B4F868704FF0FF
:1046C00000095BE02068406AA16D30400870A06D71
:1046D000401CA065B4F85E00401EA4F85E0020688F
:1046E000C569690730D0E9070AD05FEACA5107D522
:1046F00001210162D4F88C0040F00100C4F88C0064
:10470000A8070BD55FEAC87008D0216802200862AC
:10471000D4F88C0040F00400C4F88C0068070BD576
:104720005FEAC87008D0216804200862D4F88C00C1
:1047300040F00200C4F88C00D4F88C0020B1204670
:10474000FEF74FF9C4F88C90B4F85E00B0B9206859
:10475000016821F48071016020688168194A114064
:1047600081602020C4F88800C4F87090E06E0128B1
:104770001CD02046FEF70EFBC4F86C900FB1A806C3
:10478000A0D4B4F85E00002895D0B4F86810814237
:1047900091D92068816821F0805181600A482067A2
:1047A0002068016841F02001016084E72068016809
:1047B00021F010010160B4F85C102046FEF7C1F84A
:1047C000DAE70000FEFFFFEF114600082DE9F04197
:1047D0000446016880682269E36910436269002524
:1047E0001A431043DFF82CC20A688B4B1A4002436D
:1047F0000A6020684168E26821F440511143416039
:104800002168A069614501D0226A10438A68834B00
:104810001A4002438A602068C16A626A21F00F016F
:104820001143C1627E4923687E488B420DD1D0F886
:10483000880010F0030006D0012855D0022842D08D
:1048400003283FD152E001203DE077498B420BD154
:10485000D0F8880010F00C0035D0042833D0082898
:1048600040D00C282ED141E070498B420BD1D0F8BA
:10487000880010F0300026D0102835D0202831D004
:1048800030281FD132E06A498B420BD1D0F8880022
:1048900010F0C00017D0402826D0802822D0C02891
:1048A00010D123E063450DD1D0F8880010F44060AA
:1048B00009D0B0F5806F17D0B0F5006F12D0B0F509
:1048C000406F13D010205B4A5B4F00264FF400412D
:1048D000634539D160B102280DD004280DD00828D5
:1048E00031D10EE00220EEE70420ECE70820EAE7F1
:1048F000FDF79CF903E0114603E0FDF7BBF9010069
:104900007DD0606A37F810206768B1FBF2F007EBE2
:10491000470383426CD8B0EB073F69D800230846B1
:104920001946FBF775FC090241EA1061020278089A
:10493000101871413A460023FBF76AFC3F4AA0F584
:104940004071914259D953E0E3694FF6EF788B42B9
:104950002DD109284CD2DFE800F005080D4B274B7C
:104960004B4B0E00FDF762F901E0FDF771F9010014
:1049700001D144E01146606A37F81000B1FBF0F055
:104980004100606801EB5001B1FBF0F080B2A0F192
:10499000100141452CD84FF6F0710140C0F34200A0
:1049A00001432068C1602AE0FDF764F9DFE70928C8
:1049B0001ED2DFE800F005080D1D1F1D1D1D0E0095
:1049C000FDF734F901E0FDF743F9010001D116E0EC
:1049D0001146606A37F81000B1FBF0F1606801EB36
:1049E0005001B1FBF0F080B2A0F11001414504D9B3
:1049F000012504E0FDF73EF9E7E72168C8600120E2
:104A0000A4F86A0024F8680F2846A660E660BDE8AE
:104A1000F081000000800040F369FFCFFFF4FF1138
:104A200000380140001002400044004000480040AF
:104A3000004C00400024F4001C6A0008FFFC0F003A
:104A400070B58165A0F85C20A0F85E2000210167A8
:104A500083684FF48056FF24B34204D10369D3B96D
:104A600040F2FF131DE07F259BB1B3F1805F15D0AD
:104A7000A0F86010C0F88C102223C0F888300368BA
:104A80009C6844F001049C60436EB3F1005F0ED05B
:104A900027E0036943B9A0F86040EBE703691BB165
:104AA0003F23A0F86030E5E7A0F86050E2E7B0F8F7
:104AB0006830934215D88268B24201D1026972B15E
:104AC000114A026780F8801001680A6842F4807217
:104AD0000A600068816841F0805181600FE00B4AF4
:104AE000EFE78268B24201D1026952B1084A026717
:104AF00080F880100068016841F490710160002026
:104B000070BD044AF3E7000091460008D544000850
:104B100011460008554400082DE9F0479A4617460B
:104B20000E4604464FF000094FF02008089D39E07A
:104B3000681C37D0FCF74AFDA0EB0A00A84222D837
:104B40000DB32068016849072CD5C069C043000532
:104B500028D421684FF4006008622068016821F4BD
:104B6000D07101602068816821F001018160C4F882
:104B70008480C4F88880C4F88C8000BF84F880905A
:104B80000320BDE8F0872068016821F4D07101603E
:104B90002068816821F001018160C4F88480C4F834
:104BA0008880EBE72068C06936EA000004D0002066
:104BB000B842BDD00020E4E70120F9E70148FDF745
:104BC00011BF00008801002070B53B4E30683B4C9F
:104BD000216A401AC82866D3306820622046217CAA
:104BE000407C012931D020F001006074E07B012875
:104BF000607C2DD020F080006074C0B2FEF7AEFC67
:104C000020790025401CC0B2207105280CD9207CD9
:104C100050B1A06BFBF73EFC41EC100B28A053EC0D
:104C2000102B00F05DF825713168A06A091AC829B7
:104C300039D33168081AB0F5C87F34D222480178D8
:104C4000412908D050291AD028E040F00100CCE7D3
:104C500080F08000D0E7417854291FD181780D2958
:104C60001CD1C0780A2819D1A06BFBF713FC41ECCA
:104C7000100B13A053EC102B00F032F811E0417828
:104C800041290BD18178522908D1C178412905D118
:104C900001790D2902D140790A2805D00BA000F036
:104CA0001FF8E572A57270BDA278217808A0521C89
:104CB00000F016F8F5E700005C000020000000207E
:104CC00026252E32660D0A007D0000206E6F000042
:104CD0002325642C414F25640D0A0000FEE70000E7
:104CE0000FB4054B10B503A9044A029800F0FEF872
:104CF00010BC5DF814FB0000A956000864000020F9
:104D00000FB4084B10B504A902AA039800F0EEF8FE
:104D1000044602A9002000F080FC204610BC5DF88B
:104D200014FB00001B5600080907090E002804DBCD
:104D300000F1E02080F80014704700F00F0000F14F
:104D4000E02080F8141D704702E008C8121F08C157
:104D5000002AFAD170477047002001E001C1121FFC
:104D6000002AFBD1704700002DE9FF5F82B00021CF
:104D7000DDE90430020DDDF840B0034318D044F6FD
:104D80001050A2F2FF3242431514119801281FD08F
:104D9000A5EB0B00401C5FEA000A4FF000064E4FE7
:104DA000DFF83891B046504615D5CAF1000413E03B
:104DB000119801244AA3012801D16FEA0B0102983E
:104DC000119AC0E90031C0E9024206B0BDE8F09F87
:104DD000CBF10000DFE704460021404A491842EBCE
:104DE0000450CDE9001012E0E00707D032463B4600
:104DF00040464946FBF74FFA8046894632463B46D5
:104E000010461946FBF747FA06460F466410002C79
:104E1000EAD1DDE90401DDE90023BAF1000F06DA89
:104E2000FBF739FA42464B46FBF735FA05E0FBF74C
:104E3000A4FA42464B46FBF7A0FA04460E4600226F
:104E4000284BFBF7DFFC03D84FF0FF30014607E0AB
:104E50000022254B20463146FBF714FCFBF7B9FC3A
:104E6000102409E0002C0ADB0A220023FBF7D0F90A
:104E7000039B30321A55641E50EA0102F2D1641CC1
:104E8000039AC4F111031444119A012A03D0012298
:104E900008430DD10AE0084304D000204FF0110B65
:104EA000119072E7A3EB0B056D1E0DE05B4504DD71
:104EB0004FF0000205F1010504E003DA4FF00002B3
:104EC000A5F10105002AECD002981199C0E9023140
:104ED000C0E9004579E70000000014400000F03F01
:104EE000300000000000F0430000E03F2DE9FF4FDC
:104EF00095B09B468946064600250FE2252877D1C6
:104F000000242746F84A0121059400E0044316F8DE
:104F1000013F203B01FA03F01042F7D130782A28F4
:104F200011D06FF02F033078A0F13002092A16D883
:104F3000059A44F0020402EB820203EB42021044A1
:104F4000761C0590EFE759F8042B0592002A03DA46
:104F5000504244F40054059044F00204761C30782A
:104F60002E2816D116F8010F44F004042A280DD07B
:104F70006FF02F023078A0F13003092B09D807EB2E
:104F8000870302EB4303C718761CF3E759F8047B49
:104F9000761C30786C280FD006DC4C2817D0682897
:104FA0000DD06A2814D104E0742810D07A280FD1CB
:104FB0000DE044F400140AE044F4801401E044F4E9
:104FC00040147278824202D104F58014761C761C5B
:104FD000307866280BD013DC582877D009DC0028FD
:104FE00075D04528F6D04628F4D047281AD19DE13F
:104FF00018E0632835D0642879D0652812D195E16E
:10500000702873D008DC6728F1D069286FD06E282B
:105010000DD06F2806D1B5E073282CD0752875D037
:10502000782874D05A46179990476D1C75E1C4F3DF
:105030000250022809D003280DD0D9F80010042806
:105040000DD00D6009F1040967E1D9F80010EA17E5
:10505000C1E90052F6E7D9F800100D80F2E70D70B3
:10506000F0E719F8041B8DF8001000208DF80100FE
:10507000EA46012003E059F804AB4FF0FF30610726
:105080004FF0000102D40DE008F101018846B94259
:105090000FDA8045F8DB1AF808100029F4D108E08F
:1050A00008F1010188468142FADB1AF8081000294C
:1050B000F6D105985B46A0EB080721463846179ABB
:1050C00000F094FA284400EB080507E04DE029E1E0
:1050D0000DE01AF8010B5A4617999047B8F10108EC
:1050E000F7D25B4621463846179A13E142E00A227E
:1050F0000092C4F302524FF0000A022A08D059F875
:1051000004CB032A4FEAEC710AD00DE029E02AE033
:1051100009F1070121F00702F2E802C1914609E016
:105120000FFA8CFC4FEAEC71042A03D14FFA8CFC85
:105130004FEAEC71002907DA0A460021DCF1000C85
:1051400061EB02012D2202E0220504D52B228DF80D
:105150000420012203E0E20701D02022F7E7904675
:1051600059E00A2102E010220DE010214FF0000A60
:1051700000910BE010224FF0000A44F004040827CD
:10518000009203E008224FF0000A0092C4F302529A
:10519000022A05D059F804CB0021032A08D009E0DF
:1051A00009F1070121F00702F2E802C1914605E08A
:1051B0001FFA8CFC042A01D10CF0FF0C4FF0000800
:1051C000220728D5702806D0009B83F0100353EAED
:1051D0000A0305D00EE040228DF80420012208E0E9
:1051E0005CEA010206D030228DF804208DF805001B
:1051F00002229046009B83F0080353EA0A030AD177
:105200005CEA010201D1620705D530228DF8042045
:105210004FF001087F1E582804D034A003900EA838
:1052200002900DE036A0F9E753466046009AFAF77F
:10523000EFFF84460398825C0298401E0290027041
:105240005CEA0100F0D1029806A9081A00F1200AD0
:10525000600702D524F4803400E00127574502DDC1
:10526000A7EB0A0000E0002000EB0A01009005987F
:105270004144401A0590E00306D45B462146179A44
:10528000059800F0B3F90544002706E001A85A4646
:10529000C05D179990476D1C7F1C4745F6DBE00306
:1052A0000CD55B462146179A059800F09FF90544F6
:1052B00004E030205A46179990476D1C0099481E0B
:1052C00000900029F5DC08E0029802995A4600781F
:1052D000491C0291179990476D1CBAF10001AAF17F
:1052E000010AF1DC65E100000928010030313233A8
:1052F0003435363738396162636465660000000012
:1053000030313233343536373839414243444546FB
:105310000000000000F058F90544761C30780028A1
:105320007FF4ECAD19B02846BDE8F08F620700D4D9
:10533000062709F1070222F0070CFCE80223E146E8
:1053400003F000485FEA080C02D00FF2702C0DE069
:105350005FEA045C02D50FF2682C07E05FEAC47CC8
:1053600002D00FF2602C01E0AFF2700C4FF0FF386A
:1053700023F00043CDF850C065280CD006DC45284A
:1053800009D046281DD047283DD13DE0662818D0D9
:1053900067287ED138E00021112F01DB112000E0C9
:1053A000781CCDE9000106A90EA8FFF7DDFCDDE9B8
:1053B0000F010E9A03910021009207F1010A049156
:1053C0004DE04FF000400097CDE9011006A90EA86E
:1053D000FFF7CAFCDDE90F0203920E9B1199002230
:1053E000DDF80CA00093049211B9791C00EB010ABE
:1053F000B7EB0A0004D4C0F1FF3007F1010A0490B2
:10540000AAEB0700019044E0012F00DA01270021F8
:10541000112F01DD112000E03846CDE9000106A979
:105420000EA8FFF7A1FCDDE90F010E9A0391002100
:1054300004910092BA4621070CD40399514500DA31
:105440008A46BAF1010F05DD009AAAF10101515C0B
:10545000302908D0B84202DA10F1040F06DA01212F
:10546000CDE9011015E0AAF10101E9E7002805DC0A
:10547000049901440491AAEB000102E0411C51454A
:1054800000DD8A460499401A401C01904FF000400C
:105490000290200704D40198504501DBCDF8048028
:1054A00000208DF84F0002980DF14F07B0F1004F2A
:1054B00025D02B200E9002984FF0020800280CDA1D
:1054C000404202902D200E9007E00A210298FBF73F
:1054D00010F83031029007F8011DB8F10001A8F171
:1054E0000108F2DC02980028EFD1791E0E980870AE
:1054F000307800F0200040F0450007F8020D12A8B7
:10550000C01B00F107081498007800B1012000EBDF
:105510000A01019801EBE07105984144401A401ED0
:105520000590E00306D45B462146179A059800F0E3
:105530005DF805441498007818B15A4617999047B9
:105540006D1CE00324D55B462146179A059800F0B0
:105550004DF805441CE00498002807DBDDE9030151
:10556000884203DD0098405C179901E017993020CC
:105570005A469047049805F10105401C0490019893
:10558000401E019004D12E205A46179990476D1C59
:10559000BAF10001AAF1010ADDDC05E017F8010B00
:1055A0005A46179990476D1CB8F10001A8F10108FF
:1055B000F4DC5B462146179A0598ABE62D00000007
:1055C0002B000000200000002DE9F04104460025DA
:1055D0001E461746880404D405E039462020B0470B
:1055E0006D1C641EF9D52846BDE8F0812DE9F04117
:1055F000044600251E469046C80301D5302700E02A
:105600002027880404D505E041463846B0476D1C84
:10561000641EF9D52846BDE8F0810A68531C0B606A
:1056200010707047002100E0491C8142FCD3704794
:1056300000B587B014216846FAF722FE0B48C16C0A
:1056400041F00101C164C06C022100F0010005902D
:10565000402000900120CDE90201019069464FF001
:105660009040FBF7C5FE07B000BD000000100240EF
:1056700010B500F0C5F8CC2000F0B0F8442000F0E0
:10568000ADF800F0BDF8CC2000F0A8F8BE2000F086
:10569000A5F800F0A0F8044600F09DF844EA0020C8
:1056A000C0F30E0010BD000013B53223012269467D
:1056B0000248FDF78FFB00981CBD00008801002008
:1056C000FBF792FFFEF7B2FBFBF7E2F9FDF740FEB6
:1056D000FBF7D4F8FEF706FCFDF7DCFBFEF786FED1
:1056E000FFF7A6FFFEF750FB012213491348FDF711
:1056F0002BFB0020FDF784FD0020FDF783FE4FF615
:10570000FF70FDF793FE00210D48FCF725FF0421F3
:105710000B48FCF721FF0848022200210D30FBF75F
:1057200057F900BFFDF7A8FCFDF768FFFFF74CFA3B
:10573000FEF750FBF6E7000009000020880100207A
:105740003C01002000B585B014216846FAF798FDA9
:105750004020009000200190029069464FF0904058
:10576000FBF746FE05B000BD00B585B014216846C4
:10577000FAF786FD4020009001200190022003905E
:105780000020029069464FF09040FBF731FE05B0D3
:1057900000BD70B50446FFF7E7FF4FF090450022CB
:1057A00040212846FBF70DFF0F20401EFDD20CB113
:1057B000FFF7C8FF8E20401EFDD240212846FBF790
:1057C000FBFE00B9002440F2CE20401EFDD2FFF7C0
:1057D000B9FF204670BDFF20AFF3008070B50446CE
:1057E0005FF0080504F00100FFF7D3FF640808B17B
:1057F00044F080046D1E15F0FF05F3D1204670BD06
:1058000070B5FFF7B1FF4FF09044002240212046D1
:10581000FBF7D7FE41F6FF01491EFDD2FFF792FFCD
:1058200040F21E41491EFDD2402125462046FBF78D
:10583000C3FE044641F6DE10401EFDD2402128463C
:10584000FBF7BAFE00B90124204670BD000000003D
:105850000000000000000000000000000000000048
:105860000000000000000000000000000000000038
:1058700000000000000000000000000000008001A7
:105880008001800180018001800180018001800110
:105890008001800180018001000000008001800102
:1058A00000000000000000000000000000000000F8
:1058B000CC00CC00CC00CC00CC00CC000000000020
:1058C00000000000000000000000000000000000D8
:1058D00000000000000000000000000000000000C8
:1058E0000000000000000000600C600C600C30063E
:1058F0003006FE1FFE1F300638071803FE1FFE1F6E
:10590000180318038C018C018C010000000080003A
:10591000E003F80F9C0E8C1C8C188C009800F8018A
:10592000E007800E801C8C188C189C18B80CF00FA7
:10593000E003800080000000000000000000000084
:1059400000000E181B0C110C110611061103110397
:105950009B018E01C038C06C6044604430443044C8
:105960001844186C0C380000000000000000E00132
:10597000F0033807180618063003F001F000F800AD
:105980009C310E33061E061C061C063FFC73F021DC
:105990000000000000000000000000000000000007
:1059A0000C000C000C000C000C000C0000000000AF
:1059B00000000000000000000000000000000000E7
:1059C00000000000000000000000000000000002D5
:1059D00000038001C000C0006000600030003000A3
:1059E00030003000300030003000300060006000D7
:1059F000C000C00080010003000200000000200081
:105A00006000C00080018001000300030006000662
:105A1000000600060006000600060006000300035C
:105A200080018001C0006000200000000000000034
:105A30000000000000000000C000C000D806F80709
:105A4000E001300338070000000000000000000003
:105A50000000000000000000000000000000000046
:105A60000000000000000000800180018001800132
:105A70008001FC3FFC3F80018001800180018001AA
:105A80000000000000000000000000000000000016
:105A90000000000000000000000000000000000006
:105AA0000000000000000000000000000000800175
:105AB00080010001000180000000000000000000E3
:105AC00000000000000000000000000000000000D6
:105AD00000000000E007E0070000000000000000F8
