:020000040800F2
:10000000D8040020ED010008F71A00087714000852
:10001000F51A000825030008212800080000000048
:100020000000000000000000000000000F1E00089B
:100030002703000800000000F91A0008111E00083C
:10004000070200080702000807020008070200086C
:10005000070200080702000807020008070200085C
:10006000070200080702000807020008070200084C
:10007000070200080702000807020008070200083C
:10008000070200080000000007020008070200083D
:10009000070200080702000807020008070200081C
:1000A000070200080702000807020008070200080C
:1000B00007020008070200080702000807020008FC
:1000C00007020008070200080702000807020008EC
:1000D00007020008AD270008070200080702000811
:1000E00007020008070200080702000807020008CC
:1000F00007020008070200080702000800000000CD
:1001000000000000070200080000000007020008CD
:1001100007020008000000000702000807020008AC
:10012000070200080702000807020008070200088B
:10013000070200080000000000000000070200089D
:10014000070200080702000800000000000000008D
:10015000000000000000000000000000000000009F
:10016000000000000000000000000000070200087E
:10017000070200080000000000000000000000006E
:10018000000000000702000800000000000000005E
:10019000000000000000000000000000000000005F
:1001A000000000000000000007020008070200082D
:1001B000070200080702000807020008000000000C
:1001C000000000000702000800000000000000001E
:1001D0000702000807020008DFF80CD000F090F8D2
:1001E00000480047D92B0008D80400200648804763
:1001F00006480047FEE7FEE7FEE7FEE7FEE7FEE70C
:10020000FEE7FEE7FEE7FEE77D1E0008D9010008D5
:100210002DE9F05F0546002092469B46884606463B
:10022000814640241BE0284641464746224600F0CE
:1002300057F853465A46C01A914110D311461846F2
:10024000224600F03EF82D1A67EB01084F46224681
:100250000120002100F035F817EB00094E41201E67
:10026000A4F10104DFDC484631462A464346BDE896
:10027000F09FD2B201E000F8012B491EFBD270477B
:100280000022F6E710B513460A4604461946FFF762
:10029000F0FF204610BD30B50B460146002020225D
:1002A000012409E021FA02F59D4205D303FA02F583
:1002B000491B04FA02F52844151EA2F10102F1DCE3
:1002C00030BD202A04DB203A00FA02F100207047FA
:1002D0009140C2F1200320FA03F319439040704784
:1002E000202A04DB203A21FA02F00021704721FA8B
:1002F00002F3D040C2F120029140084319467047F2
:10030000064C074D06E0E06840F0010394E8070062
:1003100098471034AC42F6D3FFF762FF243E000842
:10032000443E0008FEE77047002240F6B83306E07E
:100330000021491C89B29942FBD3521C92B28242DD
:10034000F6D3704772B6FEE710B590F8253000215D
:100350000122022B03D00421C163012122E00368A2
:100360001C6824F00E041C60836C1C6824F48074E8
:100370001C6003681C6824F001041C6090F8443081
:10038000046C03F01F0302FA03F36360D0E9133433
:100390005C60436D33B11C6824F480741C60D0E948
:1003A00016345C6080F82520002280F8242008465E
:1003B00010BD70B590F82520002401212346022AA3
:1003C00007D00422C26380F8251080F8243001246D
:1003D00029E00268156825F00E05156002681568A9
:1003E00025F001051560826C156825F4807515608F
:1003F00090F84420056C02F01F0201FA02F26A60D4
:10040000D0E913255560426D32B1156825F4807529
:100410001560D0E91625556080F8251080F8243045
:10042000816B01B18847204670BD000070B504465D
:1004300000F0FCF80546601C02D004484068044403
:1004400000F0F4F8401BA042FAD370BD2000002059
:100450002DE9FC4FDFF8A0A1002301250AF1040BD0
:1004600003244FF00F0C0BF1040EBDE005FA03F668
:1004700032406FD04F68012F05D0022F03D0112FCB
:1004800001D0122F17D1D0F808905F0004FA07F8B6
:1004900029EA08090097D1F80C8008FA07F848EA19
:1004A0000908C0F808804768B7430E79C6F30016FC
:1004B0009E403E434660C6684FEA430804FA08F788
:1004C000BE4301978F6807FA08F73743C7604E6845
:1004D000022E01D0122E13D1DE0800EB8606009604
:1004E000366A5F07FF0E0CFA07F926EA0906D1F80B
:1004F000109009FA07F949EA0609009EC6F820900B
:100500000668019FBE430F7907F0030707FA08F753
:10051000374307604E68F60065D5384E376E47F0B2
:1005200001073766366E23F0030706F001060096D2
:10053000334E3E44B146B6689F074FEA17780CFA2F
:1005400008F7BE43B0F1904F05D02E4FB84204D10A
:10055000012717E047E0002714E02B4FB84201D1F4
:1005600002270FE0294FB84201D103270AE0284FA4
:10057000B84201D1042705E0264FB84201D1052732
:1005800000E0062707FA08F73743C9F80870DAF8D9
:1005900000605746D1F8048096435FEAC83800D51A
:1005A00016433E60DBF800605F46D1F80480964356
:1005B0005FEA883800D516433E60DEF80060774673
:1005C000D1F8048096435FEAC82800D516433E6000
:1005D000094F0C373E68D1F8048096435FEA8828BB
:1005E00000D516433E605B1C0A6832FA03F67FF4BE
:1005F0003DAFBDE8FC8F0000000401400010024048
:10060000000001400004004800080048000C0048B9
:1006100000100048001400480069084000D0012084
:1006200070470AB1816170478162704701488068F4
:100630007047000020000020024881684268114491
:10064000816070472000002010B50024032000F0D6
:1006500073F8002000F008F808B1012401E000F070
:1006600025F8204610BD000070B50E4E054600244A
:10067000706898B14FF47A71B1FBF0F00A490968DB
:10068000B1FBF0F000F020FC40B9102D06D20022A2
:100690002946501E00F030F8356000E00124204665
:1006A00070BD0000200000202C0000200A4882B00D
:1006B000016E41F001010166016E01F0010100913E
:1006C000816D41F080518165806D00F08050009017
:1006D00002B000F0A1B8000000100240002809DBC1
:1006E00000F01F02012191404009800000F1E0204C
:1006F000C0F8001170470000F0B40E4B1B680C46A8
:10070000C3F30223C3F10705042D00D90425191DE5
:10071000072901D2002300E0DB1E012606FA05F1BD
:10072000491E214099409E40761E16403143F0BC40
:1007300002F08CB80CED00E0064900F007020868F2
:100740004FF6FF03184040EA0220034A10430860B6
:10075000704700000CED00E00000FA052B492C4B1F
:100760000A6832214A432B4940B1B0F5007F08683E
:1007700029D020F4C06040F480602CE00868C0F309
:100780004120022804D051F8800F20F4807022E02C
:10079000D1F8800020F48070C1F88000086820F44F
:1007A000C06040F400700860B2FBF3F0401C00E051
:1007B000401E4A69520501D50028F9D14869400513
:1007C0000AD503207047C0F34120022806D051F813
:1007D000800F40F48070086000207047D1F88000DE
:1007E00040F48070C1F88000086820F4C06040F4D4
:1007F00000700860B2FBF3F0401C00E0401E4A6944
:100800005205DBD50028F9D1D8E700002C000020E4
:1008100040420F00007000400248816841F480416E
:1008200081607047007000402DE9F0470E460500DA
:100830004FF0000725D0DFF8AC81D8F8000000F0B9
:100840000F00B0420CD2D8F8001021F00F01314354
:10085000C8F80010D8F8000000F00F00B04210D126
:100860002968614CC80741F2883A5AD06868DFF8B5
:100870007C91032808D0022820682DD0400500284C
:100880002CDB0120BDE8F08720688001F9D5E06805
:1008900000F00302E068C0F30310401C032A19D0E3
:1008A000534A00BFB2FBF0F0E268C2F306225043A5
:1008B000E268C2F34162521C5200B0FBF2F04845BC
:1008C00017D9A06810F0F00F0CD0880711D5A868D0
:1008D00040B10EE0474AE5E78003D0E700F0B6F804
:1008E000484506D9A06820F0F00040F08000A060E4
:1008F0008027A068696820F003000843A060FFF724
:1009000095FE814606E000BFFFF790FEA0EB0901CF
:1009100051453AD8A068696800F00C00B0EB810F2F
:10092000F2D12868810714D5400703D5A06840F4A8
:10093000E060A0602878000705D5A06820F460502A
:1009400040F4E060A060A068A96820F0F0000843CF
:1009500004E0802F03D1A06820F0F000A060D8F858
:100960000010404601F00F01B14216D9016821F094
:100970000F0131430160FFF759FE074607E000BF52
:10098000FFF754FEC11B514501D903207AE7D8F87F
:10099000000000F00F00B042F2D12878400705D5E2
:1009A000A068E96820F4E0600843A06028780007A8
:1009B00006D5A068296920F4605040EAC100A06013
:1009C00000F044F8A1680C4AC1F30311515C01F036
:1009D0001F01C8400949086009480068BDE8F047A0
:1009E000FFF742BE002002400010024000B4C404E1
:1009F0000024F40000366E010C3E00082C0000209C
:100A0000200000200548064900688968054AC1F3AE
:100A10000221515C01F01F01C84070472C000020EA
:100A2000001002401C3E000805480649006889681D
:100A3000054AC1F3C221515C01F01F01C840704753
:100A40002C000020001002401C3E0008184910B580
:100A50008868C0F381021748012A0BD08A68164BB8
:100A6000C2F38102022A06D08A68C2F38102032AF5
:100A700003D0002010BD184610BDCA6802F0030460
:100A8000CA68C2F30312521C032C02D0B0FBF2F06E
:100A900001E0B3FBF2F0CA68C968C2F30622504312
:100AA000C1F34161491C4900B0FBF1F010BD0000E9
:100AB000001002400024F40000366E012DE9F843D6
:100AC00004007AD02078FA4DC00747D0A868E968BA
:100AD00000F00C0001F003010C2802D0082817D008
:100AE00001E0032914D06068B0F5803F17D0B0F55D
:100AF000A02F286817D020F480302860286820F4C0
:100B0000802028606068E0B1FFF790FD064614E0A1
:100B10002868800322D560680028D2D01EE02868AB
:100B200040F48030EDE740F480202860F7E700BF14
:100B3000FFF77CFD801B642870D828688003F7D5F8
:100B40000CE0FFF773FD064605E000BFFFF76EFD02
:100B5000801B6428F0D828688003F7D420788007A9
:100B60004CD5A868E96800F00C0001F003010C28DE
:100B700002D004280DD001E002290AD0E068002844
:100B800028682BD040F480702860FFF74FFD0646A0
:100B900019E02868400502D5E068002891D068680F
:100BA000217C20F0FE4040EA01606860C148006896
:100BB000FFF75AFD002800D120E076E1FFF736FD6F
:100BC000801B0228B8D828684005F7D56868217CC2
:100BD00020F0FE4040EA016068600FE020F4807081
:100BE0002860FFF723FD064605E000BFFFF71EFD66
:100BF000801B0228A0D828684005F7D42078000779
:100C000029D560690028D5F8940013D040F0010080
:100C1000C5F89400FFF70AFD064606E090E000BF25
:100C2000FFF704FD801B022886D8D5F894008007C2
:100C3000F6D510E020F00100C5F89400FFF7F6FCAF
:100C4000064604E0FFF7F2FC801B022878D8D5F8AE
:100C500094008007F6D42078400761D5A86D00265F
:100C6000C00008D4A86D40F08050A865A86D01268A
:100C700000F08050009090480168C90511D40168C7
:100C8000804641F480710160FFF7D0FC074604E024
:100C9000FFF7CCFCC01B022852D8D8F80000C005D2
:100CA000F6D5A068012815D00528D5F8900016D0F3
:100CB00020F00100C5F89000D5F8900020F0040065
:100CC000C5F89000A06841F28838B8B1FFF7AEFCD3
:100CD00007460EE0D5F8900040F00100F0E740F044
:100CE0000400C5F89000F5E7FFF7A0FCC11B4145E3
:100CF00026D8D5F890008007F6D50CE0FFF796FCD3
:100D0000074604E0FFF792FCC11B414518D8D5F80F
:100D100090008007F6D41EB1A86D20F08050A86521
:100D20002078800629D5A0690028D5F8980013D02E
:100D300040F00100C5F89800FFF778FC064606E091
:100D400077E000BFFFF772FC801B022877D8D5F848
:100D500098008007F6D510E020F00100C5F8980053
:100D6000FFF764FC064604E0FFF760FC801B0228E6
:100D700065D8D5F898008007F6D4E069F0B3A96883
:100D8000C1F38101032961D00228286820F0807016
:100D900028600BD0E86820F00300E860E868474965
:100DA0000840E860FFF742FC04464BE0FFF73EFCDA
:100DB000064604E0FFF73AFC801B02283FD828686B
:100DC0008001F7D4F4E908016FF00F0202EB011182
:100DD0000843218A5204490802EB4151A26841EAC2
:100DE00002210843217D4FF07E42490802EB416118
:100DF0000843217B40EAC160E96800E062E0304AD4
:100E000011400843E860286840F080702860E86876
:100E100040F08070E860FFF709FC044605E000BF81
:100E2000FFF704FC001B022809D828688001F7D5C9
:100E300048E004E0FFF7FAFB001B022802D9032078
:100E4000BDE8F88328688001F4D43BE00128F7D09E
:100E5000E868226A00F00301914226D1616A00F03D
:100E6000F0020901103991421FD1A26A00F4FE413B
:100E7000B1EB022F19D194F82C2000F07841B1EB9E
:100E8000C26F12D1218E00F4C00249084905A1F5B4
:100E90000011914209D194F8341000F0C060490863
:100EA0004906A1F1007181420CD00120C8E7000081
:100EB000001002402000002000700040FFFFEEFE06
:100EC0000C809F010020BBE710B5401EB0F1807F71
:100ED00001D3012010BD4FF0E02460610F216017A5
:100EE00001F0B4FC0020A06107202061002010BDAB
:100EF00090F88010012918D0012180F88010242159
:100F0000C0F8841050F8641B0A680B6823F00103D2
:100F10000B6022F000510022026050F8643C19601E
:100F20002021016202771046704702207047704707
:100F3000704770B5044690F8800001281DD001204C
:100F400084F880002420C4F88400206805680268C2
:100F500022F0010202602068826822F060620A4387
:100F60008260204600F092FF206805602020C4F8CF
:100F70008400002084F8800070BD022070BD70B530
:100F8000044690F8800001281DD0012084F88000DC
:100F90002420C4F8840020680568026822F0010259
:100FA00002602068826822F060420A438260204624
:100FB00000F06CFF206805602020C4F88400002049
:100FC00084F8800070BD022070BD70477047704784
:100FD0002DE9F04103680446D86919689A6840F61B
:100FE0000F0528424FF0000509D186067ED501F095
:100FF000200602F080573E4378D0216FFFE0924EEA
:10100000924F16400F40374370D0C70709D0CF0525
:1010100007D501271F62D4F88C3043F00103C4F8D0
:101020008C3083070AD5D30708D0276802233B6298
:10103000D4F88C3043F00403C4F88C3043070AD54D
:10104000D30708D0276804233B62D4F88C3043F0E0
:101050000203C4F88C3003070CD501F0200333439E
:1010600008D0266808233362D4F88C3043F0080394
:10107000C4F88C3003050BD54B0109D526684FF415
:1010800000633362D4F88C3043F02003C4F88C3012
:10109000D4F88C30002B34D0800609D501F0200024
:1010A00002F08051084303D0216F09B120468847E0
:1010B000D4F88C0021688968490602D410F0280F02
:1010C00021D0204600F0A2FF20688168490615D58E
:1010D000816821F040018160E06F78B15C498163F3
:1010E000E06FFFF766F900280BD000E011E0E06F39
:1010F000816B00E02046BDE8F04108472046FFF73D
:1011000066FFBDE8F0812046FFF761FFC4F88C5010
:10111000F7E7E76E2026012F5CD1C7065AD5CF0628
:1011200058D5102018622068816849062FD5E26FD3
:10113000116849680904090CE3D0B4F85C308B42AB
:10114000DFD9A4F85E1011680968890618D401680F
:1011500021F4807101602068816821F001018160C3
:101160002068816821F040018160C4F88860E566EC
:101170002068016821F010010160E06FFFF7E4F8DA
:10118000B4F85C00B4F85E10401A81B21EE0B4F806
:101190005C10B4F85E20891AB4F85E2089B2002A87
:1011A000AFD00029ADD0026822F4907202602068AE
:1011B0008268254BDB431A408260C4F88860E5668C
:1011C00025672068026822F0100202602046FFF7BF
:1011D000AEFE96E7C70209D5570207D54FF4801037
:1011E00018622046BDE8F041FFF7F0BE07060AD5B9
:1011F00001F0800702F40002174304D0616F002958
:101200007FF478AF7DE742060CD54A060AD5196807
:10121000204621F040011960C4F88460656700F041
:1012200029F96EE7020206D54A0004D52046BDE83A
:10123000F041FFF7CABEC001CBD50029C9DA20466C
:10124000BDE8F041FFF774BE01000010200100046A
:10125000F91F000810B5040003D0D4F8840010B1C1
:1012600007E0012010BD002084F88000204600F037
:1012700027F82420C4F884002068016821F00101C7
:101280000160204601F09AF80128EBD0A06A10B165
:10129000204600F01DFE2068416821F49041416025
:1012A0002068816821F02A0181602068016841F08E
:1012B000010101602046BDE8104000F06DBE000055
:1012C00010B586B0044614216846FEF7D9FF1749C9
:1012D0002068884227D11648016E41F4804101669A
:1012E000016E01F480410591C16C41F00101C164BE
:1012F000C06C694600F0010005904FF4C06000909A
:1013000012200190002002900390072004904FF0DB
:101310009040FFF79DF8002201212520FFF7ECF90E
:101320002520FFF7DBF906B010BD000000380140B2
:101330000010024010B4D0F88830202B1BD1B9B176
:10134000B2B190F88030012B15D0012380F88030A5
:101350000023C366094C0368A34206D05C682402DC
:1013600003D51C6844F080641C6010BC01F060B9B7
:10137000012010BC70470220FBE700000080004005
:1013800010B5FF2000F03EFB4FF49670FFF74EF8CB
:10139000002000F037FB012205490648FFF7CAFF8D
:1013A0003223BDE8104001220149024800F004B890
:1013B00004000020480000202DE9F8430446D0F83E
:1013C00084001F4616460D46202851D1DDB1D6B106
:1013D00094F8800001284BD0012084F880004FF061
:1013E0000008C4F88C802120C4F884001834FFF76A
:1013F0001DF9A6878146E68754F8100C183CB0F515
:10140000805F03D004E00120BDE8F883206920B1AB
:101410002E46002584F8808010E00026FAE780211F
:10142000204601F071F9B8B9C6B116F8010B216870
:101430008862B4F85600401EA4F85600B4F856006E
:101440004B464FF0000200970028E8D14FF04001D2
:10145000204601F059F930B10320D5E735F8020BE9
:10146000C0F30800E3E72020C4F884000020CBE7A5
:101470000220C9E77047FEE710B586B01421684620
:10148000FEF7FEFE1248C16C41F00101C164C16C5F
:1014900001F001010591C16C41F00201C164C06C11
:1014A000002400F0020005900120CDE90004694607
:1014B0004FF090400294FEF7CBFF0720CDE90004E7
:1014C000694604480294FEF7C3FF06B010BD000051
:1014D0000010024000040048114810B50168114C8A
:1014E000A268891A642919D30068A06000F01CF86A
:1014F0002070E17820EA0102414081436270A170CE
:10150000E070012A02D1882000F07CFAA07802283D
:1015100004D1BDE81040002000F074BA10BD0000F6
:10152000280000200000002070B50E4D002401218D
:101530002846FFF771F800B9012402212846FFF779
:101540006BF800B9022404212846FFF765F800B9BA
:10155000032401214FF09040FFF75EF800B9042406
:10156000204670BD0004004800B585B014216846CF
:10157000FEF786FE4FF6FF70009000200321CDE9B4
:101580000201019069460248FEF762FF05B000BD06
:101590000008004800B585B014216846FEF770FECB
:1015A0004FF6FF700090012001900320039000206F
:1015B000029069460248FEF74BFF05B000BD0000EF
:1015C0000008004870B5002406462146204600F079
:1015D00075F900F0B3F94FF49635304600F082F912
:1015E000641CAC42F9D370BD30B587B01421684695
:1015F000FEF746FE1E48C16C41F00401C164C16C97
:1016000001F004010591C16C41F00101C164C16C9C
:1016100001F001010591C16C41F00201C164C06C8F
:10162000012500F0020005904FF44870CDE9000557
:1016300000240394694602940E48FEF709FF28022D
:1016400003940090CDE901544FF090446946204640
:10165000FEF7FEFEFFF79EFFA06940F48070A061D8
:1016600004481830016841F40871016007B030BDCA
:101670000010024000040048203AD2B2034B02EBB3
:10168000420203EB021200F019B80000142C00080B
:10169000F0B50E460746002540F23F1407E021460C
:1016A0003846FFF7E9FF103C6D1CA4B2761C327877
:1016B000002A01D0142DF2D3F0BD00002DE9F0472F
:1016C00091468A460026044600F0F8F8DFF840808C
:1016D000012700BF00F032F95FF0000539F816006D
:1016E00007FA05F10842404601D1408800E0008831
:1016F00000F0F8F86D1C102DF0D3641CE4B25146D4
:10170000204600F0DBF8761C182EE3D3BDE8F08706
:101710001800002010B5FFF767FF002000F086F8E2
:10172000084CA080A088A0F50241303906D000F016
:101730006DFA002000F07AF8A08010BD00F0DDF90D
:10174000F7E700001800002010B525490A68254871
:10175000C368D21AB2F5967F40D30968C160426966
:1017600021A1521C4261244801F05CF81F2000F0C6
:101770009DF84FF6FF74204600F0ACF81FA1002042
:10178000FFF786FF1DA11820FFF782FF1A493020BE
:10179000FFF77EFF19A14820FFF77AFF17A160200D
:1017A000FFF776FF204600F081F81F2000F092F846
:1017B00012A17820FFF76CFF10A19020FFF768FFBF
:1017C00014A1A820FFF764FF0CA1C020FFF760FF61
:1017D000BDE8104009A1D820FFF75ABF10BD000096
:1017E0002800002000000020202054686520692087
:1017F000697320252D336400300000202020202034
:1018000020202020202020202020202020202020D8
:101810000000000020202057656C636F6D65205428
:101820006F204169722020200000000070B51D4922
:101830000A6842F400720A600A6842F480720A6020
:10184000184C103C226842F020022260164A1060B8
:10185000086840F02000086000BF00BF00BF20689B
:1018600040F020002060206840F480702060FFF786
:101870007BFE4FF09041886A40F48070886200BF20
:1018800000BF00BF0848001F006885B2886940F4A7
:1018900080708861FFF77EFE206840F40070206051
:1018A000284670BD280400481408004801B5BDF85A
:1018B00000000149488008BD1800002010B50C4602
:1018C0000146202000F068F82146BDE810402120A4
:1018D00000F062B801B5BDF800000149088008BDFC
:1018E00018000020134A116841F400711160114979
:1018F00010390B6843F480730B600B6843F02003CE
:101900000B600D4B1860106840F02000106000BFA5
:1019100000BF00BF086840F020000860086840F47D
:101920008070086000BF00BF00BF086840F400700E
:1019300008607047280400481408004814490868E3
:1019400040F400700860086840F480700860104837
:101950001038026842F0200202600E4B22221A6008
:101960000A6842F020020A6000BF00BF00BF0168A1
:1019700041F020010160016841F48071016000BF05
:1019800000BF00BF016841F40071016070470000B2
:101990002804004814080048184B10B51A6842F48F
:1019A00000721A601A6842F480721A60134A103A80
:1019B000146844F020041460114C2060186840F052
:1019C0002000186000BF00BF00BF106840F020007A
:1019D0001060106840F4807010602160186840F05A
:1019E0002000186000BF00BF00BF106840F020005A
:1019F0001060106840F48070106010BD280400482A
:101A00001408004870B5124D044601224FF6FF71CC
:101A10002846FEF706FE0F4E012204213046FEF74F
:101A200000FE002204213046FEF7FBFD21020022C9
:101A30002846FEF7F6FD012204213046FEF7F1FDAF
:101A40003046BDE8704000220421FEF7EABD0000E8
:101A500000080048000C0048F0B587B01421684623
:101A6000FEF70EFC2048C16C41F00401C164C16C5A
:101A700001F004010591C16C41F02001C164C16C09
:101A800001F020010591C16C41F00801C164C06CF6
:101A9000164E00F008004FF47F44059001222146C5
:101AA0003046FEF7BEFD124F012204213846FEF7F4
:101AB000B8FD0125CDE90045002402946946304671
:101AC0000394FEF7C5FC04200090CDE9015469465B
:101AD00038460394FEF7BCFC002204213846FEF78A
:101AE000A0FD07B0F0BD0000001002400008004853
:101AF000000C0048FEE7FEE7704730B501210020EA
:101B0000FFF74AFF4FF47A70FEF70EFC0021012028
:101B1000FFF742FF41F290711020FFF73DFF4FF4B5
:101B20001C516020FFF738FF01216120FFF734FFCF
:101B300002214620FFF730FF48F210011320FFF783
:101B40002BFF48F2FE011220FFF726FF4FF4A061A1
:101B50000220FFF721FF41F230010320FFF71CFFB5
:101B600040F2033421463020FFF716FF2146312092
:101B7000FFF712FF21463220FFF70EFFE51E294630
:101B80003320FFF709FF03213420FFF705FF21462B
:101B90003520FFF701FF14213620FFF7FDFE214617
:101BA0003720FFF7F9FE21463820FFF7F5FE2146E2
:101BB0003920FFF7F1FE29463A20FFF7EDFE032119
:101BC0003B20FFF7E9FE21463C20FFF7E5FE4FF4FE
:101BD000A0513D20FFF7E0FE4FF400719220FFF787
:101BE000DBFE21469320FFF7D7FE40F60D01902043
:101BF000FFF7D2FE41F218010320FFF7CDFEBDE84A
:101C0000304040F273110720FFF7C6BE10B543F213
:101C10000801E320FFF7C0FE1221E720FFF7BCFE1A
:101C200041F23121EF20FFF7B7FE00210120FFF73D
:101C3000B3FE4FF4E0610220FFF7AEFE41F2300147
:101C40000320FFF7A9FE00210420FFF7A5FE40F2C4
:101C500007210820FFF7A0FE00210920FFF79CFEC6
:101C600000210A20FFF798FE00210C20FFF794FEC8
:101C700000210D20FFF790FE00210F20FFF78CFEC2
:101C800000211020FFF788FE07211120FFF784FEB6
:101C900000211220FFF780FE00211320FFF77CFEB9
:101CA000C820FEF7C3FB41F290611020FFF774FEDD
:101CB00040F227211120FFF76FFE3220FEF7B6FB1E
:101CC0001D211220FFF768FE3220FEF7AFFB4FF414
:101CD00000611320FFF760FE14212920FFF75CFE4E
:101CE0000B212B20FFF758FE3220FEF79FFB00212F
:101CF0002020FFF751FE00212120FFF74DFE072194
:101D00003020FFF749FE40F207713120FFF744FE13
:101D100006213220FFF740FE40F204713520FFF724
:101D20003BFE41F604713620FFF736FE04213720D2
:101D3000FFF732FE00213820FFF72EFE40F2067139
:101D40003920FFF729FE40F201713C20FFF724FE05
:101D50000F213D20FFF720FE00215020FFF71CFE41
:101D6000EF215120FFF718FE00215220FFF714FE4B
:101D700040F23F115320FFF70FFE4FF41C5160203B
:101D8000FFF70AFE01216120FFF706FE00216A200D
:101D9000FFF702FE00218020FFF7FEFD00218120D9
:101DA000FFF7FAFD00218220FFF7F6FD00218320D6
:101DB000FFF7F2FD00218420FFF7EEFD00218520D2
:101DC000FFF7EAFD10219020FFF7E6FD00219220A9
:101DD000FFF7E2FD03219320FFF7DEFD4FF488714A
:101DE0009520FFF7D9FD00219720FFF7D5FD0021B1
:101DF0009820FFF7D1FD41F218010320FFF7CCFD39
:101E0000BDE8104040F273110720FFF7C5BD7047D1
:101E1000FEF712BC10B594B038216846FEF730FAD0
:101E200014210EA8FEF72CFA4FF40070FEF796FC72
:101E3000012000900004019002200324CDE9070452
:101E40001421CDE90A100C900D9009946846FEF714
:101E500035FE08B172B6FEE70F20CDE90E04002072
:101E600010901190129002210EA8FEF7DDFC0028C0
:101E700001D072B6FEE714B010BD00000248016840
:101E800041F470010160704788ED00E030B5416EAB
:101E9000B9B1026891689268C1F342610B4B520F6D
:101EA0009C5CE50003F10804A25CB5FBF2F2A0F82B
:101EB0006A205A5C615CD200B2FBF1F1A0F86810B4
:101EC00030BD0121A0F86A10F8E70000FC3D0008D1
:101ED00090F82810C90706D001684A68C36A22F43E
:101EE00000321A434A6090F82810890706D5016825
:101EF0004A68036B22F480321A434A6090F8281033
:101F0000490706D501684A68436B22F480221A43C8
:101F10004A6090F82810090706D501684A68836B63
:101F200022F400421A434A6090F82810C90606D5E8
:101F300001688A68C36B22F480521A438A6090F861
:101F40002810890606D501688A68036C22F40052BD
:101F50001A438A6090F82810490611D501684A682A
:101F6000436C22F480121A434A60416CB1F5801F21
:101F700006D101684A68836C22F4C0021A434A60A1
:101F800090F82810090606D501684A68C06C22F44A
:101F9000002202434A607047F8B500260446C0F8A4
:101FA0008C60FEF743FB0546206800686FF07E47B3
:101FB000000708D52B4600224FF400112046009759
:101FC00000F0A2FB60B92068006840070AD52B46E4
:101FD00000224FF480012046009700F095FB08B1E5
:101FE0000320F8BD2020C4F88400C4F8880044F819
:101FF0006C6F00202675F8BD10B5806A0021A0F82E
:102000005E10A0F85610FEF7E2FF10BD01680A68E6
:1020100022F490720A6001688A68094B1A408A604B
:10202000C16E012904D101680A6822F010020A6019
:102030002021C0F888100021C166016770470000A8
:10204000FEFFFFEF70B5B0F86010D0F888200446AE
:102050000068222A04D0816941F00801816170BDC5
:10206000406AA26D08401080A06D801CA065B4F885
:102070005E00401EA4F85E00B4F85E000028EED1B9
:102080002068016821F4907101602068816821F066
:10209000010181602020C4F8880000252567E06EDA
:1020A000012804D02046FFF76BF9E56670BD206873
:1020B000016821F010010160B4F85C102046FEF7C1
:1020C00036FFF2E72DE9F0470446B0F8606000689B
:1020D000C569D0F800A0D0F80880D4F8881022296B
:1020E00005D0816941F008018161BDE8F087B4F84D
:1020F00068704FF000095BE02068406AA16D3040D5
:102100000880A06D801CA065B4F85E00401EA4F895
:102110005E002068C569690730D0E9070AD05FEA28
:10212000CA5107D501210162D4F88C0040F00100AA
:10213000C4F88C00A8070BD55FEAC87008D02168E6
:1021400002200862D4F88C0040F00400C4F88C002F
:1021500068070BD55FEAC87008D0216804200862C0
:10216000D4F88C0040F00200C4F88C00D4F88C0045
:1021700020B12046FEF72BFFC4F88C90B4F85E0027
:10218000B0B92068016821F480710160206881681D
:10219000194A114081602020C4F88800C4F870906A
:1021A000E06E01281CD02046FFF7EAF8C4F86C90D6
:1021B0000FB1A806A0D4B4F85E00002895D0B4F8FA
:1021C0006810814291D92068816821F08051816036
:1021D0000A4820672068016841F02001016084E717
:1021E0002068016821F010010160B4F85C102046FD
:1021F000FEF79DFEDAE70000FEFFFFEF4520000836
:1022000070B5B0F86010D0F8882004460068222A23
:1022100004D0816941F00801816170BD406A0840C5
:10222000A16D0870A06D401CA065B4F85E00401E52
:10223000A4F85E00B4F85E000028EED120680168C2
:1022400021F4907101602068816821F001018160B2
:102250002020C4F8880000252567E06E012804D0FE
:102260002046FFF78DF8E56670BD2068016821F013
:1022700010010160B4F85C102046FEF758FEF2E74A
:102280002DE9F0470446B0F860600068C569D0F8F1
:1022900000A0D0F80880D4F88810222905D08169E0
:1022A00041F008018161BDE8F087B4F868704FF033
:1022B00000095BE02068406AA16D30400870A06DA5
:1022C000401CA065B4F85E00401EA4F85E002068C3
:1022D000C569690730D0E9070AD05FEACA5107D556
:1022E00001210162D4F88C0040F00100C4F88C0098
:1022F000A8070BD55FEAC87008D0216802200862E1
:10230000D4F88C0040F00400C4F88C0068070BD5AA
:102310005FEAC87008D0216804200862D4F88C00F5
:1023200040F00200C4F88C00D4F88C0020B12046A4
:10233000FEF74DFEC4F88C90B4F85E00B0B920688A
:10234000016821F48071016020688168194A114098
:1023500081602020C4F88800C4F87090E06E0128E5
:102360001CD02046FFF70CF8C4F86C900FB1A806FB
:10237000A0D4B4F85E00002895D0B4F8681081426B
:1023800091D92068816821F0805181600A482067D6
:102390002068016841F02001016084E7206801683D
:1023A00021F010010160B4F85C102046FEF7BFFD7B
:1023B000DAE70000FEFFFFEF012200082DE9F041FF
:1023C0000446016880682269E36910436269002558
:1023D0001A431043DFF82CC20A688B4B1A400243A1
:1023E0000A6020684168E26821F44051114341606D
:1023F0002168A069614501D0226A10438A68834B35
:102400001A4002438A602068C16A626A21F00F01A3
:102410001143C1627E4923687E488B420DD1D0F8BA
:10242000880010F0030006D0012855D0022842D0C1
:1024300003283FD152E001203DE077498B420BD188
:10244000D0F8880010F00C0035D0042833D00828CC
:1024500040D00C282ED141E070498B420BD1D0F8EE
:10246000880010F0300026D0102835D0202831D038
:1024700030281FD132E06A498B420BD1D0F8880056
:1024800010F0C00017D0402826D0802822D0C028C5
:1024900010D123E063450DD1D0F8880010F44060DE
:1024A00009D0B0F5806F17D0B0F5006F12D0B0F53D
:1024B000406F13D010205B4A5B4F00264FF4004161
:1024C000634539D160B102280DD004280DD0082809
:1024D00031D10EE00220EEE70420ECE70820EAE725
:1024E000FEF790FA03E0114603E0FEF7AFFA0100B1
:1024F0007DD0606A37F810206768B1FBF2F007EB17
:10250000470383426CD8B0EB073F69D800230846E5
:102510001946FDF77DFE090241EA106102027808C2
:10252000101871413A460023FDF772FE3F4AA0F5AC
:102530004071914259D953E0E3694FF6EF788B42ED
:102540002DD109284CD2DFE800F005080D4B274BB0
:102550004B4B0E00FEF756FA01E0FEF765FA01005C
:1025600001D144E01146606A37F81000B1FBF0F089
:102570004100606801EB5001B1FBF0F080B2A0F1C6
:10258000100141452CD84FF6F0710140C0F34200D4
:1025900001432068C1602AE0FEF758FADFE7092806
:1025A0001ED2DFE800F005080D1D1F1D1D1D0E00C9
:1025B000FEF728FA01E0FEF737FA010001D116E034
:1025C0001146606A37F81000B1FBF0F1606801EB6A
:1025D0005001B1FBF0F080B2A0F11001414504D9E7
:1025E000012504E0FEF732FAE7E72168C860012020
:1025F000A4F86A0024F8680F2846A660E660BDE8E3
:10260000F081000000800040F369FFCFFFF4FF116C
:1026100000380140001002400044004000480040E3
:10262000004C00400024F400E43D0008FFFC0F00D3
:1026300070B58165A0F85C20A0F85E2000210167DC
:1026400083684FF48056FF24B34204D10369D3B9A1
:1026500040F2FF131DE07F259BB1B3F1805F15D0E1
:10266000A0F86010C0F88C102223C0F888300368EE
:102670009C6844F001049C60436EB3F1005F0ED08F
:1026800027E0036943B9A0F86040EBE703691BB199
:102690003F23A0F86030E5E7A0F86050E2E7B0F82B
:1026A0006830934215D88268B24201D1026972B192
:1026B000114A026780F8801001680A6842F480724B
:1026C0000A600068816841F0805181600FE00B4A28
:1026D000EFE78268B24201D1026952B1084A02674B
:1026E00080F880100068016841F49071016000205A
:1026F00070BD044AF3E7000081220008C5200008ED
:1027000001220008452000082DE9F0479A461746A7
:102710000E4604464FF000094FF02008089D39E0AE
:10272000681C37D0FDF782FFA0EB0A00A84222D830
:102730000DB32068016849072CD5C069C043000566
:1027400028D421684FF4006008622068016821F4F1
:10275000D07101602068816821F001018160C4F8B6
:102760008480C4F88880C4F88C8000BF84F880908E
:102770000320BDE8F0872068016821F4D071016072
:102780002068816821F001018160C4F88480C4F868
:102790008880EBE72068C06936EA000004D000209A
:1027A000B842BDD00020E4E70120F9E70148FEF778
:1027B0000FBC000048000020184810B51649016001
:1027C0004FF416514160002181600C22C160C0E9C4
:1027D00004128161C161016241628162FEF73AFDCA
:1027E00008B1FDF7AFFD00210C48FEF7C8FB08B1AA
:1027F000FDF7A8FD00210948FEF79BFB08B1FDF796
:10280000A1FD0648FEF774FB002803D0BDE8104088
:10281000FDF798BD10BD00000038014048000020C1
:10282000FEE700000FB4084B10B504A902AA0398F4
:1028300000F02CF8044602A9002000F0C8F9204658
:1028400010BC5DF814FB0000CF2B00080907090E2F
:10285000002804DB00F1E02080F80014704700F04D
:102860000F0000F1E02080F8141D704702E008C856
:10287000121F08C1002AFAD170477047002001E0FA
:1028800001C1121F002AFBD1704700002DE9FF4F44
:102890008BB088460546002606E025280BD0DDE9EA
:1028A0000D1290476D1C761C28780028F5D10FB0CA
:1028B0003046BDE8F08F0024A146A2460122AE4971
:1028C00000E0044315F8013F203B02FA03F0084200
:1028D000F7D128782A2810D06FF02F022878A0F19D
:1028E0003001092915D809EB890102EB410144F0B7
:1028F000020400EB01096D1CF0E758F8041B5FEAC5
:10290000010903D544F40054C9F1000944F002045C
:102910006D1C28782E2817D115F8010F44F00404F7
:102920002A280ED06FF02F022878A0F13001092953
:102930000AD80AEB8A0102EB410100EB010A6D1C87
:10294000F2E758F804AB6D1C28786C280FD006DC31
:102950004C2817D068280DD06A2814D104E07428B8
:1029600010D07A280FD10DE044F400140AE044F4AA
:10297000801401E044F440146978814202D104F5E6
:1029800080146D1C6D1C2878692865D006DC002831
:102990008DD0632827D0642806D15DE06E2808D04A
:1029A00073282AD0752877D0DDE90D129047761C60
:1029B000E0E0C4F30250022809D003280DD0D8F873
:1029C000001004280DD00E6008F10408D2E0D8F8F9
:1029D0000010F217C1E90062F6E7D8F800100E8087
:1029E000F2E70E70F0E718F8041B8DF800100020D5
:1029F0008DF80100EB46012003E058F804BB4FF0CE
:102A0000FF3061074FF0000701D40AE07F1C5745F3
:102A10000DDA8742FADB1BF807100029F6D106E031
:102A20007F1C8742FCDB1BF807100029F8D1DDE989
:102A30000D23A9EB07008146214600F0B1F8304490
:102A4000C61904E0DDE90D121BF8010B90477F1E4B
:102A5000F8D22146484688E058F8040BC4F30251E6
:102A60004FF00A0B032900D100B2042900D140B273
:102A7000002802DA40422D2102E0210505D52B2154
:102A80008DF82410012104E006E0E10710D0202198
:102A9000F6E708AF089113E058F8040BC4F30251AD
:102AA0004FF00A0B032900D180B2042900D1C0B233
:102AB0000021EEE75946FDF7EEFB303107F8011D26
:102AC0000028F7D1ADEB070000F1200B600702D51D
:102AD00024F4803401E04FF0010ADA4502DDAAEB6C
:102AE0000B0000E00020824600EB0B010898014437
:102AF000A9EB01000A90E00306D4DDE90D2321468D
:102B00000A9800F04DF806444FF0000908E009A9C2
:102B100011F80900DDE90D12904709F10109761C51
:102B200008998945F3DBE0030CD5DDE90D23214647
:102B30000A9800F035F8064404E0DDE90D12302073
:102B40009047761CBAF10001AAF1010AF5DC05E014
:102B5000DDE90D1217F8010B9047761CBBF100015F
:102B6000ABF1010BF4DC0A982146DDE90D2300F0FE
:102B700005F806446D1C97E6092801002DE9F0418F
:102B8000044600251E461746880404D405E039464D
:102B90002020B0476D1C641EF9D52846BDE8F081A1
:102BA0002DE9F041044600251E469046C80301D594
:102BB000302700E02027880404D505E04146384648
:102BC000B0476D1C641EF9D52846BDE8F0810A683F
:102BD000531C0B6010707047FDF736FDFFF71AF9B4
:102BE000FEF73AFFFEF748FCFFF7E6FDFEF792FD21
:102BF000012206490648FEF79DFB1F20FEF7E2FC76
:102C0000FEF76AFCFEF7A0FDFAE7000004000020D2
:102C1000480000200000000000000000000000004C
:102C200000000000000000000000000000000000A4
:102C30000000000000000000000000000000000094
:102C400000000000000080018001800180018001FF
:102C5000800180018001800180018001800180016C
:102C60000000000080018001000000000000000062
:102C70000000000000000000CC00CC00CC00CC0024
:102C8000CC00CC00000000000000000000000000AC
:102C90000000000000000000000000000000000034
:102CA0000000000000000000000000000000000024
:102CB000600C600C600C30063006FE1FFE1F3006F4
:102CC00038071803FE1FFE1F180318038C018C0120
:102CD0008C01000000008000E003F80F9C0E8C1CAB
:102CE0008C188C009800F801E007800E801C8C186E
:102CF0008C189C18B80CF00FE003800080000000D6
:102D0000000000000000000000000E181B0C110C59
:102D100011061106110311039B018E01C038C06C0E
:102D200060446044304430441844186C0C3800004F
:102D3000000000000000E001F00338071806180644
:102D40003003F001F000F8009C310E33061E061C23
:102D5000061C063FFC73F02100000000000000008C
:102D600000000000000000000C000C000C000C0033
:102D70000C000C000000000000000000000000003B
:102D80000000000000000000000000000000000043
:102D9000000000000000000200038001C000C0002D
:102DA0006000600030003000300030003000300043
:102DB0003000300060006000C000C00080010003EF
:102DC00000020000000020006000C00080018001BF
:102DD00000030003000600060006000600060006C9
:102DE000000600060003000380018001C0006000AF
:102DF00020000000000000000000000000000000B3
:102E0000C000C000D806F807E00130033807000012
:102E100000000000000000000000000000000000B2
:102E200000000000000000000000000000000000A2
:102E300080018001800180018001FC3FFC3F800116
:102E4000800180018001800100000000000000007E
:102E50000000000000000000000000000000000072
:102E60000000000000000000000000000000000062
:102E700000000000000080018001000100018000CE
:102E80000000000000000000000000000000000042
:102E9000000000000000000000000000E007E00764
:102EA0000000000000000000000000000000000022
:102EB0000000000000000000000000000000000012
:102EC0000000000000000000000000000000000002
:102ED000000000000000C000C00000000000000072
:102EE000000000000000000C000C000600060006B8
:102EF0000003000300038003800180018001C00003
:102F0000C000C00060006000000000000000000081
:102F1000000000000000E003F007380E180C0C1849
:102F20000C180C180C180C180C180C180C180C1881
:102F3000180C380EF007E00300000000000000004D
:102F400000000000000000018001C001F0019801B4
:102F50008801800180018001800180018001800161
:102F6000800180018001800100000000000000005D
:102F7000000000000000E003F80F180C0C180C18FB
:102F800000180018000C000600038001C00060005B
:102F900030001800FC1FFC1F0000000000000000B3
:102FA000000000000000E001F807180E0C0C0C0CEB
:102FB000000C0006C003C007000C001800180C1815
:102FC0000C18180CF807E0030000000000000000D7
:102FD000000000000000000C000E000F000F800D2C
:102FE000C00C600C600C300C180C0C0CFC3FFC3F4F
:102FF000000C000C000C000C0000000000000000A1
:10300000000000000000F80FF80F180018000C0076
:10301000EC03FC071C0E001C0018001800180C180C
:103020001C0C180EF807E003000000000000000070
:10303000000000000000C007F00F381C181818002E
:103040000C00CC03EC0F3C0E1C1C0C180C180C18BC
:10305000181C380EF007E00300000000000000001C
:10306000000000000000FC1FFC1F000C0006000612
:10307000000380038001C001C000E0006000600028
:103080007000300030003000000000000000000040
:10309000000000000000E003F007380E180C180CC8
:1030A000180C3806F007F007180C0C180C180C1840
:1030B0000C18380CF80FE0030000000000000000BE
:1030C000000000000000E003F007380E1C0C0C1894
:1030D0000C180C181C1C381EF81BE0190018000CEA
:1030E000000C1C0EF807F0010000000000000000BA
:1030F00000000000000000000000000000000000D0
:1031000080018001000000000000000000000000BD
:1031100000000000800180010000000000000000AD
:10312000000000000000000000000000000000009F
:10313000800180010000000000000000000000008D
:1031400000000000800180010001000180000000FB
:10315000000000000000000000000000000000006F
:10316000000000000010001C800FE003F8001800B1
:10317000F800E003800F001C0010000000000000B9
:10318000000000000000000000000000000000003F
:1031900000000000F81F000000000000F81F000001
:1031A000000000000000000000000000000000001F
:1031B000000000000000000000000000000000000F
:1031C0000000000008003800F001C007001F0018D0
:1031D000001FC007F00138000800000000000000D8
:1031E000000000000000E003F80F180C0C180C1889
:1031F0000018000C000600038001C000C000C000E1
:1032000000000000C000C00000000000000000003E
:103210000000000000000000E00718180420C22988
:10322000224A114409440944094409221113E20CB9
:10323000024004201818E007000000000000000011
:1032400000000000000080038003C006C006C00626
:10325000600C600C301830183018F83FF83F1C70C4
:103260000C600C6006C006C00000000000000000FA
:10327000000000000000FC03FC0F0C0C0C180C18E4
:103280000C180C0CFC07FC0F0C180C300C300C301C
:103290000C300C18FC1FFC070000000000000000B0
:1032A000000000000000C007F01F38381C300C7010
:1032B000066006000600060006000600060006601E
:1032C0000C701C30F01FE007000000000000000040
:1032D000000000000000FE03FE0F060E0618061890
:1032E0000630063006300630063006300630061846
:1032F0000618060EFE0FFE0300000000000000008E
:10330000000000000000FC3FFC3F0C000C000C0023
:103310000C000C00FC1FFC1F0C000C000C000C002F
:103320000C000C00FC3FFC3F00000000000000000F
:10333000000000000000F83FF83F180018001800D7
:1033400018001800F81FF81F1800180018001800BF
:10335000180018001800180000000000000000000D
:10336000000000000000E00FF83F3C780E6006E02F
:1033700007C00300030003FE03FE03C007C006C02E
:103380000EC03CF0F83FE00F00000000000000001D
:103390000000000000000C300C300C300C300C3001
:1033A0000C300C30FC3FFC3F0C300C300C300C303F
:1033B0000C300C300C300C3000000000000000001D
:1033C0000000000000008001800180018001800178
:1033D00080018001800180018001800180018001E5
:1033E00080018001800180010000000000000000D9
:1033F00000000000000000060006000600060006AF
:103400000006000600060006000600060006180674
:1034100018063807F003E00100000000000000007B
:1034200000000000000006300618060C0606060321
:103430008601C60066007600DE008E0106030606E1
:10344000060C0618063006600000000000000000B0
:1034500000000000000018001800180018001800F4
:10346000180018001800180018001800180018009C
:1034700018001800F81FF81F0000000000000000EE
:103480000000000000000EE01EF01EF01EF036D816
:1034900036D836D836D866CC66CC66CCC6C6C6C654
:1034A000C6C6C6C686C386C3000000000000000072
:1034B0000000000000000C301C303C303C306C3010
:1034C0006C30CC30CC308C310C330C330C360C36A9
:1034D0000C3C0C3C0C380C300000000000000000DC
:1034E000000000000000E007F81F1C380E700660A6
:1034F00003C003C003C003C003C003C003C0066011
:103500000E701C38F81FE0070000000000000000EB
:10351000000000000000FC0FFC1F0C380C300C30C9
:103520000C300C300C18FC1FFC070C000C000C00BD
:103530000C000C000C000C0000000000000000005B
:10354000000000000000E007F81F1C380E70066045
:1035500003E003C003C003C003C003C007E0066369
:103560000E3F1C3CF83FE0F700C0000000000000E8
:10357000000000000000FE0FFE1F06380630063077
:1035800006300638FE1FFE0706030606060C061860
:10359000061806300630066000000000000000003B
:1035A000000000000000E003F80F1C0C0C180C18C1
:1035B0000C001C00F803E00F001E00380630063037
:1035C0000E301C1CF80FE007000000000000000097
:1035D000000000000000FE7FFE7F8001800180016E
:1035E00080018001800180018001800180018001D3
:1035F00080018001800180010000000000000000C7
:103600000000000000000C300C300C300C300C308E
:103610000C300C300C300C300C300C300C300C30CA
:103620000C301818F81FE007000000000000000030
:1036300000000000000003600630063006300C1861
:103640000C180C18180C180C380E300630067007C1
:1036500060036003C001C001000000000000000022
:103660000000000000000360C361C361C3616633F2
:10367000663366336633663366336C1B6C1B6C1BB8
:103680002C1A3C1E380E380E00000000000000000E
:103690000000000000000FE00C7018303018700CB3
:1036A000600EC00780038003C003E006700C301C6E
:1036B00018180C300E6007E0000000000000000049
:1036C00000000000000003C006600C301C383818F1
:1036D000300C6006E007C00380018001800180019A
:1036E00080018001800180010000000000000000D6
:1036F000000000000000FC7FFC7F0060003000182C
:10370000000C000600038001C000600030001800BB
:103710000C000600FE7FFE7F00000000000000009D
:10372000000000000000E003E003600060006000B3
:103730006000600060006000600060006000600089
:103740006000600060006000600060006000E003F6
:10375000E003000000003000300060006000600006
:10376000C000C000C000C0018001800180010003D2
:103770000003000300060006000000000000000037
:10378000000000000000E003E0030003000300036A
:103790000003000300030003000300030003000311
:1037A0000003000300030003000300030003E00321
:1037B000E003000000000000C001C00160036003DE
:1037C000600330063006180C180C000000000000E2
:1037D00000000000000000000000000000000000E9
:1037E00000000000000000000000000000000000D9
:1037F00000000000000000000000000000000000C9
:10380000000000000000FFFFFFFF000000000000BC
:103810000000000000000C000C000C000C000C006C
:103820000C0000000000000000000000000000008C
:103830000000000000000000000000000000000088
:103840000000000000000000000000000000000078
:10385000F003F8071C0C0C0C000FF00FF80C0C0C0C
:103860000C0C1C0FF80FF018000000000000000006
:1038700000000000000018001800180018001800D0
:10388000D803F80F380C1818181818181818181822
:103890001818380CF80FD8030000000000000000D2
:1038A0000000000000000000000000000000000018
:1038B000C003F007300E180C18001800180018008C
:1038C000180C300EF007C0030000000000000000DC
:1038D0000000000000000018001800180018001870
:1038E000C01BF01F301C18181818181818181818B2
:1038F0001818301CF01FC01B000000000000000062
:1039000000000000000000000000000000000000B7
:10391000C003F00F300C1818F81FF81F180018001B
:103920003818301CF00FC007000000000000000035
:10393000000000000000800FC00FC000C000C000E9
:10394000F007F007C000C000C000C000C000C00009
:10395000C000C000C000C000000000000000000067
:103960000000000000000000000000000000000057
:10397000E00DF80F180E0C0C0C0C0C0C0C0C0C0CB5
:103980000C0C180EF80FE00D000C0C0C1C06F807C0
:10399000F0010000000018001800180018001800BE
:1039A000D807F80F381C18181818181818181818ED
:1039B0001818181818181818000000000000000047
:1039C000000000000000C000C00000000000000077
:1039D000C000C000C000C000C000C000C000C000E7
:1039E000C000C000C000C0000000000000000000D7
:1039F000000000000000C000C00000000000000047
:103A0000C000C000C000C000C000C000C000C000B6
:103A1000C000C000C000C000C000C000C000F8006E
:103A20007800000000000C000C000C000C000C00E2
:103A30000C0C0C060C038C01CC006C00FC009C01EF
:103A40008C030C030C060C0C0000000000000000AE
:103A5000000000000000C000C000C000C000C000A6
:103A6000C000C000C000C000C000C000C000C00056
:103A7000C000C000C000C000000000000000000046
:103A80000000000000000000000000000000000036
:103A90007C3CFF7EC7E383C183C183C183C183C1F3
:103AA00083C183C183C183C1000000000000000006
:103AB0000000000000000000000000000000000006
:103AC0009807F80F381C181818181818181818180C
:103AD0001818181818181818000000000000000026
:103AE00000000000000000000000000000000000D6
:103AF000C003F00F300C18181818181818181818D8
:103B00001818300CF00FC003000000000000000087
:103B100000000000000000000000000000000000A5
:103B2000D803F80F380C181818181818181818187F
:103B30001818380CF80FD8031800180018001800CF
:103B4000180000000000000000000000000000005D
:103B5000C01BF01F301C181818181818181818183F
:103B60001818301CF01FC01B00180018001800188F
:103B7000001800000000000000000000000000002D
:103B8000B007F0037000300030003000300030002B
:103B90003000300030003000000000000000000065
:103BA0000000000000000000000000000000000015
:103BB000E003F003380E180C3800F003C007000CC7
:103BC000180C380EF007E0030000000000000000B1
:103BD00000000000000000008000C000C000C00025
:103BE000F007F007C000C000C000C000C000C00067
:103BF000C000C000C00780070000000000000000F7
:103C000000000000000000000000000000000000B4
:103C10001818181818181818181818181818181824
:103C20001818381CF01FE019000000000000000008
:103C30000000000000000000000000000000000084
:103C40000C18180C180C180C3006300630066003DF
:103C500060036003C001C00100000000000000001C
:103C60000000000000000000000000000000000054
:103C7000C141C141C36163636363636336363636F2
:103C800036361C1C1C1C1C1C000000000000000020
:103C90000000000000000000000000000000000024
:103CA0001C38381C300C600660036003600360033E
:103CB0006006300C381C1C380000000000000000BA
:103CC00000000000000000000000000000000000F4
:103CD0001830301830187018600C600CE00CC006FA
:103CE000C00680038003800380018001C001F000D2
:103CF0007000000000000000000000000000000054
:103D0000FC1FFC1F000C000600038001C0006000C7
:103D100030001800FC1FFC1F000000000000000025
:103D200000000000000000038001C000C000C000CF
:103D3000C000C000C00060006000300060004000B3
:103D4000C000C000C000C000C000C000800100036F
:103D500000000000000080018001800180018001DE
:103D6000800180018001800180018001800180014B
:103D7000800180018001800180018001800180013B
:103D80008001000000006000C000C00180018001CF
:103D90008001800180010003000300060003000190
:103DA000800180018001800180018001C0006000ED
:103DB0000000000000000000000000000000000003
:103DC00000000000F010F81F080F000000000000C5
:103DD00000000000000000000000000000000000E3
:103DE00000000000010002000400060008000A00B4
:103DF0000C001000200040008000000101010103C0
:103E0000070100000804020408010101000000008D
:103E1000000000000102030406070809000000007A
:103E200001020304443E00080000002030000000AE
:103E30006C280008743E000830000020A804000030
:103E40007C280008000000000000000000000000C6
:103E50000000000000000000000000000000FFFF64
:103E60000000000010000000010000000000000041
:043E70000024F40036
:04000005080001D915
:00000001FF
