:020000040800F2
:1000000020070020ED0100086B300008B729000828
:1000100069300008F9020008713C00080000000087
:100020000000000000000000000000002D3100086A
:10003000FB020008000000006D3000082F310008AE
:10004000070200080702000807020008070200086C
:10005000070200080702000807020008070200085C
:10006000070200080702000807020008070200084C
:10007000070200080702000807020008070200083C
:10008000070200080000000007020008070200083D
:10009000070200080702000807020008070200081C
:1000A000070200080702000807020008070200080C
:1000B000D5310008E1310008ED31000807020008E1
:1000C00007020008070200080702000807020008EC
:1000D00007020008653C0008070200080702000844
:1000E00007020008070200080702000807020008CC
:1000F00007020008070200080702000800000000CD
:1001000000000000070200080000000007020008CD
:100110000702000800000000F9310008070200088B
:10012000070200080702000807020008070200088B
:10013000070200080000000000000000070200089D
:10014000070200080702000800000000000000008D
:10015000000000000000000000000000000000009F
:10016000000000000000000000000000070200087E
:10017000070200080000000000000000000000006E
:10018000000000000702000800000000000000005E
:10019000000000000000000000000000000000005F
:1001A000000000000000000007020008070200082D
:1001B000070200080702000807020008000000000C
:1001C000000000000702000800000000000000001E
:1001D0000702000807020008DFF80CD000F07AF8E8
:1001E00000480047B13C000820070020064880472F
:1001F00006480047FEE7FEE7FEE7FEE7FEE7FEE70C
:10020000FEE7FEE7FEE7FEE7C5310008D90100087A
:100210002DE9F05F0546002092469B46884606463B
:10022000814640241BE0284641464746224600F0CE
:1002300041F853465A46C01A914110D31146184608
:10024000224600F028F82D1A67EB01084F46224697
:100250000120002100F01FF817EB00094E41201E7D
:10026000A4F10104DFDC484631462A464346BDE896
:10027000F09FD2B201E000F8012B491EFBD270477B
:100280000022F6E710B513460A4604461946FFF762
:10029000F0FF204610BD202A04DB203A00FA02F1CC
:1002A000002070479140C2F1200320FA03F3194364
:1002B00090407047202A04DB203A21FA02F0002106
:1002C000704721FA02F3D040C2F120029140084366
:1002D00019467047064C074D06E0E06840F0010300
:1002E00094E8070098471034AC42F6D3FFF778FF44
:1002F000243D0008443D0008FEE7704772B6FEE763
:100300002DE9F047044690F858009CB00E464FF097
:100310000009012815D0012084F858000025179500
:10032000189520684FF0A04840450ED1284F0097FF
:10033000384602F04FFB8246206802F04BFB60B16A
:100340000EE002201CB0BDE8F087E06D40F0200018
:10035000E06584F858500120F4E7BAF1000F09D0A5
:10036000E06D40F02000E0654FF0010984F858503E
:100370004846E7E71748326840F61F71002A82684E
:1003800022F4604216D094F8383042EA433273685F
:100390001A438260D8F80820BB6802F0010203F01B
:1003A00001031A43E2D1B36832681A4383688B436E
:1003B0001A430BE08260D8F80820BB6802F0010203
:1003C00003F001031A43D1D182688A438260CDE7EA
:1003D00000010050000300502DE9F84F00270446AB
:1003E000009790F85800DFF8E0930D46B8460128D2
:1003F00011D0012684F85860206802F0E7FA60B155
:10040000E06D40F02000E0655FF0010784F858805F
:100410003846BDE8F88F0220FBE7D5E900210C2320
:10042000206803EA91131844036B01F01F014FF099
:100430001F0C0CFA01FCC2F3846223EA0C038A400D
:1004400013430363206802F0C1FA8246206802F079
:10045000B9FA5AEA00003CD1AA6829682068B2F1CA
:10046000004F37D002F0BAFA2068416921F000410C
:10047000416120686969C268C2F3C10252009140BB
:100480002A69042A31D000EB82002B68026EDFF863
:100490003CC303F0F84302EA0C020B431A4342F058
:1004A0000041016620682A69A96900EB8200026E9A
:1004B00022F080720A430266297F22682869012996
:1004C00010D0002102EB8000026E22F000720A437D
:1004D00002667DE0002202F081FA2068416941F065
:1004E0000041C5E74FF00071ECE7002102F064FA2B
:1004F000400320684FF0000172D002F05DFA90FADC
:10050000A0F0B0FA80F1286842036ED090FAA0F013
:10051000B0FA80F0814204D100221146206802F036
:100520006CFA0121206802F047FA400320684FF07E
:1005300001015DD002F040FA90FAA0F0B0FA80F12B
:100540002868420359D090FAA0F0B0FA80F08142B6
:1005500004D100220121206802F04FFA0221206814
:1005600002F02AFA400320684FF0020148D002F05E
:1005700023FA90FAA0F0B0FA80F12868420344D040
:1005800090FAA0F0B0FA80F0814204D1002202215A
:10059000206802F032FA0321206802F00DFA4003CD
:1005A00020684FF0030133D002F006FA90FAA0F071
:1005B000B0FA80F1286842032FD090FAA0F0B0FA88
:1005C00080F0814204D100220321206802F015FA54
:1005D0002068816811F0010F22D0ACE000E004E057
:1005E00002F0EAF9C0F384618DE7C0F3846091E71B
:1005F00002F0E2F9C0F38461A2E7C0F38460A6E7E9
:1006000002F0DAF9C0F38461B7E7C0F38460BBE7B6
:1006100002F0D2F9C0F38461CCE7C0F38460D0E784
:100620002A7B296850F8B03FC1F3120C23EA0C036F
:1006300002F0180C664A22FA0CF20A4013430360D7
:10064000E968494577D1286841031CD090FAA0F1A8
:10065000B1FA81F1491C01F01F0109294FEA40312B
:1006600032D8002912D000BF90FAA0F1B1FA81F17E
:1006700001F1010101F01F0106FA01F609D100BFE5
:10068000C0F3846109E0C0F38461E3E7C0F38461EF
:10069000EEE790FAA0F1B1FA81F101F1010101F068
:1006A0001F0146EA816102D1C0F3846003E090FA41
:1006B000A0F0B0FA80F000F1010000F01F0000EBA4
:1006C000400041EA005132E000290ED090FAA0F13A
:1006D000B1FA81F101F1010101F01F0106FA01F601
:1006E00006D100BFC0F3846106E0C0F38461F1E786
:1006F00090FAA0F1B1FA81F101F1010101F01F01BD
:1007000046EA816102D1C0F3846003E090FAA0F070
:10071000B0FA80F000F1010000F01F002D4A00EB5C
:10072000400002EB005041EA000141F00071AA686C
:10073000206802F053F928482A6802423FF466AE66
:1007400026488168264B01F0E0719A4202D0254B81
:100750009A421CD10B021AD42268B2F1A04F7FF446
:1007600055AE826841F4000122F0E0720A438260D3
:100770001D481E490068B0FBF1F0401C00EB400032
:10078000800000E0401E00900028FBD13EE6184D9E
:10079000184BAA4207D1CD0105D422689A42F5D060
:1007A00041F0807109E0144DAA42EFD14A02EDD424
:1007B00022689A42EAD041F48001826822F0E07215
:1007C0000A43826022E6000000007F4000F0FF0341
:1007D000FFFF0700000020FE00000880000300501B
:1007E000000021C31000C09010000020400D030045
:1007F000000052C700010050000084CBF8B54FF054
:10080000000504002E46009502D0E06D10B107E00F
:100810000120F8BD204600F0EFF8266684F8586005
:1008200020688168C1F3407119B181686A4A11403A
:10083000816020688168C1F3007189B98168674A65
:10084000114041F080518160654866490068B0FB05
:10085000F1F04000801C00E0401E00900028FBD119
:1008600020688168C1F3007141B9E16D41F0100168
:10087000E165216E41F001012166012502F0A6F833
:10088000E16DC90600D430B1E06D40F01000E065C4
:1008900001252846F8BDE06D20F4807040F002008C
:1008A000E0652068806810F0010F11D14FF0A04082
:1008B00080684D4900F00100896801F0010108439A
:1008C00006D14A486168826822F47C120A43826039
:1008D000E168E06B627F0843A16841EA4231084366
:1008E00094F8241040EA0140012904D1218D404AA6
:1008F00002EB41410843E16A29B101F47871226BAE
:10090000014342EA01002168CA683A4B1A40024397
:10091000CA6020680169626B21F040611143016186
:10092000206802F053F80646206802F04BF8304386
:100930002ED1207F94F83810800340EA41022068CD
:10094000C16844F2020399431143C1602069002841
:10095000206801690AD041F480310161206850F8B3
:10096000C01F22696FF30D01114307E021F48031AC
:100970000161206850F8C01F6FF30D01016094F809
:10098000400001280CD02068016921F001010161BB
:10099000606901282068016B21F00F0111D013E07C
:1009A000D4E911010843D4E9131211430843216823
:1009B0000A6940F2FC739A43104340F00100086159
:1009C000E6E7226A521E11430163E06D20F0020047
:1009D00040F00100E0655CE7C0FFFF5FC0FFFF7F04
:1009E00010000020400D03000001005000030050E3
:1009F0000000FEFF0740F0FFF0B587B00446142169
:100A00006846FFF73DFC214B266800241A68032541
:100A10001F482049521CB6F1A04F06D01E4FBE42BF
:100A200031D11A60012A16D01DE01A60012A07D1BF
:100A3000CA6C42F40052CA64CA6C02F400520592B5
:100A4000CA6C42F00202CA64C96C01F0020105914D
:100A50004FF4805111E0CA6C42F40052CA64CA6C6F
:100A600002F400520592CA6C42F00202CA64C96CD8
:100A700001F0020105914FF40041CDE90015029407
:100A8000694600F07DF807B0F0BD000000000020CE
:100A900000040048001002400001005010B590F81A
:100AA000253000210122022B03D00421C163012142
:100AB00022E003681C6824F00E041C60836C1C6830
:100AC00024F480741C6003681C6824F001041C601A
:100AD00090F84430046C03F01F0302FA03F36360E0
:100AE000D0E913345C60436D33B11C6824F4807426
:100AF0001C60D0E916345C6080F82520002280F864
:100B00002420084610BD70B590F82520002401214E
:100B10002346022A07D00422C26380F8251080F8F9
:100B20002430012429E00268156825F00E051560BF
:100B30000268156825F001051560826C156825F4BA
:100B40008075156090F84420056C02F01F0201FAD0
:100B500002F26A60D0E913255560426D32B1156822
:100B600025F480751560D0E91625556080F82510AC
:100B700080F82430816B01B18847204670BD0000A9
:100B80002DE9FC4FDFF8A0A1002301250AF1040B99
:100B900003244FF00F0C0BF1040EBDE005FA03F631
:100BA00032406FD04F68012F05D0022F03D0112F94
:100BB00001D0122F17D1D0F808905F0004FA07F87F
:100BC00029EA08090097D1F80C8008FA07F848EAE2
:100BD0000908C0F808804768B7430E79C6F30016C5
:100BE0009E403E434660C6684FEA430804FA08F751
:100BF000BE4301978F6807FA08F73743C7604E680E
:100C0000022E01D0122E13D1DE0800EB86060096CC
:100C1000366A5F07FF0E0CFA07F926EA0906D1F8D3
:100C2000109009FA07F949EA0609009EC6F82090D3
:100C30000668019FBE430F7907F0030707FA08F71C
:100C4000374307604E68F60065D5384E376E47F07B
:100C500001073766366E23F0030706F0010600969B
:100C6000334E3E44B146B6689F074FEA17780CFAF8
:100C700008F7BE43B0F1904F05D02E4FB84204D1D3
:100C8000012717E047E0002714E02B4FB84201D1BD
:100C900002270FE0294FB84201D103270AE0284F6D
:100CA000B84201D1042705E0264FB84201D10527FB
:100CB00000E0062707FA08F73743C9F80870DAF8A2
:100CC00000605746D1F8048096435FEAC83800D5E3
:100CD00016433E60DBF800605F46D1F8048096431F
:100CE0005FEA883800D516433E60DEF8006077463C
:100CF000D1F8048096435FEAC82800D516433E60C9
:100D0000094F0C373E68D1F8048096435FEA882883
:100D100000D516433E605B1C0A6832FA03F67FF486
:100D20003DAFBDE8FC8F0000000401400010024010
:100D3000000001400004004800080048000C004882
:100D400000100048001400480AB1816170478162B8
:100D500070470000014880687047000004000020D0
:100D60000248816842681144816070470400002095
:100D700010B50024032000F073F80F2000F008F8ED
:100D800008B1012401E000F025F8204610BD000064
:100D900070B50E4E05460024706898B14FF47A7114
:100DA000B1FBF0F00A490968B1FBF0F000F094FEE5
:100DB00040B9102D06D200222946501E00F030F80E
:100DC000356000E00124204670BD000004000020D2
:100DD000100000200A4882B0016E41F00101016656
:100DE000016E01F001010091816D41F0805181653A
:100DF000806D00F08050009002B000F0A1B80000BB
:100E000000100240002809DB00F01F020121914080
:100E10004009800000F1E020C0F800117047000098
:100E2000F0B40E4B1B680C46C3F30223C3F1070555
:100E3000042D00D90425191D072901D2002300E043
:100E4000DB1E012606FA05F1491E214099409E400D
:100E5000761E16403143F0BC02F00BBF0CED00E0F3
:100E6000064900F0070208684FF6FF03184040EA01
:100E70000220034A10430860704700000CED00E0B8
:100E80000000FA052B492C4B0A6832214A432B49B2
:100E900040B1B0F5007F086829D020F4C06040F46C
:100EA00080602CE00868C0F34120022804D051F88B
:100EB000800F20F4807022E0D1F8800020F4807050
:100EC000C1F88000086820F4C06040F40070086039
:100ED000B2FBF3F0401C00E0401E4A69520501D508
:100EE0000028F9D1486940050AD503207047C0F3AE
:100EF0004120022806D051F8800F40F4807008602D
:100F000000207047D1F8800040F48070C1F8800064
:100F1000086820F4C06040F400700860B2FBF3F091
:100F2000401C00E0401E4A695205DBD50028F9D17B
:100F3000D8E700001000002040420F000070004081
:100F40000248816841F48041816070470070004030
:100F50002DE9F8430446006800269D4D00035ED548
:100F6000A86D0027C00008D4A86D40F08050A86587
:100F7000A86D012700F080500090DFF85892D9F852
:100F8000001041F48071C9F80010FFF7E3FE8046BD
:100F900006E000BFFFF7DEFEA0EB080002282BD81A
:100FA000D9F80000C005F5D5D5F8900010F44070D0
:100FB00014D0216C814211D0D5F89000D5F8901052
:100FC00020F4407041F48031C5F89010D5F89010AD
:100FD00021F48031C5F89010C5F89000C00711D0F9
:100FE000FFF7B8FE804641F2883907E0FFF7B2FE0E
:100FF000A0EB0801494501D903260BE0D5F8900084
:101000008007F3D5D5F89000216C20F44070084398
:10101000C5F890001FB1A86D20F08050A865207819
:10102000C00707D0D5F88800616820F003000843A6
:10103000C5F888002078800707D5D5F88800A16812
:1010400020F00C000843C5F888002078400707D539
:10105000D5F88800E16820F030000843C5F8880022
:101060002078000707D5D5F88800216920F0C00056
:101070000843C5F888002078800607D5D5F8880091
:10108000616920F440600843C5F888002078400674
:1010900007D5D5F88800A16920F440500843C5F869
:1010A00088002078000607D5D5F88800E16920F48B
:1010B00040400843C5F888002088C00507D5D5F80A
:1010C0008800216A20F440300843C5F88800208851
:1010D000800507D5D5F88800616A20F440200843D0
:1010E000C5F88800208840050FD5D5F88800A16A8A
:1010F00020F440100843C5F88800A06AB0F5801FAE
:1011000003D1E86840F48010E860208800050FD51E
:10111000D5F88800E16A20F440000843C5F888004B
:10112000E06AB0F5800F03D1E86840F48010E86011
:101130002088C0040FD5D5F88800216B20F04070BE
:101140000843C5F88800206BB0F1807F03D1E868C0
:1011500040F48010E86020884FF0006180040ED5D4
:10116000D5F88800626B20F040601043C5F8880015
:10117000606B884203D1E86840F48010E860208802
:1011800040040ED5D5F88800A26B20F040601043D3
:10119000C5F88800A06B884203D1E86840F480104D
:1011A000E860208800040FD5D5F88800E16B20F0B6
:1011B00040500843C5F88800E06BB0F1805F03D170
:1011C000E86840F48030E8603046BDE8F88300000D
:1011D00000100240007000402DE9F0470E46050067
:1011E0004FF0000725D0DFF8AC81D8F8000000F000
:1011F0000F00B0420CD2D8F8001021F00F0131439B
:10120000C8F80010D8F8000000F00F00B04210D16C
:101210002968614CC80741F2883A5AD06868DFF8FB
:101220007C91032808D0022820682DD04005002892
:101230002CDB0120BDE8F08720688001F9D5E0684B
:1012400000F00302E068C0F30310401C032A19D029
:10125000534A00BFB2FBF0F0E268C2F306225043EB
:10126000E268C2F34162521C5200B0FBF2F0484502
:1012700017D9A06810F0F00F0CD0880711D5A86816
:1012800040B10EE0474AE5E78003D0E700F0B6F84A
:10129000484506D9A06820F0F00040F08000A0602A
:1012A0008027A068696820F003000843A060FFF76A
:1012B00051FD814606E000BFFFF74CFDA0EB0901A0
:1012C00051453AD8A068696800F00C00B0EB810F76
:1012D000F2D12868810714D5400703D5A06840F4EF
:1012E000E060A0602878000705D5A06820F4605071
:1012F00040F4E060A060A068A96820F0F000084316
:1013000004E0802F03D1A06820F0F000A060D8F89E
:101310000010404601F00F01B14216D9016821F0DA
:101320000F0131430160FFF715FD074607E000BFDD
:10133000FFF710FDC11B514501D903207AE7D8F80A
:10134000000000F00F00B042F2D12878400705D528
:10135000A068E96820F4E0600843A06028780007EE
:1013600006D5A068296920F4605040EAC100A06059
:1013700000F044F8A1680C4AC1F30311515C01F07C
:101380001F01C8400949086009480068BDE8F047E6
:10139000FFF7FEBC002002400010024000B4C4046D
:1013A0000024F40000366E010A3D00081000002001
:1013B000040000200548064900688968054AC1F311
:1013C0000221515C01F01F01C8407047100000204D
:1013D000001002401A3D0008054806490068896867
:1013E000054AC1F3C221515C01F01F01C84070479A
:1013F00010000020001002401A3D0008184910B5E6
:101400008868C0F381021748012A0BD08A68164BFE
:10141000C2F38102022A06D08A68C2F38102032A3B
:1014200003D0002010BD184610BDCA6802F00304A6
:10143000CA68C2F30312521C032C02D0B0FBF2F0B4
:1014400001E0B3FBF2F0CA68C968C2F30622504358
:10145000C1F34161491C4900B0FBF1F010BD00002F
:10146000001002400024F40000366E012DE9F8431C
:1014700004007AD02078FA4DC00747D0A868E96800
:1014800000F00C0001F003010C2802D0082817D04E
:1014900001E0032914D06068B0F5803F17D0B0F5A3
:1014A000A02F286817D020F480302860286820F406
:1014B000802028606068E0B1FFF74CFC064614E02D
:1014C0002868800322D560680028D2D01EE02868F2
:1014D00040F48030EDE740F480202860F7E700BF5B
:1014E000FFF738FC801B642870D828688003F7D584
:1014F0000CE0FFF72FFC064605E000BFFFF72AFCD3
:10150000801B6428F0D828688003F7D420788007EF
:101510004CD5A868E96800F00C0001F003010C2824
:1015200002D004280DD001E002290AD0E06800288A
:1015300028682BD040F480702860FFF70BFC06462B
:1015400019E02868400502D5E068002891D0686855
:10155000217C20F0FE4040EA01606860C1480068DC
:10156000FFF716FC002800D120E076E1FFF7F2FB40
:10157000801B0228B8D828684005F7D56868217C08
:1015800020F0FE4040EA016068600FE020F48070C7
:101590002860FFF7DFFB064605E000BFFFF7DAFB38
:1015A000801B0228A0D828684005F7D420780007BF
:1015B00029D560690028D5F8940013D040F00100C7
:1015C000C5F89400FFF7C6FB064606E090E000BFB2
:1015D000FFF7C0FB801B022886D8D5F8940080074F
:1015E000F6D510E020F00100C5F89400FFF7B2FB3B
:1015F000064604E0FFF7AEFB801B022878D8D5F83A
:1016000094008007F6D42078400761D5A86D0026A5
:10161000C00008D4A86D40F08050A865A86D0126D0
:1016200000F08050009090480168C90511D401680D
:10163000804641F480710160FFF78CFB074604E0AF
:10164000FFF788FBC01B022852D8D8F80000C0055D
:10165000F6D5A068012815D00528D5F8900016D039
:1016600020F00100C5F89000D5F8900020F00400AB
:10167000C5F89000A06841F28838B8B1FFF76AFB5E
:1016800007460EE0D5F8900040F00100F0E740F08A
:101690000400C5F89000F5E7FFF75CFBC11B41456E
:1016A00026D8D5F890008007F6D50CE0FFF752FB5E
:1016B000074604E0FFF74EFBC11B414518D8D5F89B
:1016C00090008007F6D41EB1A86D20F08050A86568
:1016D0002078800629D5A0690028D5F8980013D075
:1016E00040F00100C5F89800FFF734FB064606E01D
:1016F00077E000BFFFF72EFB801B022877D8D5F8D4
:1017000098008007F6D510E020F00100C5F8980099
:10171000FFF720FB064604E0FFF71CFB801B0228B6
:1017200065D8D5F898008007F6D4E069F0B3A968C9
:10173000C1F38101032961D00228286820F080705C
:1017400028600BD0E86820F00300E860E8684749AB
:101750000840E860FFF7FEFA04464BE0FFF7FAFAAC
:10176000064604E0FFF7F6FA801B02283FD82868F7
:101770008001F7D4F4E908016FF00F0202EB0111C8
:101780000843218A5204490802EB4151A26841EA08
:1017900002210843217D4FF07E42490802EB41615E
:1017A0000843217B40EAC160E96800E062E0304A1A
:1017B00011400843E860286840F080702860E868BD
:1017C00040F08070E860FFF7C5FA044605E000BF0E
:1017D000FFF7C0FA001B022809D828688001F7D556
:1017E00048E004E0FFF7B6FA001B022802D9032004
:1017F000BDE8F88328688001F4D43BE00128F7D0E5
:10180000E868226A00F00301914226D1616A00F083
:10181000F0020901103991421FD1A26A00F4FE4181
:10182000B1EB022F19D194F82C2000F07841B1EBE4
:10183000C26F12D1218E00F4C00249084905A1F5FA
:101840000011914209D194F8341000F0C0604908A9
:101850004906A1F1007181420CD00120C8E70000C7
:10186000001002400400002000700040FFFFEEFE68
:101870000C809F010020BBE770B504004FF0010011
:101880003ED094F8250028B9002084F82400204692
:1018900000F03CF8022084F825001A4ECA2030607F
:1018A00053203060204601F0EFFB10BB154D0C3D7E
:1018B000286815490840286028686168A2690843BB
:1018C00021691143084328602189E06840EA01400A
:1018D0000C4914390860204601F0FCFB48B9D4E9F2
:1018E0000721114362692B6823F060431A431143B7
:1018F0002960FF213160002802D1012184F82510E0
:1019000070BD000024280040BFFF8FFB0068054920
:10191000884205D1044850F8901F41F4004101600D
:101920007047000000280040001002402DE9F041FF
:10193000044690F824000B4601281AD0012684F8AA
:101940002460022084F82500B2B19878D97840EA62
:10195000014558781978000240EA413005431B4F91
:10196000CA20386053203860204601F08DFBD8B182
:1019700022E00220BDE8F0815878C10603D500F0CE
:10198000EF000A305870D87801F071FB05045878E0
:1019900001F06DFB45EA0025987801F068FB0543EE
:1019A000187845EA4035DAE7094805400748203805
:1019B0000560204601F08EFBFF21396008B984F8EC
:1019C0002560002184F82410D4E70000242800407A
:1019D0003FFFFF002DE9F047054690F82400174629
:1019E0000C46012814D04FF0010985F824900220FC
:1019F00085F82500DFF8A480CA21C8F8001053211B
:101A0000C8F80010284601F03FFB002618B127E077
:101A10000220BDE8F087214B0C3B18684FEA40607C
:101A20001FB3002800DBE670A0782178E27840EA56
:101A300001406178090241EA82510843184908408F
:101A4000164924390860186820F480201860D4E909
:101A500003010843196808431860284601F03AFB5F
:101A6000FF22C8F80020A0B115E0002800DBE670D6
:101A7000207801F0FCFA0704607801F0F8FA47EAF0
:101A80000027A07801F0F3FA0743E07847EA805096
:101A9000D4E785F8259085F82460BAE7242800402B
:101AA0007F7F7F0070B50B4D286820F020002860F4
:101AB000FFF750F904464FF47A7606E0FFF74AF94B
:101AC000001BB04201D9032070BD28688006F5D5FF
:101AD000002070BD0C28004010B5401EB0F1807F82
:101AE00001D3012010BD4FF0E02460610F21601789
:101AF00002F0BFF80020A06107202061002010BD87
:101B00007047704770470000F0B590F83C20012AFC
:101B10004AD0012280F83C20CA688B6822F44072C7
:101B20001A434B6822F480621A430B6822F4006265
:101B30001A430B6922F480521A434B6922F4005273
:101B40001A430B6B22F480421A430B8B22F470224F
:101B500042EA0342154C03680026154DA34201D00A
:101B6000AB4203D1CF6922F080523A43A34201D065
:101B7000AB4214D10F8D22F4700242EA07520F6A71
:101B800022F080723A434F6A22F000723A43A34235
:101B900001D0AB4203D1C96A22F000520A435A6411
:101BA00080F83C600020F0BD0220F0BD002C014018
:101BB000003401407047704770470000F0B590F85E
:101BC0003C20012A3AD0012580F83C50022280F8BE
:101BD0003D2003685A689C68194E1A4FB34201D0E1
:101BE000BB4204D122F4700C4A6842EA0C02DFF8CE
:101BF00058C002EA0C02D1F800C04CEA020CC3F84B
:101C000004C00268B2420DD0B2F1804F0AD00F4B2F
:101C10009A4207D00E4B9A4204D0BA4202D00D4BE2
:101C20009A4204D1896824F080031943916080F8B6
:101C30003D50002180F83C100846F0BD0220F0BD68
:101C4000002C0140003401408FFFFFFD00040040E4
:101C50000008004000400140704710B5040003D068
:101C600094F83D0010B107E0012010BD002084F879
:101C70003C00204600F022F8022084F83D00211D9F
:101C8000206801F0BFFA012084F8480084F83E0083
:101C900084F83F0084F8400084F8410084F8420052
:101CA00084F8430084F8440084F8450084F8460032
:101CB00084F8470084F83D00002010BD10B586B0C0
:101CC000044614216846FEF7DBFA216800224048EA
:101CD0000223B1F1804F27D03E4CA14248D1816D03
:101CE00041F002018165816D01F002010591C16C35
:101CF00041F00201C164C06C694600F00200059029
:101D000010200090CDE901323348CDE90323FEF7DE
:101D100037FF002211461D20FFF782F85FF01D00FB
:101D2000FFF770F806B010BD816D41F001018165CB
:101D3000816D01F001010591C16C41F00101C164A7
:101D4000C06C694600F0010005904FF4004000901F
:101D5000CDE901320120CDE903204FF09040FEF79C
:101D60000FFF002211461C20FFF75AF81C20D7E76E
:101D70001A4A91420ED1816D41F004018165806D56
:101D8000002200F00400059011461E20FFF748F8DD
:101D90001E20C5E7124A91420ED1816D41F010011B
:101DA0008165806D002200F01000059011463620FC
:101DB000FFF736F83620B3E70A4A9142B2D1016EF6
:101DC00041F480310166006E00F480300590A9E78F
:101DD00000100240000400400004004800080040D9
:101DE000001000400040014070B5044690F83C00EF
:101DF000012814D0012584F83C50022084F83D00CD
:101E000022689068344B184020F47F409060086846
:101E1000702827D010DC10F00F0F03D04AE04FF0ED
:101E2000020070BD4FEA2012072A43D2DFE802F019
:101E30005050505048313900284BC21A984247D070
:101E400009DCB0F5805F35D0B0F5005F15D0B0F19A
:101E5000101F2FD13CE0102A3AD0202A38D0502A27
:101E600028D135E0CB68D1E90121206801F022FAC0
:101E70002068816841F0770109E0CB68D1E9012150
:101E8000206801F017FA2068816841F48041816080
:101E900010E0CA684968206801F006FC50212068FB
:101EA00006E0CA684968206801F046FC60212068A5
:101EB00001F00AFA84F83D50002084F83C0070BD1F
:101EC000CA684968206801F0EFFB40212068EFE70D
:101ED000226801461046EBE788FFCEFF2000100085
:101EE00070472DE9F041054690F83C000C4601286A
:101EF00036D0012085F83C008AB3042A42D02868F5
:101F0000082A51D0D4E90023E168066A26F48056F5
:101F10000662C669076A26F4407646EA03234FF64E
:101F2000FF7606EA013123F4704319434FF420464B
:101F300027F4204306EA02321A43C161026228688C
:101F4000C16921F44061C1612868C169A26841EAA0
:101F50000221C161002085F83C00BDE8F08101E06C
:101F60000220FAE7D4E90012E368286801F0AEFB2A
:101F70002868816921F00C01816128688169A26863
:101F800011430FE0D4E90012E368286801F0E6FB92
:101F90002868816921F44061816128688169A268AB
:101FA00041EA02218161D5E7D4E90027267B016A55
:101FB00021F480710162C169036A21F00301394390
:101FC00021F0F00731074FF4206647EA116123F44E
:101FD000206306EA02221A43C16102622868C169CD
:101FE00021F00C01C1612868C169A2681143B0E702
:101FF00010B5040003D094F83D0010B107E00120B3
:1020000010BD002084F83C00204600F022F8022099
:1020100084F83D00211D206801F0F4F8012084F8C7
:10202000480084F83E0084F83F0084F8400084F8BB
:10203000410084F8420084F8430084F8440084F8A6
:10204000450084F8460084F8470084F83D000020ED
:1020500010BD704770B50446006801694FF0000577
:10206000C943890715D4C168C943890711D4E91E3A
:10207000016101202077206880698007204602D016
:10208000FFF72EFF04E000F051F9204600F042FA7D
:10209000257720680169C943490717D4C168C94336
:1020A000490713D46FF004010161022020772068F2
:1020B000806910F4407F204602D0FFF711FF04E052
:1020C00000F034F9204600F025FA257720680169F0
:1020D000C943090716D4C168C943090712D46FF070
:1020E00008010161042020772068C069800720462C
:1020F00002D0FFF7F5FE04E000F018F9204600F0EA
:1021000009FA257720680169C943C90617D4C1684F
:10211000C943C90613D46FF010010161082020776C
:102120002068C06910F4407F204602D0FFF7D8FE37
:1021300004E000F0FBF8204600F0ECF92577206879
:102140000169C943C90708D1C168C943C90704D196
:10215000891E0161204600F0DEF920680169C9434B
:10216000090609D4C168C943090605D46FF0800186
:1021700001612046FFF7C5FC20680169C943C90514
:1021800009D4C168C943090605D46FF4807101619F
:102190002046FFF7B5FC20680169C943490609D408
:1021A000C168C943490605D46FF04001016120466A
:1021B00000F0DDF920680169C943890609D4C168C6
:1021C000C943890605D46FF0200101612046FFF75D
:1021D00099FC20680169C943C90209D4C168C9438F
:1021E000C90205D46FF4801101612046FFF7E3FCBA
:1021F00020680169C943890209D4C168C9438902B9
:1022000005D46FF4001101612046FFF7D3FC20686C
:102210000169C943490209D4C168C943490205D4C7
:102220006FF4800101612046FFF7C6FC2068016958
:10223000C94309020BD4C168C943090207D46FF42A
:10224000000101612046BDE87040FFF705BD70BD8B
:1022500030B587B0044614216846FEF711F82468AB
:10226000154D0023154902224FF09040AC420DD18C
:10227000CC6C44F00104CC64C96C01F001010591FF
:102280004FF4C0518DE80E000A210EE00C4DAC4217
:1022900010D1CC6C44F00104CC64C96C01F0010194
:1022A00005910C218DE80E000921CDE90321694635
:1022B000FEF766FC07B030BD000800400010024089
:1022C0000040014010B5044690F83C0001280BD0B6
:1022D000012084F83C000C2A19D007DC5AB1042AEA
:1022E0000DD0082A1ED10EE0022010BD102A12D0F7
:1022F000142A17D113E0206800F0F0FF12E02068E4
:1023000001F03AF80EE0206801F07EF80AE020685B
:1023100001F0C2F806E0206801F006F902E020684A
:1023200001F03AF9002084F83C0010BD704710B568
:10233000040003D094F83D0010B107E0012010BD67
:10234000002084F83C00204600F022F8022084F8A7
:102350003D00211D206800F055FF012084F8480051
:1023600084F83E0084F83F0084F8400084F841007F
:1023700084F8420084F8430084F8440084F845005F
:1023800084F8460084F8470084F83D00002010BD22
:10239000704770B5044690F83C000D4601280BD0FC
:1023A000012084F83C000C2A45D007DC5AB1042AED
:1023B0001BD0082A78D12CE0022070BD102A4ED004
:1023C000142A71D15DE0206800F088FF20688169DF
:1023D00041F0080181612068816921F00401816177
:1023E000206881692A69114311E0206800F0C4FF68
:1023F0002068816941F4006181612068816921F46C
:1024000080618161206881692A6941EA02218161D4
:102410004AE0206800F0F8FF2068C16941F0080137
:10242000C1612068C16921F00401C1612068C169EE
:102430002A69114311E0206801F02EF82068C16973
:1024400041F40061C1612068C16921F48061C1610A
:102450002068C1692A6941EA0221C16124E020683B
:1024600001F062F82068016D41F008010165206803
:10247000016D21F0040101652068016D2A69114395
:1024800011E0206801F088F82068016D41F40061D6
:1024900001652068016D21F4806101652068016D8E
:1024A0002A6941EA02210165002084F83C0070BDE0
:1024B00010B5040003D094F83D0010B107E00120EE
:1024C00010BD002084F83C00204600F022F80220D5
:1024D00084F83D00211D206800F094FE012084F85E
:1024E000480084F83E0084F83F0084F8400084F8F7
:1024F000410084F8420084F8430084F8440084F8E2
:10250000450084F8460084F8470084F83D00002028
:1025100010BD70477047704770B5044690F83C0096
:10252000012812D0012584F83C50022084F83D0097
:10253000204601F069F801004FF0000007D084F850
:102540003D5084F83C00012070BD022070BD216820
:10255000CA6822F04002CA602168CA6822F4804238
:10256000CA6084F83D5084F83C00002070BD70477C
:1025700090F88010012918D0012180F880102421C2
:10258000C0F8841050F8641B0A680B6823F001033C
:102590000B6022F000510022026050F8643C196088
:1025A0002021016202771046704702207047704771
:1025B000704770B5044690F8800001281DD00120B6
:1025C00084F880002420C4F884002068056802682C
:1025D00022F0010202602068826822F060620A43F1
:1025E0008260204601F0D6F8206805602020C4F8FB
:1025F0008400002084F8800070BD022070BD70B59A
:10260000044690F8800001281DD0012084F8800045
:102610002420C4F8840020680568026822F00102C2
:1026200002602068826822F060420A43826020468D
:1026300001F0B0F8206805602020C4F88400002074
:1026400084F8800070BD022070BD704770477047ED
:102650002DE9F04103680446D86919689A6840F684
:102660000F0528424FF0000509D186067ED501F0FE
:10267000200602F080573E4378D0216FFFE0924E53
:10268000924F16400F40374370D0C70709D0CF058F
:1026900007D501271F62D4F88C3043F00103C4F83A
:1026A0008C3083070AD5D30708D0276802233B6202
:1026B000D4F88C3043F00403C4F88C3043070AD5B7
:1026C000D30708D0276804233B62D4F88C3043F04A
:1026D0000203C4F88C3003070CD501F02003334308
:1026E00008D0266808233362D4F88C3043F00803FE
:1026F000C4F88C3003050BD54B0109D526684FF47F
:1027000000633362D4F88C3043F02003C4F88C307B
:10271000D4F88C30002B34D0800609D501F020008D
:1027200002F08051084303D0216F09B12046884749
:10273000D4F88C0021688968490602D410F0280F6B
:1027400021D0204601F0E6F820688168490615D5B9
:10275000816821F040018160E06F78B15C4981635C
:10276000E06FFEF7D0F900280BD000E011E0E06F39
:10277000816B00E02046BDE8F04108472046FFF7A6
:1027800066FFBDE8F0812046FFF761FFC4F88C507A
:10279000F7E7E76E2026012F5CD1C7065AD5CF0692
:1027A00058D5102018622068816849062FD5E26F3D
:1027B000116849680904090CE3D0B4F85C308B4215
:1027C000DFD9A4F85E1011680968890618D4016879
:1027D00021F4807101602068816821F0010181602D
:1027E0002068816821F040018160C4F88860E56656
:1027F0002068016821F010010160E06FFEF74EF9DA
:10280000B4F85C00B4F85E10401A81B21EE0B4F86F
:102810005C10B4F85E20891AB4F85E2089B2002AF0
:10282000AFD00029ADD0026822F490720260206817
:102830008268254BDB431A408260C4F88860E566F5
:1028400025672068026822F0100202602046FFF728
:10285000AEFE96E7C70209D5570207D54FF48010A0
:1028600018622046BDE8F041FFF7F0BE07060AD522
:1028700001F0800702F40002174304D0616F0029C1
:102880007FF478AF7DE742060CD54A060AD5196871
:10289000204621F040011960C4F88460656700F0AB
:1028A00089F86EE7020206D54A0004D52046BDE845
:1028B000F041FFF7CABEC001CBD50029C9DA2046D6
:1028C000BDE8F041FFF774BE0100001020010004D4
:1028D0000139000810B5040003D0D4F8840010B109
:1028E00007E0012010BD002084F88000204600F0A1
:1028F00027F82420C4F884002068016821F0010131
:102900000160204601F022F80128EBD0A06A10B146
:10291000204600F061FF2068416821F49041416049
:102920002068816821F02A0181602068016841F0F7
:10293000010101602046BDE8104000F0B1BF000079
:1029400010B586B0044614216846FDF799FC174976
:102950002068884227D11648016E41F48041016603
:10296000016E01F480410591C16C41F00101C16427
:10297000C06C694600F0010005904FF4C060009003
:1029800002200190002002900390072004904FF055
:102990009040FEF7F5F8002211462520FEF740FA98
:1029A0002520FEF72FFA06B010BD000000380140C8
:1029B000001002407047FEE700EB8100006E00F05F
:1029C000F84070478068C0F3C00070478068C0F36B
:1029D000800070478068C0F380007047042303EADA
:1029E000D15310B518444369C1F3045107248C40F6
:1029F000A3438A401343436110BD00EB8100016E85
:102A000021F00041114301667047000030B58BB0E2
:102A1000002408940994202168460A94FDF730FCAC
:102A20001C484FF0A041042501604FF48021C0E90B
:102A30000114C4600461C0E90545047744770121AD
:102A4000016280F82440C462046380F83840C463A3
:102A500080F84040FDF7D2FE08B1FDF74FFC08A911
:102A60000C480894FDF74CFC08B1FDF747FC0A48F8
:102A700000900620CDE901047F200594CDE90305EF
:102A800069460448FDF7A8FC002801D0FDF736FC94
:102A90000BB030BD140000200008302E30B589B0D6
:102AA00020216846FDF7ECFB194818490024016015
:102AB0008902C0E90114C46004250461C0E9054528
:102AC000047744770121016280F82440C4620463E2
:102AD00080F83840C46380F84040FDF78FFE08B1AD
:102AE000FDF70CFC0B4800900620CDE901047F2087
:102AF0000594CDE9030569460548FDF76DFC0028FE
:102B000001D0FDF7FBFB09B030BD00000001005013
:102B1000800000200080F03EF0B587B014216846A8
:102B2000FDF7AEFB2D48C16C41F00401C164C16CDE
:102B300001F004010591C16C41F02001C164C16C38
:102B400001F020010591C16C41F00101C164C16C2B
:102B500001F001010591C16C41F00201C164C16C39
:102B600001F002010591C16C41F00801C164C06C23
:102B70001B4E00F008004FF47F44059001222146CF
:102B80003046FEF7E1F8174F012204213846FEF7E0
:102B9000DBF80125CDE90045002402946946304662
:102BA0000394FDF7EDFFCDE9005469464FF09040E6
:102BB0000294FDF7E5FF0720CDE9000469460A48C5
:102BC0000294FDF7DDFF04200090CDE90154694631
:102BD00038460394FDF7D4FF07B0F0BD0010024063
:102BE00000080048000C00480004004810B586B0FA
:102BF00014216846FDF744FB214800241F49059431
:102C0000C0E900144A21816042F20F71C0E9031447
:102C10004FF080414461C0E906410462FEF72CFE9A
:102C200008B1FDF76BFB16208DF8000049208DF8E8
:102C3000010023208DF802000194039401226946CB
:102C40000F480494FEF7C6FE08B1FDF757FB0220BB
:102C50008DF8140003208DF815008DF81600212042
:102C60008DF81700012205A90548FEF75FFE002830
:102C700001D0FDF743FB06B010BD00000028004066
:102C8000EC00002010B59CB0002414941594169408
:102C90001794189419941C210DA81A94FDF7F0FAB2
:102CA00034216846FDF7ECFA2E482D49016040F2C8
:102CB0001F31C0E901146421C0E903148021C0E977
:102CC0000541FEF7CAFF08B1FDF718FB4FF480502D
:102CD000149014A92348FFF787F808B1FDF70EFBFD
:102CE0002048FFF7E5FB08B1FDF708FB189418A989
:102CF0001C481A94FEF762FF08B1FDF7FFFA602046
:102D00000D901420CDE90E04109411941294002219
:102D10000DA914481394FFF73CFB08B1FDF7EEFA38
:102D200032200E9004220DA90E48FFF732FB08B1A5
:102D3000FDF7E4FA00944FF40050CDE9044001940B
:102D4000029403940694694606480C94FEF7DCFE50
:102D500008B1FDF7D3FA0348FFF77AFA1CB010BDAB
:102D6000004001404402002010B590B000240994B6
:102D70000A940B94142104A80C94FDF781FA2C48B2
:102D80000D940F940E940094019402944FF080419E
:102D9000039401604F21C0E901144FF6FF71C0E9AF
:102DA00003148461FEF759FF08B1FDF7A7FA4FF449
:102DB0008050099009A91E48FFF716F808B1FDF7E1
:102DC0009DFA1B48FFF714F908B1FDF797FA0420A4
:102DD00004905020CDE9050404A915480894FFF794
:102DE0009BFB08B1FDF78AFA0D940DA910480F94CA
:102DF000FEF7E4FE08B1FDF781FA0120CDE90040BD
:102E00000294002269460A480394FFF76AF808B161
:102E1000FDF774FA022000900190042269460448EC
:102E2000FFF75FF8002801D0FDF768FA10B010BD79
:102E30001401002010B590B0002409940A940B945A
:102E4000142104A80C94FDF71BFA2D480D940F943F
:102E50000E940094019402942849039401604F2138
:102E6000C0E901144FF6FF71C0E903148461FEF755
:102E7000F4FE08B1FDF742FA4FF48050099009A919
:102E80001F48FEF7B1FF08B1FDF738FA1C48FFF7FD
:102E9000AFF808B1FDF732FA042004905020CDE9D4
:102EA000050404A916480894FFF736FB08B1FDF79E
:102EB00025FA0D940DA912480F94FEF77FFE08B174
:102EC000FDF71CFA0120CDE900400294002269467A
:102ED0000B480394FFF705F808B1FDF70FFA02203D
:102EE00000900190042269460548FEF7FAFF002889
:102EF00001D0FDF703FA10B010BD0000000400403F
:102F00006001002010B58EB0002407940894099445
:102F10000A940B940C941C2168460D94FDF7B0F9AB
:102F20002448234901604F21C0E901144FF6FF7185
:102F3000C0E903148461FEF790FE08B1FDF7DEF9E5
:102F40004FF48050079007A91A48FEF74DFF08B1CB
:102F5000FDF7D4F91748FFF7EAF908B1FDF7CEF904
:102F60000B940BA913480D94FEF728FE08B1FDF74A
:102F7000C5F9302000906420CDE9010400226946A3
:102F80000C480494FFF79EF908B1FDF7B7F94FF428
:102F9000FA700190042269460648FFF793F908B1D8
:102FA000FDF7ACF90348FFF753F90EB010BD000070
:102FB00000080040AC0100203EB500240F480094FA
:102FC00001940D490294016041F63F71C0E901147A
:102FD00042F20F718461C160FEF73FFE08B1FDF758
:102FE0008DF90094694605480294FEF7E7FD002834
:102FF00001D0FDF783F93EBD00100040F80100202C
:10300000184810B5164901604FF41651416000216F
:1030100081600C22C160C0E904128161C16101625A
:1030200041628162FFF756FC08B1FDF767F90021A4
:103030000C48FFF7E4FA08B1FDF760F900210948F0
:10304000FFF7B7FA08B1FDF759F90648FFF790FA0C
:10305000002803D0BDE81040FDF750B910BD0000B6
:103060000038014090020020FEE7FEE77047002292
:10307000014602E00A39C9B2521C0A29FAD21007E5
:1030800041EA1060704700002DE9F047104C81467E
:1030900000252068400618D4206840F08000206099
:1030A000FDF758FE06464FF47A78032708E000BF84
:1030B000FDF750FE801B404502D9032589F8257095
:1030C0002068400601D4032DF2D12846BDE8F087E0
:1030D0000C2800402DE9F041064613480025016800
:1030E00021F080010160104C0C3420684FF0030780
:1030F000800607D43046FEF7D5FC90B186F82570DF
:1031000003250EE0206820F0200020603046FEF706
:10311000C9FC10B186F825700325206840F0200016
:1031200020602846BDE8F0810C2800407047FDF77C
:1031300017BE000010B5A4B038216846FDF7A0F80E
:1031400014211FA8FDF79CF844210EA8FDF798F85C
:103150004FF40070FDF796FE0120009000040190EE
:1031600002200324CDE907041421CDE90A100C90B4
:103170000D9009946846FEF779F908B172B6FEE73A
:103180000F20CDE91F0400242194229402211FA8BE
:103190002394FEF721F808B172B6FEE70848CDE99E
:1031A0000E0400071D904FF440701E900EA8FDF70E
:1031B000CFFE002801D072B6FEE724B010BD00009B
:1031C000018008000248016841F470010160704705
:1031D00088ED00E00148FEF73DBF0000140100202B
:1031E0000148FEF737BF0000600100200148FEF7EC
:1031F00031BF0000AC0100200148FEF72BBF0000EA
:10320000F80100202DE9F0430268234B234D244EA2
:10321000244C4FF08049984207D0484505D0A84239
:1032200003D0B04201D0A04203D122F070074A6817
:103230003A431D4FDFF874C0DFF8748098420DD018
:1032400048450BD0A84209D0B04207D0A04205D0D3
:10325000B84203D0604501D0404503D122F4407507
:10326000CA682A434D6922F080022A4302608A68B4
:10327000C2620A688262984207D0A04205D0B84272
:1032800003D0604501D0404501D1096901630121A6
:103290004161BDE8F0830000002C014000040040C3
:1032A000000800400034014000400140004401405B
:1032B0000048014010B5846842EA032224F47F44A8
:1032C0000A432243826010BD8268034B1A400A43BE
:1032D00042F00701816070478FFFCFFF2DE9F04377
:1032E000026A22F001020262056A436882691C4C8C
:1032F00025F0020522400C6822F0030214438A687C
:10330000194E2A43174D194FDFF864C0DFF8649057
:10331000A84207D0B04205D0B84203D0604501D0E2
:10332000484506D122F00808CA6842EA080222F09D
:103330000402A84207D0B04205D0B84203D060458D
:1033400001D0484505D14D6923F440731D438B6975
:103350002B4343608461496841630262BDE8F083A6
:103360008FFFFEFF002C014000340140004001406F
:103370000044014000480140F0B5026A22F010020A
:103380000262056A42688369194C1B4E23400C682F
:1033900023F4407343EA042425F020038D6843EAB4
:1033A0000513144DA84201D0B04206D1CF6823F0D6
:1033B000800343EA071323F04003A8420AD0B04237
:1033C00008D00E4DA84205D00D4DA84202D00D4D9B
:1033D000A84207D14D6922F4406242EA85028D6914
:1033E00042EA850242608461496881630362F0BDFC
:1033F000FF8FFFFE002C01400034014000400140DF
:103400000044014000480140F0B5026A22F4807295
:103410000262056A4368C269194C1B4E22400C685F
:1034200022F00302144325F400728D6842EA05225B
:10343000144DA84201D0B04206D1CF6822F40062F8
:1034400042EA072222F48062A8420AD0B04208D0A1
:103450000E4DA84205D00E4DA84202D00D4DA842F7
:1034600007D14D6923F4405343EA05138D6943EABC
:1034700005134360C4614968C1630262F0BD000086
:103480008FFFFEFF002C014000340140004001404E
:103490000044014000480140F0B5026A22F4805225
:1034A0000262056A4268C369194C1B4E23400C68CE
:1034B00023F4407343EA042425F400538D6843EA5F
:1034C0000533144DA84201D0B04206D1CF6823F491
:1034D000004343EA073323F48043A8420AD0B042B2
:1034E00008D00E4DA84205D00D4DA84202D00D4D7A
:1034F000A84207D14D6922F4404242EA85128D6903
:1035000042EA85124260C461496801640362F0BD09
:10351000FF8FFFFE002C01400034014000400140BD
:10352000004401400048014030B5026A22F4803274
:103530000262046A4268036D114D2B400D681D4301
:1035400024F400330C8943EA04430E4CA0420BD010
:103550000D4CA04208D00D4CA04205D00C4CA0420E
:1035600002D00C4CA04204D14C6922F4803242EAD1
:1035700004224260056549688164036230BD000031
:103580008FFFFEFF002C014000340140004001404D
:10359000004401400048014030B5026A22F4801224
:1035A0000262046A4268036D114D24F400142B403A
:1035B0000D6843EA05230D8944EA05540D4DA842E0
:1035C0000BD00D4DA84208D00C4DA84205D00C4D93
:1035D000A84202D00B4DA84204D14D6922F48022AA
:1035E00042EA8522426003654968C164046230BDD5
:1035F000FF8FFFFE002C01400034014000400140DD
:10360000004401400048014010B50468A268234B03
:103610001A404B681343224A13400A681A43A260B7
:103620004A68602A32D006DC302A34DD402A0ED0C7
:10363000502A30D124E01B4B9A422CDA702A2AD12E
:103640000B69D1E902210068FFF734FE23E00A6824
:10365000052A13D0B2F1011F10D00268136A146A50
:1036600024F00104146202689469096924F0F004EA
:1036700044EA01119161006803620CE0012010BD71
:103680000A698968006800F00FF804E00A6989682F
:10369000006800F051F8002010BD00008FFFCFFF40
:1036A000F8FFFEFF3000100010B5036A046A24F032
:1036B00001040462846924F0F00444EA021423F053
:1036C0000A020A438461026210BD000070B5046AF8
:1036D00024F0010404628469056A124EB0420ED0DF
:1036E000B0F1804F0BD0104EB04208D00F4EB04218
:1036F00005D00F4EB04202D00E4EB04203D124F09E
:103700000304144301E044F001041A0724F0F00418
:1037100044EA126225F00A0301F00A0119438261AA
:10372000016270BD002C0140000400400008004010
:10373000003401400040014010B5036A23F010033B
:1037400003628369046A23F4704343EA023224F07B
:10375000A00343EA01118261016210BD30B5046A21
:1037600024F0100404628469056A24F4407444EA75
:10377000022222F470444FF6FF7202EA033222431F
:10378000A02425F0A00304EA01111943826101621B
:1037900030BD000030B5416EB9B1026891689268E1
:1037A000C1F342610B4B520F9C5CE50003F108042E
:1037B000A25CB5FBF2F2A0F86A205A5C615CD20010
:1037C000B2FBF1F1A0F8681030BD0121A0F86A1039
:1037D000F8E70000FA3C000890F82810C90706D066
:1037E00001684A68C36A22F400321A434A6090F8BA
:1037F0002810890706D501684A68036B22F48032D5
:103800001A434A6090F82810490706D501684A68AB
:10381000436B22F480221A434A6090F8281009076B
:1038200006D501684A68836B22F400421A434A6055
:1038300090F82810C90606D501688A68C36B22F47F
:1038400080521A438A6090F82810890606D50168CC
:103850008A68036C22F400521A438A6090F8281098
:10386000490611D501684A68436C22F480121A4354
:103870004A60416CB1F5801F06D101684A68836CCB
:1038800022F4C0021A434A6090F82810090606D5AF
:1038900001684A68C06C22F4002202434A60704703
:1038A000F8B500260446C0F88C60FDF753FA0546CB
:1038B000206800686FF07E47000708D52B4600227D
:1038C0004FF400112046009700F07AF960B92068A3
:1038D000006840070AD52B4600224FF4800120469D
:1038E000009700F06DF908B10320F8BD2020C4F85E
:1038F0008400C4F8880044F86C6F00202675F8BD79
:1039000010B5806A0021A0F85E10A0F85610FEF7EE
:103910009EFE10BD01680A6822F490720A60016878
:103920008A68094B1A408A60C16E012904D1016876
:103930000A6822F010020A602021C0F888100021D5
:10394000C166016770470000FEFFFFEF2DE9F041FF
:103950000446016880682269E369104362690025B2
:103960001A431043DFF82CC20A688B4B1A400243FB
:103970000A6020684168E26821F4405111434160C7
:103980002168A069614501D0226A10438A68834B8F
:103990001A4002438A602068C16A626A21F00F01FE
:1039A0001143C1627E4923687E488B420DD1D0F815
:1039B000880010F0030006D0012855D0022842D01C
:1039C00003283FD152E001203DE077498B420BD1E3
:1039D000D0F8880010F00C0035D0042833D0082827
:1039E00040D00C282ED141E070498B420BD1D0F849
:1039F000880010F0300026D0102835D0202831D093
:103A000030281FD132E06A498B420BD1D0F88800B0
:103A100010F0C00017D0402826D0802822D0C0281F
:103A200010D123E063450DD1D0F8880010F4406038
:103A300009D0B0F5806F17D0B0F5006F12D0B0F597
:103A4000406F13D010205B4A5B4F00264FF40041BB
:103A5000634539D160B102280DD004280DD0082863
:103A600031D10EE00220EEE70420ECE70820EAE77F
:103A7000FDF7A0FC03E0114603E0FDF7BFFC0100E9
:103A80007DD0606A37F810206768B1FBF2F007EB71
:103A9000470383426CD8B0EB073F69D80023084640
:103AA0001946FCF7B5FB090241EA106102027808E9
:103AB000101871413A460023FCF7AAFB3F4AA0F5D3
:103AC0004071914259D953E0E3694FF6EF788B4248
:103AD0002DD109284CD2DFE800F005080D4B274B0B
:103AE0004B4B0E00FDF766FC01E0FDF775FC010095
:103AF00001D144E01146606A37F81000B1FBF0F0E4
:103B00004100606801EB5001B1FBF0F080B2A0F120
:103B1000100141452CD84FF6F0710140C0F342002E
:103B200001432068C1602AE0FDF768FCDFE709284F
:103B30001ED2DFE800F005080D1D1F1D1D1D0E0023
:103B4000FDF738FC01E0FDF747FC010001D116E06C
:103B50001146606A37F81000B1FBF0F1606801EBC4
:103B60005001B1FBF0F080B2A0F11001414504D941
:103B7000012504E0FDF742FCE7E72168C860012069
:103B8000A4F86A0024F8680F2846A660E660BDE83D
:103B9000F081000000800040F369FFCFFFF4FF11C7
:103BA000003801400010024000440040004800403E
:103BB000004C00400024F400E23C0008FFFC0F0031
:103BC0002DE9F0479A4617460E4604464FF0000985
:103BD0004FF02008089D39E0681C37D0FDF7BAF88F
:103BE000A0EB0A00A84222D80DB32068016849075B
:103BF0002CD5C069C043000528D421684FF400606B
:103C000008622068016821F4D07101602068816831
:103C100021F001018160C4F88480C4F88880C4F870
:103C20008C8000BF84F880900320BDE8F087206876
:103C3000016821F4D07101602068816821F00101E0
:103C40008160C4F88480C4F88880EBE72068C0698C
:103C500036EA000004D00020B842BDD00020E4E7DE
:103C60000120F9E70148FEF7F3BC000090020020B4
:103C7000FEE70907090E002804DB00F1E02080F8C8
:103C80000014704700F00F0000F1E02080F8141DD0
:103C9000704702E008C8121F08C1002AFAD1704715
:103CA0007047002001E001C1121F002AFBD17047BC
:103CB000FDF75EF8FFF73EFAFEF72EFFFFF7A0F9DB
:103CC000FEF7A4FEFEF7EAFEFEF790FFFFF74CF8C2
:103CD000FFF7B0F8FFF716F9FFF76EF9FEF7D2FF1E
:103CE000FEE7010002000400060008000A000C00C4
:103CF00010002000400080000001010101030701C5
:103D00000000080402040801010100000000000096
:103D10000000010203040607080900000000010278
:103D200003040000443D00080000002014000000CF
:103D3000923C0008583D0008140000200C070000C9
:103D4000A23C00080000000010000000010000007C
:083D5000000000000024F40053
:04000005080001D915
:00000001FF
