:020000040800F2
:10000000E0060020ED010008B92400082F1E0008BA
:10001000B724000849030008F52800080000000084
:10002000000000000000000000000000D1270008D0
:100030004B03000800000000BB240008D327000881
:10004000070200080702000807020008070200086C
:10005000070200080702000807020008070200085C
:10006000070200080702000807020008070200084C
:10007000070200080702000807020008070200083C
:10008000070200080000000007020008070200083D
:10009000070200080702000807020008070200081C
:1000A000070200080702000807020008070200080C
:1000B0007928000885280008912800080702000810
:1000C00007020008070200080702000807020008EC
:1000D00007020008E92800080702000807020008D4
:1000E00007020008070200080702000807020008CC
:1000F00007020008070200080702000800000000CD
:1001000000000000070200080000000007020008CD
:1001100007020008000000000702000807020008AC
:10012000070200080702000807020008070200088B
:10013000070200080000000000000000070200089D
:10014000070200080702000800000000000000008D
:10015000000000000000000000000000000000009F
:10016000000000000000000000000000070200087E
:10017000070200080000000000000000000000006E
:10018000000000000702000800000000000000005E
:10019000000000000000000000000000000000005F
:1001A000000000000000000007020008070200082D
:1001B000070200080702000807020008000000000C
:1001C000000000000702000800000000000000001E
:1001D0000702000807020008DFF80CD000F040F822
:1001E00000480047AD2C0008E00600200648804784
:1001F00006480047FEE7FEE7FEE7FEE7FEE7FEE70C
:10020000FEE7FEE7FEE7FEE769280008D9010008DF
:10021000D2B201E000F8012B491EFBD27047002248
:10022000F6E710B513460A4604461946FFF7F0FFF5
:10023000204610BD30B50B46014600202022012487
:1002400009E021FA02F59D4205D303FA02F5491BA4
:1002500004FA02F52844151EA2F10102F1DC30BDBA
:10026000064C074D06E0E06840F0010394E8070003
:1002700098471034AC42F6D3FFF7B2FFC43E0008F3
:10028000E43E0008124810B510490160890241603F
:1002900000218160C16004220161C0E9051201777B
:1002A00041770122026280F82410C162016380F864
:1002B0003810C16380F8401000F094FA002803D091
:1002C000BDE8104000F050B810BD00000001005023
:1002D0004001002070B504460068816811F0010FEC
:1002E0002DD18168174A11421AD18168D54329401E
:1002F000491C816000F0D4FD06461BE0816811F0C6
:10030000010F03D181682940491C816000F0C8FDBC
:10031000801B02280ED920680068C043C00709D09E
:10032000E06D40F01000E065206E40F001002066B6
:10033000012070BD20680168C943C907DED10020D3
:1003400070BD00003F000080FEE77047002240F6CD
:10035000B83306E00021491C89B29942FBD3521CF4
:1003600092B28242F6D3704772B6FEE710B588B0FB
:10037000044620216846FFF752FF0620CDE90040E1
:1003800000207F21CDE902010421CDE90410694656
:10039000084800F011F808B1FFF7E6FF054800F043
:1003A00093FB012000F07CFC024800F017FA08B033
:1003B00080B210BD400100202DE9F84F002704460F
:1003C000009790F85800DFF8E0930D46B8460128F2
:1003D00011D0012684F85860206802F051F860B10D
:1003E000E06D40F02000E0655FF0010784F8588080
:1003F0003846BDE8F88F0220FBE7D5E900210C2341
:10040000206803EA91131844036B01F01F014FF0B9
:100410001F0C0CFA01FCC2F3846223EA0C038A402D
:1004200013430363206802F02BF88246206802F031
:1004300023F85AEA00003CD1AA6829682068B2F182
:10044000004F37D002F020F82068416921F00041C8
:10045000416120686969C268C2F3C10252009140DB
:100460002A69042A31D000EB82002B68026EDFF883
:100470003CC303F0F84302EA0C020B431A4342F078
:100480000041016620682A69A96900EB8200026EBA
:1004900022F080720A430266297F226828690129B6
:1004A00010D0002102EB8000026E22F000720A439D
:1004B00002667DE0002201F0E7FF2068416941F01B
:1004C0000041C5E74FF00071ECE7002101F0CEFFDD
:1004D000400320684FF0000172D001F0C7FF90FA8E
:1004E000A0F0B0FA80F1286842036ED090FAA0F034
:1004F000B0FA80F0814204D100221146206801F058
:10050000D2FF0121206801F0B1FF400320684FF0C5
:1005100001015DD001F0AAFF90FAA0F0B0FA80F1DD
:100520002868420359D090FAA0F0B0FA80F08142D6
:1005300004D100220121206801F0B5FF02212068CA
:1005400001F094FF400320684FF0020148D001F011
:100550008DFF90FAA0F0B0FA80F12868420344D0F1
:1005600090FAA0F0B0FA80F0814204D1002202217A
:10057000206801F098FF0321206801F077FF400315
:1005800020684FF0030133D001F070FF90FAA0F023
:10059000B0FA80F1286842032FD090FAA0F0B0FAA8
:1005A00080F0814204D100220321206801F07BFF0A
:1005B0002068816811F0010F22D0ACE000E004E077
:1005C00001F054FFC0F384618DE7C0F3846091E7CC
:1005D00001F04CFFC0F38461A2E7C0F38460A6E79A
:1005E00001F044FFC0F38461B7E7C0F38460BBE768
:1005F00001F03CFFC0F38461CCE7C0F38460D0E736
:100600002A7B296850F8B03FC1F3120C23EA0C038F
:1006100002F0180C664A22FA0CF20A4013430360F7
:10062000E968494577D1286841031CD090FAA0F1C8
:10063000B1FA81F1491C01F01F0109294FEA40314B
:1006400032D8002912D000BF90FAA0F1B1FA81F19E
:1006500001F1010101F01F0106FA01F609D100BF05
:10066000C0F3846109E0C0F38461E3E7C0F384610F
:10067000EEE790FAA0F1B1FA81F101F1010101F088
:100680001F0146EA816102D1C0F3846003E090FA61
:10069000A0F0B0FA80F000F1010000F01F0000EBC4
:1006A000400041EA005132E000290ED090FAA0F15A
:1006B000B1FA81F101F1010101F01F0106FA01F621
:1006C00006D100BFC0F3846106E0C0F38461F1E7A6
:1006D00090FAA0F1B1FA81F101F1010101F01F01DD
:1006E00046EA816102D1C0F3846003E090FAA0F091
:1006F000B0FA80F000F1010000F01F002D4A00EB7D
:10070000400002EB005041EA000141F00071AA688C
:10071000206801F0B9FE28482A6802423FF466AE1C
:1007200026488168264B01F0E0719A4202D0254BA1
:100730009A421CD10B021AD42268B2F1A04F7FF466
:1007400055AE826841F4000122F0E0720A438260F3
:100750001D481E490068B0FBF1F0401C00EB400052
:10076000800000E0401E00900028FBD13EE6184DBE
:10077000184BAA4207D1CD0105D422689A42F5D080
:1007800041F0807109E0144DAA42EFD14A02EDD444
:1007900022689A42EAD041F48001826822F0E07235
:1007A0000A43826022E6000000007F4000F0FF0361
:1007B000FFFF0700000020FE00000880000300503B
:1007C000000021C31000C09028000020400D03004D
:1007D000000052C700010050000084CB0068006C8C
:1007E00070470000F8B54FF0000504002E46009554
:1007F00002D0E06D10B107E00120F8BD204600F006
:10080000EFF8266684F8586020688168C1F340716B
:1008100019B181686A4A1140816020688168C1F31A
:10082000007189B98168674A114041F08051816047
:10083000654866490068B0FBF1F04000801C00E0AC
:10084000401E00900028FBD120688168C1F3007130
:1008500041B9E16D41F01001E165216E41F0010106
:100860002166012501F00CFEE16DC90600D430B10E
:10087000E06D40F01000E06501252846F8BDE06D10
:1008800020F4807040F00200E0652068806810F07D
:10089000010F11D14FF0A04080684D4900F00100D8
:1008A000896801F00101084306D14A4861688268FD
:1008B00022F47C120A438260E168E06B627F0843A5
:1008C000A16841EA4231084394F8241040EA01400B
:1008D000012904D1218D404A02EB41410843E16ADC
:1008E00029B101F47871226B014342EA01002168C9
:1008F000CA683A4B1A400243CA6020680169626BB9
:1009000021F0406111430161206801F0B9FD064604
:10091000206801F0B1FD30432ED1207F94F83810CB
:10092000800340EA41022068C16844F2020399430F
:100930001143C16020690028206801690AD041F490
:1009400080310161206850F8C01F22696FF30D01EA
:10095000114307E021F480310161206850F8C01F85
:100960006FF30D01016094F8400001280CD020685D
:10097000016921F001010161606901282068016BB2
:1009800021F00F0111D013E0D4E911010843D4E99B
:1009900013121143084321680A6940F2FC739A4319
:1009A000104340F001000861E6E7226A521E11433D
:1009B0000163E06D20F0020040F00100E0655CE7BB
:1009C000C0FFFF5FC0FFFF7F28000020400D030035
:1009D00000010050000300500000FEFF0740F0FF40
:1009E000F0B587B0044614216846FFF718FC324A78
:1009F0002368002410680325304E3149401CB3F1B0
:100A0000A04F06D02F4FBB4254D11060012816D002
:100A10001DE01060012807D1C86C40F40050C86484
:100A2000C86C00F400500590C86C40F00200C86427
:100A3000C86C00F0020005904FF4805033E0C86CA1
:100A400040F40050C864C86C00F400500590C86CB5
:100A500040F00100C864C86C00F001000590C86C4B
:100A600040F00200C864C86C4FF0904700F00200EC
:100A700005902020CDE9000569460294384600F033
:100A800021F91020CDE9000569460294384600F0AE
:100A900019F90820CDE9000469463846029400F0AF
:100AA00011F94FF40040CDE9000569460294304643
:100AB00000F008F907B0F0BD18000020000400485D
:100AC00000100240000100502DE9F0410446384872
:100AD000806800F01F05206801F0D2FC18B10221E7
:100AE0000846BDE8F08194F8580001280CD0012098
:100AF00084F858002046FFF7EDFB01004FF000039B
:100B000004D084F85830EBE70220EAE7E06D40F6C5
:100B10000162904340F48070E065264A20684FF0FF
:100B2000A046904201D1374600E00746874200D0F8
:100B30001DB9E76D27F48017E765E76DFF0404D55D
:100B4000276E27F00607276600E023661C2707604C
:100B500084F858302068904201D1334600E00346C3
:100B6000834215D0A5B1052D12D0092D10D0E36D0B
:100B700043F48013E365904200D13046C0688001A1
:100B8000AED5E06D20F4005040F48050E065A7E75A
:100B9000C268920105D5E26D22F4005242F48052FF
:100BA000E2658268044B1A40121D826098E70000DB
:100BB0000003005000010050C0FFFF7F10B590F807
:100BC000253000210122022B03D00421C163012121
:100BD00022E003681C6824F00E041C60836C1C680F
:100BE00024F480741C6003681C6824F001041C60F9
:100BF00090F84430046C03F01F0302FA03F36360BF
:100C0000D0E913345C60436D33B11C6824F4807404
:100C10001C60D0E916345C6080F82520002280F842
:100C20002420084610BD70B590F82520002401212D
:100C30002346022A07D00422C26380F8251080F8D8
:100C40002430012429E00268156825F00E0515609E
:100C50000268156825F001051560826C156825F499
:100C60008075156090F84420056C02F01F0201FAAF
:100C700002F26A60D0E913255560426D32B1156801
:100C800025F480751560D0E91625556080F825108B
:100C900080F82430816B01B18847204670BD000088
:100CA00070B5044600F0FCF80546601C02D004480C
:100CB0004068044400F0F4F8401BA042FAD370BD31
:100CC0001C0000202DE9FC4FDFF8A0A10023012526
:100CD0000AF1040B03244FF00F0C0BF1040EBDE0DE
:100CE00005FA03F632406FD04F68012F05D0022F6E
:100CF00003D0112F01D0122F17D1D0F808905F0028
:100D000004FA07F829EA08090097D1F80C8008FAD4
:100D100007F848EA0908C0F808804768B7430E7921
:100D2000C6F300169E403E434660C6684FEA43083D
:100D300004FA08F7BE4301978F6807FA08F73743AC
:100D4000C7604E68022E01D0122E13D1DE0800EBD0
:100D500086060096366A5F07FF0E0CFA07F926EA48
:100D60000906D1F8109009FA07F949EA0609009E28
:100D7000C6F820900668019FBE430F7907F003076D
:100D800007FA08F7374307604E68F60065D5384E16
:100D9000376E47F001073766366E23F0030706F01B
:100DA00001060096334E3E44B146B6689F074FEAAF
:100DB00017780CFA08F7BE43B0F1904F05D02E4FCC
:100DC000B84204D1012717E047E0002714E02B4F79
:100DD000B84201D102270FE0294FB84201D10327C1
:100DE0000AE0284FB84201D1042705E0264FB84257
:100DF00001D1052700E0062707FA08F73743C9F8AD
:100E00000870DAF800605746D1F8048096435FEA2C
:100E1000C83800D516433E60DBF800605F46D1F865
:100E2000048096435FEA883800D516433E60DEF8BA
:100E300000607746D1F8048096435FEAC82800D561
:100E400016433E60094F0C373E68D1F80480964344
:100E50005FEA882800D516433E605B1C0A6832FAB8
:100E600003F67FF43DAFBDE8FC8F000000040140B5
:100E70000010024000000140000400480008004843
:100E8000000C0048001000480014004800690840A9
:100E900000D0012070470AB18161704781627047BC
:100EA00001488068704700001C00002002488168EB
:100EB00042681144816070471C00002010B5002476
:100EC000032000F065F8002000F008F808B10124C4
:100ED00001E000F025F8204610BD000070B50E4E70
:100EE00005460024706898B14FF47A71B1FBF0F0B8
:100EF0000A490968B1FBF0F000F032FD40B9102D4D
:100F000006D200222946501E00F022F8356000E08B
:100F10000124204670BD00001C0000202800002095
:100F20000A4882B0016E41F001010166016E01F0D4
:100F300001010091816D41F080518165806D00F06B
:100F40008050009002B000F093B800000010024002
:100F5000F0B40E4B1B680C46C3F30223C3F1070524
:100F6000042D00D90425191D072901D2002300E012
:100F7000DB1E012606FA05F1491E214099409E40DC
:100F8000761E16403143F0BC01F0CABC0CED00E007
:100F9000064900F0070208684FF6FF03184040EAD0
:100FA0000220034A10430860704700000CED00E087
:100FB0000000FA052B492C4B0A6832214A432B4981
:100FC00040B1B0F5007F086829D020F4C06040F43B
:100FD00080602CE00868C0F34120022804D051F85A
:100FE000800F20F4807022E0D1F8800020F480701F
:100FF000C1F88000086820F4C06040F40070086008
:10100000B2FBF3F0401C00E0401E4A69520501D5D6
:101010000028F9D1486940050AD503207047C0F37C
:101020004120022806D051F8800F40F480700860FB
:1010300000207047D1F8800040F48070C1F8800033
:10104000086820F4C06040F400700860B2FBF3F060
:10105000401C00E0401E4A695205DBD50028F9D14A
:10106000D8E700002800002040420F000070004038
:101070000248816841F480418160704700700040FF
:101080002DE9F8430446006800269D4D00035ED517
:10109000A86D0027C00008D4A86D40F08050A86556
:1010A000A86D012700F080500090DFF85892D9F821
:1010B000001041F48071C9F80010FFF7F1FE80467E
:1010C00006E000BFFFF7ECFEA0EB080002282BD8DB
:1010D000D9F80000C005F5D5D5F8900010F440709F
:1010E00014D0216C814211D0D5F89000D5F8901021
:1010F00020F4407041F48031C5F89010D5F890107C
:1011000021F48031C5F89010C5F89000C00711D0C7
:10111000FFF7C6FE804641F2883907E0FFF7C0FEC0
:10112000A0EB0801494501D903260BE0D5F8900052
:101130008007F3D5D5F89000216C20F44070084367
:10114000C5F890001FB1A86D20F08050A8652078E8
:10115000C00707D0D5F88800616820F00300084375
:10116000C5F888002078800707D5D5F88800A168E1
:1011700020F00C000843C5F888002078400707D508
:10118000D5F88800E16820F030000843C5F88800F1
:101190002078000707D5D5F88800216920F0C00025
:1011A0000843C5F888002078800607D5D5F8880060
:1011B000616920F440600843C5F888002078400643
:1011C00007D5D5F88800A16920F440500843C5F838
:1011D00088002078000607D5D5F88800E16920F45A
:1011E00040400843C5F888002088C00507D5D5F8D9
:1011F0008800216A20F440300843C5F88800208820
:10120000800507D5D5F88800616A20F4402008439E
:10121000C5F88800208840050FD5D5F88800A16A58
:1012200020F440100843C5F88800A06AB0F5801F7C
:1012300003D1E86840F48010E860208800050FD5ED
:10124000D5F88800E16A20F440000843C5F888001A
:10125000E06AB0F5800F03D1E86840F48010E860E0
:101260002088C0040FD5D5F88800216B20F040708D
:101270000843C5F88800206BB0F1807F03D1E8688F
:1012800040F48010E86020884FF0006180040ED5A3
:10129000D5F88800626B20F040601043C5F88800E4
:1012A000606B884203D1E86840F48010E8602088D1
:1012B00040040ED5D5F88800A26B20F040601043A2
:1012C000C5F88800A06B884203D1E86840F480101C
:1012D000E860208800040FD5D5F88800E16B20F085
:1012E00040500843C5F88800E06BB0F1805F03D13F
:1012F000E86840F48030E8603046BDE8F8830000DC
:1013000000100240007000402DE9F0470E46050035
:101310004FF0000725D0DFF8AC81D8F8000000F0CE
:101320000F00B0420CD2D8F8001021F00F01314369
:10133000C8F80010D8F8000000F00F00B04210D13B
:101340002968614CC80741F2883A5AD06868DFF8CA
:101350007C91032808D0022820682DD04005002861
:101360002CDB0120BDE8F08720688001F9D5E0681A
:1013700000F00302E068C0F30310401C032A19D0F8
:10138000534A00BFB2FBF0F0E268C2F306225043BA
:10139000E268C2F34162521C5200B0FBF2F04845D1
:1013A00017D9A06810F0F00F0CD0880711D5A868E5
:1013B00040B10EE0474AE5E78003D0E700F092F83D
:1013C000484506D9A06820F0F00040F08000A060F9
:1013D0008027A068696820F003000843A060FFF739
:1013E0005FFD814606E000BFFFF75AFDA0EB090153
:1013F00051453AD8A068696800F00C00B0EB810F45
:10140000F2D12868810714D5400703D5A06840F4BD
:10141000E060A0602878000705D5A06820F460503F
:1014200040F4E060A060A068A96820F0F0000843E4
:1014300004E0802F03D1A06820F0F000A060D8F86D
:101440000010404601F00F01B14216D9016821F0A9
:101450000F0131430160FFF723FD074607E000BF9E
:10146000FFF71EFDC11B514501D903207AE7D8F8CB
:10147000000000F00F00B042F2D12878400705D5F7
:10148000A068E96820F4E0600843A06028780007BD
:1014900006D5A068296920F4605040EAC100A06028
:1014A00000F020F8A1680C4AC1F30311515C01F06F
:1014B0001F01C8400949086009480068BDE8F047B5
:1014C000FFF70CBD002002400010024000B4C4042D
:1014D0000024F40000366E01B23E0008280000200F
:1014E0001C000020184910B58868C0F38102174815
:1014F000012A0BD08A68164BC2F38102022A06D059
:101500008A68C2F38102032A03D0002010BD184666
:1015100010BDCA6802F00304CA68C2F30312521C69
:10152000032C02D0B0FBF2F001E0B3FBF2F0CA688A
:10153000C968C2F306225043C1F34161491C490006
:10154000B0FBF1F010BD0000001002400024F400D8
:1015500000366E012DE9F84304007AD02078FA4D68
:10156000C00747D0A868E96800F00C0001F003014B
:101570000C2802D0082817D001E0032914D0606895
:10158000B0F5803F17D0B0F5A02F286817D020F411
:1015900080302860286820F4802028606068E0B1EE
:1015A000FFF77EFC064614E02868800322D56068B9
:1015B0000028D2D01EE0286840F48030EDE740F4E7
:1015C00080202860F7E700BFFFF76AFC801B6428D3
:1015D00070D828688003F7D50CE0FFF761FC064659
:1015E00005E000BFFFF75CFC801B6428F0D828688A
:1015F0008003F7D4207880074CD5A868E96800F00C
:101600000C0001F003010C2802D004280DD001E0E9
:1016100002290AD0E068002828682BD040F48070A6
:101620002860FFF73DFC064619E02868400502D512
:10163000E068002891D06868217C20F0FE4040EAF4
:1016400001606860C1480068FFF748FC002800D1CD
:1016500020E076E1FFF724FC801B0228B8D8286838
:101660004005F7D56868217C20F0FE4040EA016023
:1016700068600FE020F480702860FFF711FC0646D8
:1016800005E000BFFFF70CFC801B0228A0D82868EB
:101690004005F7D42078000729D560690028D5F8DF
:1016A000940013D040F00100C5F89400FFF7F8FB58
:1016B000064606E090E000BFFFF7F2FB801B022821
:1016C00086D8D5F894008007F6D510E020F0010008
:1016D000C5F89400FFF7E4FB064604E0FFF7E0FBE3
:1016E000801B022878D8D5F894008007F6D420789B
:1016F000400761D5A86D0026C00008D4A86D40F051
:101700008050A865A86D012600F080500090904898
:101710000168C90511D40168804641F480710160F7
:10172000FFF7BEFB074604E0FFF7BAFBC01B022829
:1017300052D8D8F80000C005F6D5A068012815D009
:101740000528D5F8900016D020F00100C5F89000CB
:10175000D5F8900020F00400C5F89000A06841F290
:101760008838B8B1FFF79CFB07460EE0D5F890002B
:1017700040F00100F0E740F00400C5F89000F5E704
:10178000FFF78EFBC11B414526D8D5F89000800796
:10179000F6D50CE0FFF784FB074604E0FFF780FB7B
:1017A000C11B414518D8D5F890008007F6D41EB16A
:1017B000A86D20F08050A8652078800629D5A06902
:1017C0000028D5F8980013D040F00100C5F8980023
:1017D000FFF766FB064606E077E000BFFFF760FB19
:1017E000801B022877D8D5F898008007F6D510E03E
:1017F00020F00100C5F89800FFF752FB064604E010
:10180000FFF74EFB801B022865D8D5F898008007AB
:10181000F6D4E069F0B3A968C1F38101032961D06E
:101820000228286820F0807028600BD0E86820F03B
:101830000300E860E86847490840E860FFF730FBCC
:1018400004464BE0FFF72CFB064604E0FFF728FBBD
:10185000801B02283FD828688001F7D4F4E90801EA
:101860006FF00F0202EB01110843218A520449086C
:1018700002EB4151A26841EA02210843217D4FF069
:101880007E42490802EB41610843217B40EAC16086
:10189000E96800E062E0304A11400843E8602868E7
:1018A00040F080702860E86840F08070E860FFF7E2
:1018B000F7FA044605E000BFFFF7F2FA001B022822
:1018C00009D828688001F7D548E004E0FFF7E8FA76
:1018D000001B022802D90320BDE8F8832868800194
:1018E000F4D43BE00128F7D0E868226A00F0030155
:1018F000914226D1616A00F0F0020901103991424B
:101900001FD1A26A00F4FE41B1EB022F19D194F865
:101910002C2000F07841B1EBC26F12D1218E00F47F
:10192000C00249084905A1F50011914209D194F876
:10193000341000F0C06049084906A1F100718142ED
:101940000CD00120C8E70000001002401C0000205D
:1019500000700040FFFFEEFE0C809F010020BBE7FF
:1019600010B5401EB0F1807F01D3012010BD4FF0B3
:10197000E02460610F21601700F0D2FF0020A06119
:1019800007202061002010BD7047704770477047E6
:10199000704770477047704770B50446006801692A
:1019A0004FF00005C943890715D4C168C9438907A9
:1019B00011D4E91E01610120207720688069800729
:1019C000204602D0FFF7E7FF04E000F0E3F82046EE
:1019D00000F0E1F8257720680169C943490717D469
:1019E000C168C943490713D46FF0040101610220A3
:1019F00020772068806910F4407F204602D0FFF7EE
:101A0000CAFF04E000F0C6F8204600F0C4F82577CD
:101A100020680169C943090716D4C168C943090789
:101A200012D46FF008010161042020772068C0699A
:101A30008007204602D0FFF7AEFF04E000F0AAF8CE
:101A4000204600F0A8F8257720680169C943C90637
:101A500017D4C168C943C90613D46FF010010161DE
:101A6000082020772068C06910F4407F204602D00B
:101A7000FFF791FF04E000F08DF8204600F08BF8AE
:101A8000257720680169C943C90708D1C168C943DE
:101A9000C90704D1891E0161204600F07DF8206845
:101AA0000169C943090609D4C168C943090605D4B7
:101AB0006FF0800101612046FFF767FF2068016930
:101AC000C943C90509D4C168C943090605D46FF4DF
:101AD000807101612046FFF757FF20680169C94303
:101AE000490609D4C168C943490605D46FF04001CD
:101AF0000161204600F051F820680169C943890658
:101B000009D4C168C943890605D46FF02001016179
:101B10002046FFF73BFF20680169C943C90209D489
:101B2000C168C943C90205D46FF480110161204620
:101B3000FFF72EFF20680169C943890209D4C168F3
:101B4000C943890205D46FF4001101612046FFF7F3
:101B50001EFF20680169C943490209D4C168C9430D
:101B6000490205D46FF4800101612046FFF711FF9F
:101B700020680169C94309020BD4C168C94309023D
:101B800007D46FF4000101612046BDE87040FFF703
:101B900001BF70BD7047704770477047704770470E
:101BA00070477047704700002DE9F0410368044614
:101BB000D86919689A6840F60F0528424FF0000569
:101BC00009D186067ED501F0200602F080573E43FB
:101BD00078D0216FFFE0924E924F16400F4037436E
:101BE00070D0C70709D0CF0507D501271F62D4F8E9
:101BF0008C3043F00103C4F88C3083070AD5D30737
:101C000008D0276802233B62D4F88C3043F00403E9
:101C1000C4F88C3043070AD5D30708D027680423BB
:101C20003B62D4F88C3043F00203C4F88C300307D5
:101C30000CD501F02003334308D026680823336213
:101C4000D4F88C3043F00803C4F88C3003050BD56E
:101C50004B0109D526684FF400633362D4F88C3009
:101C600043F02003C4F88C30D4F88C30002B34D0EF
:101C7000800609D501F0200002F08051084303D00E
:101C8000216F09B120468847D4F88C002168896803
:101C9000490602D410F0280F21D0204600F008FE9B
:101CA00020688168490615D5816821F0400181606E
:101CB000E06F78B15C498163E06FFEF7B4FF002804
:101CC0000BD000E011E0E06F816B00E02046BDE842
:101CD000F04108472046FFF765FFBDE8F081204648
:101CE000FFF760FFC4F88C50F7E7E76E2026012F5E
:101CF0005CD1C7065AD5CF0658D510201862206887
:101D0000816849062FD5E26F116849680904090CFA
:101D1000E3D0B4F85C308B42DFD9A4F85E101168D0
:101D20000968890618D4016821F48071016020686F
:101D3000816821F0010181602068816821F0400103
:101D40008160C4F88860E5662068016821F01001B0
:101D50000160E06FFEF732FFB4F85C00B4F85E108B
:101D6000401A81B21EE0B4F85C10B4F85E20891A03
:101D7000B4F85E2089B2002AAFD00029ADD0026845
:101D800022F49072026020688268254BDB431A407F
:101D90008260C4F88860E56625672068026822F0E2
:101DA000100202602046FFF7F9FE96E7C70209D548
:101DB000570207D54FF4801018622046BDE8F04165
:101DC000FFF7EFBE07060AD501F0800702F4000214
:101DD000174304D0616F00297FF478AF7DE7420696
:101DE0000CD54A060AD51968204621F04001196031
:101DF000C4F88460656700F019F86EE7020206D542
:101E00004A0004D52046BDE8F041FFF7C9BEC00135
:101E1000CBD50029C9DA2046BDE8F041FFF7BFBEA7
:101E200001000010200100049D2800087047FEE713
:101E300010B586B014216846FEF7F1F91248C16C5E
:101E400041F00101C164C16C01F001010591C16C57
:101E500041F00201C164C06C002400F00200059052
:101E60000120CDE9000469464FF090400294FEF74E
:101E700029FF0720CDE90004694604480294FEF7D3
:101E800021FF06B010BD0000001002400004004811
:101E9000114810B50168114CE268891A642919D3F8
:101EA0000068E06000F01CF82070E17820EA010290
:101EB000414081436270A170E070022902D100208C
:101EC00000F05CFAA078032804D1BDE81040FF20A0
:101ED00000F054BA10BD00002400002000000020D3
:101EE00070B50E4D002401212846FEF7CFFF00B942
:101EF000012402212846FEF7C9FF00B9022404216B
:101F00002846FEF7C3FF00B9032401214FF090409B
:101F1000FEF7BCFF00B90424204670BD0004004851
:101F200000B585B014216846FEF779F94FF6FF70C9
:101F3000009000200321CDE902010190694602488A
:101F4000FEF7C0FE05B000BD0008004800B585B032
:101F500014216846FEF763F94FF6FF7000900120E8
:101F60000190032003900020029069460248FEF78A
:101F7000A9FE05B000BD00000008004870B50024AF
:101F800006462146204600F055F900F093F94FF43B
:101F90009635304600F062F9641CAC42F9D370BD4E
:101FA00030B587B014216846FEF739F91E48C16C78
:101FB00041F00401C164C16C01F004010591C16CE0
:101FC00041F00101C164C16C01F001010591C16CD6
:101FD00041F00201C164C06C012500F002000590CF
:101FE0004FF44870CDE9000500240394694602943B
:101FF0000E48FEF767FE280203940090CDE90154D5
:102000004FF0904469462046FEF75CFEFFF79EFFC6
:10201000A06940F48070A06104481830016841F460
:102020000871016007B030BD001002400004004894
:10203000203AD2B2034B02EB420203EB021200F051
:1020400019B80000E22C0008F0B50E46074600253E
:1020500040F23F1407E021463846FFF7E9FF103C05
:102060006D1CA4B2761C3278002A01D0142DF2D354
:10207000F0BD00002DE9F04791468A46002604464F
:1020800000F0D8F8DFF84080012700BF00F012F917
:102090005FF0000539F8160007FA05F108424046DE
:1020A00001D1408800E0008800F0D8F86D1C102DA8
:1020B000F0D3641CE4B25146204600F0BBF8761C15
:1020C000182EE3D3BDE8F0871000002010B5FFF70D
:1020D00067FF002000F066F8084CA080A088A0F5FB
:1020E0000241303906D000F072FA002000F05AF8B0
:1020F000A08010BD00F0E2F9F7E70000100000201A
:1021000010B519490A6819488368D21A642A2AD373
:10211000096881600179491C01711548FEF726F9AB
:10212000024614A1164800F0E7FB15490020FFF70E
:102130008BFF1448FEF71AF9024613A1104800F06D
:10214000DBFB0F493020FFF77FFF1248FEF70EF947
:10215000024611A10A4800F0CFFBBDE81040084933
:102160006020FFF771BF10BD240000200000002098
:10217000000052475052353A2530346400000000C8
:102180002C000020002090365052363A253034641E
:10219000000000000080F03E5233373A25303464AE
:1021A0000000000070B51D490A6842F400720A6020
:1021B0000A6842F480720A60184C103C226842F0AF
:1021C00020022260164A1060086840F02000086073
:1021D00000BF00BF00BF206840F0200020602068E2
:1021E00040F480702060FFF79BFE4FF09041886ABA
:1021F00040F48070886200BF00BF00BF0848001F25
:10220000006885B2886940F480708861FFF79EFE9F
:10221000206840F400702060284670BD2804004803
:102220001408004801B5BDF800000149488008BD08
:102230001000002010B50C460146202000F068F880
:102240002146BDE81040212000F062B801B5BDF87C
:1022500000000149088008BD10000020134A1168E1
:1022600041F400711160114910390B6843F4807317
:102270000B600B6843F020030B600D4B1860106877
:1022800040F02000106000BF00BF00BF086840F0B1
:1022900020000860086840F48070086000BF00BF3C
:1022A00000BF086840F400700860704728040048C8
:1022B000140800481449086840F400700860086871
:1022C00040F48070086010481038026842F0200224
:1022D00002600E4B22221A600A6842F020020A6055
:1022E00000BF00BF00BF016841F02001016001682C
:1022F00041F48071016000BF00BF00BF016841F47C
:10230000007101607047000028040048140800486C
:10231000184B10B51A6842F400721A601A6842F439
:1023200080721A60134A103A146844F02004146052
:10233000114C2060186840F02000186000BF00BFFA
:1023400000BF106840F020001060106840F48070FA
:1023500010602160186840F02000186000BF00BFC6
:1023600000BF106840F020001060106840F48070DA
:10237000106010BD280400481408004870B5124DC4
:10238000044601224FF6FF712846FEF784FD0F4EEA
:10239000012204213046FEF77EFD00220421304652
:1023A000FEF779FD210200222846FEF774FD012286
:1023B00004213046FEF76FFD3046BDE87040002234
:1023C0000421FEF768BD000000080048000C00482A
:1023D000F0B587B014216846FDF721FF2048C16C95
:1023E00041F00401C164C16C01F004010591C16CAC
:1023F00041F02001C164C16C01F020010591C16C64
:1024000041F00801C164C06C164E00F008004FF4A2
:102410007F440590012221463046FEF73CFD124FD5
:10242000012204213846FEF736FD0125CDE900459D
:1024300000240294694630460394FEF743FC0420CE
:102440000090CDE90154694638460394FEF73AFC02
:10245000002204213846FEF71EFD07B0F0BD000043
:102460000010024000080048000C004800EB81000A
:10247000006E00F0F84070478068C0F3C0007047FD
:102480008068C0F380007047042303EAD15310B57D
:1024900018444369C1F3045107248C40A3438A4084
:1024A0001343436110BD00EB8100016E21F0004138
:1024B000114301667047FEE7FEE7704730B5012122
:1024C0000020FFF725FF4FF47A70FDF73FFF002152
:1024D0000120FFF71DFF41F290711020FFF718FF58
:1024E0004FF41C516020FFF713FF01216120FFF71B
:1024F0000FFF02214620FFF70BFF48F210011320C7
:10250000FFF706FF48F2FE011220FFF701FF4FF42C
:10251000A0610220FFF7FCFE41F230010320FFF72B
:10252000F7FE40F2033421463020FFF7F1FE21464A
:102530003120FFF7EDFE21463220FFF7E9FEE51ED0
:1025400029463320FFF7E4FE03213420FFF7E0FEA5
:1025500021463520FFF7DCFE14213620FFF7D8FE98
:1025600021463720FFF7D4FE21463820FFF7D0FE62
:1025700021463920FFF7CCFE29463A20FFF7C8FE56
:1025800003213B20FFF7C4FE21463C20FFF7C0FE9D
:102590004FF4A0513D20FFF7BBFE4FF40071922095
:1025A000FFF7B6FE21469320FFF7B2FE40F60D017D
:1025B0009020FFF7ADFE41F218010320FFF7A8FEBF
:1025C000BDE8304040F273110720FFF7A1BE10B5FF
:1025D00043F20801E320FFF79BFE1221E720FFF7FB
:1025E00097FE41F23121EF20FFF792FE00210120FA
:1025F000FFF78EFE4FF4E0610220FFF789FE41F203
:1026000030010320FFF784FE00210420FFF780FE45
:1026100040F207210820FFF77BFE00210920FFF789
:1026200077FE00210A20FFF773FE00210C20FFF740
:102630006FFE00210D20FFF76BFE00210F20FFF73A
:1026400067FE00211020FFF763FE07211120FFF72E
:102650005FFE00211220FFF75BFE00211320FFF731
:1026600057FEC820FEF71CFB41F290611020FFF7D7
:102670004FFE40F227211120FFF74AFE3220FEF7DD
:102680000FFB1D211220FFF743FE3220FEF708FB4F
:102690004FF400611320FFF73BFE14212920FFF7C0
:1026A00037FE0B212B20FFF733FE3220FEF7F8FA1E
:1026B00000212020FFF72CFE00212120FFF728FE1B
:1026C00007213020FFF724FE40F207713120FFF789
:1026D0001FFE06213220FFF71BFE40F20471352059
:1026E000FFF716FE41F604713620FFF711FE0421B4
:1026F0003720FFF70DFE00213820FFF709FE40F2DA
:1027000006713920FFF704FE40F201713C20FFF70B
:10271000FFFD0F213D20FFF7FBFD00215020FFF7BB
:10272000F7FDEF215120FFF7F3FD00215220FFF7C5
:10273000EFFD40F23F115320FFF7EAFD4FF41C512B
:102740006020FFF7E5FD01216120FFF7E1FD002199
:102750006A20FFF7DDFD00218020FFF7D9FD002171
:102760008120FFF7D5FD00218220FFF7D1FD002158
:102770008320FFF7CDFD00218420FFF7C9FD002154
:102780008520FFF7C5FD10219020FFF7C1FD002136
:102790009220FFF7BDFD03219320FFF7B9FD4FF411
:1027A00088719520FFF7B4FD00219720FFF7B0FD59
:1027B00000219820FFF7ACFD41F218010320FFF73C
:1027C000A7FDBDE8104040F273110720FFF7A0BD40
:1027D0007047FEF76BBB000010B5A4B03821684607
:1027E000FDF71DFD14211FA8FDF719FD44210EA8BA
:1027F000FDF715FD4FF40070FEF7DCFB01200090A3
:102800000004019002200324CDE907041421CDE93E
:102810000A100C900D9009946846FEF79BFE08B1D3
:1028200072B6FEE70F20CDE91F0400242194229404
:1028300002211FA82394FEF767FD08B172B6FEE7D8
:102840000848CDE90E0440071D904FF440701E90DB
:102850000EA8FEF715FC002801D072B6FEE724B0E2
:1028600010BD0000018008000248016841F47001B9
:102870000160704788ED00E00148FFF78DB8000067
:10288000AC0100200148FFF787B80000F8010020E4
:102890000148FFF781B800004402002010B5806AAB
:1028A0000021A0F85E10A0F85610FFF77BF910BDCC
:1028B00001680A6822F490720A6001688A68094B0C
:1028C0001A408A60C16E012904D101680A6822F0A9
:1028D00010020A602021C0F888100021C16601673B
:1028E00070470000FEFFFFEF0148FFF75DB90000F1
:1028F00044000020FEE700000FB4084B10B504A907
:1029000002AA039800F02CF8044602A9002000F067
:10291000C8F9204610BC5DF814FB0000A32C000889
:102920000907090E002804DB00F1E02080F80014FC
:10293000704700F00F0000F1E02080F8141D704790
:1029400002E008C8121F08C1002AFAD17047704778
:10295000002001E001C1121F002AFBD170470000D6
:102960002DE9FF4F8BB088460546002606E0252856
:102970000BD0DDE90D1290476D1C761C28780028DD
:10298000F5D10FB03046BDE8F08F0024A146A24635
:102990000122AE4900E0044315F8013F203B02FA52
:1029A00003F00842F7D128782A2810D06FF02F02C0
:1029B0002878A0F13001092915D809EB890102EB2B
:1029C000410144F0020400EB01096D1CF0E758F8E6
:1029D000041B5FEA010903D544F40054C9F100095E
:1029E00044F002046D1C28782E2817D115F8010F29
:1029F00044F004042A280ED06FF02F022878A0F1AA
:102A0000300109290AD80AEB8A0102EB410100EBE7
:102A1000010A6D1CF2E758F804AB6D1C28786C288D
:102A20000FD006DC4C2817D068280DD06A2814D1A6
:102A300004E0742810D07A280FD10DE044F400147B
:102A40000AE044F4801401E044F4401469788142BF
:102A500002D104F580146D1C6D1C2878692865D09E
:102A600006DC00288DD0632827D0642806D15DE0DD
:102A70006E2808D073282AD0752877D0DDE90D128A
:102A80009047761CE0E0C4F30250022809D00328E6
:102A90000DD0D8F8001004280DD00E6008F10408FD
:102AA000D2E0D8F80010F217C1E90062F6E7D8F8D2
:102AB00000100E80F2E70E70F0E718F8041B8DF896
:102AC000001000208DF80100EB46012003E058F8CB
:102AD00004BB4FF0FF3061074FF0000701D40AE05C
:102AE0007F1C57450DDA8742FADB1BF807100029D7
:102AF000F6D106E07F1C8742FCDB1BF8071000299B
:102B0000F8D1DDE90D23A9EB07008146214600F04D
:102B1000B1F83044C61904E0DDE90D121BF8010BD1
:102B200090477F1EF8D22146484688E058F8040BAB
:102B3000C4F302514FF00A0B032900D100B204295B
:102B400000D140B2002802DA40422D2102E02105E6
:102B500005D52B218DF82410012104E006E0E107C2
:102B600010D02021F6E708AF089113E058F8040BC5
:102B7000C4F302514FF00A0B032900D180B204299B
:102B800000D1C0B20021EEE75946FDF753FB3031CA
:102B900007F8011D0028F7D1ADEB070000F1200B6D
:102BA000600702D524F4803401E04FF0010ADA45D1
:102BB00002DDAAEB0B0000E00020824600EB0B01D7
:102BC00008980144A9EB01000A90E00306D4DDE96E
:102BD0000D2321460A9800F04DF806444FF00009F5
:102BE00008E009A911F80900DDE90D12904709F183
:102BF0000109761C08998945F3DBE0030CD5DDE972
:102C00000D2321460A9800F035F8064404E0DDE97A
:102C10000D1230209047761CBAF10001AAF1010A8A
:102C2000F5DC05E0DDE90D1217F8010B9047761C85
:102C3000BBF10001ABF1010BF4DC0A982146DDE9A0
:102C40000D2300F005F806446D1C97E609280100E5
:102C50002DE9F041044600251E461746880404D499
:102C600005E039462020B0476D1C641EF9D5284682
:102C7000BDE8F0812DE9F041044600251E4690464E
:102C8000C80301D5302700E02027880404D505E0DB
:102C900041463846B0476D1C641EF9D52846BDE84C
:102CA000F0810A68531C0B6010707047FEF706F93C
:102CB000FFF792FDFFF78CFBFFF7BAF8FFF706FA74
:102CC000FDF7E0FA0020FFF759F90020FFF7AAFA14
:102CD0004FF6FF70FFF7BAFAFFF7DAF8FFF710FACE
:102CE000FAE7000000000000000000000000000003
:102CF00000000000000000000000000000000000D4
:102D000000000000000000000000000000000000C3
:102D100000000000800180018001800180018001AD
:102D2000800180018001800180018001800100001C
:102D30000000800180010000000000000000000091
:102D4000000000000000CC00CC00CC00CC00CC0087
:102D5000CC000000000000000000000000000000A7
:102D60000000000000000000000000000000000063
:102D70000000000000000000000000000000600CE7
:102D8000600C600C30063006FE1FFE1F3006380750
:102D90001803FE1FFE1F180318038C018C018C0101
:102DA000000000008000E003F80F9C0E8C1C8C18C3
:102DB0008C009800F801E007800E801C8C188C189D
:102DC0009C18B80CF00FE0038000800000000000A9
:102DD00000000000000000000E181B0C110C110672
:102DE0001106110311039B018E01C038C06C6044B1
:102DF0006044304430441844186C0C380000000023
:102E000000000000E001F003380718061806300340
:102E1000F001F000F8009C310E33061E061C061C63
:102E2000063FFC73F02100000000000000000000DD
:102E30000000000000000C000C000C000C000C0056
:102E40000C00000000000000000000000000000076
:102E50000000000000000000000000000000000072
:102E600000000000000200038001C000C0006000FC
:102E700060003000300030003000300030003000A2
:102E8000300060006000C000C0008001000300024C
:102E90000000000020006000C000800180010003ED
:102EA00000030006000600060006000600060006F5
:102EB00000060003000380018001C00060002000C4
:102EC0000000000000000000000000000000C00042
:102ED000C000D806F807E001300338070000000002
:102EE00000000000000000000000000000000000E2
:102EF0000000000000000000000000000000800151
:102F00008001800180018001FC3FFC3F8001800145
:102F1000800180018001000000000000000000002E
:102F200000000000000000000000000000000000A1
:102F30000000000000000000000000000000000091
:102F400000000000800180010001000180000000FD
:102F50000000000000000000000000000000000071
:102F600000000000000000000000E007E007000093
:102F70000000000000000000000000000000000051
:102F80000000000000000000000000000000000041
:102F90000000000000000000000000000000000031
:102FA00000000000C000C0000000000000000000A1
:102FB00000000000000C000C0006000600060003E4
:102FC000000300038003800180018001C000C00075
:102FD000C000600060000000000000000000000071
:102FE00000000000E003F007380E180C0C180C1855
:102FF0000C180C180C180C180C180C180C18180CB1
:10300000380EF007E00300000000000000000000A0
:103010000000000000018001C001F001980188015A
:103020008001800180018001800180018001800198
:10303000800180018001000000000000000000000D
:1030400000000000E003F80F180C0C180C18001812
:103050000018000C000600038001C0006000300072
:103060001800FC1FFC1F0000000000000000000012
:1030700000000000E001F807180E0C0C0C0C000C0E
:103080000006C003C007000C001800180C180C182C
:10309000180CF807E003000000000000000000002A
:1030A00000000000000C000E000F000F800DC00C8F
:1030B000600C600C300C180C0C0CFC3FFC3F000C3E
:1030C000000C000C000C00000000000000000000DC
:1030D00000000000F80FF80F180018000C00EC03B7
:1030E000FC071C0E001C0018001800180C181C0C03
:1030F000180EF807E00300000000000000000000C8
:1031000000000000C007F00F381C181818000C0051
:10311000CC03EC0F3C0E1C1C0C180C180C18181CC3
:10312000380EF007E003000000000000000000007F
:1031300000000000FC1FFC1F000C0006000600033E
:1031400080038001C001C000E000600060007000EA
:1031500030003000300000000000000000000000DF
:1031600000000000E003F007380E180C180C180CD3
:103170003806F007F007180C0C180C180C180C186F
:10318000380CF80FE0030000000000000000000011
:1031900000000000E003F007380E1C0C0C180C189F
:1031A0000C181C1C381EF81BE0190018000C000C31
:1031B0001C0EF807F00100000000000000000000F5
:1031C000000000000000000000000000000080017E
:1031D000800100000000000000000000000000006E
:1031E00000008001800100000000000000000000DD
:1031F000000000000000000000000000000080014E
:10320000800100000000000000000000000000003D
:10321000000080018001000100018000000000002A
:10322000000000000000000000000000000000009E
:1032300000000010001C800FE003F8001800F800E8
:10324000E003800F001C00100000000000000000E0
:10325000000000000000000000000000000000006E
:103260000000F81F000000000000F81F0000000030
:10327000000000000000000000000000000000004E
:10328000000000000000000000000000000000003E
:10329000000008003800F001C007001F0018001FE0
:1032A000C007F00138000800000000000000000026
:1032B00000000000E003F80F180C0C180C180018A0
:1032C000000C000600038001C000C000C000000028
:1032D0000000C000C000000000000000000000006E
:1032E000000000000000E00718180420C229224A4C
:1032F000114409440944094409221113E20C024013
:1033000004201818E0070000000000000000000082
:103310000000000080038003C006C006C006600CE9
:10332000600C301830183018F83FF83F1C700C60F3
:103330000C6006C006C00000000000000000000095
:1033400000000000FC03FC0F0C0C0C180C180C18EF
:103350000C0CFC07FC0F0C180C300C300C300C3033
:103360000C18FC1FFC07000000000000000000001B
:1033700000000000C007F01F38381C300C700660D9
:1033800006000600060006000600060006600C7037
:103390001C30F01FE00700000000000000000000EB
:1033A00000000000FE03FE0F060E06180618063089
:1033B000063006300630063006300630061806188D
:1033C000060EFE0FFE0300000000000000000000DB
:1033D00000000000FC3FFC3F0C000C000C000C0047
:1033E0000C00FC1FFC1F0C000C000C000C000C005F
:1033F0000C00FC3FFC3F000000000000000000004B
:1034000000000000F83FF83F1800180018001800EE
:103410001800F81FF81F18001800180018001800EE
:103420001800180018000000000000000000000054
:1034300000000000E00FF83F3C780E6006E007C097
:103440000300030003FE03FE03C007C006C00EC056
:103450003CF0F83FE00F000000000000000000001A
:10346000000000000C300C300C300C300C300C30F4
:103470000C30FC3FFC3F0C300C300C300C300C306E
:103480000C300C300C300000000000000000000088
:103490000000000080018001800180018001800126
:1034A0008001800180018001800180018001800114
:1034B0008001800180010000000000000000000089
:1034C00000000000000600060006000600060006D8
:1034D000000600060006000600060006180618068C
:1034E0003807F003E00100000000000000000000C9
:1034F0000000000006300618060C060606038601CA
:10350000C60066007600DE008E0106030606060C85
:1035100006180630066000000000000000000000F1
:10352000000000001800180018001800180018000B
:1035300018001800180018001800180018001800CB
:103540001800F81FF81F0000000000000000000035
:10355000000000000EE01EF01EF01EF036D836D837
:1035600036D836D866CC66CC66CCC6C6C6C6C6C605
:10357000C6C686C386C3000000000000000000002D
:10358000000000000C301C303C303C306C306C30A3
:10359000CC30CC308C310C330C330C360C360C3C2C
:1035A0000C3C0C380C300000000000000000000053
:1035B00000000000E007F81F1C380E70066003C012
:1035C00003C003C003C003C003C003C006600E7085
:1035D0001C38F81FE0070000000000000000000099
:1035E00000000000FC0FFC1F0C380C300C300C30BD
:1035F0000C300C18FC1FFC070C000C000C000C001D
:103600000C000C000C000000000000000000000096
:1036100000000000E007F81F1C380E70066003E091
:1036200003C003C003C003C003C007E006630E3F2E
:103630001C3CF83FE0F700C0000000000000000064
:1036400000000000FE0FFE1F063806300630063070
:103650000638FE1FFE0706030606060C06180618A7
:103660000630063006600000000000000000000088
:1036700000000000E003F80F1C0C0C180C180C00E4
:103680001C00F803E00F001E0038063006300E3034
:103690001C1CF80FE0070000000000000000000004
:1036A00000000000FE7FFE7F80018001800180011C
:1036B0008001800180018001800180018001800102
:1036C0008001800180010000000000000000000077
:1036D000000000000C300C300C300C300C300C3082
:1036E0000C300C300C300C300C300C300C300C30FA
:1036F0001818F81FE007000000000000000000009C
:103700000000000003600630063006300C180C186C
:103710000C18180C180C380E3006300670076003B1
:103720006003C001C00100000000000000000000B4
:10373000000000000360C361C361C3616633663388
:1037400066336633663366336C1B6C1B6C1B2C1A3A
:103750003C1E380E380E0000000000000000000083
:10376000000000000FE00C7018303018700C600E74
:10377000C00780038003C003E006700C301C1818DB
:103780000C300E6007E000000000000000000000A8
:103790000000000003C006600C301C383818300CE4
:1037A0006006E007C0038001800180018001800184
:1037B0008001800180010000000000000000000086
:1037C00000000000FC7FFC7F006000300018000C4F
:1037D000000600038001C0006000300018000C00EB
:1037E0000600FE7FFE7F00000000000000000000D9
:1037F00000000000E003E003600060006000600083
:1038000060006000600060006000600060006000B8
:10381000600060006000600060006000E003E003A2
:103820000000000030003000600060006000C00058
:10383000C000C000C00180018001800100030003BE
:103840000003000600060000000000000000000069
:1038500000000000E003E003000300030003000396
:103860000003000300030003000300030003000340
:10387000000300030003000300030003E003E00370
:10388000000000000000C001C0016003600360038D
:1038900030063006180C180C000000000000000074
:1038A0000000000000000000000000000000000018
:1038B0000000000000000000000000000000000008
:1038C00000000000000000000000000000000000F8
:1038D00000000000FFFFFFFF0000000000000000EC
:1038E000000000000C000C000C000C000C000C0090
:1038F00000000000000000000000000000000000C8
:1039000000000000000000000000000000000000B7
:103910000000000000000000000000000000F003B4
:10392000F8071C0C0C0C000FF00FF80C0C0C0C0C16
:103930001C0FF80FF018000000000000000000004D
:103940000000000018001800180018001800D80324
:10395000F80F380C181818181818181818181818FC
:10396000380CF80FD8030000000000000000000031
:103970000000000000000000000000000000C00384
:10398000F007300E180C1800180018001800180C5A
:10399000300EF007C003000000000000000000002F
:1039A0000000000000180018001800180018C01BC4
:1039B000F01F301C1818181818181818181818188C
:1039C000301CF01FC01B00000000000000000000C1
:1039D0000000000000000000000000000000C00324
:1039E000F00F300C1818F81FF81F180018003818BE
:1039F000301CF00FC00700000000000000000000B5
:103A000000000000800FC00FC000C000C000F00721
:103A1000F007C000C000C000C000C000C000C0006F
:103A2000C000C000C0000000000000000000000056
:103A30000000000000000000000000000000E00D99
:103A4000F80F180E0C0C0C0C0C0C0C0C0C0C0C0CB9
:103A5000180EF80FE00D000C0C0C1C06F807F00116
:103A60000000000018001800180018001800D807FF
:103A7000F80F381C181818181818181818181818CB
:103A800018181818181800000000000000000000A6
:103A900000000000C000C000000000000000C000E6
:103AA000C000C000C000C000C000C000C000C00016
:103AB000C000C000C00000000000000000000000C6
:103AC00000000000C000C000000000000000C000B6
:103AD000C000C000C000C000C000C000C000C000E6
:103AE000C000C000C000C000C000C000F8007800E6
:103AF000000000000C000C000C000C000C000C0C72
:103B00000C060C038C01CC006C00FC009C018C03A7
:103B10000C030C060C0C000000000000000000006C
:103B200000000000C000C000C000C000C000C00015
:103B3000C000C000C000C000C000C000C000C00085
:103B4000C000C000C0000000000000000000000035
:103B500000000000000000000000000000007C3CAD
:103B6000FF7EC7E383C183C183C183C183C183C196
:103B700083C183C183C10000000000000000000079
:103B80000000000000000000000000000000980796
:103B9000F80F381C181818181818181818181818AA
:103BA0001818181818180000000000000000000085
:103BB0000000000000000000000000000000C00342
:103BC000F00F300C1818181818181818181818189A
:103BD000300CF00FC00300000000000000000000E7
:103BE0000000000000000000000000000000D803FA
:103BF000F80F380C1818181818181818181818185A
:103C0000380CF80FD8031800180018001800180016
:103C10000000000000000000000000000000C01BC9
:103C2000F01F301C18181818181818181818181819
:103C3000301CF01FC01B00180018001800180018D6
:103C40000000000000000000000000000000B007BD
:103C5000F0037000300030003000300030003000E1
:103C600030003000300000000000000000000000C4
:103C70000000000000000000000000000000E00361
:103C8000F003380E180C3800F003C007000C180CB5
:103C9000380EF007E0030000000000000000000004
:103CA0000000000000008000C000C000C000F0075D
:103CB000F007C000C000C000C000C000C000C000CD
:103CC000C000C007800700000000000000000000E6
:103CD00000000000000000000000000000001818B4
:103CE0001818181818181818181818181818181854
:103CF000381CF01FE0190000000000000000000068
:103D000000000000000000000000000000000C188F
:103D1000180C180C180C30063006300660036003CF
:103D20006003C001C00100000000000000000000AE
:103D30000000000000000000000000000000C14181
:103D4000C141C361636363636363363636363636B7
:103D50001C1C1C1C1C1C00000000000000000000BB
:103D600000000000000000000000000000001C38FF
:103D7000381C300C6006600360036003600360065B
:103D8000300C381C1C38000000000000000000004F
:103D900000000000000000000000000000001830DB
:103DA000301830187018600C600CE00CC006C006AB
:103DB00080038003800380018001C001F000700057
:103DC0000000000000000000000000000000FC1FD8
:103DD000FC1F000C000600038001C00060003000E2
:103DE0001800FC1FFC1F0000000000000000000085
:103DF0000000000000038001C000C000C000C0003F
:103E0000C000C00060006000300060004000C000E2
:103E1000C000C000C000C000C0008001000300005E
:103E2000000000008001800180018001800180018C
:103E3000800180018001800180018001800180017A
:103E4000800180018001800180018001800180016A
:103E5000000000006000C000C001800180018001FE
:103E600080018001000300030006000300018001BF
:103E700080018001800180018001C000600000009D
:103E80000000000000000000000000000000000032
:103E90000000F010F81F080F0000000000000000F4
:103EA0000000000000000000000000000000000012
:103EB00000000000000000000000010203040607EB
:103EC00008090000E43E0008000000202C0000006B
:103ED00040290008103F00082C000020B406000014
:103EE0005029000800000000000000000000000051
:103EF000000000000000FFFF0000000000000000C4
:103F00001000000001000000000000000024F40088
:04000005080001D915
:00000001FF
