:020000040800F2
:1000000000050020ED010008DB2100082316000890
:10001000D921000885020008872B00080000000095
:10002000000000000000000000000000952500080E
:100030008702000800000000DD2100089725000865
:10004000070200080702000807020008070200086C
:10005000070200080702000807020008070200085C
:10006000070200080702000807020008070200084C
:10007000070200080702000807020008070200083C
:10008000070200080000000007020008070200083D
:10009000070200080702000807020008070200081C
:1000A000070200080702000807020008070200080C
:1000B00007020008070200080702000807020008FC
:1000C00007020008070200080702000807020008EC
:1000D00007020008070200080702000807020008DC
:1000E00007020008070200080702000807020008CC
:1000F00007020008070200080702000800000000CD
:1001000000000000070200080000000007020008CD
:100110000702000800000000C926000807020008C6
:10012000070200080702000807020008070200088B
:10013000070200080000000000000000070200089D
:10014000070200080702000800000000000000008D
:10015000000000000000000000000000000000009F
:10016000000000000000000000000000070200087E
:10017000070200080000000000000000000000006E
:10018000000000000702000800000000000000005E
:10019000000000000000000000000000000000005F
:1001A000000000000000000007020008070200082D
:1001B000070200080702000807020008000000000C
:1001C000000000000702000800000000000000001E
:1001D0000702000807020008DFF80CD000F040F822
:1001E00000480047492F00080005002006488047C6
:1001F00006480047FEE7FEE7FEE7FEE7FEE7FEE70C
:10020000FEE7FEE7FEE7FEE719260008D901000831
:10021000D2B201E000F8012B491EFBD27047002248
:10022000F6E710B513460A4604461946FFF7F0FFF5
:10023000204610BD30B50B46014600202022012487
:1002400009E021FA02F59D4205D303FA02F5491BA4
:1002500004FA02F52844151EA2F10102F1DC30BDBA
:10026000064C074D06E0E06840F0010394E8070003
:1002700098471034AC42F6D3FFF7B2FFB8410008FC
:10028000D8410008FEE77047002240F6B83306E088
:100290000021491C89B29942FBD3521C92B282427E
:1002A000F6D3704772B6FEE770B5044600F0FCF86E
:1002B0000546601C02D004484068044400F0F4F88D
:1002C000401BA042FAD370BD400000202DE9FC4F36
:1002D000DFF8A0A1002301250AF1040B03244FF04D
:1002E0000F0C0BF1040EBDE005FA03F632406FD09F
:1002F0004F68012F05D0022F03D0112F01D0122FEC
:1003000017D1D0F808905F0004FA07F829EA080925
:100310000097D1F80C8008FA07F848EA0908C0F8F5
:1003200008804768B7430E79C6F300169E403E43E7
:100330004660C6684FEA430804FA08F7BE430197CF
:100340008F6807FA08F73743C7604E68022E01D05E
:10035000122E13D1DE0800EB86060096366A5F0780
:10036000FF0E0CFA07F926EA0906D1F8109009FAEF
:1003700007F949EA0609009EC6F820900668019F21
:10038000BE430F7907F0030707FA08F73743076002
:100390004E68F60065D5384E376E47F00107376670
:1003A000366E23F0030706F001060096334E3E44F6
:1003B000B146B6689F074FEA17780CFA08F7BE43B4
:1003C000B0F1904F05D02E4FB84204D1012717E06D
:1003D00047E0002714E02B4FB84201D102270FE07D
:1003E000294FB84201D103270AE0284FB84201D172
:1003F000042705E0264FB84201D1052700E0062773
:1004000007FA08F73743C9F80870DAF8006057466A
:10041000D1F8048096435FEAC83800D516433E60A1
:10042000DBF800605F46D1F8048096435FEA8838C5
:1004300000D516433E60DEF800607746D1F80480B0
:1004400096435FEAC82800D516433E60094F0C3733
:100450003E68D1F8048096435FEA882800D51643A9
:100460003E605B1C0A6832FA03F67FF43DAFBDE8DC
:10047000FC8F000000040140001002400000014019
:100480000004004800080048000C00480010004824
:10049000001400480069084000D0012070470AB1EC
:1004A0008161704781627047014880687047000031
:1004B0004000002002488168426811448160704712
:1004C0004000002010B50024032000F073F8002045
:1004D00000F008F808B1012401E000F025F82046FA
:1004E00010BD000070B50E4E05460024706898B12E
:1004F0004FF47A71B1FBF0F00A490968B1FBF0F0F2
:1005000000F0FCFB40B9102D06D200222946501EF7
:1005100000F030F8356000E00124204670BD000096
:10052000400000204C0000200A4882B0016E41F0DB
:1005300001010166016E01F001010091816D41F040
:1005400080518165806D00F08050009002B000F015
:10055000A1B8000000100240002809DB00F01F02D3
:10056000012191404009800000F1E020C0F8001115
:1005700070470000F0B40E4B1B680C46C3F3022317
:10058000C3F10705042D00D90425191D072901D23F
:10059000002300E0DB1E012606FA05F1491E21407A
:1005A00099409E40761E16403143F0BC02F000BBDD
:1005B0000CED00E0064900F0070208684FF6FF0363
:1005C000184040EA0220034A1043086070470000C8
:1005D0000CED00E00000FA052B492C4B0A68322193
:1005E0004A432B4940B1B0F5007F086829D020F478
:1005F000C06040F480602CE00868C0F3412002280D
:1006000004D051F8800F20F4807022E0D1F88000EF
:1006100020F48070C1F88000086820F4C06040F4C5
:1006200000700860B2FBF3F0401C00E0401E4A6915
:10063000520501D50028F9D1486940050AD50320A3
:100640007047C0F34120022806D051F8800F40F4D3
:100650008070086000207047D1F8800040F48070FE
:10066000C1F88000086820F4C06040F400700860A1
:10067000B2FBF3F0401C00E0401E4A695205DBD596
:100680000028F9D1D8E700004C00002040420F00BC
:10069000007000400248816841F4804181607047E9
:1006A000007000402DE9F0470E4605004FF00007AE
:1006B00025D0DFF8AC81D8F8000000F00F00B04280
:1006C0000CD2D8F8001021F00F013143C8F8001007
:1006D000D8F8000000F00F00B04210D12968614C3A
:1006E000C80741F2883A5AD06868DFF87C9103283D
:1006F00008D0022820682DD0400500282CDB0120DE
:10070000BDE8F08720688001F9D5E06800F00302B9
:10071000E068C0F30310401C032A19D0534A00BFFD
:10072000B2FBF0F0E268C2F306225043E268C2F383
:100730004162521C5200B0FBF2F0484517D9A06844
:1007400010F0F00F0CD0880711D5A86840B10EE06A
:10075000474AE5E78003D0E700F092F8484506D91C
:10076000A06820F0F00040F08000A0608027A06822
:10077000696820F003000843A060FFF795FE8146FA
:1007800006E000BFFFF790FEA0EB090151453AD803
:10079000A068696800F00C00B0EB810FF2D1286806
:1007A000810714D5400703D5A06840F4E060A0603D
:1007B0002878000705D5A06820F4605040F4E06078
:1007C000A060A068A96820F0F000084304E0802F32
:1007D00003D1A06820F0F000A060D8F800104046D7
:1007E00001F00F01B14216D9016821F00F01314328
:1007F0000160FFF759FE074607E000BFFFF754FE10
:10080000C11B514501D903207AE7D8F8000000F058
:100810000F00B042F2D12878400705D5A068E968FA
:1008200020F4E0600843A0602878000706D5A0689F
:10083000296920F4605040EAC100A06000F020F86F
:10084000A1680C4AC1F30311515C01F01F01C840BB
:100850000949086009480068BDE8F047FFF742BE53
:10086000002002400010024000B4C4040024F40040
:1008700000366E01A84100084C0000204000002016
:10088000184910B58868C0F381021748012A0BD0B7
:100890008A68164BC2F38102022A06D08A68C2F324
:1008A0008102032A03D0002010BD184610BDCA687B
:1008B00002F00304CA68C2F30312521C032C02D0D4
:1008C000B0FBF2F001E0B3FBF2F0CA68C968C2F312
:1008D00006225043C1F34161491C4900B0FBF1F0CD
:1008E00010BD0000001002400024F40000366E012C
:1008F0002DE9F84304007AD02078FA4DC00747D09C
:10090000A868E96800F00C0001F003010C2802D08F
:10091000082817D001E0032914D06068B0F5803FA3
:1009200017D0B0F5A02F286817D020F480302860A9
:10093000286820F4802028606068E0B1FFF7B4FDEB
:10094000064614E02868800322D560680028D2D0CB
:100950001EE0286840F48030EDE740F480202860F5
:10096000F7E700BFFFF7A0FD801B642870D8286858
:100970008003F7D50CE0FFF797FD064605E000BFC2
:10098000FFF792FD801B6428F0D828688003F7D415
:10099000207880074CD5A868E96800F00C0001F0C9
:1009A00003010C2802D004280DD001E002290AD04E
:1009B000E068002828682BD040F480702860FFF79A
:1009C00073FD064619E02868400502D5E068002856
:1009D00091D06868217C20F0FE4040EA01606860A8
:1009E000C1480068FFF77EFD002800D120E076E1D5
:1009F000FFF75AFD801B0228B8D828684005F7D5B4
:100A00006868217C20F0FE4040EA016068600FE0E9
:100A100020F480702860FFF747FD064605E000BF20
:100A2000FFF742FD801B0228A0D828684005F7D4B4
:100A30002078000729D560690028D5F8940013D0E4
:100A400040F00100C5F89400FFF72EFD064606E0D1
:100A500090E000BFFFF728FD801B022886D8D5F85C
:100A600094008007F6D510E020F00100C5F894004E
:100A7000FFF71AFD064604E0FFF716FD801B02286B
:100A800078D8D5F894008007F6D42078400761D54F
:100A9000A86D0026C00008D4A86D40F08050A8655D
:100AA000A86D012600F08050009090480168C905AB
:100AB00011D40168804641F480710160FFF7F4FCB5
:100AC000074604E0FFF7F0FCC01B022852D8D8F814
:100AD0000000C005F6D5A068012815D00528D5F876
:100AE000900016D020F00100C5F89000D5F89000D5
:100AF00020F00400C5F89000A06841F28838B8B131
:100B0000FFF7D2FC07460EE0D5F8900040F0010058
:100B1000F0E740F00400C5F89000F5E7FFF7C4FCEB
:100B2000C11B414526D8D5F890008007F6D50CE0CA
:100B3000FFF7BAFC074604E0FFF7B6FCC11B4145CE
:100B400018D8D5F890008007F6D41EB1A86D20F013
:100B50008050A8652078800629D5A0690028D5F89E
:100B6000980013D040F00100C5F89800FFF79CFCF6
:100B7000064606E077E000BFFFF796FC801B0228E0
:100B800077D8D5F898008007F6D510E020F001005E
:100B9000C5F89800FFF788FC064604E0FFF784FCE0
:100BA000801B022865D8D5F898008007F6D4E06944
:100BB000F0B3A968C1F38101032961D00228286834
:100BC00020F0807028600BD0E86820F00300E86017
:100BD000E86847490840E860FFF766FC04464BE0D8
:100BE000FFF762FC064604E0FFF75EFC801B02286C
:100BF0003FD828688001F7D4F4E908016FF00F02AC
:100C000002EB01110843218A5204490802EB4151C9
:100C1000A26841EA02210843217D4FF07E42490843
:100C200002EB41610843217B40EAC160E96800E0D2
:100C300062E0304A11400843E860286840F0807064
:100C40002860E86840F08070E860FFF72DFC0446FB
:100C500005E000BFFFF728FC001B022809D8286820
:100C60008001F7D548E004E0FFF71EFC001B0228D6
:100C700002D90320BDE8F88328688001F4D43BE062
:100C80000128F7D0E868226A00F00301914226D1DA
:100C9000616A00F0F0020901103991421FD1A26A85
:100CA00000F4FE41B1EB022F19D194F82C2000F092
:100CB0007841B1EBC26F12D1218E00F4C002490815
:100CC0004905A1F50011914209D194F8341000F0C2
:100CD000C06049084906A1F1007181420CD0012091
:100CE000C8E70000001002404000002000700040F3
:100CF000FFFFEEFE0C809F010020BBE710B5401EF9
:100D0000B0F1807F01D3012010BD4FF0E02460617D
:100D10000F21601701F04CFF0020A0610720206127
:100D2000002010BD7047704770477047704770478C
:100D3000F0B590F83C20012A3AD0012580F83C50CB
:100D4000022280F83D2003685A689C68194E1A4FA9
:100D5000B34201D0BB4204D122F4700C4A6842EA8B
:100D60000C02DFF858C002EA0C02D1F800C04CEACD
:100D7000020CC3F804C00268B2420DD0B2F1804F39
:100D80000AD00F4B9A4207D00E4B9A4204D0BA4277
:100D900002D00D4B9A4204D1896824F08003194394
:100DA000916080F83D50002180F83C100846F0BD6D
:100DB0000220F0BD002C0140003401408FFFFFFDF8
:100DC000000400400008004000400140704710B59A
:100DD000040003D094F83D0010B107E0012010BDDD
:100DE000002084F83C00204600F022F8022084F81D
:100DF0003D00211D206801F093FC012084F848008B
:100E000084F83E0084F83F0084F8400084F84100F4
:100E100084F8420084F8430084F8440084F84500D4
:100E200084F8460084F8470084F83D00002010BD97
:100E300008B5114A01681148914208D1816D41F00D
:100E400002018165806D00F00200009008BD0C4A2F
:100E50009142FBD1816D41F010018165806D0022CE
:100E600000F01000009011463620FFF783FBBDE82C
:100E700008403620FFF770BB00040040001002401D
:100E80000010004090F83D10012901D0012070476A
:100E9000022180F83D1000680F4988420ED0B0F161
:100EA000804F0BD00D49884208D00D49884205D0AB
:100EB0000C49884202D00C49884207D181680B4A0C
:100EC0001140062906D0B1F5803F03D0016841F0FA
:100ED0000101016000207047002C01400004004027
:100EE00000080040003401400040014007000100BC
:100EF00090F83D10012901D001207047022180F8AF
:100F00003D100168CA6842F00102CA6000681049D9
:100F100088420ED0B0F1804F0BD00E49884208D0E5
:100F20000D49884205D00D49884202D00C498842BB
:100F300007D181680B4A1140062906D0B1F5803FE0
:100F400003D0016841F001010160002070470000FA
:100F5000002C014000040040000800400034014023
:100F600000400140070001000168CA6822F0010248
:100F7000CA6001680A6A41F211131A4207D10A6A6B
:100F80009B001A4203D10A6822F001020A60012183
:100F900080F83D100020704770B5044690F83C0082
:100FA000012814D0012584F83C50022084F83D002B
:100FB00022689068344B184020F47F4090600868A5
:100FC000702827D010DC10F00F0F03D04AE04FF04C
:100FD000020070BD4FEA2012072A43D2DFE802F078
:100FE0005050505048313900284BC21A984247D0CF
:100FF00009DCB0F5805F35D0B0F5005F15D0B0F1F9
:10100000101F2FD13CE0102A3AD0202A38D0502A85
:1010100028D135E0CB68D1E90121206801F0E5FB5A
:101020002068816841F0770109E0CB68D1E90121AE
:10103000206801F0DAFB2068816841F4804181601A
:1010400010E0CA684968206801F07AFD50212068E4
:1010500006E0CA684968206801F083FD60212068C5
:1010600001F0CEFB84F83D50002084F83C0070BDB8
:10107000CA684968206801F063FD40212068EFE7F5
:10108000226801461046EBE788FFCEFF20001000E3
:10109000704770B50446006801694FF00005C94308
:1010A000890715D4C168C943890711D4E91E0161B4
:1010B00001202077206880698007204602D0FFF752
:1010C000E7FF04E000F00CF9204600F0CBF92577AB
:1010D00020680169C943490717D4C168C943490752
:1010E00013D46FF004010161022020772068806929
:1010F00010F4407F204602D0FFF7CAFF04E000F062
:10110000EFF8204600F0AEF9257720680169C94361
:10111000090716D4C168C943090712D46FF0080142
:101120000161042020772068C0698007204602D032
:10113000FFF7AEFF04E000F0D3F8204600F092F98C
:10114000257720680169C943C90617D4C168C94316
:10115000C90613D46FF010010161082020772068C0
:10116000C06910F4407F204602D0FFF791FF04E0F1
:1011700000F0B6F8204600F075F92577206801697F
:10118000C943C90708D1C168C943C90704D1891E29
:101190000161204600F03CFA20680169C943090654
:1011A00009D4C168C943090605D46FF08001016103
:1011B0002046FFF7B8FD20680169C943C90509D475
:1011C000C168C943090605D46FF4807101612046E6
:1011D000FFF7A8FD20680169C943490609D4C16821
:1011E000C943490605D46FF040010161204600F073
:1011F00017FA20680169C943890609D4C168C9433F
:10120000890605D46FF0200101612046FFF78CFDAF
:1012100020680169C943C90209D4C168C943C90228
:1012200005D46FF4801101612046FFF77FFD20682F
:101230000169C943890209D4C168C943890205D437
:101240006FF4001101612046FFF76FFD206801690E
:10125000C943490209D4C168C943490205D46FF49E
:10126000800101612046FFF762FD20680169C943E2
:1012700009020BD4C168C943090207D46FF4000105
:1012800001612046BDE87040FFF7A0BD70BD0000C1
:1012900010B586B0044614216846FEF7C0FF0E491B
:1012A0002068884215D10D48C16C41F00101C1642C
:1012B000C06C002100F00100059040200090022049
:1012C000CDE901010390049069464FF09040FEF78C
:1012D000FDFF06B010BD00000004004000100240F9
:1012E000704770B5044690F83C000D4601280BD0BD
:1012F000012084F83C000C2A45D007DC5AB1042AAE
:101300001BD0082A78D12CE0022070BD102A4ED0C4
:10131000142A71D15DE0206801F07CFA20688169AF
:1013200041F0080181612068816921F00401816137
:10133000206881692A69114311E0206801F0B8FA38
:101340002068816941F4006181612068816921F42C
:1013500080618161206881692A6941EA0221816195
:101360004AE0206801F0ECFA2068C16941F0080108
:10137000C1612068C16921F00401C1612068C169AF
:101380002A69114311E0206801F022FB2068C1693D
:1013900041F40061C1612068C16921F48061C161CB
:1013A0002068C1692A6941EA0221C16124E02068FC
:1013B00001F056FB2068016D41F0080101652068CD
:1013C000016D21F0040101652068016D2A69114356
:1013D00011E0206801F07CFB2068016D41F40061A0
:1013E00001652068016D21F4806101652068016D4F
:1013F0002A6941EA02210165002084F83C0070BDA1
:1014000010B5040003D094F83D0010B107E00120AE
:1014100010BD002084F83C00204600F022F8022095
:1014200084F83D00211D206801F07AF9012084F83C
:10143000480084F83E0084F83F0084F8400084F8B7
:10144000410084F8420084F8430084F8440084F8A2
:10145000450084F8460084F8470084F83D000020E9
:1014600010BD70477047000030B50446022269B1D4
:10147000042912D0082917D00C291CD0102921D0FA
:1014800094F84300012824D0012030BD94F83E0098
:101490000128F9D184F83E201DE094F83F0001288E
:1014A000F2D184F83F2016E094F840000128EBD1F7
:1014B00084F840200FE094F841000128E4D184F83A
:1014C000412008E094F842000128DDD184F8422050
:1014D00001E084F843200122206801F079F9194BDA
:1014E00020681949194A984209D0884207D0904289
:1014F00005D0174DA84202D0164DA84203D1456C25
:1015000045F400454564206898420CD0B0F1804F06
:1015100009D0114B984206D0104B984203D0884214
:1015200001D0904207D181680D4A1140062906D0AA
:10153000B1F5803F03D0016841F001010160002056
:1015400030BD0000002C014000340140004001404B
:1015500000440140004801400004004000080040F1
:101560000700010030B504460D460068002201F076
:101570002FF9224B41F2111120688A0098420BD0BA
:101580001F4B984208D01F4B984205D01E4B9842E3
:1015900002D01E4B984209D1036A0B4206D1036A5E
:1015A000134203D1436C23F4004343642068036A6D
:1015B0000B4206D1016A114203D1016821F00101F9
:1015C000016001205DB1042D0CD0082D0DD00C2D33
:1015D0000ED0102D0FD084F84300002030BD84F8C9
:1015E0003E00FAE784F83F00F7E784F84000F4E7AC
:1015F00084F84100F1E784F84200EEE7002C014056
:1016000000340140004001400044014000480140D6
:1016100002488178491E817070470000090000204F
:101620007047FEE700B585B014216846FEF7F7FD68
:10163000C020009001200190029002200390694692
:101640000248FEF743FE05B000BD0000000400485C
:1016500070B50824002500F065FF13E06806050E4C
:10166000002000F047FF142001F068FC142001F076
:1016700065FC012000F03EFF142001F05FFC00F04B
:1016800045FF0543641EE4B2E8D2002000F032FFBB
:10169000142001F053FC00F067FF284670BD10B520
:1016A000002000F055FF142001F048FC142001F048
:1016B00045FC012000F01EFF142001F03FFC00203B
:1016C00000F018FFBDE81040142001F037BC70B5E1
:1016D0000446082516E000F00DFF142001F02EFC52
:1016E00004F0800000F034FF142001F027FC6006B5
:1016F000040E142001F022FC012000F0FBFE142057
:1017000001F01CFC6D1EEDB24FF00000E3D200F0C2
:10171000F1FEBDE87040142001F010BC10B50120AE
:1017200000F016FF142001F009FC142001F006FC63
:10173000012000F0DFFE142001F000FC002000F08A
:10174000D9FEBDE81040142001F0F8BB10B501200F
:1017500000F0FEFE142001F0F1FB012000F0CAFEB3
:10176000142001F0EBFB002000F0F2FE142001F049
:10177000E5FB002000F0BEFEBDE81040142001F0A3
:10178000DDBB10B5002000F0B5FE142001F0D6FB43
:10179000002000F0DDFE142001F0D0FB012000F05D
:1017A000A9FE142001F0CAFB012000F0D1FEBDE823
:1017B0001040142001F0C2BB10B5052400F0B2FEA9
:1017C000142001F0BBFB012000F094FE142001F076
:1017D000B5FB05E0641EA4B2142001F0AFFB6CB1B0
:1017E00000F094FE0028F5D100F0BEFE002000F0CD
:1017F00081FE142001F0A2FB002010BD00F0B4FE19
:10180000FFF7BFFF012010BD70B515460E46044618
:10181000FFF79CFFA020FFF75AFFFFF7CDFF3046F0
:10182000FFF755FFFFF7C8FFFFF790FFA120FFF775
:101830004EFFFFF7C1FF09E0FFF70AFF207015B167
:10184000FFF72DFF01E0FFF769FF641C6D1EEDB28D
:10185000F2D2BDE87040FFF794BF70B515460E4652
:101860000446FFF773FFA020FFF731FFFFF7A4FF47
:101870003046FFF72CFFFFF79FFF05E02078FFF7CA
:1018800026FFFFF799FF641C6D1EEDB2F6D2FFF73D
:1018900078FFBDE870400220FEF706BDF0B587B0C6
:1018A00014216846FEF7BBFC3048C16C41F00401CE
:1018B000C164C16C01F004010591C16C41F02001CB
:1018C000C164C16C01F020010591C16C41F00101BE
:1018D000C164C16C01F001010591C16C41F00201CC
:1018E000C164C16C01F002010591C16C41F00801B5
:1018F000C164C06C1E4E00F008004FF47F44059098
:10190000012221463046FEF7CAFD1A4F012204216A
:101910003846FEF7C4FD0125CDE9004500240294B8
:10192000694630460394FEF7D1FCCDE90054694680
:101930004FF090400294FEF7C9FC0720CDE9000467
:1019400069460D480294FEF7C1FC04200090CDE9E1
:101950000154694638460394FEF7B8FC002204217E
:101960003846FEF79CFD07B0F0BD000000100240B5
:1019700000080048000C0048000400482DE9F0472A
:10198000684D2868684C2169401A642870D328681B
:10199000206100F0CBF8A070617920EA010241409B
:1019A0008143E27021716071012A02D0022A0AD0BB
:1019B0000BE0A079401CC0B20522B0FBF2F302FBA1
:1019C0001300A07101E028686061DFF85C91A04617
:1019D00009F1280900264FF0030AA9F11C044FF46D
:1019E000487702292FD12A68D8F814104046521A95
:1019F000BA420ED20178022907D14178491CC9B2F6
:101A0000B1FBFAF30AFB13114170022188F80010B0
:101A100019E02A68511AB94215D30178022912D166
:101A200098F80600227800EB400101EB090009F864
:101A3000012062784270A2788270C9B20322FFF757
:101A40000CFF88F8006098F803C04046BCF1030F13
:101A50000AD14178625C521CD2B262542B68836115
:101A600039B13B2A00D966548178032906D014E0A5
:101A700039E021781729F7D92670F5E729688269B6
:101A8000891AB94203D94178625C521C6254417888
:101A900039B1625C3C2A00D96654BCF1040F05D010
:101AA00006E021781729F8D92670F6E72968C16180
:101AB0000179042917D12A68C169521ABA4229D278
:101AC0000278012A11D00123032A11D016490931C5
:101AD0008AB1022A07D188F800302078087060782F
:101AE0004870A0788870BDE8F08788F800A0FAE711
:101AF00088F80030F7E7037098F8060000EB400222
:101B000002EB09035C784C709B788B7019F802002B
:101B10000870E8E72A68511AB942E4D388F80060EF
:101B2000E1E70000480000200000002070B50E4DE5
:101B3000002401212846FEF7ADFC00B90124022152
:101B40002846FEF7A7FC00B9022404212846FEF728
:101B5000A1FC00B9032401214FF09040FEF79AFC4C
:101B600000B90424204670BD0004004800B585B0CB
:101B700014216846FEF753FB4FF6FF7000900020DB
:101B80000321CDE90201019069460248FEF79EFB60
:101B900005B000BD0008004800B585B014216846B6
:101BA000FEF73DFB4FF6FF700090012001900320EF
:101BB00003900020029069460248FEF787FB05B0BB
:101BC00000BD00000008004870B50024064621460C
:101BD000204600F003F900F041F94FF49635304605
:101BE00000F010F9641CAC42F9D370BD30B587B079
:101BF00014216846FEF713FB1E48C16C41F0040136
:101C0000C164C16C01F004010591C16C41F0010196
:101C1000C164C16C01F001010591C16C41F0020188
:101C2000C164C06C012500F0020005904FF44870BB
:101C3000CDE9000500240394694602940E48FEF79E
:101C400045FB280203940090CDE901544FF09044E5
:101C500069462046FEF73AFBFFF79EFFA06940F475
:101C60008070A06104481830016841F40871016077
:101C700007B030BD0010024000040048203AD2B244
:101C8000034B02EB420203EB021200F019B8000012
:101C9000D82F0008F0B50E460746002540F23F1445
:101CA00007E021463846FFF7E9FF103C6D1CA4B25F
:101CB000761C3278002A01D0142DF2D3F0BD00003A
:101CC0002DE9F04791468A460026044600F086F842
:101CD000DFF84080012700BF00F0C0F85FF000058A
:101CE00039F8160007FA05F10842404601D140884C
:101CF00000E0008800F086F86D1C102DF0D3641C05
:101D0000E4B25146204600F069F8761C182EE3D361
:101D1000BDE8F0873800002010B5FFF767FF00200E
:101D200000F014F8084CA080A088A0F502413039DA
:101D300006D000F0DDFA002000F008F8A08010BD09
:101D400000F04DFAF7E700003800002070B51D499B
:101D50000A6842F400720A600A6842F480720A60FB
:101D6000184C103C226842F020022260164A106093
:101D7000086840F02000086000BF00BF00BF206876
:101D800040F020002060206840F480702060FFF761
:101D9000EDFE4FF09041886A40F48070886200BF89
:101DA00000BF00BF0848001F006885B2886940F482
:101DB00080708861FFF7F0FE206840F400702060BA
:101DC000284670BD280400481408004801B5BDF835
:101DD00000000149488008BD3800002010B50C46BD
:101DE0000146202000F068F82146BDE8104021207F
:101DF00000F062B801B5BDF800000149088008BDD7
:101E000038000020134A116841F400711160114933
:101E100010390B6843F480730B600B6843F02003A8
:101E20000B600D4B1860106840F02000106000BF80
:101E300000BF00BF086840F020000860086840F458
:101E40008070086000BF00BF00BF086840F40070E9
:101E500008607047280400481408004814490868BE
:101E600040F400700860086840F480700860104812
:101E70001038026842F0200202600E4B22221A60E3
:101E80000A6842F020020A6000BF00BF00BF01687C
:101E900041F020010160016841F48071016000BFE0
:101EA00000BF00BF016841F400710160704700008D
:101EB0002804004814080048184B10B51A6842F46A
:101EC00000721A601A6842F480721A60134A103A5B
:101ED000146844F020041460114C2060186840F02D
:101EE0002000186000BF00BF00BF106840F0200055
:101EF0001060106840F4807010602160186840F035
:101F00002000186000BF00BF00BF106840F0200034
:101F10001060106840F48070106010BD2804004804
:101F20001408004870B5124D044601224FF6FF71A7
:101F30002846FEF7B4FA0F4E012204213046FEF780
:101F4000AEFA002204213046FEF7A9FA210200224F
:101F50002846FEF7A4FA012204213046FEF79FFA34
:101F60003046BDE8704000220421FEF798BA000018
:101F700000080048000C004838B55B4801685B4D1C
:101F80002A6A891A64297DD300682862294628783C
:101F90008A79002845D0022860D0012801D0032882
:101FA00070D1524C0934A078C8280BD93B20A070BE
:101FB0006178491EC9B26170C82903D96070207860
:101FC000401E20704AA14D48521C00F0DDFD4B49D7
:101FD0003020FFF75FFEA07800906378227848A158
:101FE000464800F0D1FD45497820FFF753FE287898
:101FF000012875D049A1414800F0C6FD3F49C020E5
:10200000FFF748FEA07800286CD16078002869D1DD
:102010002078002866D12870BDE838404248FEF795
:10202000A3BF33A13548521C00F0AEFD3349302028
:10203000FFF730FEA87900EB40012C4828300A1841
:10204000937800935378425C38A12C4800F09CFDB3
:102050002A497820FFF71EFE3BA138E0E87924A149
:10206000401C00F00100E8712448521C00F08CFD77
:1020700022493020FFF70EFE1C480C308178009179
:10208000437800E02EE002781DA11C4800F07CFDA2
:102090006A781A48202122B1012A08D0022A0CD0DD
:1020A00010E0EA79012A0DD18171C1710AE0EA7963
:1020B000012A07D14172817204E0EA79012A01D133
:1020C000017341730D497820FFF7E4FD22A10B480D
:1020D00000F05AFDBDE838400849C020FFF7DABDDE
:1020E00021A188E738BD0000480000200000002042
:1020F0002020204E6F2025640000000050000020AA
:10210000202020202020253032643A253032643AC5
:1021100025303264202020202000000020202020B4
:102120002020506175736500B4000020202020201D
:102130002020253032643A253032643A253032642A
:102140002020202000000000202020202020537488
:10215000616E6462790000002020202020205365F9
:102160007474696E670000002020202020205275C2
:102170006E6E696E67000000134810B50168134C5D
:10218000626A891AFA291ED30068606220780128E1
:102190000DD0002020720E48FEF7E6FE00210D480B
:1021A000FFF7E0F9207ABDE81040FFF7BBBE207AC8
:1021B00080F0010020720648FEF79AFE00210548D3
:1021C000FFF752F9EEE710BD4800002000000020A4
:1021D000B400002068000020FEE7FEE7704730B53D
:1021E00001210020FFF768FE4FF47A70FEF74CF8EB
:1021F00000210120FFF760FE41F290711020FFF7EF
:102200005BFE4FF41C516020FFF756FE0121612058
:10221000FFF752FE02214620FFF74EFE48F2100162
:102220001320FFF749FE48F2FE011220FFF744FE9B
:102230004FF4A0610220FFF73FFE41F2300103207E
:10224000FFF73AFE40F2033421463020FFF734FE18
:1022500021463120FFF730FE21463220FFF72CFEC9
:10226000E51E29463320FFF727FE03213420FFF720
:1022700023FE21463520FFF71FFE14213620FFF7ED
:102280001BFE21463720FFF717FE21463820FFF7B7
:1022900013FE21463920FFF70FFE29463A20FFF7AB
:1022A0000BFE03213B20FFF707FE21463C20FFF7F2
:1022B00003FE4FF4A0513D20FFF7FEFD4FF40071E7
:1022C0009220FFF7F9FD21469320FFF7F5FD40F638
:1022D0000D019020FFF7F0FD41F218010320FFF7F8
:1022E000EBFDBDE8304040F273110720FFF7E4BD7D
:1022F00010B543F20801E320FFF7DEFD1221E720CD
:10230000FFF7DAFD41F23121EF20FFF7D5FD002183
:102310000120FFF7D1FD4FF4E0610220FFF7CCFD73
:1023200041F230010320FFF7C7FD00210420FFF731
:10233000C3FD40F207210820FFF7BEFD0021092060
:10234000FFF7BAFD00210A20FFF7B6FD00210C209F
:10235000FFF7B2FD00210D20FFF7AEFD00210F2099
:10236000FFF7AAFD00211020FFF7A6FD072111208D
:10237000FFF7A2FD00211220FFF79EFD0021132090
:10238000FFF79AFDC820FDF78FFF41F29061102002
:10239000FFF792FD40F227211120FFF78DFD32203B
:1023A000FDF782FF1D211220FFF786FD3220FDF789
:1023B0007BFF4FF400611320FFF77EFD14212920DD
:1023C000FFF77AFD0B212B20FFF776FD3220FDF77A
:1023D0006BFF00212020FFF76FFD00212120FFF778
:1023E0006BFD07213020FFF767FD40F207713120B8
:1023F000FFF762FD06213220FFF75EFD40F2047117
:102400003520FFF759FD41F604713620FFF754FDE2
:1024100004213720FFF750FD00213820FFF74CFD45
:1024200040F206713920FFF747FD40F201713C2070
:10243000FFF742FD0F213D20FFF73EFD0021502018
:10244000FFF73AFDEF215120FFF736FD0021522022
:10245000FFF732FD40F23F115320FFF72DFD4FF4FF
:102460001C516020FFF728FD01216120FFF724FDAA
:1024700000216A20FFF720FD00218020FFF71CFDCE
:1024800000218120FFF718FD00218220FFF714FDB5
:1024900000218320FFF710FD00218420FFF70CFDB1
:1024A00000218520FFF708FD10219020FFF704FD93
:1024B00000219220FFF700FD03219320FFF7FCFC91
:1024C0004FF488719520FFF7F7FC00219720FFF764
:1024D000F3FC00219820FFF7EFFC41F218010320E4
:1024E000FFF7EAFCBDE8104040F273110720FFF748
:1024F000E3BC000008B1044801E003481030016863
:1025000041F04001016070471804004810B5802177
:102510000348FDF7BFFF012800D0002010BD0000D8
:102520000004004800B585B014216846FDF777FE29
:102530008020009000200190012002900220039052
:1025400069460248FDF7C2FE05B000BD0004004820
:1025500008B1044801E003481030016841F08001EF
:10256000016070471804004800B585B01421684622
:10257000FDF755FE80200090112001900020029070
:102580000220039069460248FDF7A0FE05B000BD99
:10259000000400487047FDF78DBF000010B594B0EF
:1025A00038216846FDF73BFE14210EA8FDF737FEE3
:1025B0004FF40070FEF710F8012000900004019025
:1025C00002200324CDE907041421CDE90A100C9060
:1025D0000D9009946846FEF78BF908B172B6FEE7D4
:1025E0000F20CDE90E0400201090119012900221CE
:1025F0000EA8FEF757F808B172B6FEE70548C16CA1
:1026000041F02001C164C06C00F02000139014B0B0
:1026100010BD0000001002400248016841F4700142
:102620000160704788ED00E010B58EB0002407947B
:10263000089409940A940B940C941C2168460D94F8
:10264000FDF7EDFD1E481D4901601E49C0E901145A
:102650006321C0E9031480218161FEF7B8FB08B152
:10266000FDF720FE4FF48050079007A91448FEF7AD
:1026700093FC08B1FDF716FE1148FEF7C1FE08B144
:10268000FDF710FE0B940BA90D480D94FEF750FBBF
:1026900008B1FDF707FE602000905020CDE901044D
:1026A0000022694606480494FEF71BFE08B1FDF7B8
:1026B000F9FD0348FEF7ECFD0EB010BD000400402C
:1026C000680000207F3801000148FEF7E2BC0000EE
:1026D000B40000203EB500241048009401940E4937
:1026E0000294016041F63F71C0E9011442F20F719A
:1026F000C16080218161FEF76AFB08B1FDF7D2FD60
:102700000094694605480294FEF712FB002801D0A8
:10271000FDF7C8FD3EBD000000100040B4000020E1
:102720002DE9F0430268234B234D244E244C4FF0F7
:102730008049984207D0484505D0A84203D0B0420E
:1027400001D0A04203D122F070074A683A431D4FDE
:10275000DFF874C0DFF8748098420DD048450BD084
:10276000A84209D0B04207D0A04205D0B84203D059
:10277000604501D0404503D122F44075CA682A4320
:102780004D6922F080022A4302608A68C2620A68A8
:102790008262984207D0A04205D0B84203D060457B
:1027A00001D0404501D10969016301214161BDE8C2
:1027B000F0830000002C01400004004000080040AD
:1027C0000034014000400140004401400048014005
:1027D00010B501F01F030121046A99408C43046283
:1027E000016A9A401143016210BD10B5846842EA43
:1027F000032224F47F440A432243826010BD000078
:102800008268034B1A400A4342F007018160704717
:102810008FFFCFFF2DE9F043026A22F0010202622E
:10282000056A436882691C4C25F0020522400C6849
:1028300022F0030214438A68194E2A43174D194F98
:10284000DFF864C0DFF86490A84207D0B04205D03A
:10285000B84203D0604501D0484506D122F00808AF
:10286000CA6842EA080222F00402A84207D0B04235
:1028700005D0B84203D0604501D0484505D14D6927
:1028800023F440731D438B692B4343608461496883
:1028900041630262BDE8F0838FFFFEFF002C014020
:1028A0000034014000400140004401400048014024
:1028B000F0B5026A22F010020262056A426883697A
:1028C000194C1B4E23400C6823F4407343EA042444
:1028D00025F020038D6843EA0513144DA84201D06A
:1028E000B04206D1CF6823F0800343EA071323F0F8
:1028F0004003A8420AD0B04208D00E4DA84205D0ED
:102900000D4DA84202D00D4DA84207D14D6922F4C9
:10291000406242EA85028D6942EA85024260846132
:10292000496881630362F0BDFF8FFFFE002C014008
:102930000034014000400140004401400048014093
:10294000F0B5026A22F480720262056A4368C269C5
:10295000194C1B4E22400C6822F00302144325F44C
:1029600000728D6842EA0522144DA84201D0B0429F
:1029700006D1CF6822F4006242EA072222F4806284
:10298000A8420AD0B04208D00E4DA84205D00E4D44
:10299000A84202D00D4DA84207D14D6923F44053FF
:1029A00043EA05138D6943EA05134360C46149682E
:1029B000C1630262F0BD00008FFFFEFF002C0140EA
:1029C0000034014000400140004401400048014003
:1029D000F0B5026A22F480520262056A4268C36955
:1029E000194C1B4E23400C6823F4407343EA042423
:1029F00025F400538D6843EA0533144DA84201D0F5
:102A0000B04206D1CF6823F4004343EA073323F4EE
:102A10008043A8420AD0B04208D00E4DA84205D04B
:102A20000D4DA84202D00D4DA84207D14D6922F4A8
:102A3000404242EA85128D6942EA85124260C461D1
:102A4000496801640362F0BDFF8FFFFE002C014066
:102A50000034014000400140004401400048014072
:102A600030B5026A22F480320262046A4268036D61
:102A7000114D2B400D681D4324F400330C8943EAAB
:102A800004430E4CA0420BD00D4CA04208D00D4C7C
:102A9000A04205D00C4CA04202D00C4CA04204D164
:102AA0004C6922F4803242EA04224260056549689A
:102AB0008164036230BD00008FFFFEFF002C0140E7
:102AC0000034014000400140004401400048014002
:102AD00030B5026A22F480120262046A4268036D11
:102AE000114D24F400142B400D6843EA05230D8991
:102AF00044EA05540D4DA8420BD00D4DA84208D014
:102B00000C4DA84205D00C4DA84202D00B4DA84256
:102B100004D14D6922F4802242EA85224260036595
:102B20004968C164046230BDFF8FFFFE002C014084
:102B30000034014000400140004401400048014091
:102B400010B5036A046A24F001040462846924F065
:102B5000F00444EA021423F00A020A438461026288
:102B600010BD10B5036A23F0100303628369046A81
:102B700023F4704343EA023224F0A00343EA011134
:102B80008261016210BDFEE70FB4084B10B504A9C5
:102B900002AA039800F02CF8044602A9002000F0D5
:102BA000C8F9204610BC5DF814FB0000332F000864
:102BB0000907090E002804DB00F1E02080F800146A
:102BC000704700F00F0000F1E02080F8141D7047FE
:102BD00002E008C8121F08C1002AFAD170477047E6
:102BE000002001E001C1121F002AFBD17047000044
:102BF0002DE9FF4F8BB088460546002606E02528C4
:102C00000BD0DDE90D1290476D1C761C287800284A
:102C1000F5D10FB03046BDE8F08F0024A146A246A2
:102C20000122AE4900E0044315F8013F203B02FABF
:102C300003F00842F7D128782A2810D06FF02F022D
:102C40002878A0F13001092915D809EB890102EB98
:102C5000410144F0020400EB01096D1CF0E758F853
:102C6000041B5FEA010903D544F40054C9F10009CB
:102C700044F002046D1C28782E2817D115F8010F96
:102C800044F004042A280ED06FF02F022878A0F117
:102C9000300109290AD80AEB8A0102EB410100EB55
:102CA000010A6D1CF2E758F804AB6D1C28786C28FB
:102CB0000FD006DC4C2817D068280DD06A2814D114
:102CC00004E0742810D07A280FD10DE044F40014E9
:102CD0000AE044F4801401E044F44014697881422D
:102CE00002D104F580146D1C6D1C2878692865D00C
:102CF00006DC00288DD0632827D0642806D15DE04B
:102D00006E2808D073282AD0752877D0DDE90D12F7
:102D10009047761CE0E0C4F30250022809D0032853
:102D20000DD0D8F8001004280DD00E6008F104086A
:102D3000D2E0D8F80010F217C1E90062F6E7D8F83F
:102D400000100E80F2E70E70F0E718F8041B8DF803
:102D5000001000208DF80100EB46012003E058F838
:102D600004BB4FF0FF3061074FF0000701D40AE0C9
:102D70007F1C57450DDA8742FADB1BF80710002944
:102D8000F6D106E07F1C8742FCDB1BF80710002908
:102D9000F8D1DDE90D23A9EB07008146214600F0BB
:102DA000B1F83044C61904E0DDE90D121BF8010B3F
:102DB00090477F1EF8D22146484688E058F8040B19
:102DC000C4F302514FF00A0B032900D100B20429C9
:102DD00000D140B2002802DA40422D2102E0210554
:102DE00005D52B218DF82410012104E006E0E10730
:102DF00010D02021F6E708AF089113E058F8040B33
:102E0000C4F302514FF00A0B032900D180B2042908
:102E100000D1C0B20021EEE75946FDF70BFA303180
:102E200007F8011D0028F7D1ADEB070000F1200BDA
:102E3000600702D524F4803401E04FF0010ADA453E
:102E400002DDAAEB0B0000E00020824600EB0B0144
:102E500008980144A9EB01000A90E00306D4DDE9DB
:102E60000D2321460A9800F04DF806444FF0000962
:102E700008E009A911F80900DDE90D12904709F1F0
:102E80000109761C08998945F3DBE0030CD5DDE9DF
:102E90000D2321460A9800F035F8064404E0DDE9E8
:102EA0000D1230209047761CBAF10001AAF1010AF8
:102EB000F5DC05E0DDE90D1217F8010B9047761CF3
:102EC000BBF10001ABF1010BF4DC0A982146DDE90E
:102ED0000D2300F005F806446D1C97E60928010053
:102EE0002DE9F041044600251E461746880404D407
:102EF00005E039462020B0476D1C641EF9D52846F0
:102F0000BDE8F0812DE9F041044600251E469046BB
:102F1000C80301D5302700E02027880404D505E048
:102F200041463846B0476D1C641EF9D52846BDE8B9
:102F3000F0810A68531C0B6010707047002100E09C
:102F4000491C8142FCD37047FDF7BCFAFFF726FB12
:102F5000FEF7A4FCFEF7E0FEFFF766FBFFF7BAFB07
:102F6000FEF760FB1F20FEF72FFE1F20FEF72EFF4F
:102F70004FF6FF70FEF73EFF1548FDF783FF002177
:102F80001348FEF7EFFA032200211248FEF73CFC3B
:102F9000104C03221146E01CFEF736FC03220621EA
:102FA000A01DFEF731FC0322092104F10900FEF700
:102FB0002BFC03220C2104F10C00FEF725FC00BFC2
:102FC000FEF7DCFCFEF7D8FFFFF7D6F8F8E70000C5
:102FD0006800002028000020000000000000000021
:102FE00000000000000000000000000000000000E1
:102FF00000000000000000000000000000000000D1
:10300000000000000000000000008001800180013D
:1030100080018001800180018001800180018001A8
:10302000800180010000000080018001000000009C
:10303000000000000000000000000000CC00CC00F8
:10304000CC00CC00CC00CC00000000000000000050
:103050000000000000000000000000000000000070
:103060000000000000000000000000000000000060
:1030700000000000600C600C600C30063006FE1F83
:10308000FE1F300638071803FE1FFE1F1803180323
:103090008C018C018C01000000008000E003F80F1F
:1030A0009C0E8C1C8C188C009800F801E007800E98
:1030B000801C8C188C189C18B80CF00FE003800052
:1030C00080000000000000000000000000000E185A
:1030D0001B0C110C11061106110311039B018E012B
:1030E000C038C06C60446044304430441844186CAC
:1030F0000C380000000000000000E001F003380779
:10310000180618063003F001F000F8009C310E3369
:10311000061E061C061C063FFC73F0210000000082
:103120000000000000000000000000000C000C0087
:103130000C000C000C000C0000000000000000005F
:10314000000000000000000000000000000000007F
:1031500000000000000000000000000200038001E9
:10316000C000C0006000600030003000300030005F
:10317000300030003000300060006000C000C0004F
:103180008001000300020000000020006000C00079
:10319000800180010003000300060006000600060F
:1031A00000060006000600060003000380018001FF
:1031B000C0006000200000000000000000000000CF
:1031C00000000000C000C000D806F807E00130038E
:1031D00038070000000000000000000000000000B0
:1031E00000000000000000000000000000000000DF
:1031F0000000000080018001800180018001FC3F0F
:10320000FC3F8001800180018001800100000000FE
:1032100000000000000000000000000000000000AE
:10322000000000000000000000000000000000009E
:10323000000000000000000000008001800100018B
:1032400000018000000000000000000000000000FD
:10325000000000000000000000000000000000006E
:10326000E007E00700000000000000000000000090
:10327000000000000000000000000000000000004E
:10328000000000000000000000000000000000003E
:1032900000000000000000000000C000C0000000AE
:1032A00000000000000000000000000C000C000600
:1032B0000006000600030003000380038001800174
:1032C0008001C000C000C00060006000000000007D
:1032D00000000000000000000000E003F007380ECE
:1032E000180C0C180C180C180C180C180C180C18BE
:1032F0000C180C18180C380EF007E0030000000042
:103300000000000000000000000000018001C0017A
:10331000F001980188018001800180018001800115
:103320008001800180018001800180010000000097
:1033300000000000000000000000E003F80F180C7F
:103340000C180C1800180018000C0006000380016F
:10335000C000600030001800FC1FFC1F00000000CF
:1033600000000000000000000000E001F807180E57
:103370000C0C0C0C000C0006C003C007000C00185D
:1033800000180C180C18180CF807E00300000000D7
:1033900000000000000000000000000C000E000F04
:1033A000000F800DC00C600C600C300C180C0C0C65
:1033B000FC3FFC3F000C000C000C000C0000000067
:1033C00000000000000000000000F80FF80F1800D7
:1033D00018000C00EC03FC071C0E001C0018001861
:1033E00000180C181C0C180EF807E0030000000071
:1033F00000000000000000000000C007F00F381CB3
:10340000181818000C00CC03EC0F3C0E1C1C0C18F8
:103410000C180C18181C380EF007E0030000000010
:1034200000000000000000000000FC1FFC1F000C5A
:1034300000060006000380038001C001C000E00018
:1034400060006000700030003000300000000000BC
:1034500000000000000000000000E003F007380E4C
:10346000180C180C180C3806F007F007180C0C187C
:103470000C180C180C18380CF80FE00300000000B2
:1034800000000000000000000000E003F007380E1C
:103490001C0C0C180C180C181C1C381EF81BE019FE
:1034A0000018000C000C1C0EF807F00100000000D2
:1034B000000000000000000000000000000000000C
:1034C00000000000800180010000000000000000FA
:1034D00000000000000000008001800100000000EA
:1034E00000000000000000000000000000000000DC
:1034F00000000000800180010000000000000000CA
:1035000000000000000000008001800100010001B7
:10351000800000000000000000000000000000002B
:1035200000000000000000000010001C800FE003FD
:10353000F8001800F800E003800F001C00100000E5
:10354000000000000000000000000000000000007B
:103550000000000000000000F81F00000000000054
:10356000F81F000000000000000000000000000044
:10357000000000000000000000000000000000004B
:10358000000000000000000008003800F001C00743
:10359000001F0018001FC007F001380008000000DD
:1035A00000000000000000000000E003F80F180C0D
:1035B0000C180C180018000C000600038001C00055
:1035C000C000C00000000000C000C00000000000FB
:1035D000000000000000000000000000E0071818D4
:1035E0000420C229224A11440944094409440922F9
:1035F0001113E20C024004201818E007000000003C
:103600000000000000000000000080038003C006EE
:10361000C006C006600C600C301830183018F83F37
:10362000F83F1C700C600C6006C006C00000000073
:1036300000000000000000000000FC03FC0F0C0C68
:103640000C180C180C180C0CFC07FC0F0C180C3088
:103650000C300C300C300C18FC1FFC070000000074
:1036600000000000000000000000C007F01F383814
:103670001C300C70066006000600060006000600FE
:10368000060006600C701C30F01FE0070000000010
:1036900000000000000000000000FE03FE0F060E08
:1036A000061806180630063006300630063006309A
:1036B000063006180618060EFE0FFE030000000076
:1036C00000000000000000000000FC3FFC3F0C0078
:1036D0000C000C000C000C00FC1FFC1F0C000C006C
:1036E0000C000C000C000C00FC3FFC3F0000000034
:1036F00000000000000000000000F83FF83F180044
:103700001800180018001800F81FF81F18001800FB
:103710001800180018001800180018000000000019
:1037200000000000000000000000E00FF83F3C78BF
:103730000E6006E007C00300030003FE03FE03C0A3
:1037400007C006C00EC03CF0F83FE00F00000000CC
:10375000000000000000000000000C300C300C30B5
:103760000C300C300C300C30FC3FFC3F0C300C307B
:103770000C300C300C300C300C300C3000000000E1
:1037800000000000000000000000800180018001B6
:103790008001800180018001800180018001800121
:1037A0008001800180018001800180010000000013
:1037B00000000000000000000000000600060006F7
:1037C00000060006000600060006000600060006C9
:1037D0000006180618063807F003E0010000000094
:1037E0000000000000000000000006300618060C73
:1037F000060606038601C60066007600DE008E011E
:1038000006030606060C06180630066000000000D7
:103810000000000000000000000018001800180060
:1038200018001800180018001800180018001800D8
:103830001800180018001800F81FF81F00000000FA
:10384000000000000000000000000EE01EF01EF06E
:103850001EF036D836D836D836D866CC66CC66CC8C
:10386000C6C6C6C6C6C6C6C686C386C30000000096
:10387000000000000000000000000C301C303C3054
:103880003C306C306C30CC30CC308C310C330C3361
:103890000C360C360C3C0C3C0C380C300000000094
:1038A00000000000000000000000E007F81F1C38C6
:1038B0000E70066003C003C003C003C003C003C092
:1038C00003C006600E701C38F81FE00700000000FF
:1038D00000000000000000000000FC0FFC1F0C387E
:1038E0000C300C300C300C300C18FC1FFC070C009A
:1038F0000C000C000C000C000C000C000000000080
:1039000000000000000000000000E007F81F1C3865
:103910000E70066003E003C003C003C003C003C011
:1039200007E006630E3F1C3CF83FE0F700C00000D4
:1039300000000000000000000000FE0FFE1F06381F
:103940000630063006300638FE1FFE070603060660
:10395000060C061806180630063006600000000047
:1039600000000000000000000000E003F80F1C0C45
:103970000C180C180C001C00F803E00F001E003897
:10398000063006300E301C1CF80FE0070000000067
:1039900000000000000000000000FE7FFE7F8001AC
:1039A000800180018001800180018001800180010F
:1039B0008001800180018001800180010000000001
:1039C000000000000000000000000C300C300C3043
:1039D0000C300C300C300C300C300C300C300C3007
:1039E0000C300C300C301818F81FE00700000000F5
:1039F00000000000000000000000036006300630F8
:103A000006300C180C180C18180C180C380E300650
:103A10003006700760036003C001C00100000000B1
:103A2000000000000000000000000360C361C361EB
:103A3000C3616633663366336633663366336C1B45
:103A40006C1B6C1B2C1A3C1E380E380E000000003C
:103A5000000000000000000000000FE00C701830B3
:103A60003018700C600EC00780038003C003E006AE
:103A7000700C301C18180C300E6007E000000000BD
:103A80000000000000000000000003C006600C30D1
:103A90001C383818300C6006E007C0038001800134
:103AA0008001800180018001800180010000000010
:103AB00000000000000000000000FC7FFC7F0060B0
:103AC00000300018000C000600038001C0006000F8
:103AD000300018000C000600FE7FFE7F0000000092
:103AE00000000000000000000000E003E0036000B0
:103AF00060006000600060006000600060006000C6
:103B000060006000600060006000600060006000B5
:103B10006000E003E00300000000300030006000BF
:103B200060006000C000C000C000C00180018001D2
:103B300080010003000300030006000600000000EF
:103B400000000000000000000000E003E0030003AC
:103B5000000300030003000300030003000300034D
:103B6000000300030003000300030003000300033D
:103B70000003E003E003000000000000C001C001FA
:103B800060036003600330063006180C180C000058
:103B90000000000000000000000000000000000025
:103BA0000000000000000000000000000000000015
:103BB0000000000000000000000000000000000005
:103BC00000000000000000000000FFFFFFFF0000F9
:103BD000000000000000000000000C000C000C00C1
:103BE0000C000C000C0000000000000000000000B1
:103BF00000000000000000000000000000000000C5
:103C000000000000000000000000000000000000B4
:103C100000000000F003F8071C0C0C0C000FF00F64
:103C2000F80C0C0C0C0C1C0FF80FF0180000000026
:103C3000000000000000000000001800180018003C
:103C400018001800D803F80F380C1818181818188E
:103C5000181818181818380CF80FD80300000000AE
:103C60000000000000000000000000000000000054
:103C700000000000C003F007300E180C18001800F8
:103C800018001800180C300EF007C00300000000E8
:103C900000000000000000000000001800180018DC
:103CA00000180018C01BF01F301C1818181818181E
:103CB000181818181818301CF01FC01B000000003E
:103CC00000000000000000000000000000000000F4
:103CD00000000000C003F00F300C1818F81FF81F88
:103CE000180018003818301CF00FC0070000000042
:103CF00000000000000000000000800FC00FC000A6
:103D0000C000C000F007F007C000C000C000C00045
:103D1000C000C000C000C000C000C0000000000023
:103D20000000000000000000000000000000000093
:103D300000000000E00DF80F180E0C0C0C0C0C0C21
:103D40000C0C0C0C0C0C180EF80FE00D000C0C0CED
:103D50001C06F807F0010000000018001800180009
:103D600018001800D807F80F381C18181818181859
:103D70001818181818181818181818180000000023
:103D800000000000000000000000C000C0000000B3
:103D900000000000C000C000C000C000C000C000A3
:103DA000C000C000C000C000C000C0000000000093
:103DB00000000000000000000000C000C000000083
:103DC00000000000C000C000C000C000C000C00073
:103DD000C000C000C000C000C000C000C000C000E3
:103DE000C000F8007800000000000C000C000C007F
:103DF0000C000C000C0C0C060C038C01CC006C00AD
:103E0000FC009C018C030C030C060C0C0000000051
:103E100000000000000000000000C000C000C00062
:103E2000C000C000C000C000C000C000C000C00092
:103E3000C000C000C000C000C000C0000000000002
:103E40000000000000000000000000000000000072
:103E5000000000007C3CFF7EC7E383C183C183C1B7
:103E600083C183C183C183C183C183C100000000BA
:103E70000000000000000000000000000000000042
:103E8000000000009807F80F381C181818181818A8
:103E90001818181818181818181818180000000002
:103EA0000000000000000000000000000000000012
:103EB00000000000C003F00F300C18181818181874
:103EC000181818181818300CF00FC0030000000064
:103ED00000000000000000000000000000000000E2
:103EE00000000000D803F80F380C1818181818181C
:103EF000181818181818380CF80FD80318001800DC
:103F00001800180018000000000000000000000069
:103F100000000000C01BF01F301C181818181818DB
:103F2000181818181818301CF01FC01B001800189B
:103F30000018001800180000000000000000000039
:103F400000000000B007F0037000300030003000C7
:103F50003000300030003000300030000000000041
:103F60000000000000000000000000000000000051
:103F700000000000E003F003380E180C3800F003D6
:103F8000C007000C180C380EF007E003000000001A
:103F90000000000000000000000000008000C000E1
:103FA000C000C000F007F007C000C000C000C000A3
:103FB000C000C000C000C000C007800700000000B3
:103FC00000000000000000000000000000000000F1
:103FD00000000000181818181818181818181818C1
:103FE000181818181818381CF01FE01900000000E5
:103FF00000000000000000000000000000000000C1
:10400000000000000C18180C180C180C30063006B4
:104010003006600360036003C001C00100000000BF
:104020000000000000000000000000000000000090
:1040300000000000C141C141C36163636363636306
:104040003636363636361C1C1C1C1C1C0000000084
:104050000000000000000000000000000000000060
:10406000000000001C38381C300C60066003600340
:10407000600360036006300C381C1C380000000030
:104080000000000000000000000000000000000030
:10409000000000001830301830187018600C600CE8
:1040A000E00CC006C006800380038003800180010D
:1040B000C001F000700000000000000000000000DF
:1040C00000000000FC1FFC1F000C00060003800124
:1040D000C000600030001800FC1FFC1F0000000042
:1040E0000000000000000000000000038001C0008C
:1040F000C000C000C000C000C00060006000300010
:1041000060004000C000C000C000C000C000C0008F
:104110008001000300000000000080018001800198
:104120008001800180018001800180018001800187
:104130008001800180018001800180018001800177
:10414000800180018001000000006000C000C0010B
:1041500080018001800180018001000300030006CE
:104160000003000180018001800180018001800145
:10417000C00060000000000000000000000000001F
:104180000000000000000000F010F81F080F000001
:10419000000000000000000000000000000000001F
:1041A000000000000000000000000000000000000F
:1041B0000102030406070809D84100080000002096
:1041C00050000000D02B00082842000850000020BA
:1041D000B0040000E02B0008000000000000000018
:1041E00000000000000000000000000000000000CF
:1041F00000000000000000000000000000000000BF
:1042000000000A00001E000100000200000500007E
:104210000000FFFF0000000010000000010000008F
:08422000000000000024F4007E
:04000005080001D915
:00000001FF
