:020000040800F2
:10000000E8050020ED01000887210008631C0008B6
:100010008521000859020008152B00080000000087
:100020000000000000000000000000009F24000805
:100030005B0200080000000089210008A1240008DC
:10004000070200080702000807020008070200086C
:10005000070200080702000807020008070200085C
:10006000070200080702000807020008070200084C
:10007000070200080702000807020008070200083C
:10008000070200080000000007020008070200083D
:10009000070200080702000807020008070200081C
:1000A000070200080702000807020008070200080C
:1000B0001926000825260008312600080702000836
:1000C00007020008070200080702000807020008EC
:1000D00007020008092B00080702000807020008B1
:1000E00007020008070200080702000807020008CC
:1000F00007020008070200080702000800000000CD
:1001000000000000070200080000000007020008CD
:1001100007020008000000000702000807020008AC
:10012000070200080702000807020008070200088B
:10013000070200080000000000000000070200089D
:10014000070200080702000800000000000000008D
:10015000000000000000000000000000000000009F
:10016000000000000000000000000000070200087E
:10017000070200080000000000000000000000006E
:10018000000000000702000800000000000000005E
:10019000000000000000000000000000000000005F
:1001A000000000000000000007020008070200082D
:1001B000070200080702000807020008000000000C
:1001C000000000000702000800000000000000001E
:1001D0000702000807020008DFF80CD000F02AF838
:1001E00000480047552B0008E805002006488047D6
:1001F00006480047FEE7FEE7FEE7FEE7FEE7FEE70C
:10020000FEE7FEE7FEE7FEE735250008D901000816
:10021000D2B201E000F8012B491EFBD27047002248
:10022000F6E710B513460A4604461946FFF7F0FFF5
:10023000204610BD064C074D06E0E06840F0010383
:1002400094E8070098471034AC42F6D3FFF7C8FF94
:10025000B82B0008D82B0008FEE77047002240F6B4
:10026000B83306E00021491C89B29942FBD3521CE5
:1002700092B28242F6D3704772B6FEE710B590F89C
:10028000253000210122022B03D00421C16301216A
:1002900022E003681C6824F00E041C60836C1C6858
:1002A00024F480741C6003681C6824F001041C6042
:1002B00090F84430046C03F01F0302FA03F3636008
:1002C000D0E913345C60436D33B11C6824F480744E
:1002D0001C60D0E916345C6080F82520002280F88C
:1002E0002420084610BD70B590F825200024012177
:1002F0002346022A07D00422C26380F8251080F822
:100300002430012429E00268156825F00E051560E7
:100310000268156825F001051560826C156825F4E2
:100320008075156090F84420056C02F01F0201FAF8
:1003300002F26A60D0E913255560426D32B115684A
:1003400025F480751560D0E91625556080F82510D4
:1003500080F82430816B01B18847204670BD0000D1
:1003600070B5044600F0FCF80546601C02D0044855
:100370004068044400F0F4F8401BA042FAD370BD7A
:10038000180000202DE9FC4FDFF8A0A10023012573
:100390000AF1040B03244FF00F0C0BF1040EBDE027
:1003A00005FA03F632406FD04F68012F05D0022FB7
:1003B00003D0112F01D0122F17D1D0F808905F0071
:1003C00004FA07F829EA08090097D1F80C8008FA1E
:1003D00007F848EA0908C0F808804768B7430E796B
:1003E000C6F300169E403E434660C6684FEA430887
:1003F00004FA08F7BE4301978F6807FA08F73743F6
:10040000C7604E68022E01D0122E13D1DE0800EB19
:1004100086060096366A5F07FF0E0CFA07F926EA91
:100420000906D1F8109009FA07F949EA0609009E71
:10043000C6F820900668019FBE430F7907F00307B6
:1004400007FA08F7374307604E68F60065D5384E5F
:10045000376E47F001073766366E23F0030706F064
:1004600001060096334E3E44B146B6689F074FEAF8
:1004700017780CFA08F7BE43B0F1904F05D02E4F15
:10048000B84204D1012717E047E0002714E02B4FC2
:10049000B84201D102270FE0294FB84201D103270A
:1004A0000AE0284FB84201D1042705E0264FB842A0
:1004B00001D1052700E0062707FA08F73743C9F8F6
:1004C0000870DAF800605746D1F8048096435FEA76
:1004D000C83800D516433E60DBF800605F46D1F8AF
:1004E000048096435FEA883800D516433E60DEF804
:1004F00000607746D1F8048096435FEAC82800D5AB
:1005000016433E60094F0C373E68D1F8048096438D
:100510005FEA882800D516433E605B1C0A6832FA01
:1005200003F67FF43DAFBDE8FC8F000000040140FE
:10053000001002400000014000040048000800488C
:10054000000C0048001000480014004800690840F2
:1005500000D0012070470AB1816170478162704705
:100560000148806870470000180000200248816838
:1005700042681144816070471800002010B50024C3
:10058000032000F073F8002000F008F808B10124FF
:1005900001E000F025F8204610BD000070B50E4EB9
:1005A00005460024706898B14FF47A71B1FBF0F001
:1005B0000A490968B1FBF0F000F040FD40B9102D88
:1005C00006D200222946501E00F030F8356000E0C7
:1005D0000124204670BD00001800002024000020E7
:1005E0000A4882B0016E41F001010166016E01F01E
:1005F00001010091816D41F080518165806D00F0B5
:100600008050009002B000F0A1B80000001002403D
:10061000002809DB00F01F02012191404009800001
:1006200000F1E020C0F8001170470000F0B40E4B5C
:100630001B680C46C3F30223C3F10705042D00D940
:100640000425191D072901D2002300E0DB1E012625
:1006500006FA05F1491E214099409E40761E16403B
:100660003143F0BC02F057BA0CED00E0064900F04F
:10067000070208684FF6FF03184040EA0220034AC9
:1006800010430860704700000CED00E00000FA0520
:100690002B492C4B0A6832214A432B4940B1B0F513
:1006A000007F086829D020F4C06040F480602CE00E
:1006B0000868C0F34120022804D051F8800F20F4CC
:1006C000807022E0D1F8800020F48070C1F88000B2
:1006D000086820F4C06040F400700860B2FBF3F0DA
:1006E000401C00E0401E4A69520501D50028F9D19E
:1006F000486940050AD503207047C0F3412002280D
:1007000006D051F8800F40F48070086000207047D8
:10071000D1F8800040F48070C1F88000086820F4AF
:10072000C06040F400700860B2FBF3F0401C00E0D1
:10073000401E4A695205DBD50028F9D1D8E70000F0
:100740002400002040420F000070004002488168F1
:1007500041F4804181607047007000402DE9F8430A
:100760000446006800269D4D00035ED5A86D002755
:10077000C00008D4A86D40F08050A865A86D01277E
:1007800000F080500090DFF85892D9F8001041F442
:100790008071C9F80010FFF7E3FE804606E000BF55
:1007A000FFF7DEFEA0EB080002282BD8D9F80000E6
:1007B000C005F5D5D5F8900010F4407014D0216C28
:1007C000814211D0D5F89000D5F8901020F44070F7
:1007D00041F48031C5F89010D5F8901021F48031A3
:1007E000C5F89010C5F89000C00711D0FFF7B8FE0B
:1007F000804641F2883907E0FFF7B2FEA0EB08011E
:10080000494501D903260BE0D5F890008007F3D5C0
:10081000D5F89000216C20F440700843C5F8900092
:100820001FB1A86D20F08050A8652078C00707D0C0
:10083000D5F88800616820F003000843C5F88800F7
:100840002078800707D5D5F88800A16820F00C0033
:100850000843C5F888002078400707D5D5F88800F8
:10086000E16820F030000843C5F8880020780007D0
:1008700007D5D5F88800216920F0C0000843C5F8E5
:1008800088002078800607D5D5F88800616920F4B3
:1008900040600843C5F888002078400607D5D5F8A1
:1008A0008800A16920F440500843C5F888002078EA
:1008B000000607D5D5F88800E16920F440400843D8
:1008C000C5F888002088C00507D5D5F88800216ABA
:1008D00020F440300843C5F888002088800507D5FB
:1008E000D5F88800616A20F440200843C5F88800E4
:1008F000208840050FD5D5F88800A16A20F4401063
:100900000843C5F88800A06AB0F5801F03D1E868E5
:1009100040F48010E860208800050FD5D5F88800E5
:10092000E16A20F440000843C5F88800E06AB0F5A9
:10093000800F03D1E86840F48010E8602088C0048C
:100940000FD5D5F88800216B20F040700843C5F81A
:100950008800206BB0F1807F03D1E86840F48010FC
:10096000E86020884FF0006180040ED5D5F888003B
:10097000626B20F040601043C5F88800606B8842CD
:1009800003D1E86840F48010E860208840040ED568
:10099000D5F88800A26B20F040601043C5F88800AD
:1009A000A06B884203D1E86840F48010E86020889A
:1009B00000040FD5D5F88800E16B20F040500843C3
:1009C000C5F88800E06BB0F1805F03D1E86840F4BF
:1009D0008030E8603046BDE8F88300000010024037
:1009E000007000402DE9F0470E4605004FF000076B
:1009F00025D0DFF8AC81D8F8000000F00F00B0423D
:100A00000CD2D8F8001021F00F013143C8F80010C3
:100A1000D8F8000000F00F00B04210D12968614CF6
:100A2000C80741F2883A5AD06868DFF87C910328F9
:100A300008D0022820682DD0400500282CDB01209A
:100A4000BDE8F08720688001F9D5E06800F0030276
:100A5000E068C0F30310401C032A19D0534A00BFBA
:100A6000B2FBF0F0E268C2F306225043E268C2F340
:100A70004162521C5200B0FBF2F0484517D9A06801
:100A800010F0F00F0CD0880711D5A86840B10EE027
:100A9000474AE5E78003D0E700F092F8484506D9D9
:100AA000A06820F0F00040F08000A0608027A068DF
:100AB000696820F003000843A060FFF751FD8146FC
:100AC00006E000BFFFF74CFDA0EB090151453AD805
:100AD000A068696800F00C00B0EB810FF2D12868C3
:100AE000810714D5400703D5A06840F4E060A060FA
:100AF0002878000705D5A06820F4605040F4E06035
:100B0000A060A068A96820F0F000084304E0802FEE
:100B100003D1A06820F0F000A060D8F80010404693
:100B200001F00F01B14216D9016821F00F013143E4
:100B30000160FFF715FD074607E000BFFFF710FD56
:100B4000C11B514501D903207AE7D8F8000000F015
:100B50000F00B042F2D12878400705D5A068E968B7
:100B600020F4E0600843A0602878000706D5A0685C
:100B7000296920F4605040EAC100A06000F020F82C
:100B8000A1680C4AC1F30311515C01F01F01C84078
:100B90000949086009480068BDE8F047FFF7FEBC56
:100BA000002002400010024000B4C4040024F400FD
:100BB00000366E01A82B0008240000201800002039
:100BC000184910B58868C0F381021748012A0BD074
:100BD0008A68164BC2F38102022A06D08A68C2F3E1
:100BE0008102032A03D0002010BD184610BDCA6838
:100BF00002F00304CA68C2F30312521C032C02D091
:100C0000B0FBF2F001E0B3FBF2F0CA68C968C2F3CE
:100C100006225043C1F34161491C4900B0FBF1F089
:100C200010BD0000001002400024F40000366E01E8
:100C30002DE9F84304007AD02078FA4DC00747D058
:100C4000A868E96800F00C0001F003010C2802D04C
:100C5000082817D001E0032914D06068B0F5803F60
:100C600017D0B0F5A02F286817D020F48030286066
:100C7000286820F4802028606068E0B1FFF770FCED
:100C8000064614E02868800322D560680028D2D088
:100C90001EE0286840F48030EDE740F480202860B2
:100CA000F7E700BFFFF75CFC801B642870D828685A
:100CB0008003F7D50CE0FFF753FC064605E000BFC4
:100CC000FFF74EFC801B6428F0D828688003F7D417
:100CD000207880074CD5A868E96800F00C0001F086
:100CE00003010C2802D004280DD001E002290AD00B
:100CF000E068002828682BD040F480702860FFF757
:100D00002FFC064619E02868400502D5E068002857
:100D100091D06868217C20F0FE4040EA0160686064
:100D2000C1480068FFF73AFC002800D120E076E1D6
:100D3000FFF716FC801B0228B8D828684005F7D5B5
:100D40006868217C20F0FE4040EA016068600FE0A6
:100D500020F480702860FFF703FC064605E000BF22
:100D6000FFF7FEFB801B0228A0D828684005F7D4B7
:100D70002078000729D560690028D5F8940013D0A1
:100D800040F00100C5F89400FFF7EAFB064606E0D4
:100D900090E000BFFFF7E4FB801B022886D8D5F85F
:100DA00094008007F6D510E020F00100C5F894000B
:100DB000FFF7D6FB064604E0FFF7D2FB801B0228B4
:100DC00078D8D5F894008007F6D42078400761D50C
:100DD000A86D0026C00008D4A86D40F08050A8651A
:100DE000A86D012600F08050009090480168C90568
:100DF00011D40168804641F480710160FFF7B0FBB7
:100E0000074604E0FFF7ACFBC01B022852D8D8F815
:100E10000000C005F6D5A068012815D00528D5F832
:100E2000900016D020F00100C5F89000D5F8900091
:100E300020F00400C5F89000A06841F28838B8B1ED
:100E4000FFF78EFB07460EE0D5F8900040F001005A
:100E5000F0E740F00400C5F89000F5E7FFF780FBED
:100E6000C11B414526D8D5F890008007F6D50CE087
:100E7000FFF776FB074604E0FFF772FBC11B414515
:100E800018D8D5F890008007F6D41EB1A86D20F0D0
:100E90008050A8652078800629D5A0690028D5F85B
:100EA000980013D040F00100C5F89800FFF758FBF8
:100EB000064606E077E000BFFFF752FB801B0228E2
:100EC00077D8D5F898008007F6D510E020F001001B
:100ED000C5F89800FFF744FB064604E0FFF740FB27
:100EE000801B022865D8D5F898008007F6D4E06901
:100EF000F0B3A968C1F38101032961D002282868F1
:100F000020F0807028600BD0E86820F00300E860D3
:100F1000E86847490840E860FFF722FB04464BE0D9
:100F2000FFF71EFB064604E0FFF71AFB801B0228B2
:100F30003FD828688001F7D4F4E908016FF00F0268
:100F400002EB01110843218A5204490802EB415186
:100F5000A26841EA02210843217D4FF07E42490800
:100F600002EB41610843217B40EAC160E96800E08F
:100F700062E0304A11400843E860286840F0807021
:100F80002860E86840F08070E860FFF7E9FA0446FE
:100F900005E000BFFFF7E4FA001B022809D8286823
:100FA0008001F7D548E004E0FFF7DAFA001B0228D9
:100FB00002D90320BDE8F88328688001F4D43BE01F
:100FC0000128F7D0E868226A00F00301914226D197
:100FD000616A00F0F0020901103991421FD1A26A42
:100FE00000F4FE41B1EB022F19D194F82C2000F04F
:100FF0007841B1EBC26F12D1218E00F4C0024908D2
:101000004905A1F50011914209D194F8341000F07E
:10101000C06049084906A1F1007181420CD001204D
:10102000C8E70000001002401800002000700040D7
:10103000FFFFEEFE0C809F010020BBE710B5401EB5
:10104000B0F1807F01D3012010BD4FF0E02460613A
:101050000F21601701F05FFD0020A06107202061D3
:10106000002010BD7047704770470000F0B590F841
:101070003C20012A4AD0012280F83C20CA688B68B3
:1010800022F440721A434B6822F480621A430B68C0
:1010900022F400621A430B6922F480521A434B690E
:1010A00022F400521A430B6B22F480421A430B8B3A
:1010B00022F4702242EA0342154C03680026154DC3
:1010C000A34201D0AB4203D1CF6922F080523A4310
:1010D000A34201D0AB4214D10F8D22F4700242EA38
:1010E00007520F6A22F080723A434F6A22F0007270
:1010F0003A43A34201D0AB4203D1C96A22F0005265
:101100000A435A6480F83C600020F0BD0220F0BD24
:10111000002C0140003401407047704770470000C8
:10112000F0B590F83C20012A3AD0012580F83C50D7
:10113000022280F83D2003685A689C68194E1A4FB5
:10114000B34201D0BB4204D122F4700C4A6842EA97
:101150000C02DFF858C002EA0C02D1F800C04CEAD9
:10116000020CC3F804C00268B2420DD0B2F1804F45
:101170000AD00F4B9A4207D00E4B9A4204D0BA4283
:1011800002D00D4B9A4204D1896824F080031943A0
:10119000916080F83D50002180F83C100846F0BD79
:1011A0000220F0BD002C0140003401408FFFFFFD04
:1011B00000040040000800400040014010B5044613
:1011C000022249B104290ED0082913D094F847000F
:1011D000012816D0012010BD94F844000128F9D14F
:1011E00084F844200FE094F845000128F2D184F8F7
:1011F000452008E094F846000128EBD184F8462009
:1012000001E084F847200422206801F07CFA20687D
:10121000416C41F4004141641049206888420ED07D
:10122000B0F1804F0BD00E49884208D00D4988425A
:1012300005D00D49884202D00C49884207D1816807
:101240000B4A1140062906D0B1F5803F03D0016852
:1012500041F001010160002010BD0000002C0140A0
:1012600000040040000800400034014000400140FC
:1012700007000100704710B5040003D094F83D004A
:1012800010B107E0012010BD002084F83C0020468A
:1012900000F022F8022084F83D00211D206801F0B2
:1012A000CDF9012084F8480084F83E0084F83F001E
:1012B00084F8400084F8410084F8420084F8430038
:1012C00084F8440084F8450084F8460084F8470018
:1012D00084F83D00002010BD10B586B004461421EE
:1012E0006846FEF79CFF2368002236480221B3F1CE
:1012F000804F25D0344CA34245D1836D43F0020387
:101300008365836D03F002030593C36C43F002030E
:10131000C364C06C00F00200059010208DE8070047
:10132000CDE9032169462948FFF72CF80022032163
:101330001D20FFF77BF91D20FFF76AF906B010BDED
:10134000836D43F001038365836D03F0010305930F
:10135000C36C43F00103C364C06C00F0010005904E
:101360004FF400408DE807000120CDE903206946D5
:101370004FF09040FFF706F8002211461C20FFF7BF
:1013800055F91C20D8E712498B420ED1816D41F0EE
:1013900004018165806D002200F004000590114673
:1013A0001E20FFF743F91E20C6E70A498B42C5D12C
:1013B000016E41F480310166006E00F480300590CA
:1013C000BCE7000000100240000400400004004898
:1013D000000800400040014070B5044690F83C0011
:1013E000012814D0012584F83C50022084F83D00E7
:1013F00022689068344B184020F47F409060086861
:10140000702827D010DC10F00F0F03D04AE04FF007
:10141000020070BD4FEA2012072A43D2DFE802F033
:101420005050505048313900284BC21A984247D08A
:1014300009DCB0F5805F35D0B0F5005F15D0B0F1B4
:10144000101F2FD13CE0102A3AD0202A38D0502A41
:1014500028D135E0CB68D1E90121206801F060F99D
:101460002068816841F0770109E0CB68D1E901216A
:10147000206801F055F92068816841F4804181605D
:1014800010E0CA684968206801F0F4FA5021206829
:1014900006E0CA684968206801F0FDFA602120680A
:1014A00001F048F984F83D50002084F83C0070BDFC
:1014B000CA684968206801F0DDFA40212068EFE73A
:1014C000226801461046EBE788FFCEFF200010009F
:1014D000704770B50446006801694FF00005C943C4
:1014E000890715D4C168C943890711D4E91E016170
:1014F00001202077206880698007204602D0FFF70E
:10150000E7FF04E000F020F9204600F0DFF925773E
:1015100020680169C943490717D4C168C94349070D
:1015200013D46FF0040101610220207720688069E4
:1015300010F4407F204602D0FFF7CAFF04E000F01D
:1015400003F9204600F0C2F9257720680169C943F4
:10155000090716D4C168C943090712D46FF00801FE
:101560000161042020772068C0698007204602D0EE
:10157000FFF7AEFF04E000F0E7F8204600F0A6F920
:10158000257720680169C943C90617D4C168C943D2
:10159000C90613D46FF0100101610820207720687C
:1015A000C06910F4407F204602D0FFF791FF04E0AD
:1015B00000F0CAF8204600F089F925772068016913
:1015C000C943C90708D1C168C943C90704D1891EE5
:1015D0000161204600F0FAF920680169C943090653
:1015E00009D4C168C943090605D46FF080010161BF
:1015F0002046FFF738FD20680169C943C90509D4B1
:10160000C168C943090605D46FF4807101612046A1
:10161000FFF728FD20680169C943490609D4C1685C
:10162000C943490605D46FF040010161204600F02E
:10163000CEF920680169C943890609D4C168C94344
:10164000890605D46FF0200101612046FFF70CFDEB
:1016500020680169C943C90209D4C168C943C902E4
:1016600005D46FF4801101612046FFF756FD206814
:101670000169C943890209D4C168C943890205D4F3
:101680006FF4001101612046FFF746FD20680169F3
:10169000C943490209D4C168C943490205D46FF45A
:1016A000800101612046FFF739FD20680169C943C7
:1016B00009020BD4C168C943090207D46FF40001C1
:1016C00001612046BDE87040FFF7D4BD70BD000049
:1016D00030B587B0044614216846FEF7A0FD2468A3
:1016E000164D0023164902224FF09040AC420FD114
:1016F000CC6C44F00104CC64C96C01F0010105918B
:101700004FF4C0518DE80E000A21CDE9032110E00D
:101710000C4DAC4210D1CC6C44F00104CC64C96CCB
:1017200001F00101059106218DE80E000921CDE9A6
:1017300003316946FEF726FE07B030BD00080040C1
:101740000010024000400140704770B5044690F818
:101750003C000D4601280BD0012084F83C000C2AE7
:1017600045D007DC5AB1042A1BD0082A78D12CE0D6
:10177000022070BD102A4ED0142A71D15DE020687D
:1017800000F0E2FF2068816941F008018161206872
:10179000816921F004018161206881692A6911430E
:1017A00011E0206801F01EF82068816941F40061B1
:1017B00081612068816921F480618161206881698B
:1017C0002A6941EA022181614AE0206801F052F869
:1017D0002068C16941F00801C1612068C16921F038
:1017E0000401C1612068C1692A69114311E02068C0
:1017F00001F088F82068C16941F40061C161206886
:10180000C16921F48061C1612068C1692A6941EA26
:101810000221C16124E0206801F0BCF82068016D5C
:1018200041F0080101652068016D21F004010165A6
:101830002068016D2A69114311E0206801F0E2F887
:101840002068016D41F4006101652068016D21F49B
:10185000806101652068016D2A6941EA0221016504
:10186000002084F83C0070BD10B5040003D094F84B
:101870003D0010B107E0012010BD002084F83C00BD
:10188000204600F022F8022084F83D00211D206847
:1018900000F0D4FE012084F8480084F83E0084F86B
:1018A0003F0084F8400084F8410084F8420084F846
:1018B000430084F8440084F8450084F8460084F826
:1018C000470084F83D00002010BD704770470000BD
:1018D00030B50446022269B1042912D0082917D074
:1018E0000C291CD0102921D094F84300012824D0C1
:1018F000012030BD94F83E000128F9D184F83E2043
:101900001DE094F83F000128F2D184F83F2016E052
:1019100094F840000128EBD184F840200FE094F8BF
:1019200041000128E4D184F8412008E094F8420005
:101930000128DDD184F8422001E084F8432001220F
:10194000206800F0D3FE194B20681949194A9842C3
:1019500009D0884207D0904205D0174DA84202D046
:10196000164DA84203D1456C45F4004545642068F6
:1019700098420CD0B0F1804F09D0114B984206D05C
:10198000104B984203D0884201D0904207D1816821
:101990000D4A1140062906D0B1F5803F03D00168F9
:1019A00041F001010160002030BD0000002C014029
:1019B0000034014000400140004401400048014023
:1019C0000004004000080040070001007047704715
:1019D0007047704770477047704700002DE9F0412D
:1019E00003680446D86919689A6840F60F052842CA
:1019F0004FF0000509D186067ED501F0200602F0E1
:101A000080573E4378D0216FFFE0924E924F1640B0
:101A10000F40374370D0C70709D0CF0507D501273E
:101A20001F62D4F88C3043F00103C4F88C30830774
:101A30000AD5D30708D0276802233B62D4F88C303C
:101A400043F00403C4F88C3043070AD5D30708D009
:101A5000276804233B62D4F88C3043F00203C4F8B7
:101A60008C3003070CD501F02003334308D02668DF
:101A700008233362D4F88C3043F00803C4F88C3068
:101A800003050BD54B0109D526684FF4006333627B
:101A9000D4F88C3043F02003C4F88C30D4F88C3068
:101AA000002B34D0800609D501F0200002F08051CF
:101AB000084303D0216F09B120468847D4F88C0031
:101AC00021688968490602D410F0280F21D02046E9
:101AD00000F0FEFF20688168490615D5816821F075
:101AE00040018160E06F78B15C498163E06FFEF78F
:101AF000FAFB00280BD000E011E0E06F816B00E002
:101B00002046BDE8F04108472046FFF765FFBDE8E5
:101B1000F0812046FFF760FFC4F88C50F7E7E76ECE
:101B20002026012F5CD1C7065AD5CF0658D51020E4
:101B300018622068816849062FD5E26F11684968EC
:101B40000904090CE3D0B4F85C308B42DFD9A4F867
:101B50005E1011680968890618D4016821F4807143
:101B600001602068816821F001018160206881683E
:101B700021F040018160C4F88860E5662068016852
:101B800021F010010160E06FFEF778FBB4F85C0013
:101B9000B4F85E10401A81B21EE0B4F85C10B4F8DC
:101BA0005E20891AB4F85E2089B2002AAFD00029DD
:101BB000ADD0026822F49072026020688268254BE2
:101BC000DB431A408260C4F88860E56625672068B8
:101BD000026822F0100202602046FFF7F9FE96E745
:101BE000C70209D5570207D54FF480101862204666
:101BF000BDE8F041FFF7EFBE07060AD501F0800708
:101C000002F40002174304D0616F00297FF478AF1B
:101C10007DE742060CD54A060AD51968204621F010
:101C200040011960C4F88460656700F019F86EE738
:101C3000020206D54A0004D52046BDE8F041FFF770
:101C4000C9BEC001CBD50029C9DA2046BDE8F041A4
:101C5000FFF7BFBE0100001020010004BB2A0008EE
:101C60007047FEE710B586B014216846FEF7D7FA34
:101C70001248C16C41F00101C164C16C01F0010165
:101C80000591C16C41F00201C164C06C002400F0F8
:101C9000020005900120CDE9000469464FF0904014
:101CA0000294FEF76FFB0720CDE900046946044863
:101CB0000294FEF767FB06B010BD00000010024062
:101CC00000040048114810B50168114CE268891AF7
:101CD000642919D30068E06000F01CF82070E178F6
:101CE00020EA0102414081436270A170E070022944
:101CF00002D1002000F0CEF9A078032804D1BDE87D
:101D00001040FF2000F0C6B910BD000020000020E8
:101D10000000002070B50E4D002401212846FEF77A
:101D200015FC00B9012402212846FEF70FFC00B97A
:101D3000022404212846FEF709FC00B903240121EE
:101D40004FF09040FEF702FC00B90424204670BD1D
:101D50000004004800B585B014216846FEF75FFA1C
:101D60004FF6FF70009000200321CDE902010190A1
:101D700069460248FEF706FB05B000BD00080048B2
:101D800000B585B014216846FEF749FA4FF6FF709A
:101D900000900120019003200390002002906946EA
:101DA0000248FEF7EFFA05B000BD00000008004849
:101DB00070B5002406462146204600F0C7F800F022
:101DC00005F94FF49635304600F0D4F8641CAC4267
:101DD000F9D370BD30B587B014216846FEF71FFAFD
:101DE0001E48C16C41F00401C164C16C01F00401E2
:101DF0000591C16C41F00101C164C16C01F00101A8
:101E00000591C16C41F00201C164C06C012500F074
:101E1000020005904FF44870CDE9000500240394BA
:101E2000694602940E48FEF7ADFA2802039400902A
:101E3000CDE901544FF0904469462046FEF7A2FADE
:101E4000FFF79EFFA06940F48070A061044818303D
:101E5000016841F40871016007B030BD0010024014
:101E60000004004810B5FFF7B5FF002000F026F889
:101E7000084CA080A088A0F50241303906D000F0BF
:101E80000DFA002000F01AF8A08010BD00F07DF9D6
:101E9000F7E700001000002006490A68064883683A
:101EA000D21A642A04D3096881600179491C01713E
:101EB00070470000200000200000002070B51D4980
:101EC0000A6842F400720A600A6842F480720A608A
:101ED000184C103C226842F020022260164A106022
:101EE000086840F02000086000BF00BF00BF206805
:101EF00040F020002060206840F480702060FFF7F0
:101F000029FF4FF09041886A40F48070886200BFDA
:101F100000BF00BF0848001F006885B2886940F410
:101F200080708861FFF72CFF206840F4007020600B
:101F3000284670BD280400481408004801B5BDF8C3
:101F400000000149488008BD1000002010B50C4673
:101F50000146202000F068F82146BDE8104021200D
:101F600000F062B801B5BDF800000149088008BD65
:101F700010000020134A116841F4007111601149EA
:101F800010390B6843F480730B600B6843F0200337
:101F90000B600D4B1860106840F02000106000BF0F
:101FA00000BF00BF086840F020000860086840F4E7
:101FB0008070086000BF00BF00BF086840F4007078
:101FC000086070472804004814080048144908684D
:101FD00040F400700860086840F4807008601048A1
:101FE0001038026842F0200202600E4B22221A6072
:101FF0000A6842F020020A6000BF00BF00BF01680B
:1020000041F020010160016841F48071016000BF6E
:1020100000BF00BF016841F400710160704700001B
:102020002804004814080048184B10B51A6842F4F8
:1020300000721A601A6842F480721A60134A103AE9
:10204000146844F020041460114C2060186840F0BB
:102050002000186000BF00BF00BF106840F02000E3
:102060001060106840F4807010602160186840F0C3
:102070002000186000BF00BF00BF106840F02000C3
:102080001060106840F48070106010BD2804004893
:102090001408004870B5124D044601224FF6FF7136
:1020A0002846FEF758FA0F4E012204213046FEF76B
:1020B00052FA002204213046FEF74DFA2102002296
:1020C0002846FEF748FA012204213046FEF743FA7B
:1020D0003046BDE8704000220421FEF73CBA000003
:1020E00000080048000C0048F0B587B0142168468D
:1020F000FEF795F82048C16C41F00401C164C16C41
:1021000001F004010591C16C41F02001C164C16C72
:1021100001F020010591C16C41F00801C164C06C5F
:10212000164E00F008004FF47F440590012221462E
:102130003046FEF710FA124F012204213846FEF70E
:102140000AFA0125CDE9004500240294694630468B
:102150000394FEF717F904200090CDE90154694675
:1021600038460394FEF70EF9002204213846FEF7A4
:10217000F2F907B0F0BD000000100240000800486E
:10218000000C0048FEE7FEE7704730B50121002053
:10219000FFF74AFF4FF47A70FEF760F80021012044
:1021A000FFF742FF41F290711020FFF73DFF4FF41F
:1021B0001C516020FFF738FF01216120FFF734FF39
:1021C00002214620FFF730FF48F210011320FFF7ED
:1021D0002BFF48F2FE011220FFF726FF4FF4A0610B
:1021E0000220FFF721FF41F230010320FFF71CFF1F
:1021F00040F2033421463020FFF716FF21463120FC
:10220000FFF712FF21463220FFF70EFFE51E294699
:102210003320FFF709FF03213420FFF705FF214694
:102220003520FFF701FF14213620FFF7FDFE214680
:102230003720FFF7F9FE21463820FFF7F5FE21464B
:102240003920FFF7F1FE29463A20FFF7EDFE032182
:102250003B20FFF7E9FE21463C20FFF7E5FE4FF467
:10226000A0513D20FFF7E0FE4FF400719220FFF7F0
:10227000DBFE21469320FFF7D7FE40F60D019020AC
:10228000FFF7D2FE41F218010320FFF7CDFEBDE8B3
:10229000304040F273110720FFF7C6BE10B543F27D
:1022A0000801E320FFF7C0FE1221E720FFF7BCFE84
:1022B00041F23121EF20FFF7B7FE00210120FFF7A7
:1022C000B3FE4FF4E0610220FFF7AEFE41F23001B1
:1022D0000320FFF7A9FE00210420FFF7A5FE40F22E
:1022E00007210820FFF7A0FE00210920FFF79CFE30
:1022F00000210A20FFF798FE00210C20FFF794FE32
:1023000000210D20FFF790FE00210F20FFF78CFE2B
:1023100000211020FFF788FE07211120FFF784FE1F
:1023200000211220FFF780FE00211320FFF77CFE22
:10233000C820FEF715F841F290611020FFF774FEF7
:1023400040F227211120FFF76FFE3220FEF708F838
:102350001D211220FFF768FE3220FEF701F84FF42E
:1023600000611320FFF760FE14212920FFF75CFEB7
:102370000B212B20FFF758FE3220FDF7F1FF002143
:102380002020FFF751FE00212120FFF74DFE0721FD
:102390003020FFF749FE40F207713120FFF744FE7D
:1023A00006213220FFF740FE40F204713520FFF78E
:1023B0003BFE41F604713620FFF736FE042137203C
:1023C000FFF732FE00213820FFF72EFE40F20671A3
:1023D0003920FFF729FE40F201713C20FFF724FE6F
:1023E0000F213D20FFF720FE00215020FFF71CFEAB
:1023F000EF215120FFF718FE00215220FFF714FEB5
:1024000040F23F115320FFF70FFE4FF41C516020A4
:10241000FFF70AFE01216120FFF706FE00216A2076
:10242000FFF702FE00218020FFF7FEFD0021812042
:10243000FFF7FAFD00218220FFF7F6FD002183203F
:10244000FFF7F2FD00218420FFF7EEFD002185203B
:10245000FFF7EAFD10219020FFF7E6FD0021922012
:10246000FFF7E2FD03219320FFF7DEFD4FF48871B3
:102470009520FFF7D9FD00219720FFF7D5FD00211A
:102480009820FFF7D1FD41F218010320FFF7CCFDA2
:10249000BDE8104040F273110720FFF7C5BD70473B
:1024A000FEF764B810B5A4B038216846FDF7B7FE52
:1024B00014211FA8FDF7B3FE44210EA8FDF7AFFEBF
:1024C0004FF40070FEF7E4F8012000900004019042
:1024D00002200324CDE907041421CDE90A100C9051
:1024E0000D9009946846FEF7A3FB08B172B6FEE7AB
:1024F0000F20CDE91F0400242194229402211FA85B
:102500002394FEF76FFA08B172B6FEE70848CDE9EA
:102510000E0440071D904FF440701E900EA8FEF769
:102520001DF9002801D072B6FEE724B010BD0000EE
:10253000018008000248016841F4700101607047A1
:1025400088ED00E010B59CB0002414941594169406
:102550001794189419941C210DA81A94FDF75FFE86
:1025600034216846FDF75BFE2A482949016040F2A4
:102570001F31C0E901146321C0E903148021C0E9BF
:102580000541FEF778FE08B1FDF776FE4FF4805066
:10259000149014A91F48FEF71FFF08B1FDF76CFE49
:1025A0001C48FFF761F908B1FDF766FE189418A9F9
:1025B00018481A94FEF7B4FD08B1FDF75DFE6020DF
:1025C0000D903220CDE90E04109411941294002243
:1025D0000DA910481394FFF7B8F808B1FDF74CFEA9
:1025E0006420CDE9024000944FF40050CDE904404E
:1025F00001940694694607480C94FEF737FD08B12C
:10260000FDF73AFE0348FFF763F81CB010BD000069
:10261000004001409C0100200148FEF75ABF000025
:10262000B80000200148FEF754BF0000040100205C
:102630000148FEF74EBF0000500100202DE9F04395
:102640000268234B234D244E244C4FF0804998427E
:1026500007D0484505D0A84203D0B04201D0A042DF
:1026600003D122F070074A683A431D4FDFF874C067
:10267000DFF8748098420DD048450BD0A84209D0AD
:10268000B04207D0A04205D0B84203D0604501D087
:10269000404503D122F44075CA682A434D6922F0AF
:1026A00080022A4302608A68C2620A688262984293
:1026B00007D0A04205D0B84203D0604501D04045C4
:1026C00001D10969016301214161BDE8F083000086
:1026D000002C01400004004000080040003401408C
:1026E00000400140004401400048014010B501F0A5
:1026F0001F030121046A99408C430462016A9A40D5
:102700001143016210BD10B501F01F030421046ADA
:1027100099408C430462016A9A401143016210BDE2
:1027200010B5846842EA032224F47F440A4322431A
:10273000826010BD8268034B1A400A4342F00701D1
:10274000816070478FFFCFFF2DE9F043026A22F0CE
:1027500001020262056A436882691C4C25F0020589
:1027600022400C6822F0030214438A68194E2A435F
:10277000174D194FDFF864C0DFF86490A84207D006
:10278000B04205D0B84203D0604501D0484506D1DB
:1027900022F00808CA6842EA080222F00402A842AD
:1027A00007D0B04205D0B84203D0604501D04845BB
:1027B00005D14D6923F440731D438B692B4343605E
:1027C0008461496841630262BDE8F0838FFFFEFFC8
:1027D000002C014000340140004001400044014011
:1027E00000480140F0B5026A22F010020262056A58
:1027F00042688369194C1B4E23400C6823F44073D4
:1028000043EA042425F020038D6843EA0513144DA0
:10281000A84201D0B04206D1CF6823F0800343EA3A
:10282000071323F04003A8420AD0B04208D00E4D4F
:10283000A84205D00D4DA84202D00D4DA84207D1A7
:102840004D6922F4406242EA85028D6942EA8502BE
:1028500042608461496881630362F0BDFF8FFFFEBF
:10286000002C014000340140004001400044014080
:1028700000480140F0B5026A22F480720262056AE3
:102880004368C269194C1B4E22400C6822F00302B7
:10289000144325F400728D6842EA0522144DA842C3
:1028A00001D0B04206D1CF6822F4006242EA07228A
:1028B00022F48062A8420AD0B04208D00E4DA8424D
:1028C00005D00E4DA84202D00D4DA84207D14D694A
:1028D00023F4405343EA05138D6943EA051343602B
:1028E000C4614968C1630262F0BD00008FFFFEFF52
:1028F000002C0140003401400040014000440140F0
:1029000000480140F0B5026A22F480520262056A72
:102910004268C369194C1B4E23400C6823F4407372
:1029200043EA042425F400538D6843EA0533144D2B
:10293000A84201D0B04206D1CF6823F4004343EA55
:10294000073323F48043A8420AD0B04208D00E4D8A
:10295000A84205D00D4DA84202D00D4DA84207D186
:102960004D6922F4404242EA85128D6942EA85129D
:102970004260C461496801640362F0BDFF8FFFFEDD
:10298000002C01400034014000400140004401405F
:102990000048014030B5026A22F480320262046AC3
:1029A0004268036D114D2B400D681D4324F4003324
:1029B0000C8943EA04430E4CA0420BD00D4CA042BC
:1029C00008D00D4CA04205D00C4CA04202D00C4CBB
:1029D000A04204D14C6922F4803242EA04224260CF
:1029E000056549688164036230BD00008FFFFEFF0A
:1029F000002C0140003401400040014000440140EF
:102A00000048014030B5026A22F480120262046A72
:102A10004268036D114D24F400142B400D6843EA05
:102A200005230D8944EA05540D4DA8420BD00D4DE8
:102A3000A84208D00C4DA84205D00C4DA84202D0A7
:102A40000B4DA84204D14D6922F4802242EA85222E
:102A5000426003654968C164046230BDFF8FFFFEB8
:102A6000002C01400034014000400140004401407E
:102A70000048014010B5036A046A24F001040462AE
:102A8000846924F0F00444EA021423F00A020A43A1
:102A90008461026210BD10B5036A23F01003036263
:102AA0008369046A23F4704343EA023224F0A003EA
:102AB00043EA01118261016210BD10B5806A0021F4
:102AC000A0F85E10A0F85610FEF786FF10BD0000BB
:102AD00001680A6822F490720A6001688A68094BEA
:102AE0001A408A60C16E012904D101680A6822F087
:102AF00010020A602021C0F888100021C166016719
:102B000070470000FEFFFFEF0148FEF767BF0000BF
:102B100028000020FEE70907090E002804DB00F169
:102B2000E02080F80014704700F00F0000F1E02072
:102B300080F8141D704702E008C8121F08C1002A5F
:102B4000FAD170477047002001E001C1121F002A2E
:102B5000FBD17047FDF712FDFFF7A4FCFFF7C4FAA5
:102B6000FFF780F8FFF77EF9FFF7ECFC0D48FEF762
:102B700082FB00210B48FEF7ABFE00210948FEF75F
:102B80001DFB0020FFF714F90020FFF7D7F94FF6DF
:102B9000FF70FFF7E7F900BFFFF794F8FFF77CF944
:102BA000FAE700009C010020000000000000000087
:102BB0000102030406070809D82B000800000020C2
:102BC00028000000362B0008002C000828000020F8
:102BD000C0050000462B00080000000000000000B7
:102BE00000000000000000000000FFFF00000000E7
:102BF0001000000001000000000000000024F400AC
:04000005080001D915
:00000001FF
